:020000040800F2
:1000000000200320DD2D0008453F0008473F000881
:10001000713F0008733F0008753F000800000000B2
:10002000000000000000000000000000773F000812
:10003000793F000800000000054100087B3F0008F0
:10004000094100080D410008114100081541000850
:10005000194100081D4100088B3F0008214100089C
:1000600025410008294100082D410008CB3F000828
:100070003141000835410008394100083D41000880
:100080004141000845410008494100084D41000830
:10009000514100085541000859410008913F0008AE
:1000A0005D4100086141000865410008A73F000864
:1000B000AD3F0008B33F0008B93F00087F3F00088C
:1000C000853F0008694100086D410008D13F0008E4
:1000D000D73F0008714100087541000879410008C8
:1000E0007D410008814100088541000889410008E0
:1000F0008D41000891410008954100080000000072
:10010000994100089D410008A1410008A54100084F
:10011000A9410008AD410008BF3F0008B1410008F7
:10012000B5410008B9410008BD410008C1410008BF
:10013000C5410008C9410008CD410008D14100086F
:10014000D5410008D9410008DD410008C53F00083D
:10015000E1410008E5410008E9410008DD3F0008F1
:10016000ED410008F1410008F5410008F94100089F
:10017000FD410008014200080000000000000000EE
:1001800005420008094200080D420008114200081B
:10019000154200081D420008000000000000000099
:1001A0000000000000000000194200082142000881
:0C01B00025420008294200082D420008EA
:10020000F201000000010000A1A84A2F505636322A
:10021000342D42415349430000000000AC3F000030
:1003000000000000546F777562796C304B384656A8
:10031000725A634C7A72764A39674C4455717279D5
:1003200036566A39644B34547A354B726745414EC0
:10033000774257417532344F626D34734B36757066
:10034000336271327A6A4D72415256785537595933
:100350006541367A46396459497247416E305A745C
:100360004A47745865554F376644756563586A69DE
:10037000716E4F73716C6F76396C396E7159776528
:1003800063564E64437765656E666E61336A4F7877
:10039000764C5035717271566967734C52636E506A
:1003A000715876324F6169454238477572454750FA
:1003B0006774387947586D6554537842724E6B4371
:1003C0006541335A6E6A32383339577A506575430E
:1003D0005555485439634865585A57597967537584
:1003E000683557354C5170494A71483138356F502E
:1003F0005764516264457031435139614A466D44D6
:100400007633416172724130746C41564C6473733F
:10041000596D58324558355248545A6735563355F8
:100420005938376575665957775231496758437857
:1004300070523736336D376B7836565A467745509B
:1004400070316D3566666D736932786F36397872E2
:100450005679785A314A75564162736955463072F9
:100460006D7659375978536144707A3653655159CE
:100470006A335056414F325171694A6A463476693F
:10048000757678786279556170526367484A394267
:10049000516265726E686D66485373783044587562
:1004A0007A43556870464D466561336356675872A6
:1004B000754554553930675A6C72554545773871D2
:1004C0006A4D4F413977675A5359666A494A4D4CCC
:1004D00078375156465A6242304C4B4C4F716B57ED
:1004E0004543654B67666D3132665A4935684F57EB
:1004F0005550615846693961466867567A47776151
:10050000696E4346484F765852444165526A79595C
:1005100074777762000000000000020800001208F3
:1005200000000208FFFF0F08FFFF1F08FFFF0F0872
:1005300000000E0000001000080202080802120865
:100540001C0202081C0212081C0202080003000020
:1005500000000000B71DC1046E3B8209D926430D7F
:10056000DC7604136B6BC517B24D861A0550471E17
:10057000B8ED08260FF0C922D6D68A2F61CB4B2BB7
:10058000649B0C35D386CD310AA08E3CBDBD4F385F
:1005900070DB114CC7C6D0481EE09345A9FD5241FF
:1005A000ACAD155F1BB0D45BC2969756758B565297
:1005B000C836196A7F2BD86EA60D9B6311105A6737
:1005C00014401D79A35DDC7D7A7B9F70CD665E74DF
:1005D000E0B6239857ABE29C8E8DA191399060953F
:1005E0003CC0278B8BDDE68F52FBA582E5E6648657
:1005F000585B2BBEEF46EABA3660A9B7817D68B377
:10060000842D2FAD3330EEA9EA16ADA45D0B6CA09E
:10061000906D32D42770F3D0FE56B0DD494B71D9BE
:100620004C1B36C7FB06F7C32220B4CE953D75CAD6
:1006300028803AF29F9DFBF646BBB8FBF1A679FFF6
:10064000F4F63EE143EBFFE59ACDBCE82DD07DEC1E
:1006500077708634C06D4730194B043DAE56C539AE
:10066000AB0682271C1B4323C53D002E7220C12AE6
:10067000CF9D8E1278804F16A1A60C1B16BBCD1FE6
:1006800013EB8A01A4F64B057DD00808CACDC90C2E
:1006900007AB9778B0B6567C69901571DE8DD4752E
:1006A000DBDD936B6CC0526FB5E6116202FBD06666
:1006B000BF469F5E085B5E5AD17D1D576660DC5366
:1006C00063309B4DD42D5A490D0B1944BA16D840AE
:1006D00097C6A5AC20DB64A8F9FD27A54EE0E6A1EE
:1006E0004BB0A1BFFCAD60BB258B23B69296E2B2A6
:1006F0002F2BAD8A98366C8E41102F83F60DEE8726
:10070000F35DA9994440689D9D662B902A7BEA94ED
:10071000E71DB4E0500075E4892636E93E3BF7ED6D
:100720003B6BB0F38C7671F7555032FAE24DF3FE25
:100730005FF0BCC6E8ED7DC231CB3ECF86D6FFCBA5
:100740008386B8D5349B79D1EDBD3ADC5AA0FBD86D
:10075000EEE00C6959FDCD6D80DB8E6037C64F64CD
:100760003296087A858BC97E5CAD8A73EBB04B7785
:10077000560D044FE110C54B383686468F2B474245
:100780008A7B005C3D66C158E4408255535D43510D
:100790009E3B1D252926DC21F0009F2C471D5E284D
:1007A000424D1936F550D8322C769B3F9B6B5A3B05
:1007B00026D6150391CBD40748ED970AFFF0560EC5
:1007C000FAA011104DBDD014949B93192386521D8D
:1007D0000E562FF1B94BEEF5606DADF8D7706CFC8D
:1007E000D2202BE2653DEAE6BC1BA9EB0B0668EFC5
:1007F000B6BB27D701A6E6D3D880A5DE6F9D64DA05
:100800006ACD23C4DDD0E2C004F6A1CDB3EB60C94C
:100810007E8D3EBDC990FFB910B6BCB4A7AB7DB00C
:10082000A2FB3AAE15E6FBAACCC0B8A77BDD79A344
:10083000C660369B717DF79FA85BB4921F46759684
:100840001A163288AD0BF38C742DB081C3307185CC
:1008500099908A5D2E8D4B59F7AB085440B6C9501C
:1008600045E68E4EF2FB4F4A2BDD0C479CC0CD4334
:10087000217D827B9660437F4F460072F85BC17694
:10088000FD0B86684A16476C93300461242DC565BC
:10089000E94B9B115E565A1587701918306DD81C9C
:1008A000353D9F0282205E065B061D0BEC1BDC0FB4
:1008B00051A69337E6BB52333F9D113E8880D03A14
:1008C0008DD097243ACD5620E3EB152D54F6D4293C
:1008D0007926A9C5CE3B68C1171D2BCCA000EAC85C
:1008E000A550ADD6124D6CD2CB6B2FDF7C76EEDBF4
:1008F000C1CBA1E376D660E7AFF023EA18EDE2EED4
:100900001DBDA5F0AAA064F4738627F9C49BE6FD7B
:1009100009FDB889BEE0798D67C63A80D0DBFB84DB
:10092000D58BBC9A62967D9EBBB03E930CADFF9773
:10093000B110B0AF060D71ABDF2B32A66836F3A253
:100940006D66B4BCDA7B75B8035D36B5B440F7B1FB
:10095000A0860100400D0300801A060000350C003F
:1009600040420F0080841E0000093D0000127A0002
:100970000024F40000366E010048E801006CDC023F
:100980003F2C1BFA4F3F1EFD00000000F8B500226F
:10099000ADF800204FF404760A4B10E0354692FB88
:1009A000F5F506FB15255F5D7C4005E0845CB2F53E
:1009B000047FF3DA9D5C6C408454521C92B28A42EC
:1009C000F4D3F1BD0403000830B5012585B0044619
:1009D000012C4FF0FF301CBF022C032C009025D1BE
:1009E000012918BF002921D1E0222023049203937A
:1009F0000191029400F0D4F84348816841F07041BD
:100A000081604CF2FA320260694601A800F034F9C4
:100A100000B9002500F0D4F8009810F1010F18BFBC
:100A2000012503D1204600F03FFA0543284605B0D2
:100A300030BD00002DE9F84F34A484B09046D4E9CD
:100A4000005701AAC2E900570027B8F1000FBA46C3
:100A500055D001281CBF0228032850D19B46009185
:100A60005A4600F0E5F906004AD15FEADB000BF0D8
:100A70000701DDF80090244C03914CF2FA351FD1A8
:100A80000398B0B1024608EB0A0101A800F0A6FAEB
:100A900000F086F8A06840F07040A0602560DDE9B5
:100AA00001234946002000F035F800B1012600F08E
:100AB00087F800995A46404600F065FA06431FE061
:100AC000824600F06DF8A06840F07040A06008EB2E
:100AD000C7012560D1E900234946002000F01AF83B
:100AE00008B146F0010600F06BF87F1C574509F18C
:100AF0000809E6D3002E4FEAC70ADAD1C0E701267B
:100B0000304605B0BDE8F08F10200240FFFFFFFF28
:100B1000FFFFFFFF2DE9F84F4F4F054638780026BD
:100B200001288A469046994608BF022036D0012007
:100B300038704CF2503000F04BF8834658BB474CAD
:100B400078602168480506D5216821F4806121601C
:100B50000220387700E03E77504642464B461DB9AA
:100B600000F05BF801260AE0012D18BF022D06D126
:100B7000114600F05EF8022D08BF4FF480264CF2BB
:100B8000503000F025F883461EB1606920EA060661
:100B9000666100F01BF9002038705846BDE8F28FFE
:100BA0003149CA680020002A00D4704710B52F4A86
:100BB0002F4C0A600C60C968002948BF012010BD95
:100BC0002C48016841F00041FFE7016000207047B8
:100BD00070B5054600F00EFA0646214C2068C103A8
:100BE00009D515F1010FF9D000F004FA801BA842D5
:100BF000F4D3032070BD20681A49084006D0164976
:100C00004A6802434A602060012070BD2068C10725
:100C100044BF01202060002070BD10B515490C684C
:100C200044F001040C6040F8042BBFF36F8F0360A5
:100C300010BD10B50F4A136843F480231360EFF31F
:100C4000108372B6802251F8044B40F8044B521EB8
:100C5000F9D183F3108810BD1080032000200240DA
:100C600010200240FAC30200082002402301674519
:100C7000AB89EFCD142002402DE9F04700F064F875
:100C8000894608BF02205AD0012020704CF250380B
:100C900000F057F85FEA000A4ED10020DFF87C61CF
:100CA00060603168880531680DD521F400713160CC
:100CB0003068410505D5306820F48060306003213C
:100CC0000BE0012006E0480506D5316821F480617B
:100CD00031600220207701E0002121772868012877
:100CE0000BD1686800F035F800F02BF88246716986
:100CF000DFF82C01014071611CE04FF0FF31C9F8B1
:100D00000010AF6800E07F1CA868E96808188742F7
:100D100010D26968384600F038F800F012F88246C0
:100D20007069DFF8001108405FEA0A027061EAD0DA
:100D3000C9F8007000F04AF8002020705046BDE865
:100D4000F0874046FFF744BF374C0546207801281E
:100D500070473649CA6853020CD5C20703D50B68E1
:100D600043F004030B6080070AD50A6842F400428E
:100D70000A6005E0086840F4004040F004000860A4
:100D80000A6842F480320A60704710B5274AD36877
:100D90005C0203D4116821F4006109E0C90704D59D
:100DA000136823F40063136003E0116841F40061E9
:100DB0001160116860F3CA011160106840F0020010
:100DC0001060116841F48031116010BD10B51648F3
:100DD000124A017F012918BF03290BD1136843F47C
:100DE00000631360146824F400641460136843F40F
:100DF00000731360022918BF03290BD1116841F455
:100E000080511160136823F480531360116841F41A
:100E1000806111600022027710BD000000200240B6
:100E2000FB7FFFFF05F8FFFF108003201420024026
:100E3000F8B501280C46154617D15C485C49066890
:100E4000604B0F681A680121284600F01AF8B44276
:100E500022BF2D196D1EAF4204D3002808BF14F025
:100E6000070F01D040F00100F2BD022802D1514825
:100E70005149E4E7032802D150485149DFE70120F6
:100E8000F2BD034601208B4224BF9A4200207047E6
:100E900038B50C461146012520B100F0B1F8A0424A
:100EA00008BF0025284632BD30B501460020012983
:100EB00008BF3E4906D0022908BF3E4902D0032997
:100EC0000BD13E493F4B09681C68002200E0521CD0
:100ED000A24203D28D5CFF2DF9D0012030BD38B580
:100EE000394B002400221B6801280D4602D12F48EF
:100EF000364A08E0022802D12E48354A03E003288A
:100F000006D12E48334A0168194413681A6800E074
:100F100001242C4803685B1E934205D32CB92E484C
:100F200000F0DAF8A84200D00124204632BDF8B51E
:100F30001546254E002400223668012904D11B499C
:100F40000A689319214E0CE0022904D119490A6854
:100F500093191F4E05E0032906D118490A68931911
:100F60001C4E37683A6800E0012416490E68761E68
:100F7000964205D32CB9194600F0AEF8A84200D02D
:100F800001242046F2BD70B503460020002B18BF97
:100F9000002908D0002400E0641C944204D21D5DA6
:100FA0000E5DB542F8D0012070BD000018050008A4
:100FB000240500081C050008280500082005000875
:100FC0002C050008300500084C0500084005000805
:100FD000440500084805000804A703204AB10000A2
:100FE00011F8013B521E00F8013B1CBF11F8013BF8
:100FF000F8E7704701484068704700BF048003204D
:1010000070B5024600200023064C07E0D55C85EA57
:10101000106554F8256086EA00205B1C8B42F5D3EE
:1010200070BD00BF5005000810B5040020D0607FDF
:1010300020B900212177204600F0F1F802216177E4
:10104000207970B92068164941612068816821F0D3
:1010500018018160607968B920684FF0FF31016143
:101060000BE0E268A168204600F090F90028F1D07A
:10107000012010BD21682069086121688A686069C3
:1010800022F0600202438A6021688A68A06922F027
:10109000800202438A6001216177002010BD0000B8
:1010A000B71DC10410B5040001D1012010BD607F3F
:1010B000022810D00220607700222068816841F069
:1010C00001018160206841684260204600F0BAF862
:1010D00000206077207710BD38B502230446002039
:1010E000637723689D6845F001059D60236A012BA5
:1010F00010D012D3032B08D03CBF204600F044F898
:101100000BE051F820501D60401C23689042F8D33A
:10111000186802E0204600F003F80121617732BD33
:1011200070B500230CE066782578360446EA05663B
:10113000A578E47846EA0526056826432E605B1C00
:10114000B3EB920F01EB8304EDD312F0030218D03E
:10115000012A03D102682178117012E0022A06D117
:101160002178627842EA012201680A8009E0032AB4
:1011700007D101682278637843EA02230B80A278C2
:101180000A700068006870BDF0B5002308E001EB4C
:10119000830631F82350778847EA054727605B1CB0
:1011A0000468B3EB520FF2D3D00744BF31F82310D9
:1011B00021802068F0BD30B4002513E050F8042BE6
:1011C000D30744BFA9F101039A18091F042942F863
:1011D000045BFAD213468C0744BF15809B1CC907D9
:1011E00048BF1D7050F8041B0029E7D130BC704780
:1011F000DFF8600181B0816841F0010181608168A0
:1012000001F0010100910099026842F080520260F1
:10121000006800F080500090009801B0704781B0E5
:101220000068DFF8381188420AD1DFF8340102681B
:1012300042F480520260006800F4805000900098F0
:1012400001B070470068DFF81411884205D1DFF85B
:101250001001026822F4805202607047DFF8040136
:1012600000F08FB980B50068DFF80421DFF8E410E2
:10127000904205D1886820F4006088601B2029E036
:10128000B0F1804F05D108684008400008601C207C
:1012900020E0DFF8E02090420AD1086820F0020048
:1012A00008600821DFF8C40000F06BF91D2011E090
:1012B000DFF8C420904211D1086820F004000860D3
:1012C0004FF44041DFF8A00000F05BF98021FFF708
:1012D000C5FF1E20BDE8024000F03BBA01BD80B54D
:1012E0000168264B1C481B4A994206D1116821F41B
:1012F000002111604FF4406116E0214B99420AD160
:10130000116821F4801111604FF4805100F039F917
:101310000421154808E01B48814209D19168114811
:1013200021F480419160C021BDE8044000F029B95A
:10133000154881420DD1116821F4003111604FF040
:1013400090400C2100F01DF9BDE80240262000F07D
:1013500000BA01BD581002400008004800300240A9
:101360004810024000040048000C004800100048EB
:10137000002C01400004004000080040004C0040E8
:10138000005000400038014000440040F0B50446E1
:1013900000201F252B465D1E2BB105F01F0321FAEF
:1013A00003F6F707F6D5130007D0082A10D0102A45
:1013B0000BD0182A0ED1072D0CD2236859619968D9
:1013C00021F018010A439A60F0BD082DF5D301E021
:1013D000102DF2D30120F0BD2DE9F84F0027B04ABF
:1013E000B04B4FF00F0805460E4634E0AE4CA54218
:1013F00014BF082407248C40AC4944EA0E0441F889
:101400002C40C143146801EA040C7468E40348BF2B
:1014100040EA0C0CC2F800C0546801EA040C74687D
:10142000A40348BF40EA0C0CC2F804C0946801EA67
:10143000040C7468E40248BF40EA0C0CC2F808C00F
:10144000D46801EA040C7168890248BF40EA0C0CB8
:10145000C2F80CC07F1C316831FA07F000F08F80B1
:101460000124BC4014EA0100F4D04FEA470C0321E8
:1014700001FA0CF16FEA010E7168012918BF022907
:1014800003D0112918BF122912D1A968D6F80C90DF
:101490000EEA010109FA0CF949EA0101A96069683B
:1014A00021EA04047168C1F30011B9400C436C6077
:1014B000E968B4680EEA010104FA0CF42143E9601A
:1014C000B9007468022C18BF122C12D1FC0805EB6D
:1014D000840401F01C09D4F820A008FA09FB2AEAC8
:1014E0000B0AD6F810B00BFA09F949EA0A09C4F850
:1014F00020902C680EEA040E347904F0030404FAF8
:101500000CF444EA0E042C607468E400A2D51C6854
:1015100044F001041C604FEA970C1C6804F00104BD
:10152000009401F00C01009C604C54F82C4008FA27
:1015300001FE24EA0E0EB5F1904F08BF00241DD025
:101540005B4CA54208BF012418D05A4CA54208BFE5
:10155000022413D0584CA54208BF03240ED0574C88
:10156000A54208BF042409D0554CA54208BF052454
:1015700004D0544CA5427FF439AF06243BE7BDE8C4
:10158000F18F2DE9F04F8A464FF0000B4449474B4D
:101590000F2204463CE0444EB44214BF08260726FE
:1015A00006FA0EF6B54212D10D68C04305400D6033
:1015B0004D6805404D608D6805408D60CD682840C0
:1015C000C86053F8280020EA090043F828000325E2
:1015D0004FEA4B0005FA00F025680543256007F047
:1015E0001C074FEADB0504EB850502FA07F72E6AB4
:1015F00026EA07072F62C043A7680740A76065680F
:1016000025EA0C056560E7683840E0600BF1010BE6
:101610003AFA0BF034D0012000FA0BFC1CEA0A0065
:10162000F4D04FEA9B084FEA8B0753F8285007F095
:101630000C0E02FA0EF9B4F1904F09EA050508BF45
:101640000026ADD01A4EB44208BF0126A8D0194ECC
:10165000B44208BF0226A3D0174EB44208BF0326E7
:101660009ED0164EB44208BF042699D0144EB44200
:1016700008BF052694D0134EB4428CD106268FE7BE
:10168000BDE8F08F0AB181617047816270470E4AF0
:10169000136803421CBF106000F0BCB87047000024
:1016A0000004014060100240001C00480800014096
:1016B0000004004800080048000C004800100048E2
:1016C00000140048001800481404014009010200F9
:1016D00002D4384881547047374B02F00F021A4445
:1016E00002F8041C7047354B19684FF6FF020002E0
:1016F000114000F4E0600843314908431860704726
:1017000070B52E4B1C68C4F302230124C3F10705F6
:10171000052D2EBF0F2504FA05F56D1E1E1D072E83
:1017200034BF0023DB1E2940994004FA03F3BDE8CF
:1017300070405B1E1A401143C8E70000010007D447
:10174000012200F01F011F4B8A40400943F820206E
:10175000704701000BD4012200F01F011A4B8A4090
:10176000400943F82020BFF34F8FBFF36F8F7047BE
:10177000BFF34F8F114915480A6802F4E062024333
:101780000A60BFF34F8F00BFFDE710B5401EB0F1F8
:10179000807F01D3012010BD0D4C60600F214FF000
:1017A000FF30FFF793FF0021A16007202060002099
:1017B00010BD000000E400E018ED00E00CED00E0DA
:1017C0000000FA0500E100E080E100E00400FA0515
:1017D00010E000E02DE9F041114F3868C0B100F091
:1017E00025F80226DFF83C800F4D2C46012204210B
:1017F0004046FFF747FF641EF8D10022042140460F
:10180000FFF740FF6D1EF8D1761EEDD10020386045
:10181000BDE8F081C00502D5014A01211160704781
:1018200028A703200010004840420F0080B512494D
:101830000A6811680120FFF752FBD8B972B60F4849
:10184000016841F4000101600D4800F021F80D48E5
:1018500000F03AF80C48FFF725FC00F013F900F00F
:1018600055FDFFF7ADF909480068D0F800D062B621
:1018700040688047012002BD3805000894100240EE
:1018800034A30320B8A6032004A7032018050008EA
:1018900038B508B9012032BD00F17C042421616013
:1018A00001680A68520852000A6000210368196042
:1018B0000568696002689160FFF711FD0020E06033
:1018C0006060A060207032BD10B500F019F802BF52
:1018D000096A40F24442114200F01CF8FFF7C2FCD2
:1018E000FFE700202073A070E07020716071A0718C
:1018F000E07120726072A072E0726070207010BDA2
:1019000000F13C040221617041F2111301680A6A7E
:101910001A42704704D101680A68520852000A60EE
:10192000704710B50446206801698A0715D5C1685B
:101930008A0712D56FF002010161012222778069C6
:1019400010F0030F204602D000F0E8FC03E000F0A6
:10195000E6FC00F094F800202077206801694A072F
:1019600015D5C1684A0712D56FF004010161022242
:101970002277806910F4407F204602D000F0CEFC30
:1019800003E000F0CCFC00F07AF80020207720681B
:1019900001690A0715D5C1680A0712D56FF0080159
:1019A000016104222277C06910F0030F204602D0A3
:1019B00000F0B4FC03E000F0B2FC00F060F800209E
:1019C000207720680169CA0615D5C168CA0612D5F4
:1019D0006FF01001016108222277C06910F4407F86
:1019E000204602D000F09AFC03E000F098FC00F0E2
:1019F00046F80020207720680169CA0708D5C16829
:101A0000CA0705D56FF001010161204600F088FC8E
:101A1000206801690A0608D5C1680A0605D56FF075
:101A200080010161204600F07CFC20680169CA0544
:101A300008D5C1680A0605D56FF48071016120469A
:101A400000F070FC206801694A0608D5C1684A06A2
:101A500005D56FF040010161204600F064FC20686C
:101A600001698A060AD5C1688A0607D56FF0200188
:101A700001612046BDE8104000F056BC10BD204674
:101A800000F053BC38B5DFF84048206840F0010052
:101A90002060FFF7AFFA05462068810706D4FFF7FC
:101AA000A9FA401B0328F7D3032032BD2068DFF8D2
:101AB0001C2820F0F00040F0600020600021A160B0
:101AC000DFF80C08DFF80C181060086800F02EFC36
:101AD00008B1012032BDFFF78DFA0546A06810F06D
:101AE0000C0F07D0FFF786FA401B41F2893188427C
:101AF000F4D3D9E72068DFF8E02710402060FFF733
:101B000079FA0546206810F0285F05D0FFF772FAD1
:101B1000401B0328F6D3C7E70020E060E16841F4EA
:101B20008051E1602061216941F48051216160614F
:101B3000616941F4805161610021206820F48020B6
:101B40002060A1614FF0FF302062DFF8900701684C
:101B500041F400010160002032BD2DE9FC47050081
:101B600065D0DFF86477DFF87867BC68F86800F064
:101B700003082878C10604F00C0448D524B10C2CC5
:101B800008BFB8F1010F2CD13868810702D5A869C8
:101B900000284CD0396808074EBF396871680909B8
:101BA000286A01F0F001814206D200F055FB0028BE
:101BB0003DD100F016FA07E000F013FA24B9286AC4
:101BC00000F04AFB002832D100F0FAFABA6800F0BF
:101BD000EDFADFF80007006800F0A8FB010016D05E
:101BE000F9E1A86928B3396841F001013960FFF7CC
:101BF00001FA81463868810707D4FFF7FBF9A0EBAB
:101C000009000328F6D30320E5E100F0EAF928787B
:101C1000C10756D5082C04D00C2C08BFB8F1030F0F
:101C200018D1386881034CD56868002849D1012053
:101C3000D1E13868400840003860FFF7DBF98146A1
:101C400038688107E3D5FFF7D5F9A0EB0900032831
:101C5000F6D3D8E76868B0F5803F04D1386840F41F
:101C60008030386011E0B0F5A02F386806D140F41C
:101C700080203860396841F4803105E020F48030FC
:101C80003860396821F480213960686860B1FFF7F5
:101C9000B1F981463868810313D4FFF7ABF9A0EBA3
:101CA00009006528F6D3AEE7FFF7A4F98146386846
:101CB000810306D5FFF79EF9A0EB09006528F6D34E
:101CC000A1E72878810713D5042C04D00C2C08BF79
:101CD000B8F1020F22D13868410502D5E868002822
:101CE000A5D07868296920F0FE4040EA016078605C
:101CF0002878010743D568690028706830D040F023
:101D000001007060FFF776F980467068810736D46D
:101D1000FFF770F900F061F9F7D374E7E86878B17C
:101D2000396841F480713960FFF764F9804638689A
:101D30004105D6D4FFF75EF900F04FF9F7D362E71B
:101D4000386820F480703860FFF754F980463868AE
:101D50004105CDD5FFF74EF900F03FF9F7D352E733
:101D6000400840007060FFF745F9804670688107C1
:101D700005D5FFF73FF900F030F9F7D343E72878AE
:101D8000410767D5B86DC1004FF000080AD4B86D9F
:101D900040F08050B8654FF00108B86D00F08050F9
:101DA00000900098DFF83C95D9F80000C10513D4E5
:101DB000D9F8000040F48070C9F80000FFF71AF964
:101DC0008246D9F80000C10506D4FFF713F9A0EB4D
:101DD0000A000328F5D316E7A868012804D1306863
:101DE00040F00100306010E00528306806D140F076
:101DF00004003060316841F0010105E04008400016
:101E00003060316821F004013160A86841F28939FD
:101E100060B1FFF7EFF882463068810713D4FFF70F
:101E2000E9F8A0EB0A004845F6D3ECE6FFF7E2F844
:101E300082463068810706D5FFF7DCF8A0EB0A0080
:101E40004845F6D3DFE6B8F1000F03D0B86D20F0B7
:101E50008050B8652878810621D5686A0028B06866
:101E60000ED040F00100B060FFF7C4F88046B068C3
:101E7000810714D4FFF7BEF800F0AFF8F7D3C2E63D
:101E800040084000B060FFF7B5F88046B0688107B1
:101E900005D5FFF7AFF800F0A0F8F7D3B3E6A86ACE
:101EA000002800F09780022874D1F868EA6A00F0F0
:101EB0000301914201BF00F0F0012A6B521EB1EB09
:101EC000021F1BD16A6B00F4FE41B1EB022F02BF6F
:101ED00000F07841AA6BB1EBC26F0FD1EA6B5208E8
:101EE00000F4C001521EB1EB425F07D1296C4908D2
:101EF00000F0C060491EB0EB416F47D00C2C4AD0B7
:101F00003868410101D43868C1003FF590AE3868A7
:101F100020F080703860FFF76DF804463868810162
:101F200005D5FFF767F8001B0328F7D36BE6F868C1
:101F3000DFF8B413EA6A0840296B1043491E40EAEF
:101F40000110EA6B696B520840EA0120296C521EAD
:101F5000490840EA4250491E40EA4160A96B40EA04
:101F6000C160F860386840F080703860F96841F00E
:101F70008071F960FFF73EF804463868810129D482
:101F8000FFF738F8001B0328F7D33CE638688101D7
:101F900020D4E7E70C2C3FF44AAE386820F080707C
:101FA0003860396811F0205F03D1F868800880003C
:101FB000F860F968DFF834030140F960FFF71AF8B8
:101FC00004463868810105D5FFF714F8001B032883
:101FD000F7D318E60020BDE8F687A0EB0800032839
:101FE0007047386840F0080038603968286A21F086
:101FF000F001014339607968E86921F47F4141EAE1
:102000000021796070472DE9F84304460027002C31
:1020100088465FD0DFF8D862306800F00F00404596
:1020200002D200F0B9F855D12078DFF89C52C107F0
:1020300078D56068DFF8BC92032841D12868810117
:1020400048D5E868002100F0030001280FD1286876
:10205000010705D4DFF884020168C1F3032002E020
:102060002868C0F30310DFF8901251F82010E868D8
:1020700000F00300022804D0032804D1DFF87C120A
:1020800001E0DFF87C12EA68E868EB68C0F306203C
:102090004143C2F30310401CB1FBF0F0C3F34161B4
:1020A000491C4900B0FBF1F0484521D3A96811F063
:1020B000F00F16D0207881071AD5A068C0B910E0BB
:1020C000022802D12868810303E00028286802D191
:1020D000810702D43EE041053CD500F071F8484547
:1020E00006D3A86820F0F00040F08000A8608027A8
:1020F000A9686068890840EA8101A960FEF77AFF53
:102100008146A868616800F00C00B0EB810F09D02F
:10211000FEF770FFA0EB090041F289318842F0D34D
:10212000032037E02078810706D5AA68A06822F04E
:10213000F0020243AA6005E0802F03D1A86820F0D6
:10214000F000A860306800F00F00804504D200F075
:1021500023F801D001201DE02078410705D5AA68A9
:10216000E06822F4E0620243AA602178080706D5FD
:10217000A968206921F4605141EAC001A96000F01A
:102180001FF8AA6800F012F8BDE8F2435148006851
:1021900000F0CCB8BDE8F2833168090948EA0111C2
:1021A0003160306800F00F00404570475549C2F378
:1021B0000312895C454A01F01F01C8401060704756
:1021C00070B5414A4D4B9068D6680025002110F04B
:1021D0000C0006F003064A4C03D00C2812D1012E45
:1021E0001AD115682E0704D43C4D2E68C6F303257A
:1021F00002E01568C5F303153F4E56F8255048B95F
:10220000294624E0042808BF214620D008281ED1F2
:1022100019461CE00C281AD1D06800F003000228EF
:1022200003D0032808BF1D4600E02546D168D068CA
:10223000D268C0F306204543C1F30310C2F34161E5
:10224000401C491CB5FBF0F04900B0FBF1F1084619
:1022500070BD1E48006870477CB52B4E054630683F
:102260000024C10002D500F083F80EE0306840F091
:1022700080503060316801F080510091009800F08A
:1022800077F8316821F080513160B0F5007F04D1DA
:10229000802D09D9A12D06D301E0802D01D3022480
:1022A00002E0702D00D1012411480168090944EAB7
:1022B00001110160006800F00F00A04201D0012070
:1022C00076BD002076BD0000001002403080032063
:1022D00000093D000C800320FFF4FEEA9410024048
:1022E00090100240007000400C809D01FFFFEEFE48
:1022F0000020024001B4C4045009000800127A0012
:102300000024F400604000085810024002480168B0
:1023100021F002010160704710E000E07047704753
:1023200070477047704770477047704770B50E4EE2
:10233000044630780025A0B14FF47A710B4AB1FB06
:10234000F0F11068B0FBF1F0FFF71FFA48B9102C5C
:1023500007D2002221464FF0FF30FFF7D1F9B460D9
:1023600000E00125284670BD048003203080032052
:10237000DFF8C400016801F4C061B1F5806F02D1DB
:102380004FF480607047DFF8B4000168CA0502D5D9
:102390004FF4007070470020704710B53222DFF80C
:1023A000A030DFF89840DFF8901048B900F01EF830
:1023B00020F48070206017D100F01FF80CD413E0D7
:1023C000B0F5007F0AD100F011F840F48070206071
:1023D0000AD100F012F807D5032010BD0A6822F4D4
:1023E000C06242F480620A60002010BD086800F4F8
:1023F000C060B0F5806F206870470C6824F4C0643A
:1024000044F400740C601868DFF838304243B2FBC3
:10241000F3F0401C00E0401E4A69530501D5002836
:10242000F9D1486941057047DFF81C00016841F4A3
:102430000071016070470000007000408070004033
:102440003080032040420F000470004010B5094C5A
:102450002068012802D0022806D010BDFFF7E6F957
:1024600030B10220206010BDBDE81040FFF7B2B9C6
:1024700010BD00BF008003202DE9F84F86B000F0AA
:1024800091F900F089F9B748B74C0168DFF8DC92A0
:10249000DFF8DCB2DFF8DC82DFF8DCA241F010010B
:1024A000016040F63E47026802F01002059248F2D1
:1024B00002360599026842F0040202604CF220558F
:1024C000036803F0040300F0CCF842F0200202603D
:1024D000036803F0200300F0C4F842F00102026038
:1024E000036803F0010300F0BCF842F0020202604E
:1024F000036803F0020300F0B4F842F04002026007
:10250000036803F0400300F0ACF842F008020260F8
:10251000006800F0080005900598FFF785FF00228D
:102520004FF40D719548FFF7ADF80022394620466B
:10253000FFF7A8F8002221214846FFF7A3F8002260
:1025400090214FF09040FFF79DF800223146584609
:10255000FFF798F8002240F202414046FFF792F858
:10256000002229465046FFF78DF84FF40D7100F018
:1025700089F88248FEF730FF009700F06CF8694652
:102580002046FEF729FF4FF4604000F06EF8204629
:102590006946FEF721FF21210091012200210192CD
:1025A0000291039169464846FEF716FF902100F01C
:1025B00069F84FF09040FEF70FFF00F04CF80096DE
:1025C00069465846FEF708FF41F27F0000F04DF8DB
:1025D00040466946FEF700FF4FF4806100F052F874
:1025E0004046FEF7F9FE009500F035F86946504682
:1025F000FEF7F2FE4FF4206000F037F850466946CF
:10260000FEF7EAFE4FF440705D4900F033F8012018
:102610005C4900F02FF8002206210620FFF770F831
:102620000620FFF78BF800220A211720FFF768F831
:102630001720FFF783F800F02DF853485349016045
:10264000002201218280426182610162FEF7ECFC7E
:10265000FFF7FCFEFCE701200190002202920392AA
:102660007047059305990268704700210090019119
:102670000291704700900191002202926946204623
:10268000FEF7AABE0091012200210291039101925E
:102690006946704700B5BBB0442200212AA800F06B
:1026A00090F800F079F89422002105A800F089F84C
:1026B0004FF40070FFF771FE00F08EF834480168A7
:1026C00021F0180100220160319201212C912F91FB
:1026D00030911C20602132912A9001213591369150
:1026E0000222182134923791389239923A922AA8CC
:1026F000FFF733FA0F20032100900191FFF7ADFFA0
:10270000049202216846FFF77EFC4FF0805225922A
:1027100000214FF4007214911591179118911A919C
:102720001B911C911D9129924FF4802101221E9131
:102730000692079200211822289108924FF000611A
:10274000042222910A920221124805904FF08072D1
:1027500009910B910C9205A800F046F800F016FACA
:102760003BB000BD4C100240001400480008004877
:102770000004004800180048000C00480010004801
:10278000000031100000111004A7032000300240A7
:1027900090100240DB63120114220021684600F011
:1027A00010B80000032010B5FEF79DFF0120FFF7D1
:1027B000BDFD0024002814BF0124FEF719FD2046AA
:1027C00010BD10B5044610460A460146204600F0EA
:1027D000D1FA204610BD00000248016841F4807122
:1027E00001607047007000402DE9F84F0646002553
:1027F0003068DFF89073DFF890430105A84620D5D4
:10280000F06E68B1202817D0402804D0602818BF87
:10281000802809D013E0226842F48032226004E06C
:10282000002100F0ABF9054655B9F968F06E21F0CA
:10283000E0010143F96004E000F09AF9F3E70125B3
:10284000A8463068C10424D5306FC0B1B0F5807F90
:102850001AD0B0F5007F06D0B0F5407F18BFB0F5B4
:10286000806F04D013E0216841F4803121607DB98C
:10287000F968306F21F4E0610143F96009E000215B
:1028800000F07CF90546F2E700F072F9FAE701255D
:10289000A8463068810306F184092DD5E06CC1009B
:1028A0004FF0000A0AD4E06C40F08050E0644FF032
:1028B000010AE06C00F0805000900098DFF8DC1214
:1028C000086840F480700860FEF794FB8346DFF8E8
:1028D000CC020168CA0500F18B80FEF78BFBA0EBF0
:1028E0000B000328F3D30325A846BAF1000F03D049
:1028F000E06C20F08050E0643078C10705D5E26FCD
:10290000F06B920840EA8202E2673178880705D5C9
:10291000E16F306C21F00C010143E1673178480729
:1029200005D5E16F706C21F030010143E16731782A
:10293000080705D5E16FB06C21F0C0010143E167E4
:102940003178C80605D5E16FF06C21F44071014380
:10295000E1673178880605D5E16F306D21F440617B
:102960000143E1673168880505D5E16F706E21F498
:1029700040210143E1673168480505D5E16FB06E3C
:1029800021F440110143E1673178480605D5E16F34
:10299000706D21F440510143E1673178080605D597
:1029A000E16FB06D21F440410143E1673168C80532
:1029B00005D5E16FF06D21F440310143E1673168E5
:1029C000C80205D5F968306E890840EA8101F960CE
:1029D0003168880445D5E16F706F21F04061014393
:1029E000E167706FB0F1006F33D100F0BCF838E0F0
:1029F000002D7FF479AF386810F440701CBFD9F80F
:102A00000C1088420BD03868396841F48031396045
:102A100020F440703A6822F480323A603860C0078F
:102A20000FD5FEF7E7FA05463868810709D4FEF7A7
:102A3000E1FA401B41F289318842F5D34FF0030897
:102A400053E73968D9F80C0021F44071014339602B
:102A50004BE7B0F1806F04D100F08FF8010018BF90
:102A600080463068010329D5B06FB0F5804FF86813
:102A700003D140F48040F86008E020F48040F86022
:102A8000E16FB06F21F040610143E167B06FB0F1D9
:102A9000006F03D1206840F4801005E0B0F5804F4E
:102AA00004D1206840F48030206007E0B0F1806FEE
:102AB00004D100F062F8010018BF8046306841037D
:102AC00014D5E26FF06F22F040620243E267F06FCC
:102AD000B0F1006F02D100F046F807E0B0F1806F6E
:102AE00004D100F04AF8010018BF80463068410464
:102AF00011D5E26FD6F8800022F040520243E2671F
:102B0000D6F88010B1F1805F05D1022100F036F8CF
:102B1000010018BF80463068C10306D5FA68D9F8AD
:102B2000000022F004020243FA603168880206D5F0
:102B3000F968D9F8040021F018010143F9603168FF
:102B4000C8010DD5F968D9F8080021F440110143F6
:102B5000F960D9F80810B1F5001F01D100F003F8B1
:102B60004046BDE8F28F206840F480102060704736
:102B7000002106F1200000F06BB80121301D00F0AB
:102B80000FB80000901002400C100240DFF8D40192
:102B9000016841F0040101607047000000700040CE
:102BA0002DE9F04100F0D4F806D0F96801F00301F6
:102BB000814228D160B926E0012804D023D303281C
:102BC0001BD016D31FE039688A071CD500F0BAF86D
:102BD000386820F0806000F0B2F880463868010163
:102BE00013D5FEF707FAA0EB08000328F6D3032558
:102BF0002DE039684A05E9D405E039688A03E5D44F
:102C000039684A03E2D4012521E07168B268491E9F
:102C10001CB93B6900F076F803E0012C3B6900F039
:102C200079F842EA01113961386840F0806000F0BB
:102C300086F804463868010105D4FEF7DBF9001B6D
:102C40000328F7D3D3E73869B1690843386156E000
:102C50002DE9F04100F07CF806D0F96801F003019D
:102C6000814228D160B926E0012804D023D303286B
:102C70001BD016D31FE039688A071CD500F062F814
:102C8000386820F0805000F05AF88046386881009B
:102C900013D5FEF7AFF9A0EB08000328F6D3032500
:102CA0002DE039684A05E9D405E039688A03E5D49E
:102CB00039684A03E2D4012521E07168B268491EEF
:102CC0001CB97B6900F01EF803E0012C7B6900F061
:102CD00021F842EA01117961386840F0805000F033
:102CE0002EF804463868810005D4FEF783F9001BEE
:102CF0000328F7D3D3E77869B16908437861284698
:102D0000BDE8F0811848F468034043EA022242EA31
:102D1000C462704709D1346914480340640843EA27
:102D20000222641E42EA445270477469104803400C
:102D3000640843EA0222641E42EA44627047386033
:102D4000FEF758B9F968890840EA8100F8607047D1
:102D50000646044F30680C46F968002511F0030F51
:102D600070470000001002400F80FF070F809FFF98
:102D70000F80FFF962F30F2262F31F42401810F038
:102D8000030308D0C91A1FD3DB0748BF00F8012D81
:102D900028BF20F8022D130030B414461546103910
:102DA00028BF20E93C00FAD8490728BF20E90C00D9
:102DB00048BF40F8042D890028BF20F8022D48BFE5
:102DC00000F8012D30BC7047C91818BF00F8012D5C
:102DD000CB0728BF00F8012D70470000014880474D
:102DE0000148004715400008314200080248416888
:102DF00002788A18426070470480032038B5044680
:102E0000FEF7F8F814F1010F054602D004480178E6
:102E10006418FEF7EFF8401BA042FAD331BD00BFA3
:102E20000480032038B500F12402002451780229DF
:102E300003D004209061012428E001680B6823F08E
:102E40000E030B6001680D686D086D000D60516A1E
:102E50000B6823F480730B60012192F82030D56950
:102E600003F01C0399406960936AD16A5960116B41
:102E700031B10B6823F480730B60516B936B4B6023
:102E8000012353701470516901B18847204632BD47
:102E9000F8B500F124010423CA69146802681568B2
:102EA00091F8206006F01C0603FA06F73C4210D0A9
:102EB0006F070ED51468A50603D4146824F0040423
:102EC000146000F03DF8C968002938D0BDE8F4402E
:102ED0000847022303FA06F73C4213D0AF0711D587
:102EE0001468A50605D4146824F00A0414600122AD
:102EF0004A7000F025F800220A708968F9B1BDE82F
:102F0000F4400847082303FA06F6344217D02B078B
:102F100015D5146824F00E041460012291F82030B5
:102F2000CC6903F01C039A40626001228A614A70F6
:102F300000220A70096911B1BDE8F4400847F1BDEB
:102F400091F82020CC6902F01C0293406360704726
:102F5000F8B5044621680A6A0868656C560701F1ED
:102F600050031DD547031BD5182D09D1606B01787F
:102F70001970626B501C6063E16B491EE16303E0F2
:102F8000282D01D100F08AF8E06B20B92068016893
:102F900021F4802101602046BDE8F24000F0B8B87D
:102FA00096073AD5870338D5282D18D1E06B00282D
:102FB00018BF12F47C5F02D000F070F8F1BDE06B36
:102FC00000286AD102224A622068016821F4E021C7
:102FD000016062642046BDE8F24000F09AB8022029
:102FE000486200F06CF8182D606404D12046BDE8FA
:102FF000F24000F08FB8082D04D12046BDE8F24021
:1030000000F089B8B5F5807F47D1A06C0028204634
:1030100034D1BDE8F24000F07FB8130712D50503A4
:1030200010D508204862206801684A0205D5016869
:1030300021F410210160022060642046BDE8F240C6
:1030400000F06BB8D3071DD5C5031BD5012048621E
:103050002068016821F4F81101600220A064206852
:1030600001684A0707D500F023F8216C8863206CBB
:10307000FFF7D8FE88B1022060642046BDE8F24028
:1030800000F04CB8D20608D5C00206D510224A621C
:103090002046BDE8F24000F042B8F1BD1878616BFF
:1030A0000870606B421C6263E06B401EE063704717
:1030B000016821F0040101600FF2150070472068DB
:1030C000016821F4E0210160022070470000000047
:1030D000806A0021C163426CB2F5807F14D101681F
:1030E0000A6A93060CD502224A6201680B6843F40F
:1030F00000330B600068016841F002010160704715
:103100000222426400F008B80221416400F006B8CF
:1031100070477047704770477047704770477047F7
:103120002DE9FE4F064634680094204600F017FB58
:10313000002840F0328200F037FA002800F02D829B
:1031400000F032FA800704D53068416901F00201CD
:10315000416100F029FAC00632D53068816921F05A
:10316000100181611C20256A05F00F014143701890
:1031700000F5FE77C5F3434002280FD147F6F07003
:10318000054218D0F968C5F30A12204600F0A4FAE7
:10319000F868C5F30A110844F86007E006280AD168
:1031A000082206F57171204600F096FAB969C5F358
:1031B0000A104118B9613068816941F010018161DC
:1031C00000F0F2F900035FD5306800F09CFA0027A8
:1031D000009D04004FF4004A54E0890644BF2022B9
:1031E0008260F9B2304600F00DFB1FE0E00747D5E2
:1031F0003068F9B200F095FA804605EB471000F50B
:1032000030695FEAC87011D50121C9F8081030682B
:10321000DFF88C33026C00EB471000F530609A4207
:103220008168DED10A04D8D5C0F808A05FEA08702A
:1032300013D50821C9F808103068DA4A016C00EB90
:10324000471000F530639142986803D3000448BFEB
:10325000C3F808A0304600F0D6FA5FEAC86044BF61
:103260001021C9F808105FEA886044BF2021C9F81E
:1032700008105FEA884044BF4FF40051C9F80810B5
:103280007F1C6408B2D1009500F08EF9400340F134
:103290008B80306800F03EFA05460098002400F567
:1032A00000600290002D31E0D7F808B0411A8B453C
:1032B00088BF8B460BF103004FEA900AF9681FFAAA
:1032C0008BF3E2B2484600F0F6F9F868B969584461
:1032D0008B44F860C7F818B009EB441000F5106093
:1032E000816989B2514505D37869B969814201D2B2
:1032F0000028D9D1B8697969884205D309F50062F7
:10330000516B019801405163641C6D084CD0E80773
:10331000FAD53068E1B200F00FFA0746009800EBEA
:10332000441000F51068012104F00F008140C943EA
:103330000191F9070CD50298416B0198029A01405E
:1033400051630120C8F80800E1B2304600F05CFA91
:10335000380744BF0821C8F80810F80644BF1021F8
:10336000C8F80810780644BF4021C8F80810B8070C
:1033700044BF0221C8F808103806C5D51C21614396
:10338000314401F13C07B8697969D6F8009081426F
:10339000BAD3D7F808A0081A824588BF82460AF136
:1033A00003004FEA900A97E73068009C00F0A6F906
:1033B000002804F5006406F57D7514D56168490898
:1033C000490061602878012805D100212970304624
:1033D00000F01CFA02E0304600F019FA306841694A
:1033E00001F00041416100F0DFF800050AD5A16855
:1033F000C80744BF304600F00BFA3068416901F459
:103400000061416100F0D0F8000114D531684A69CB
:1034100002F000624A61287850B901222A70486D92
:10342000C0F3830068600121304600F0EFF902E04C
:10343000304600F0EDF900F0B7F8C00451D56168EE
:103440004908490061601021306800F018F90098BF
:1034500000214FF67F3218E000EB411303F51065B1
:1034600003F53063AA60491C2F6827F400172F600A
:103470002F6847F000672F609A601D6825F40015DB
:103480001D601F6847F000671F6073689942E3D3AF
:10349000E06940F00110E061306B50B1D4F8840075
:1034A00040F00B00C4F88400606C40F00B006064D6
:1034B00009E0606940F4005040F02B006061206931
:1034C00040F00B00206106F57171206820F4FE6069
:1034D0002060306800F053F93068416901F4805190
:1034E000416100F061F8800416D5306800F03BF9C6
:1034F000306800F0D3F8F060FEF7ABFE0146F268EA
:103500003068D2B200F054F8304600F082F93068EA
:10351000416901F40051416100F046F8000707D508
:10352000304600F077F93068416901F008014161E7
:1035300000F03AF8C00208D50021304600F06BF9DF
:103540003068416901F48011416100F02DF880027A
:1035500008D50021304600F05FF93068416901F478
:103560000011416100F020F8400007D5304600F01E
:1035700054F93068416901F08041416100F014F86C
:1035800040070AD531684C68600744BF304600F0F8
:1035900045F9306841680C434460BDE8F78F00008E
:1035A0000A31544F0B30544F306800F0A7B8000078
:1035B00010B5022A58D1DFF8FC21DFF8FC3152188F
:1035C0009A4238BF4FF4705150D3DFF8F021DFF842
:1035D000F03152189A4238BF4FF4605146D3DFF8A9
:1035E000E421DFF8E43152189A4238BF4FF45051C9
:1035F0003CD3DFF8D821DFF8D83152189A4238BFCF
:103600004FF4405132D3DFF8CC21DFF8CC315218DF
:103610009A4238BF4FF4305128D3DFF8C021DFF889
:10362000C03152189A4238BF4FF420511ED3DFF8F0
:10363000B421DFF8B43152189A4215D3DFF8AC4107
:10364000DFF8AC216418944238BF4FF400510DD319
:10365000DFF8A021DFF8A031511899422CBF4FF4B8
:10366000C0514FF4E05101E04FF41051C26822F410
:103670007052C260C2681143C160002010BD890150
:1036800041F020010161DFF87411491E04D0026984
:103690009306FAD4002070470320704700F50060BD
:1036A000806800F00600022818BF062801D1022019
:1036B00070470F207047B0B5DB1C002407E000EB1B
:1036C000023751F8045B07F58057641C3D60B4EB8A
:1036D000930FF4D30020B0BD10B5D21C002305E039
:1036E00000F580545B1C246841F8044BB3EB920F47
:1036F000F6D3084610BD4160002070470146486976
:1037000089690840704700F500618869C969084007
:10371000000C704700F500618869C969084080B2F3
:103720007047024602EB411000F5306002F500627E
:103730008068516908407047024602F5006302EB59
:10374000411218695B6B01F00F0102F51062CB406A
:10375000DB01926803F08003184310407047406912
:1037600000F00100704700F5106100F500600A6884
:10377000D20AD2020A60416841F48071BBE7016C51
:10378000DFF87C20914200F5306002D30168002907
:103790000DD400210161026942F400220261016935
:1037A00041F018010161016941F0C041016100204F
:1037B00070470000405327FF00350C00401E1BFFE0
:1037C00040420F0000DC0BFF804F1200808CF9FE9E
:1037D00020D6130060B6E5FE60E3160000D3CEFEEF
:1037E00040771B00C05BB3FEC091210000CA91FE70
:1037F00020753800E05459FEE09C4100410D030063
:103800000B30544F70477047704700007047704747
:1038100070477047704770477047704770470000A7
:10382000016841F0010101607047E36B03F08063C0
:1038300043F08073204600F0DABA03F0806343F06F
:103840008073704770B5044620688569066806F085
:103850007200722815D115F0F20F12D0A06C00F092
:103860003200322804D12946204600F016F908E03B
:10387000A06C00F01200122803D12946204600F067
:103880002AF806F07400742815D115F0F40F12D040
:10389000A06C00F04200422804D12946204600F0E6
:1038A000FCF808E0A06C00F02200222803D1294691
:1038B000204600F010F816F0380F18BF15F0380F3A
:1038C00007D0A06C010704D529462046BDE870400A
:1038D000E3E070BD27E2F8B5064606F14405287816
:1038E000012801D10220F2BD0120CA0628700CD5A2
:1038F00031681020C8610021A86840F00400A86069
:103900002970304600F088FAAEE0880601F0040421
:1039100031D5304600F007FA6868DFF8F4741228F1
:1039200011D100F0ABF800F0ACF830680268520832
:103930005200026001203064686000202870306806
:10394000FFF76EFF7DE068682228DDD154B100F0FA
:103950008FF8308F4A1C726320B1401E3087718F00
:10396000481E7087D42100F08AF800F08AF8012000
:103970003064686073E024B100F07AF84A1C726326
:1039800008E088070DD5716B326808789062706B1B
:10399000411C7163308F411E3187708F411E7187CA
:1039A00062E00A0633D5708F40B3308F30BB316888
:1039B0004968708FB0F5807FC1F309010BD30022F5
:1039C0000092FF22F36BFFF738FF304600F00FFA4A
:1039D000FF20308748E0728F328700F05AF8F36B8F
:1039E000304600F004FA3068416848013CD5318F18
:1039F000481E3087718F481E708735E0708F002811
:103A000004BF308F00282FD1316848680CE0490688
:103A10002AD5708F40BB3168706B0028486803D18D
:103A200040F4804048601FE081011DD4686812287E
:103A30000BD100F023F86868306401216960002030
:103A40002870304600F0E9F90EE0686822280BD1B2
:103A5000D42100F014F86868306401216960002006
:103A60002870304600F0DAF9002129700020F2BDFC
:103A70003068416A706B0170716B7047F22130469B
:103A800017E131682020C861306841680F40476005
:103A9000704700200090D2B270477CB5044604F114
:103AA00044050E462878012801D1022076BD012068
:103AB000F10628701FD52168608F18B91022CA61DD
:103AC0002870B3E01022CA6168682064696821F038
:103AD00032016960F621686820F04200686000F0F9
:103AE000E6F8A86840F00400A8600021297020468C
:103AF00000F092F99AE0300712D520688169826956
:103B0000036823F00803036000202870520C090C9E
:103B100002F07F0201F00101204600F080F985E00B
:103B200016F0840F61D0686800F04200422836D158
:103B30002068416A606B0170616B208F4A1C411ED6
:103B400062632187608F411E6187608F01280AD1DF
:103B5000E06B20F08070E063002100910122E36BB4
:103B6000FFF768FE62E0608F70B9D42100F09FF823
:103B7000686820640020696821F04201696028704B
:103B8000204600F04DF951E0002100910122FFF79D
:103B90004CFE2068416821F40041416046E06868BD
:103BA00000F03200322841D1608F00283ED0208FB3
:103BB00000283BD1608FB0F5807F07D300210091B2
:103BC000FF22FFF732FEFF2020872FE0628F22873F
:103BD000FFF75FFFE36B0021FFF72CFE20684168D1
:103BE000480123D500F05CF820E0B1071ED5608FB6
:103BF00060B1606B226801789162606B411C616307
:103C0000608F411E6187208F411E2187608F68B9B8
:103C1000F22100F04CF8686820640020696821F007
:103C2000320169602870204600F0FBF8B00633D5F9
:103C30006968080730D5206881694A070CD5406A51
:103C4000616B0870606B421C208F626320B1401E64
:103C50002087618F481E6087F62100F028F8382100
:103C600000F025F82068416841F40041416068484F
:103C700021684A6802404A6020212268D1610820F8
:103C80002168C8610022E2630121686820646960DC
:103C90002A70204600F0C6F800212970002076BD69
:103CA000218F481E2087618F481E608770472046FD
:103CB000FFE730B5826C0023012A02D10C0648BF11
:103CC000802301F0F2040068F22C0BD10468650235
:103CD00043F0420302D4140758BFC223140758BF4D
:103CE00043F0300301F0D404D42C0CD104686502F5
:103CF00043F0440303D4140758BF43F08003120772
:103D000058BF43F0300301F03801382906D101686B
:103D100043F038034A0258BF43F08003016821EAA8
:103D20000303036030BD38B5036899691A68CC0590
:103D300008D5150606D5C46C44F00104C4644FF4DC
:103D40008075DD614B0509D5140607D5C36C43F0BA
:103D50000803C3644FF480640368DC618B0509D5F4
:103D6000140607D5C36C43F00203C3644FF4007418
:103D70000368DC61CB0409D5140607D5C36C43F096
:103D80002003C3644FF480540368DC618B0409D5BD
:103D9000140607D5C36C43F04003C3644FF40054CA
:103DA0000368DC61090509D5120607D5C16C41F02D
:103DB0008001C1644FF400620168CA61C16C0029CE
:103DC00018BF042912D049060CD4816C01F03202CC
:103DD000322A1CBF01F04201422903D101210164B2
:103DE00008228264BDE8324000F016B831BD70B5DB
:103DF0000068049C4568074E46EA5456B543C1F333
:103E00000901294341EA024119432143416070BD40
:103E100000E800FEFF63FF07704770477047704778
:103E200070477047704700007CB5044622685168AF
:103E3000936803F04100012806D1480604D5E16CDF
:103E40002046BDE87C400847980706D50D0604D5F6
:103E5000216D2046BDE87C40084713F4B07F62D056
:103E6000880660D55D060ED594F85D0003284DD018
:103E7000206E40F00400206600250095D66800966C
:103E80009568009500989D060DD5206E40F00100C4
:103E9000206600250095926800922068056825F04C
:103EA000400505600098DA0509D5206E40F008004D
:103EB000206600220092206882680092009B206E9B
:103EC00088B32068426822F0E0024260012011F0CD
:103ED000030F84F85D0021D020680FF24D05416882
:103EE000890889004160A06D30B18563A06DFEF73F
:103EF00099FF08B100F020F8606DA0B18563606D96
:103F0000FEF790FF78B100F017F873BD0020009025
:103F1000D168009192680092009873BD2046BDE878
:103F2000764000F00EB873BD806A00F13E010022B9
:103F30000A810A8000F005B8206E40F0400020663B
:103F400070477047704710B5264C0022202120464C
:103F5000FDF798FB4FF4FA70FEF750FF0122202185
:103F60002046FDF78FFB4FF4FA70FEF747FFECE7B2
:103F7000FEE7FEE7FEE770477047FEF737BF1A48D7
:103F8000FFF760BC1848FFF7A5BC0120FDF77FBB19
:103F900080B54FF48070FDF77AFBBDE802404FF426
:103FA0000070FDF774BB1148FDF7BBBC1048FDF76E
:103FB000B8BC1048FDF7B5BC0F48FDF7B2BC0F48C0
:103FC000FDF7AFBC0E48FFF7ABB80E48FEF760BF79
:103FD0000D48FFF729BF0D48FFF726BF0C48FEF735
:103FE000B7BF00000010004838A5032088A50320B3
:103FF000D4A5032020A603206CA60320B8A6032086
:104000002C9F032088A40320C0A3032024A4032002
:10401000E8A403200E48016841F470010160002209
:104020000C49086840F0010008608A604FF4805233
:104030000B68094803400B60CA6000200B68074A00
:1040400023F480230B6088614FF00061116070479A
:1040500088ED00E000100240FFFFF6EA08ED00E006
:104060000000000000000000010203040607080928
:104070004EF68851CEF20001086840F470000860E6
:10408000BFF34F8FBFF36F8F4FF00070E1EE100A58
:104090007047000000F00DF8002801D000F00CF887
:1040A000AFF300800020AFF30080FEF7E5F900F0E9
:1040B00017F801207047000010B5074979441831FE
:1040C000064C7C44163404E00A68081D11448847F5
:1040D0000146A142F8D110BD9C010000B8010000CA
:1040E00000F000B80746384600F002F8FBE7000091
:1040F00080B5AFF30080024A11001820ABBEFBE789
:1041000026000200FFF7FEBFFFF7FEBFFFF7FEBF6E
:10411000FFF7FEBFFFF7FEBFFFF7FEBFFFF7FEBFD3
:10412000FFF7FEBFFFF7FEBFFFF7FEBFFFF7FEBFC3
:10413000FFF7FEBFFFF7FEBFFFF7FEBFFFF7FEBFB3
:10414000FFF7FEBFFFF7FEBFFFF7FEBFFFF7FEBFA3
:10415000FFF7FEBFFFF7FEBFFFF7FEBFFFF7FEBF93
:10416000FFF7FEBFFFF7FEBFFFF7FEBFFFF7FEBF83
:10417000FFF7FEBFFFF7FEBFFFF7FEBFFFF7FEBF73
:10418000FFF7FEBFFFF7FEBFFFF7FEBFFFF7FEBF63
:10419000FFF7FEBFFFF7FEBFFFF7FEBFFFF7FEBF53
:1041A000FFF7FEBFFFF7FEBFFFF7FEBFFFF7FEBF43
:1041B000FFF7FEBFFFF7FEBFFFF7FEBFFFF7FEBF33
:1041C000FFF7FEBFFFF7FEBFFFF7FEBFFFF7FEBF23
:1041D000FFF7FEBFFFF7FEBFFFF7FEBFFFF7FEBF13
:1041E000FFF7FEBFFFF7FEBFFFF7FEBFFFF7FEBF03
:1041F000FFF7FEBFFFF7FEBFFFF7FEBFFFF7FEBFF3
:10420000FFF7FEBFFFF7FEBFFFF7FEBFFFF7FEBFE2
:10421000FFF7FEBFFFF7FEBFFFF7FEBFFFF7FEBFD2
:10422000FFF7FEBFFFF7FEBFFFF7FEBFFFF7FEBFC2
:10423000AFF30080FFF71CFFFFF72CFF30B50168DC
:1042400084684218416802EB5103C90703D54C4406
:1042500001E0491C05D19A420AD012F9011B12F85B
:10426000015B002904F8015BF3D4491EF7D5F2E79E
:104270000C3030BD43CFFFFFF82600003480032010
:1042800000000000B9FFFFFF0C0000002800000044
:10429000008003200001FD000001F9000010ED0086
:0C42A0000001F00002093D0000000000D9
:020000040801F1
:10F000002DE9FE4F0E46002406B901240C9D05B9DA
:10F010006B4D6C49D1F80090052810D8DFE800F05E
:10F0200003109ABDBFC90220E1F73EFF002804D0BB
:10F0300000210220E1F7C8FC002800F0BD80BAE002
:10F04000DFF8848141F6F06008EB000723B10F215F
:10F0500039604FF0FF30786000214FF4047A00925D
:10F0600001E00199491C009881421DD20AFB01FB75
:10F07000002208EB0B000AFB0123F35C8354521CB3
:10F08000B2F5047FF7D301915146E1F77FFC58F8C0
:10F090000B1008F104004FF403725844E1F7F8FE36
:10F0A0000028DED0012450E0002C4CD138680F2815
:10F0B0004ED1009800284BD0102849D24FF0000BB9
:10F0C00006460C9522E044F00804B3461CE03F4994
:10F0D0000A68904201BFA8683D490A689042F2D18F
:10F0E0003C49E8680A68904204BF701E8345EAD133
:10F0F000D9F800200C980221E1F719FF10B144F073
:10F100000404B346002038600BF1010BB3451AD25A
:10F110000AFB0BF008EB000579686868491C884217
:10F12000D5D12D48A9680068EB68014405F11002AB
:10F130000220E1F77FFC002802BF686878603E602B
:10F14000E2D044F00204002C36D00020386033E0D6
:10F150001024FAE7D9F8002002212846E1F7E7FE5B
:10F1600008B1012416E00120E1F79EFE30B1002134
:10F170000120E1F729FC08B144F0020454B9174812
:10F18000174903680A68174801680120E1F752FC33
:10F1900000B10424E2F7ECFA0EE003240CE00220B4
:10F1A000E1F782FE40B101210220E1F70DFC18B128
:10F1B00001E0052400E001242046BDE8FE8F00BFE9
:10F1C00004A703203C0500083480032080090008C0
:10F1D0008409000888090008340500083005000883
:08F1E0001C05000818050008D9
:04000005080042317C
:00000001FF
