:020000040802F0
:1000000088100120A907060809EC05080BEC050873
:100010000DEC05080FEC050811EC050800000000C8
:1000200000000000000000000000000013EC0508C4
:1000300015EC05080000000005A8040817EC0508E9
:10004000A90B0608AD0B0608B10B0608B50B060890
:10005000B90B0608BD0B060847EC0508C10B0608DE
:1000600059EC0508C50B0608C90B0608CDEC0508B8
:10007000CD0B0608D10B0608D50B0608D90B0608D0
:10008000DD0B0608E10B0608E50B0608E90B060880
:10009000ED0B0608F10B0608F50B060875EC0508D4
:1000A000F90B060805ED0508FD0B0608010C06080E
:1000B000050C0608090C06080D0C06081BEC0508C3
:1000C00031EC0508E38B0308F78B0308D3EC050834
:1000D000D9EC0508A19B0308F59B03086F9C030856
:1000E000A3EC0508110C0608150C0608190C0608E7
:1000F0001D0C0608210C0608250C0608000000004F
:10010000290C06082D0C0608310C0608350C0608CB
:10011000F99C0308519D0308390C06083D0C06089C
:10012000410C0608450C0608490C06084D0C06084B
:10013000510C0608550C0608590C06085D0C0608FB
:10014000610C060807200408650C0608B7EC0508D2
:10015000690C06086D0C0608710C0608EFEC050822
:100160000F8C03082D8C0308750C0608790C060803
:100170007D0C0608810C060800000000000000004D
:10018000850C0608890C06088D0C06086B8C030884
:10019000578C0308950C06080000000000000000C2
:1001A0000000000000000000910C0608990C0608F1
:0C01B0009D0C0608A10C0608A50C060812
:10020000F30100000000121FEDAE153C50563632CF
:10021000342D42415345000000000000040E04004C
:100300000000000000000000000000000000F0BF3E
:1003100000000000000000800000000000000080DD
:100320000000000000000000000000C05294EEBF7A
:1003300000000048204E51BE000000F86467BCBCBD
:100340000000000000000000000000208133EDBF2D
:1003500000000080B3DB14BE000000506706A3BCA1
:100360000000000000000000000000D0E9DCEBBF4E
:1003700000000008C39259BE00000080B0D3B8BC92
:10038000000000000000000000000070F98FEABFCC
:10039000000000C0A51028BE000000E8BFC0B0BC2F
:1003A000000000000000000000000070284CE9BFC1
:1003B00000000060134B42BE000000C03D20B8BCEE
:1003C000000000000000000000000050FA10E8BF2C
:1003D000000000C05FF62BBE000000905C71A7BC5F
:1003E000000000000000000000000020FCDDE6BF6F
:1003F000000000C0F8F154BE00000018E9F6B9BCD6
:100400000000000000000000000000D0C3B2E5BF03
:1004100000000070E43254BE00000050DB06B4BCA3
:10042000000000000000000000000010EF8EE4BF9C
:1004300000000020F36252BE000000C02A879ABC70
:100440000000000000000000000000B02272E3BFC6
:10045000000000F0E8E056BE00000028352DBDBCCD
:100460000000000000000000000000000A5CE2BF85
:10047000000000B0FA8E41BE00000040AE6FBDBC6F
:10048000000000000000000000000000564CE1BF2A
:10049000000000F015CD5FBE00000000141C90BCF1
:1004A000000000000000000000000040BD42E0BF6E
:1004B00000000030F93457BE000000E06C1E93BC11
:1004C0000000000000000000000000E0F57DDEBF3D
:1004D000000000B08A535EBE00000080DA77AABC3C
:1004E0000000000000000000000000C09D81DCBF93
:1004F00000000000FFA226BE0000006057E2B0BC72
:10050000000000000000000000000060F98FDABF6A
:10051000000000580A8151BE000000F05F60B8BCC6
:1005200000000000000000000000000098A8D8BFF4
:10053000000000607A7F45BE000000D05433A3BCA9
:100540000000000000000000000000600FCBD6BFDC
:10055000000000D091CB40BE000000406D1BA0BC4D
:100560000000000000000000000000A0FBF6D4BF67
:1005700000000098C5CE52BE000000003A397EBC93
:100580000000000000000000000000E0FE2BD3BFD0
:100590000000004073872BBE00000000926879BC09
:1005A000000000000000000000000040C069D1BF52
:1005B00000000058F16353BE00000080438D7CBCF6
:1005C000000000000000000000000080D85FCFBFE6
:1005D000000000181F8354BE000000B03F42A2BCC0
:1005E00000000000000000000000008067FCCBBF9E
:1005F00000000060FAFF53BE00000050E00DB8BCE0
:1006000000000000000000000000000098A8C8BF23
:10061000000000607A7F35BE000000C0543393BCF8
:10062000000000000000000000000000DC63C5BF07
:1006300000000058D6FF54BE00000000396490BC92
:100640000000000000000000000000C0AD2DC2BF8F
:1006500000000080A45915BE000000E0484BABBC70
:100660000000000000000000000000801A0BBEBF68
:1006700000000050BF3C5ABE000000A0B364B6BCEE
:1006800000000000000000000000008004D6B7BF9A
:1006900000000040BBCF36BE0000008076CEA8BC74
:1006A00000000000000000000000008032BBB1BF6D
:1006B000000000402A0043BE00000028C60CBDBC5C
:1006C0000000000000000000000000009473A7BFBD
:1006D000000000182B3B59BE000000C0E55DA5BC22
:1006E000000000000000000000000000EE4397BF83
:1006F000000000A0E6C340BE00000020958DB5BC00
:100700000000000000000000000000000000008069
:1007100000000000000000800000000000000080D9
:100720000000000000000000737461727475702096
:100730005461736B0000000041544920300D0000EB
:100740000A3130093209424C3635320D00000000C2
:1007500041544920330D00000A3130093309232365
:100760002E232E232E230D004154492031340D0019
:100770000A31300931340930312026262626262632
:100780002626262626260D0041540D000A30300D5F
:100790000000000041542B4449520D000A30360934
:1007A000246175746F72756E240D000041542B52D4
:1007B000554E2022246175746F72756E24220D00CF
:1007C000415426462A0D00003807020806000000A2
:1007D000400702080C000000500702080600000055
:1007E000580702080F000000680702080700000011
:1007F00070070208170000008807020803000000C5
:100800008C07020804000000000004201200000011
:10081000CA50030800000000940702080700000007
:100820009C0702080E000000AC070208130000003D
:10083000CA50030800000000C007020806000000BC
:10084000CA50030800000000000300000000000080
:10085000000F000000000000041300000000000072
:10086000000700000000000000030000000000007E
:10087000001000000000000000FF00000000000069
:100880000102000000000000014B00000100000018
:10089000000300000000000000270000000000002E
:1008A000003F000000000000000100000000000008
:1008B0000000000000000000000000000000000038
:1008C0000000000000000000000000000000000028
:1008D0000000000000000000000000000100000017
:1008E0001F0000001F000000020000001C000000AC
:1008F0003B000000030000001F0000005A00000041
:10090000040000001E000000780000000500000048
:100910001F00000097000000060000001E000000FD
:10092000B5000000070000001F000000D400000018
:10093000080000001F000000F30000000900000094
:100940001E000000110100000A0000001F0000004E
:10095000300100000B0000001E0000004E010000EE
:100960000C0000001F0000006D010000B30000003B
:100970000C1204080F000000FFE6DB2ED00F4940E8
:1009800000000000B71DC1046E3B8209D926430D4B
:10099000DC7604136B6BC517B24D861A0550471EE3
:1009A000B8ED08260FF0C922D6D68A2F61CB4B2B83
:1009B000649B0C35D386CD310AA08E3CBDBD4F382B
:1009C00070DB114CC7C6D0481EE09345A9FD5241CB
:1009D000ACAD155F1BB0D45BC2969756758B565263
:1009E000C836196A7F2BD86EA60D9B6311105A6703
:1009F00014401D79A35DDC7D7A7B9F70CD665E74AB
:100A0000E0B6239857ABE29C8E8DA191399060950A
:100A10003CC0278B8BDDE68F52FBA582E5E6648622
:100A2000585B2BBEEF46EABA3660A9B7817D68B342
:100A3000842D2FAD3330EEA9EA16ADA45D0B6CA06A
:100A4000906D32D42770F3D0FE56B0DD494B71D98A
:100A50004C1B36C7FB06F7C32220B4CE953D75CAA2
:100A600028803AF29F9DFBF646BBB8FBF1A679FFC2
:100A7000F4F63EE143EBFFE59ACDBCE82DD07DECEA
:100A800077708634C06D4730194B043DAE56C5397A
:100A9000AB0682271C1B4323C53D002E7220C12AB2
:100AA000CF9D8E1278804F16A1A60C1B16BBCD1FB2
:100AB00013EB8A01A4F64B057DD00808CACDC90CFA
:100AC00007AB9778B0B6567C69901571DE8DD475FA
:100AD000DBDD936B6CC0526FB5E6116202FBD06632
:100AE000BF469F5E085B5E5AD17D1D576660DC5332
:100AF00063309B4DD42D5A490D0B1944BA16D8407A
:100B000097C6A5AC20DB64A8F9FD27A54EE0E6A1B9
:100B10004BB0A1BFFCAD60BB258B23B69296E2B271
:100B20002F2BAD8A98366C8E41102F83F60DEE87F1
:100B3000F35DA9994440689D9D662B902A7BEA94B9
:100B4000E71DB4E0500075E4892636E93E3BF7ED39
:100B50003B6BB0F38C7671F7555032FAE24DF3FEF1
:100B60005FF0BCC6E8ED7DC231CB3ECF86D6FFCB71
:100B70008386B8D5349B79D1EDBD3ADC5AA0FBD839
:100B8000EEE00C6959FDCD6D80DB8E6037C64F6499
:100B90003296087A858BC97E5CAD8A73EBB04B7751
:100BA000560D044FE110C54B383686468F2B474211
:100BB0008A7B005C3D66C158E4408255535D4351D9
:100BC0009E3B1D252926DC21F0009F2C471D5E2819
:100BD000424D1936F550D8322C769B3F9B6B5A3BD1
:100BE00026D6150391CBD40748ED970AFFF0560E91
:100BF000FAA011104DBDD014949B93192386521D59
:100C00000E562FF1B94BEEF5606DADF8D7706CFC58
:100C1000D2202BE2653DEAE6BC1BA9EB0B0668EF90
:100C2000B6BB27D701A6E6D3D880A5DE6F9D64DAD0
:100C30006ACD23C4DDD0E2C004F6A1CDB3EB60C918
:100C40007E8D3EBDC990FFB910B6BCB4A7AB7DB0D8
:100C5000A2FB3AAE15E6FBAACCC0B8A77BDD79A310
:100C6000C660369B717DF79FA85BB4921F46759650
:100C70001A163288AD0BF38C742DB081C330718598
:100C800099908A5D2E8D4B59F7AB085440B6C950E8
:100C900045E68E4EF2FB4F4A2BDD0C479CC0CD4300
:100CA000217D827B9660437F4F460072F85BC17660
:100CB000FD0B86684A16476C93300461242DC56588
:100CC000E94B9B115E565A1587701918306DD81C68
:100CD000353D9F0282205E065B061D0BEC1BDC0F80
:100CE00051A69337E6BB52333F9D113E8880D03AE0
:100CF0008DD097243ACD5620E3EB152D54F6D42908
:100D00007926A9C5CE3B68C1171D2BCCA000EAC827
:100D1000A550ADD6124D6CD2CB6B2FDF7C76EEDBBF
:100D2000C1CBA1E376D660E7AFF023EA18EDE2EE9F
:100D30001DBDA5F0AAA064F4738627F9C49BE6FD47
:100D400009FDB889BEE0798D67C63A80D0DBFB84A7
:100D5000D58BBC9A62967D9EBBB03E930CADFF973F
:100D6000B110B0AF060D71ABDF2B32A66836F3A21F
:100D70006D66B4BCDA7B75B8035D36B5B440F7B1C7
:100D80000100000063616C446174610000000000B8
:100D9000000000000000000000000000A9EA0308B5
:100DA000ABEA0308000000000000000000000000A3
:100DB0000000000000000000000000000000000033
:100DC0000000000019DE0308ABEA03080000000081
:100DD000000000000000000053DE030800000000D7
:100DE0000000000000000000000000004F85040823
:100DF00051850408636F6D6D7346736D00000000CC
:100E000000000000000000000000000000000000E2
:100E1000D18704085185040800000000000000008C
:100E2000000000000000000005830408518504084C
:100E300000000000000000000000000000000000B2
:100E4000918404085185040800000000000000009F
:100E500000000000000000003DDD0308ABEA0308CD
:100E60000000000000000000000000000000000082
:100E70000000000000000000000000000000000072
:100E80000000000000000000C79E0508E19E050864
:100E9000000000000F9F0508000000000000000097
:100EA0000D330508000000000000000000000000F5
:100EB000133205082D320508000000002F31050807
:100EC000E78D0508FB8C0508F97A0508B17B050854
:100ED0003B8505084B8E0508AF890508E1820508AA
:100EE000C98105086B860508C78405083B8205088B
:100EF000C57E0508FB86050835320508573205080A
:100F0000CF8B0508E78E0508000000005F83050809
:100F1000838A0508F78505088F870508A1800508DD
:100F2000E37D0508717E0508198105084D890508CE
:100F30002D800508177E0508CB830508B77F0508B7
:100F4000658C05083F8B0508438405085B695D3D9A
:100F5000640000005B695D3F000000005B695D5B51
:100F6000695D3F005B695D2C5B3D5D2C5B765D00E0
:100F70005B695D3D69000000214B4D3D4C00000068
:100F800000000000000000000779050800000000D4
:100F90000000000000000000C79E0508E19E050853
:100FA00000000000917A0508E78D0508FB8C050814
:100FB000F97A0508B17B05083B8505084B8E0508C5
:100FC000AF890508E1820508C98105086B86050817
:100FD000C78405083B820508C57E0508FB86050811
:100FE000CF7D0508D97D0508CF8B0508E78E05085C
:100FF000000000005F830508838A0508F78505085F
:101000008F870508A1800508E37D0508717E050826
:10101000198105084D8905082D800508177E0508EA
:10102000CB830508B77F0508658C05083F8B05084D
:10103000438405085B695D3F000000005B695D5B00
:10104000695D3F005B695D2C5B695D3F00000000EE
:101050002142532530316400214254303D25640043
:10106000214254313D25640021425432303D253027
:1010700034780000214255303D25732C25732C25F2
:10108000732C2573000000002143413D252E32665C
:101090002C252E32662C252E32662C252E3266000B
:1010A00021434425643D253032752F253032752F7C
:1010B000253034750000000021434925643D257525
:1010C0000000000021434D3D253031750000000037
:1010D00021434E25643D25752C2575002143533D44
:1010E0002575000021444B25642C25643D444B2587
:1010F00073000000214953313D25662C25662C25BF
:1011000064000000214953303D25342E32662C25E1
:10111000352E32662C25640021495A25643D25313F
:10112000302E356600000000214E4425643D2530F8
:1011300032752F253032752F2530347500000000B0
:101140002150503D25303375000000002150543DA2
:10115000257500002150563D2531302E35662C2551
:101160003038582C253038582C2531302E35660033
:1011700021515625642C25643D30322E30302E30DE
:101180003000000021524225643D253033660000C6
:1011900021524225643D2564000000002152422571
:1011A000643D2564202531302E3566002152443DB2
:1011B000253032752F253032752F253034750000DB
:1011C0002152453D25303858000000002152493D4C
:1011D000444B25732C5625730000000021525625E0
:1011E000642C25643D5625730000000021534330D4
:1011F0003D2564002153443D253032752F25303282
:10120000752F25303475000021534E25643D25642B
:10121000000000002153503D25372E3366000000AA
:101220002153543D253032753A253032753A2530F8
:101230003275000021535A3D25642C25352E336626
:101240000000000021554625643D25642C256400DE
:101250002156523D25372E33660000000000000065
:1012600000000000077905080000000000000000F1
:1012700000000000C79E0508E19E05080000000070
:1012800079300508E78D0508FB8C0508F97A050813
:10129000B17B05083B8505084B8E0508AF8905081D
:1012A000E1820508C98105086B860508C784050821
:1012B0003B820508C57E0508FB860508CF7D05082D
:1012C000D97D0508CF8B0508E78E050800000000D2
:1012D0005F830508838A0508F78505088F87050859
:1012E000A1800508E37D0508717E050819810508C0
:1012F0004D8905082D800508177E0508CB83050854
:10130000B77F0508658C05083F8B050843840508F1
:101310000000000000000000591505080000000052
:101320000000000000000000C79E0508E19E0508BF
:10133000000000006F17050800000000000000001A
:10134000C10A0508000000000000000000000000C5
:10135000C79E0508E19E050800000000090D05086C
:10136000E78D0508FB8C0508F97A0508B17B0508AF
:101370003B8505084B8E0508AF890508E182050805
:10138000C98105086B860508C78405083B820508E6
:10139000C57E0508FB860508150E0508510E0508D3
:1013A000CF8B0508E78E0508000000005F83050865
:1013B000838A0508F78505088F870508A180050839
:1013C000E37D0508717E0508198105084D8905082A
:1013D0002D800508177E0508CB830508B77F050813
:1013E000658C05083F8B0508438405080000000054
:1013F0005B695D3D640000005B695D3F00000000CB
:101400005B695D5B695D3F005B695D2C5B3D5D2CED
:101410005B765D005B695D3D69000000214B4D3DE1
:101420004C000000000000000000000007790508E3
:10143000000000000000000000000000C79E05083A
:10144000E19E050800000000F1280508E78D050869
:10145000FB8C0508F97A0508B17B05083B85050872
:101460004B8E0508AF890508E1820508C98105088A
:101470006B860508C78405083B820508C57E0508FC
:10148000FB86050879290508052A0508CF8B05087C
:10149000E78E0508000000005F830508838A0508C1
:1014A000F78505088F870508A1800508E37D0508F5
:1014B000717E0508198105084D890508FD2A050872
:1014C000177E0508CB8305082D2B0508658C0508BC
:1014D0003F8B05084384050871260508214B4D3DC7
:1014E00053000000214B4D3D4C000000214B503D6E
:1014F000257800002153443D30312F30312F3230D8
:10150000323000002153543D31323A30303A3030DD
:101510000000000021545025643D256400000000B7
:1015200021545025643D25352E3366003D692C5BE2
:10153000695D00005B695D3D640000005B695D3FC3
:10154000000000005B695D5B695D3F005B695D2CCD
:101550005B3D5D2C5B765D005B695D3D6900000075
:10156000692C5B3D5D5B695D0000000000000000D0
:1015700000000000CD9F05080000000000000000F2
:1015800000000000C79E0508E19E0508000000005D
:10159000E1A30508E78D0508FB8C0508F97A050825
:1015A000B17B05083B8505084B8E0508AF8905080A
:1015B000E1820508C98105086B860508C78405080E
:1015C0003B820508C57E0508FB86050851A5050870
:1015D00091A50508CF8B0508E78E050800000000DF
:1015E0005F830508838A0508F78505088F87050846
:1015F000A1800508E37D0508717E050819810508AD
:101600004D8905082D800508177E0508CB83050840
:10161000B77F0508658C05083F8B050843840508DE
:10162000693D692C5B695D2C5B695D2C5B695D2C98
:101630005B695D005B695D3D640000005B695D3F67
:10164000000000005B695D5B695D3D6900000000B2
:101650005B695D5B695D3D76000000005B695D3D37
:10166000692C5B695D0000005B695D3D76000000F0
:101670003D692C5B695D0000693D732C692C692C08
:10168000660000005B695D3D690000002142443D49
:1016900025640000214B4D3D520000000000000079
:1016A00000000000077905080000000000000000AD
:1016B00000000000C79E0508E19E0508000000002C
:1016C00011360508E78D0508FB8C0508F97A050831
:1016D000B17B05083B8505084B8E0508AF890508D9
:1016E000E1820508C98105086B860508C7840508DD
:1016F0003B820508C57E0508FB860508CF7D0508E9
:10170000D97D0508CF8B0508E78E0508000000008D
:101710005F830508838A0508F78505088F87050814
:10172000A1800508E37D0508717E0508198105087B
:101730004D8905082D800508177E0508CB8305080F
:10174000B77F0508658C05083F8B050843840508AD
:1017500000000000000000000779050800000000FC
:101760000000000000000000C79E0508E19E05087B
:1017700000000000890F0508E78D0508FB8C0508AF
:10178000F97A0508B17B05083B8505084B8E0508ED
:10179000AF890508E1820508C98105086B8605083F
:1017A000C78405083B820508C57E0508FB86050839
:1017B000CF7D0508D97D0508CF8B0508E78E050884
:1017C000000000005F830508838A0508F785050887
:1017D0008F870508A1800508E37D0508717E05084F
:1017E000198105084D8905082D800508177E050813
:1017F000CB830508B77F0508658C05083F8B050876
:101800004384050800000000000000000779050877
:10181000000000000000000000000000C79E050856
:10182000E19E050800000000C5140508E78D0508C5
:10183000FB8C0508F97A0508B17B05083B8505088E
:101840004B8E0508AF890508E1820508C9810508A6
:101850006B860508C78405083B820508C57E050818
:10186000FB860508CF7D0508D97D0508CF8B0508C7
:10187000E78E0508000000005F830508838A0508DD
:10188000F78505088F870508A1800508E37D050811
:10189000717E0508198105084D8905082D80050808
:1018A000177E0508CB830508B77F0508658C0508FA
:1018B0003F8B05084384050800000000000000007D
:1018C0007F1005080000000000000000000000007C
:1018D000C79E0508E19E0508000000009912050852
:1018E000E78D0508FB8C0508F97A0508B17B05082A
:1018F0003B8505084B8E0508AF890508E182050880
:10190000C98105086B860508C78405083B82050860
:10191000C57E0508FB860508E9130508351305088B
:10192000CF8B0508E78E0508000000005F830508DF
:10193000838A0508F78505088F870508A1800508B3
:10194000E37D0508717E0508198105084D890508A4
:101950002D800508177E0508CB830508B77F05088D
:10196000658C05083F8B0508438405085B695D3D70
:10197000640000005B695D3F000000005B695D5B27
:10198000695D3F005B695D2C5B3D5D2C5B765D00B6
:101990005B695D3D69000000214B4D3D4C0000003E
:1019A0000000000000000000000000000000000037
:1019B000A1DD0308ABEA03080000000000000000FE
:1019C0000000000000000000DBDD03080000000054
:1019D00000000000090A05080000000000000000E7
:1019E00000000000000000000000000000000000F7
:1019F00000000000850905084D09050800000000E9
:101A0000000000000000000000000000A50905081B
:101A100093090508950905089B090508B3090508F8
:101A2000BD09050800000000C3090508000000000A
:101A3000000000002F0B0608190B0608000000002C
:101A4000000000000000000000000000A5090508DB
:101A5000B1860408ED86040863870408B309050805
:101A6000BD09050800000000C309050800000000CA
:101A700000000000530B06083D0B060800000000A4
:101A8000000000000000000000000000A9F90508A7
:101A900065F9050881F90508BDF90508FDF905088E
:101AA0006DFA05080000000091FA05084F776949B2
:101AB0006E746572666163653100000000000000AD
:101AC00000000000770B0608610B0608000000000C
:101AD000000000000000000000000000A50905084B
:101AE0006D81040889810408B1810408F781040824
:101AF00069820408000000008D8204084F7769495C
:101B00006E7465726661636532000000000000005B
:101B1000000000009B0B0608850B06080000000073
:101B2000000000000000000000000000A5090508FA
:101B30006783040881830408B1830408ED830408E3
:101B40009B83040800000000C30905080000000092
:101B5000000000000000000000000000899F030852
:101B6000D39F0308000000005C4C6F6746696C65FA
:101B7000730000005C55706772616465730000005B
:101B80004578742053746F72616765005056363221
:101B90003420213D20300000433A5C557365727358
:101BA0005C3331323030353231365C446F63756DC1
:101BB000656E74735C4C6F63616C46696C65735CD5
:101BC0004769746875624C6F63616C5C505636325D
:101BD000345F4D41494E5C4170706C69636174695A
:101BE0006F6E5C45787453746F726167655C4445D1
:101BF000787453746F726167652E637070000000B3
:101C000025732573000000005C444B303531342EC1
:101C100072617700444B303439390000444B303521
:101C2000303900000000000000000000000000004B
:101C3000000000004D27040881ED040800000000AA
:101C40000000000011EE0408000000000000000089
:101C50007FED0408000000000000000041EF0408D0
:101C600037F10408B7F004083FF10408E7EF04086F
:101C7000BFEF040885F004089FF00408000000008E
:101C8000000000004DF4040847F104087FF1040847
:101C900000000000A7F10408C5F10408F1F10408F0
:101CA00023F2040853F2040883F2040885F20408BE
:101CB000A9F204080000000000000000EDF2040892
:101CC00015F304084BF304087BF30408000000003C
:101CD00000000000ABF30408DBF304084FF4040831
:101CE00055F404085DF40408000000005BF40408E7
:101CF0006FF4040875F4040863F4040869F4040834
:101D00003FF3040845F304087BF4040846756E634A
:101D100000000000000000000000000000000000C3
:101D2000000000004D27040881ED040800000000B9
:101D30000000000011EE0408000000000000000098
:101D40008DB50408000000000000000041EF040809
:101D500037F10408B7F004083FF10408E7EF04087E
:101D6000BFEF040885F004089FF00408000000009D
:101D7000000000004DF4040847F104087FF1040856
:101D800000000000A7F10408C5F10408F1F10408FF
:101D900023F2040853F2040883F2040885F20408CD
:101DA000A9F204080000000000000000EDF20408A1
:101DB00015F304084BF304087BF30408000000004B
:101DC00000000000ABF30408DBF304084FF4040840
:101DD00055F404085DF40408000000005BF40408F6
:101DE0006FF4040875F4040863F4040869F4040843
:101DF0003FF3040845F304087BF4040800000000E6
:101E00000000000000000000000000004D27040852
:101E100099690408000000006F680408C570040890
:101E200000000000000000008DB504081B7A0408C3
:101E300000000000836C040841740408156E040857
:101E400095750408E7EF0408BFEF040885F004085F
:101E50009FF0040800000000000000009D760408C8
:101E6000C3760408037704080000000051770408D3
:101E700077770408AB770408E577040879780408D5
:101E800083F20408D1780408F57804080000000003
:101E900000000000EDF20408417904084BF3040847
:101EA0007BF304080000000000000000ABF304080E
:101EB000DBF304086979040889790408CB790408FC
:101EC000000000000D7A0408D97A04084B7B04084E
:101ED0005D7A04089B7A0408117C04084B7C040892
:101EE000DD6B0408A9680408616B04086645787412
:101EF000416E644261726F0000000000000000004B
:101F000000000000000000004D270408A5C90308D8
:101F1000000000004770696F53656D00286572729C
:101F2000203D3D20284F535F455252294F535F4576
:101F300052525F4E4F4E4529207C7C20286572729C
:101F4000203D3D20284F535F455252294F535F4556
:101F500052525F4D555445585F4F574E45522920B8
:101F60007C7C2028657272203D3D20284F535F45C0
:101F70005252294F535F4552525F4D555445585F59
:101F80004E455354494E472900000000433A5C55E2
:101F9000736572735C3331323030353231365C44C4
:101FA0006F63756D656E74735C4C6F63616C4669CD
:101FB0006C65735C4769746875624C6F63616C5CD7
:101FC00050563632345F4D41494E5C4170706C69F9
:101FD000636174696F6E5C53796E6368726F6E696A
:101FE000736174696F6E5C444C6F636B2E637070C9
:101FF00000000000000000000000000000000000E1
:10200000000000009BBC03089DBC0308000000000A
:1020100025642D25642D25642025643A25643A2500
:10202000642C00006F735F6572726F72203D3D20FB
:102030007374617469635F636173743C4F535F458C
:1020400052523E284F535F4552525F4E4F4E4529E4
:1020500000000000433A5C55736572735C333132A3
:102060003030353231365C446F63756D656E747334
:102070005C4C6F63616C46696C65735C476974683E
:1020800075624C6F63616C5C50563632345F4D4103
:10209000494E5C4170706C69636174696F6E5C4C31
:1020A0006F676765725C444C6F676765722E63701B
:1020B000700000004C6F6767657200000000000050
:1020C000000000009F9D05080000000000000000C7
:1020D00066616C7365000000433A5C55736572730A
:1020E0005C3331323030353231365C446F63756D7C
:1020F000656E74735C4C6F63616C46696C65735C90
:102100004769746875624C6F63616C5C5056363217
:10211000345F4D41494E5C4170706C696361746914
:102120006F6E5C445543495C4450617273652E6325
:10213000707000000000000000000000F98F05082A
:102140000000000000000000506572736973746540
:102150006E7400000000000000000000000000009D
:1021600000000000B1B20308F1B203080000000053
:10217000506F7765724D616E616765720000000097
:102180009A992141CDCC24410000A040000020417B
:102190000000A8410000984052524300525243327E
:1021A0003034302D320000004C494F4E000000000A
:1021B00066457874416E644261726F0050563632E3
:1021C0003420213D20300000433A5C557365727322
:1021D0005C3331323030353231365C446F63756D8B
:1021E000656E74735C4C6F63616C46696C65735C9F
:1021F0004769746875624C6F63616C5C5056363227
:10220000345F4D41494E5C4170706C696361746923
:102210006F6E5C50726F64756374696F6E54657332
:10222000745C4450726F64756374696F6E54657347
:10223000742E63707000000050563632342D3E6BA1
:10224000657948616E646C657220213D2030000024
:10225000636F6D6D734F776900000000636F6D6D84
:102260007355534200000000636F6D6D73424C451F
:1022700000000000253032642E253032642E2530D7
:102280003264000025303464000000002530313015
:10229000640D0000303530390000000000000000FF
:1022A00000000000836B05080000000013690508AA
:1022B000297005084D7305080000000000000000AB
:1022C000F56805080D690508DD690508E369050875
:1022D00000000000000000006F6A0508E9690508B9
:1022E00000000000000000000D6C0508A96C050846
:1022F000316D05080D6F05084F6F050800000000DF
:1023000000000000476B0508DB6A05082B6B050819
:10231000000000008B6A05080000000000000000BB
:102320000000000000000000AF6D0508696E0508A0
:1023300000000000936E05086D7005088B7105089C
:10234000797205083D730508DF7305089973050860
:102350000F74050800000000716B0508776B050815
:102360007D6B0508000000000974050899740508D4
:1023700015740508417405086D740508C5740508D1
:10238000CB740508D17405086568050863616C5055
:102390006F696E74203D3D20286D79456E746572BD
:1023A000656443616C506F696E7473202B203175C6
:1023B00029000000433A5C55736572735C33313217
:1023C0003030353231365C446F63756D656E7473D1
:1023D0005C4C6F63616C46696C65735C47697468DB
:1023E00075624C6F63616C5C50563632345F4D41A0
:1023F000494E5C4170706C69636174696F6E5C53C7
:10240000656E736F725C4453656E736F722E63708A
:102410007000000066616C73650000000000000041
:1024200000000000836B0508AB6705081369050809
:10243000297005084D730508000000000000000029
:10244000A1660508056705081B670508E369050817
:1024500000000000000000006F6A0508E969050837
:1024600000000000000000000D6C0508A96C0508C4
:10247000316D05080D6F05084F6F0508000000005D
:1024800000000000476B0508DB6A05082B6B050898
:10249000000000008B6A050800000000000000003A
:1024A0000000000000000000AF6D0508696E05081F
:1024B00000000000936E05086D7005088B7105081B
:1024C000797205083D730508DF73050899730508DF
:1024D0000F74050800000000716B0508776B050894
:1024E0007D6B050800000000097405089974050853
:1024F00015740508417405086D740508C574050850
:10250000CB740508D1740508656805080000000053
:1025100000000000836B0508000000001369050837
:10252000297005084D730508000000000000000038
:10253000F56805080D690508DD690508E369050802
:1025400000000000000000006F6A0508E969050846
:1025500000000000000000000D6C0508A96C0508D3
:10256000316D05080D6F05084F6F0508000000006C
:1025700000000000476B0508DB6A05082B6B0508A7
:10258000000000008B6A0508000000000000000049
:102590000000000000000000AF6D0508696E05082E
:1025A00000000000936E05086D7005088B7105082A
:1025B000797205083D730508DF73050899730508EE
:1025C0000F74050800000000716B0508776B0508A3
:1025D0007D6B050800000000097405089974050862
:1025E00015740508417405086D740508C57405085F
:1025F000CB740508D1740508656805082DF9050830
:1026000033F9050839F90508000000000000000052
:1026100000000000000000000000000000000000BA
:1026200000000000836B0508000000001369050826
:10263000297005084D730508000000000000000027
:102640002DCB0508CDCB0508E7CC0508E3690508C7
:1026500000000000000000006F6A0508E969050835
:1026600000000000000000000D6C0508A96C0508C2
:10267000316D05080D6F05084F6F0508000000005B
:1026800000000000476B0508DB6A05082B6B050896
:10269000000000008B6A0508000000000000000038
:1026A0000000000000000000AF6D0508696E05081D
:1026B00000000000936E05086D7005088B71050819
:1026C000797205083D730508DF73050899730508DD
:1026D0000F74050800000000716B0508776B050892
:1026E0007D6B050800000000097405089974050851
:1026F00015740508417405086D740508C57405084E
:10270000CB740508D17405086568050813CC050865
:1027100019CC0508E1CC050800000000000000000D
:1027200000000000000000000000000011CC0508BF
:102730000000000000000000000000000000000099
:102740000000000000000000000000000000000089
:1027500000000000836B05080000000013690508F5
:10276000297005084D7305080000000000000000F6
:102770001D570508CDCB0508E7CC05087D62050887
:1027800000000000000000006F6A0508E969050804
:1027900000000000000000000D6C0508A96C050891
:1027A000316D05080D6F05084F6F0508000000002A
:1027B00000000000476B0508DB6A05082B6B050865
:1027C000000000008B6A0508000000000000000007
:1027D0000000000000000000AF6D0508696E0508EC
:1027E00000000000936E05086D7005088B710508E8
:1027F000797205083D730508DF73050899730508AC
:10280000F35C050800000000C35A0508DF5A0508FC
:10281000D15A0508000000000974050899740508DC
:1028200015740508417405086D7405089B62050858
:1028300079650508ED650508375605083757050819
:1028400047570508E1CC0508000000000000000023
:1028500000000000000000000000000057570508BD
:102860000000000000000000000000000000000068
:102870000000000000000000000000003A3030308E
:10288000303030303146460A0000000000000000C1
:102890000000000000000000000000004D270408B8
:1028A0000FF504080000000097FE0408B9FA0408B8
:1028B00087FB040815FC04085BFD0408FFFD040801
:1028C00071FE0408DDF40408D9F70408F7F70408DA
:1028D000A7F8040855F90408DBF9040821F80408EE
:1028E000ADFB0408D9FF0408000000000000000050
:1028F000000000004B0105084D01050853010508C3
:10290000536C6F7400000000000000000000000025
:1029100000000000000000004D270408FB500508DF
:102920000000000097FE0408B9FA040887FB0408B9
:1029300015FC04085BFD0408FFFD040871FE040893
:10294000C9500508D9F70408F7F70408A7F80408E0
:1029500055F90408DBF9040821F80408ADFB040864
:10296000D9FF040800000000000000000000000083
:10297000FF550508AB550508CD550508A1540508B8
:102980001555050847550508015505086B550508F7
:102990000000000093550508000000000000000042
:1029A000000000000000000083EC04080FF504089C
:1029B0000000000097FE0408B9FA040887FB040829
:1029C00015FC04085BFD0408FFFD040871FE040803
:1029D000CDEC0408D9F70408F7F70408A7F80408B1
:1029E00055F90408DBF9040821F80408ADFB0408D4
:1029F000D9FF0408000000000000000000000000F3
:102A00004B0105084D010508530105087342617229
:102A10006F00000000000000000000000000000047
:102A200000000000E3EB0408FB5005080000000074
:102A300097FE0408B9FA040887FB040815FC04088B
:102A40005BFD0408FFFD040871FE0408E5EB0408C3
:102A5000D9F70408F7F70408A7F8040855F904089B
:102A6000DBF9040821F80408ADFB0408D9FF0408C9
:102A7000000000000000000000000000FF550508F5
:102A8000AB550508CD550508A15405081555050891
:102A900047550508015505086B550508000000005D
:102AA000935505087345787450000000000000003D
:102AB0000000000000000000000000004D27040896
:102AC0004F270408000000005461736B4576656E63
:102AD000747300000000000000000000000000000F
:102AE00000000000C7E3030841E403080000000001
:102AF0004355454141414143454545494949414186
:102B00004592924F4F4F5555594F554F9C4F9E9F51
:102B100041494F55A5A5A6A7A8A9AAABACADAEAF94
:102B2000B0B1B2B3B4414141B8B9BABBBCBDBEBF8C
:102B3000C0C1C2C3C4C54141C8C9CACBCCCDCECF28
:102B4000D1D145454549494949D9DADBDCDD49DF81
:102B50004FE14F4F4F4FE6E8E85555555959EEEFC5
:102B6000F0F1F2F3F4F5F6F7F8F9FAFBFCFDFEFFED
:102B70004D656D6F72795056363234006572722031
:102B80003D3D20284F535F455252294F535F4552D8
:102B9000525F4E4F4E450000433A5C557365727369
:102BA0005C3331323030353231365C446F63756DB1
:102BB000656E74735C4C6F63616C46696C65735CC5
:102BC0004769746875624C6F63616C5C505636324D
:102BD000345F4D41494E5C4170706C69636174694A
:102BE0006F6E5C4D61696E5C6D656D6F72792E63A1
:102BF0000000000004120720080000005000000040
:102C0000A4FD0620C800000084100720400000003A
:102C1000E80300000A000000C40807200C000000C0
:102C20008000000000000000000000000000000024
:102C30000000000000000000000000000000000094
:102C40000000000000000000000000000000000084
:102C50000000000000000000000000000000000074
:102C60000000000000000000000000000000000064
:102C70000000000000000000000000000000000054
:102C80000000000000000000000000000000000044
:102C90000000000000000000000000000000000034
:102CA0000000000000000000000000000000000024
:102CB0000000000000000000000000000000000014
:102CC0000000000000000000000000000000000004
:102CD00000000000000000000000000000000000F4
:102CE00000000000000000000000000000000000E4
:102CF00000000000000000006D78323553746174EC
:102D00007573203D3D204F5350495F4E4F525F53E6
:102D10005543434553530000433A5C557365727302
:102D20005C3331323030353231365C446F63756D2F
:102D3000656E74735C4C6F63616C46696C65735C43
:102D40004769746875624C6F63616C5C50563632CB
:102D5000345F4D41494E5C447269766572735C50D4
:102D600065726970686572616C735C4E4F525C4F3E
:102D70005350495F4E4F525F4D5832354C323536C5
:102D800034352E630000000073697A65203C3D20D5
:102D9000343039367500000028626C6B5F61646402
:102DA00072202520343039367529203D3D2030757C
:102DB0000000000028626C6B5F6164647220252053
:102DC0003235367529203D3D203075002873697AEB
:102DD000652025203235367529203D3D203075008F
:102DE000627566526561646261636B5B305D203D54
:102DF0003D203078666675003A3032303030303001
:102E0000343038303046320A3A31303330303030B6
:102E1000303130303430303230443135453030307C
:102E20003837393543303030383742354330303039
:102E30003839390A3A31303330313030303744356F
:102E4000433030303837463543303030383831351C
:102E50004330303038303030303030303030370A76
:102E60003A31303330323030303030303030303052
:102E70003030303030303030303030303030303052
:102E800030383535433030303842370A3A31303314
:102E90003033303030383335433030303830303004
:102EA00030303030303837354330303038383935DD
:102EB000433030303844310A3A31303330343030F6
:102EC00030393135433030303839333543303030B4
:102ED0003839353543303030383937354330303094
:102EE0003841300A3A3130333035303030393935C5
:102EF000433030303839423543303030383944355A
:102F00004330303038394635433030303837300A86
:102F10003A31303330363030304131354330303073
:102F20003841333543303030384135354330303037
:102F300038413735433030303834300A3A31303365
:102F40003037303030413935433030303841423518
:102F500043303030384144354330303038414635E5
:102F6000433030303831300A3A3130333038303055
:102F700030423135433030303842333543303030F1
:102F800038423535433030303842373543303030D1
:102F90003845300A3A313033303930303042393503
:102FA0004330303038424235433030303842443597
:102FB0004330303038424635433030303842300AC2
:102FC0003A313033304130303043313543303030B6
:102FD0003843333543303030384335354330303083
:102FE00038433735433030303838300A3A313033AF
:102FF0003042303030433935433030303843423559
:103000004330303038434435433030303844353540
:10301000433030303834410A3A3130333043303085
:103020003044443543303030384446354330303016
:103030003845313543303030384533354330303022
:103040003846300A3A313033304430303045353547
:1030500043303030384537354330303038454635E9
:103060004330303038463135433030303842340A1E
:103070003A304333304530303046333543303030EA
:1030800038463535433030303846373543303030C8
:103090003844390A3A31303331303030303031371A
:1030A0003232343437464646464646464638383548
:1030B0004530303038303030303030303046370AFC
:1030C0003A313033313130303030303030303030F0
:1030D00030303030303030303030303030303030F0
:1030E00030303030303030303041460A3A313033D1
:1030F000313230303030304235383542303146327E
:103100003038444638303030303039323038444648
:10311000383031303034320A3A31303331333030B4
:10312000303030323038444638303230303031325E
:103130003038444638303330303638343630304624
:103140003041310A3A313033313430303031364663
:10315000413031323130313230303046304339460F
:103160004230303231354646303830343034380A27
:103170003A313033313530303030304630423346FA
:103180004334464636464637313546463038303485
:1031900030383138354330343630300A3A31303314
:1031A00031363030303030323135464630383034D8
:1031B00030383138344330343630303230414446A0
:1031C000383036303035390A3A31303331373030F3
:1031D000303030323041444638303830303031329F
:1031E000304144463830413030303032304144464E
:1031F0003845440A3A31303331383030303043309A
:103200003030333230384446383045303030314158
:103210003935464630383034303030463044340A60
:103220003A31303331393030303231464333303255
:103230003135464630383034303030463039384613
:1032400043303032314446463833360A3A3130332F
:10325000314130303035303033303046303841460F
:103260004334464636464637314446463834343091
:10327000333831383537440A3A313033314230301F
:10328000304330343634464636463037314446468D
:1032900038333830333831383443303436313032E3
:1032A0003131350A3A3130333143303030444646DB
:1032B00038324330333030463037304643303032A6
:1032C0003334464634303034323030323144340ACC
:1032D0003A3130333144303030444646383143306F
:1032E0003330304630353846433037323143353469
:1032F00038303046303745464331360A3A3130337C
:10330000314530303030313231433434383030466A
:10331000303841464430313231433334383030462E
:10332000303836464439410A3A313033314630304C
:103330003030313231424634383030463032454612
:103340004330313231354646303830343030304613
:103350003036420A3A31303332303030303239464A
:1033600043343046323646343042443439303838CB
:103370003030303230424334393038383037440A14
:103380003A31303332313030303030323042433401
:1033900039303838303034323042423439303838CD
:1033A00030303032304242343932440A3A313033EC
:1033B00032323030303038383031453230384446AF
:1033C00038303030303037323038444638303130B1
:1033D000303030323038360A3A31303332333030F0
:1033E000303844463830323030303132303844466C
:1033F000383033303036383436303046303937466E
:103400003933300A3A3130333234303030303132BF
:103410003230313231423034383030463031334658
:103420004330313231414534383030463033410A4F
:103430003A3130333235303030383846433031323B
:1034400031414334383030463046444642303542CC
:1034500030303042443732423635320A3A31303336
:103460003236303030303032314142344131313710
:1034700030414234393038363030303230414134E6
:10348000393038363046300A3A313033323730301E
:1034900030414134393038363041413439303836B2
:1034A00030363242363730343737304235303132C9
:1034B0003138320A3A3130333238303030413134F9
:1034C000383030463035414643303132383430467A
:1034D0003043363830303132313945343836380AB5
:1034E0003A3130333239303030303046303637468A
:1034F0004330303234373242363546463038303455
:1035000030383038454330343636430A3A31303378
:10351000324130303030353030393334383830386B
:10352000434330343630343030354646303830342A
:10353000303830384530420A3A3130333242303058
:10354000304330343630363030333030303239304A
:1035500030383042323839423238383432303444FC
:103560003039450A3A313033324330303038423422
:1035700038383038434330343630343030333530F7
:103580003036324236323830303935343943320A07
:103590003A313033324430303030393838383042D4
:1035A00032383834323035443239323438303038C9
:1035B00038323831413932343930420A3A313033D5
:1035C0003245303030303838303034453038463499
:1035D000383030383832383141384634393038387C
:1035E000303230303035310A3A31303332463030D3
:1035F0003038453439303938383830423238383458
:103600003230354432384334383030383832303163
:103610004146440A3A313033333030303038423466
:103620003930383830303445303839343830303843
:103630003832303141383834393038383039310A5D
:103640003A31303333313030303834343830353843
:10365000303835343830343830383034383030362B
:1036600038383434393039383837440A3A3130331D
:1036700033323030303038313837453439303836FD
:1036800030374334383030363837463439303938CB
:10369000383038313841390A3A3130333333303009
:1036A00030373934393038363037413438303036C5
:1036B00038343031433739343930383630373834AC
:1036C0003846330A3A3130333334303030303036E4
:1036D000383734343930393638383834323439447C
:1036E0003330303230373434393038363042430AB0
:1036F0003A3130333335303030373134383030369A
:103700003830303238324644303730343830303662
:1037100038303032314331303032330A3A3130339D
:103720003336303030303032303644344131323656
:1037300038364334423142363831334542433230F1
:10374000323030323345440A3A3130333337303057
:1037500030303046304541464336463439373034D0
:1037600041313237383132463030333032343146FD
:103770003833420A3A313033333830303032323035
:1037800030364434383030363834303143364234D1
:103790003930383630303032303030323134350A2A
:1037A0003A313033333930303030344530363834D4
:1037B00041353246383231323031303138343931B6
:1037C00043303432394638443338370A3A313033AB
:1037D000334130303038303038363634393038369E
:1037E000303543343830303638363434393838367A
:1037F000303542343833410A3A3130333342303095
:103800003030303638363234394338363030384557
:103810003030303230363034393038363030303283
:103820003039390A3A31303333433030303545346A
:103830003938383630303032303544343943383620
:103840003030303230353334393038363035430A61
:103850003A3130333344303030353234383030362A
:103860003835303439303836303031323034443411
:1038700039303837303538343831420A3A3130331C
:1038800033453030303030363834344632433034DB
:1038900031383834323132443235353438303036DC
:1038A000383430314332460A3A31303333463030DF
:1038B00030353334393038363035323438303036CC
:1038C00038383030353034443531303231353134B8
:1038D0003839460A3A3130333430303030383942B2
:1038E0003230313631303845303130323134453490
:1038F0003838394232343136313033453042300A8B
:103900003A31303334313030303130323134433485
:103910003838394232343136313730424438304227
:1039200035303732333031323235420A3A31303382
:103930003432303030303130304339423234383440
:10394000383030463038374644303132313436340E
:10395000383030463037430A3A3130333433303040
:1039600030373646443031424438304235313132D6
:10397000304646463745464646303142443030426E
:103980003539450A3A313033343430303038354205
:1039900030303132313446463430303730303046D2
:1039A0003034384641334534383030463043410AAC
:1039B0003A313033343530303046334643303032AC
:1039C00030303039303030323038444638303430AE
:1039D00030303032303844463837460A3A313033A6
:1039E000343630303030353030354646343630328B
:1039F00030303239303030323030333930303132AB
:103A0000303844463839390A3A3130333437303077
:103A10003031303030363934363334343830304663
:103A20003030304644303132313332343830304641
:103A30003039380A3A313033343830303032334666
:103A400044303132303030463042414644324634E0
:103A50003830304630324146443245343835300A09
:103A60003A313033343930303030304630324346FA
:103A700044303032384641443132423438303046B6
:103A800030333146443241343831440A3A313033EC
:103A900034413030303030463033334644303032C9
:103AA000384641443146464637433446463035422F
:103AB000303030424444450A3A31303334423030B9
:103AC0003031304235354646304646333430323276
:103AD000313233343830304630424246443030326E
:103AE0003836370A3A3130333443303030313244AB
:103AF000303231343843303643383042323034306B
:103B00003030323231314534383030463044360A84
:103B10003A3130333444303030424346443131322C
:103B200030464646374131464632344232303032F2
:103B300043303444303546463434330A3A31303336
:103B40003445303030393630303234423239304614
:103B500042463446343230303030304232313042F6
:103B6000443030303035450A3A3130333446303025
:103B70003030303034303034303030303131383033
:103B8000303030303233303030324330383030340F
:103B90003043390A3A313033353030303032343016
:103BA00038303034303238303830303430303030F3
:103BB0003830303430304330383030343034330AF9
:103BC0003A313033353130303039313337303032CB
:103BD00030303830303030323036343337303032C5
:103BE00030363033373030323032390A3A313033D0
:103BF0003532303030363833373030323038363393
:103C00003730303230383833373030323038413373
:103C1000373030323033460A3A3130333533303092
:103C20003038433337303032303338333730303256
:103C30003036433337303032303238333730303249
:103C40003044370A3A31303335343030303730335E
:103C50003730303230303030433031343030303241
:103C60003430313430383042353030463044440A14
:103C70003A313033353530303038334644343046DD
:103C800036423833313838343230314441303132D1
:103C900030303045303030323030360A3A3130331F
:103CA00035363030303032424430303030344134C8
:103CB00039303834333441343930383630373034B1
:103CC000373130423434380A3A31303335373030D6
:103CD00030303032313030323230303233303032D6
:103CE0003230463233393046393033313030303289
:103CF0003943430A3A313033353830303033344485
:103D00003034343439303936383131463445303650
:103D10003144314635453036313039304144390A45
:103D20003A31303335393030304431463130343047
:103D30003243423430343137383931343038323725
:103D400038314134303131343332360A3A3130335C
:103D50003541303030303930313032373831324619
:103D60003030333032443242324432303039313400
:103D7000303336344145390A3A3130333542303008
:103D800030303337383942313035324638323332D9
:103D900030464632333034373831344630303330C1
:103DA0003441460A3A3130333543303030453442BD
:103DB00032453430304133343039413433313934A1
:103DC0003030413433324534393033373832390AC0
:103DD0003A31303335443030303942313034314685
:103DE0003832333230303132313032373831324696
:103DF00030314630323931343033340A3A313033AD
:103E00003545303030324534413030373834303158
:103E10003134324638323031303039453030313259
:103E2000313032373841420A3A313033354630305A
:103E30003031324630314630323931343032333439
:103E40004130303738343031313432463832303125
:103E50003033370A3A313033363030303031304257
:103E600043373034373236344131313430303834FE
:103E70003332303439303836303730343741330A22
:103E80003A31303336313030303234343832303405
:103E900039303836303730343737304234303032DA
:103EA00034464632353030323632340A3A313033E5
:103EB00036323030303030323331433442314236B2
:103EC0003831334634453036334433463545303661
:103ED000333142304131330A3A31303336333030C6
:103EE0003044334631303430344444343043394242
:103EF0003231314641303446334432423231354535
:103F00004141310A3A31303336343030303032309A
:103F10003130423433314230313130463043303049
:103F20003441343039433046333031323543330A4B
:103F30003A31303336353030303238303043304239
:103F400032433030303833343046463230454442E4
:103F500032453930303130464139430A3A31303315
:103F600036363030303031463630443438353046ED
:103F700038323430304230343330423439343146E0
:103F8000383234303046450A3A3130333637303003
:103F900030303934383530463832343030313834D6
:103FA00033303734393431463832343030373042B8
:103FB0004335390A3A3130333638303030373034DF
:103FC00037303030303830453130304530303045A2
:103FD0003430304530303845443030453041390A8E
:103FE0003A3130333639303030303030304641308D
:103FF0003530434544303045303138454430304524
:1040000030303045313030453041430A3A31303379
:10401000364130303038304646464631463034300E
:1040200030464130353030323044464638444331F2
:10403000323038363032440A3A313033364230305A
:1040400030303032304446463844383132303836F9
:1040500030313432304446463844343132303836E8
:104060003036380A3A31303336433030303030323F
:1040700030444646384430313230383630303032D1
:104080003044464638434331323038363037430ABD
:104090003A31303336443030304446463843383095
:1040A00032303036383530463030313030444646A4
:1040B00038433031323038363038460A3A313033CE
:1040C0003645303030444646384243303230303660
:1040D000384446463842433132303834304446461C
:1040E000384230313235370A3A31303336463030A3
:1040F0003030383630444646384138303230303649
:1041000038444646384143313230383430444646EC
:104110003843350A3A313033373030303039433173
:104120003230383630444646383934303230303622
:104130003833304634383032304446463833330A28
:104140003A3130333731303030384331323038362D
:1041500030444646383838303230303638333046DE
:1041600034464530304446463845310A3A313033DA
:10417000373230303038303132303836303030321B
:1041800030444646383834313230383630373034BF
:10419000374446463831430A3A31303337333030CA
:1041A00030364331323039363833314634383033B3
:1041B0003144464638363032323131363044464664
:1041C0003832330A3A3130333734303030354331D6
:1041D000323039363833314634383032314446465D
:1041E0003835303232313136304230463537350AA3
:1041F0003A3130333735303030383033463033446D
:10420000304230463538303246303944303131452D
:1042100030444646383343303241340A3A31303341
:104220003736303030303036383530463438303349
:104230003044464638333431323038363030384501
:10424000304446463842390A3A3130333737303015
:104250003032433032303036383530463441303207
:1042600030444646383230313230383630464645B2
:104270003735380A3A313033373830303037303428
:1042800037383042353331323030304630443946B9
:104290003844464638323431323038373042360AC4
:1042A0003A313033373930303044464638323030A6
:1042B0003230303638343031434446463831383184
:1042C00032303836304446463832430A3A31303399
:1042D000374130303031303032393046393030309B
:1042E000303030323830344431444646383038305B
:1042F000323030363833380A3A31303337423030A2
:10430000304646323845374431333132303030462A
:104310003043314638303032383031443030313249
:104320003031360A3A31303337433030303030456F
:104330003030303230303242443030323137353440
:104340003930393638383930383839303044300A35
:104350003A3130333744303030303134333733341E
:10436000383031363037303437303032313731341D
:1043700039303936383331463036350A3A31303310
:1043800037453030304630303130313433364534D3
:1043900038303136303730343730303231364334DC
:1043A000393039363838460A3A31303337463030CA
:1043B00030333146344530363130313433364134A0
:1043C00038303136303730343730303231363834B7
:1043D0003938330A3A3130333830303030303936CA
:1043E000383331463436303531353145414330305C
:1043F0003136353438303136303730343742300AA0
:104400003A31303338313030303030323136333485
:104410003930393638333146343430343130313450
:1044200033363034383031363037370A3A3130337A
:10443000383230303037303437303032313030325B
:10444000313030323230303231354434393039362F
:10445000383131463034340A3A3130333833303041
:10446000303043303130303239303444303034320F
:1044700039303544303038323930364430323145D5
:104480003037340A3A31303338343030303545340F
:1044900039303136303230453035453439303136C7
:1044A0003031444530353434393039363835440AC2
:1044B0003A313033383530303031314634373031BD
:1044C000313839304338393143353134413132367E
:1044D00038313246343830333244420A3A3130339C
:1044E0003836303030303032413033443135373483
:1044F0004135313433303136303041453034433456
:10450000413132363843410A3A313033383730306E
:10451000303932303330334435353134413531344C
:104520003330313630303245303530344135313446
:104530003333420A3A313033383830303030313664
:10454000303031453034443439303136303435341C
:104550003930393638313146304630303130450A1D
:104560003A313033383930303030393039344434FE
:1045700041353135433032363843413430343236C8
:1045800030343034393039363843320A3A31303306
:1045900038413030303131463445303631303930C1
:1045A000413438344135313543343236384341347F
:1045B000303832363045410A3A31303338423030C3
:1045C000303342343930393638313146343630358B
:1045D0003143393041343334413531354334323667
:1045E0003841360A3A313033384330303043413481
:1045F000304332363033363439303936383131465B
:104600003434303431383930423346344133390A66
:104610003A31303338443030303531354343323637
:104620003842324642463146313031363137303405
:1046300037343942323030323934350A3A31303356
:104640003845303030303544303243343930393603
:1046500038303834333241343930383630303545FB
:10466000303239343941300A3A313033384630301B
:1046700030303936383331454130303030323734EC
:1046800039303836303730343734394232303032DE
:104690003938390A3A3130333930303030303544F6
:1046A00030323534393039363830383433323334C7
:1046B0003930383630303545303232343939340AD1
:1046C0003A313033393130303030393638333145A2
:1046D00041303030303230343930383630373034A1
:1046E00037343942323030323936460A3A31303393
:1046F0003932303030303544303139343930393670
:104700003830383433313734393038363030354555
:10471000303136343939380A3A3130333933303080
:10472000303039363833314541303030303134343F
:10473000393038363037303437303032313030324B
:104740003233430A3A31303339343030303030325A
:1047500031303130304339423234393039433942E3
:104760003230313239303244313133343942340A23
:104770003A313033393530303030413638303645E3
:1047800030303232393032443131373439304136D9
:1047900038303145303143343946390A3A313033D3
:1047A000393630303030413638433042323130469D
:1047B0003031463031434134304430303730314489
:1047C000353031323137410A3A31303339373030D0
:1047D00030303045303030323130383030343042A3
:1047E000323730343731353438303036383530467A
:1047F0003039300A3A3130333938303030383037A8
:104800003031333439303836303730343730433163
:104810003030323430313031303032343030430A9D
:104820003A3130333939303030313431303032345C
:10483000303138313030323430314331303032344D
:1048400030303031303032343039370A3A31303369
:104850003941303030303431303032343030303033
:104860003046464638464646464636464530383156
:10487000303032343037450A3A3130333942303013
:1048800030393333373030323037383337303032F5
:1048900030323031303032343030303132374130F4
:1048A0003035300A3A3130333943303030303032FD
:1048B00034463430303030303933443030423035A3
:1048C0004530303038444335453030303834310AA3
:1048D0003A313033394430303032343130303234A0
:1048E000303338423530343030304430303238387C
:1048F00038303732383334443138460A3A3130337D
:10490000394530303036383838303032383041443C
:1049100031414237414541383841393838323030F9
:10492000303030463030430A3A3130333946303057
:104930003030334639323938393230303030304621
:1049400030374146383241453036383838303132E8
:104950003837340A3A313033413030303030414426
:1049600031414237414541383841393838323030A9
:104970003030304630313546393239383934330AFF
:104980003A313033413130303032303030303046EF
:1049900030373546383143453036383838303232A2
:1049A00038304144314142374131330A3A313033B2
:1049B0004132303030454138384139383832303082
:1049C000303030463032384639323938393230308A
:1049D000303030463030300A3A31303341333030C5
:1049E000303731463830454530414237414541380E
:1049F0003841393838323030303030463033444640
:104A00003932310A3A31303341343030303239388A
:104A10003932303030303046303646463830334523
:104A20003032393030323030303030463033310A85
:104A30003A31303341353030303844463833314202
:104A40004434394232303032393034443030313805
:104A500038353146303031303132460A3A31303330
:104A60004136303030303138303034453030313804
:104A700038343046324645333231313430303138D3
:104A8000303730343737440A3A31303341373030F9
:104A900030353242323030324130334430383238BF
:104AA00039313134333831383130334530383238B8
:104AB0003946360A3A3130334138303030333245B6
:104AC000413031303138313831373034373130429C
:104AD0003430303234303438393134463045360AA7
:104AE0003A3130334139303030463730343839425A
:104AF0003239324232313134334442423231413040
:104B000032393242323131343331370A3A3130338B
:104B10004141303030304334333034383131304239
:104B20004337303437303032323032383934464619
:104B3000363837373344330A3A3130334142303034
:104B40003031413430383942323041343330323808
:104B50003137303437303032323032383834304612
:104B60003230430A3A313033414330303038463303
:104B700033314134303839423230413433303238D5
:104B80003037303437303032323832383845440AF2
:104B90003A313033414430303031324630383030C1
:104BA00032383942323041343338323830373034A9
:104BB00037303032323032383937340A3A313033E4
:104BC0004145303030344646364630373331413453
:104BD0003038394232304134333032383137303482
:104BE000373030323246300A3A3130334146303095
:104BF000303032384234464636463337333141342A
:104C0000303839423230413433303238333730344F
:104C10003737300A3A31303342303030303030328A
:104C200032303238423446463246463333314134EC
:104C30003030393032383942323041343341360A3B
:104C40003A3130334231303030303238333730342B
:104C500037303032323832384234464636463337CF
:104C600033314134303839423246410A3A313033F7
:104C700042323030303041343338323833373034E8
:104C80003730303232383238423446463246463394
:104C9000333141343039300A3A31303342333030F5
:104CA00030303930323839423230413433383238AA
:104CB00033373034373030323230303232303032D5
:104CC0003343460A3A3130334234303030303238B0
:104CD000413041343038303839313145413030306D
:104CE0003339324232303032413034443035360A92
:104CF0003A3130334235303030394242323030325E
:104D00004230314430303132323030453030303260
:104D100032313030303430423246350A3A31303375
:104D20004236303030373034373032384133324524
:104D30004130313031303138323730343746384213
:104D4000353034303030390A3A3130334237303050
:104D5000303044303030303236303132374138380C
:104D600038303032383031443130323236303045FC
:104D70003042380A3A313033423830303030303215
:104D800036453838383031323830314431303232CB
:104D90003730304530303132373638383838330AEA
:104DA0003A313033423930303030303238313844B3
:104DB0003141423741454138384139383832303055
:104DC00030303046303243463831380A3A313033A9
:104DD0004241303030323938393230303046464650
:104DE00037413346464142374146464232334130ED
:104DF000303932423235370A3A313033424230307C
:104E00003046364232333130303839423232303047
:104E10003030304630334546383239383932303028
:104E20003044390A3A313033424330303046464616
:104E3000373945464631374530414237414541389B
:104E40003841393838323030303030463039330A32
:104E50003A313033424430303033334638323938E7
:104E6000393230303046464637393346464142378C
:104E700041464642323341303035300A3A313033E0
:104E800042453030303932423246364232333130A8
:104E900030383942323230303030304630303546BA
:104EA000383239383942450A3A31303342463030A7
:104EB0003032303030464646373743464646314238
:104EC0004446304234303032343030323530343889
:104ED0004230410A3A3130334330303030303538A7
:104EE0004330363843343346323332333733453444
:104EF0003030363834344646363043373632340A6A
:104F00003A31303343313030303334343039324257
:104F100032444242323142303139424232314134FC
:104F200033313434333433463230440A3A31303357
:104F30004332303030333033323135343038394227
:104F40003235314630303130313044343330303224
:104F5000313031383336410A3A313033433330302F
:104F600030303438333035383446304243373034DB
:104F700037463042343030323430303235303032EF
:104F80003646450A3A3130334334303030303438E5
:104F90004230353843304530314236423230313894
:104FA0004334334632323333373339343034380ACA
:104FB0003A313033433530303030313834343046A4
:104FC000364646343130433430444242323139304F
:104FD00033383942323043343345410A3A31303381
:104FE0004336303030313130323839423230433468
:104FF000333433463230333331304434303536464F
:10500000303130303141410A3A313033433730307A
:10501000303044343330343833303538344630422D
:105020004337303437463042343030323430303227
:105030003539340A3A313033433830303030303259
:1050400036383438423035384330453032423642D3
:105050003230313843343346323333323744410A05
:105060003A313033433930303033393430303138FD
:1050700034344646363043373130433430393242A7
:1050800032444242323139303132440A3A313033DB
:1050900043413030303839423231313433304334A7
:1050A000333433463233333031304434303536469E
:1050B000343830373134350A3A31303343423030C6
:1050C0003030443433383438333035383446304275
:1050D0004337303437463042343030323430303277
:1050E0003544340A3A313033434330303030303293
:1050F0003638343842303538433045303342364222
:105100003230313843343246323333333738410A60
:105110003A31303343443030303339343030313841
:1051200034343046364646343130433430444242DB
:1051300032313930333531454134300A3A31303348
:1051400043453030303032323138394232304334F6
:1051500033343046323333333130443430353646ED
:10516000343830353132390A3A3130334346303011
:1051700030304434333834383330353834463042C4
:1051800043373034373030303033304234303032DF
:105190003237420A3A3130334430303030303032F6
:1051A00033303032343030323330463441313436BB
:1051B0003843304633303334333832423234370AAE
:1051C0003A31303344313030303835303230324497
:1051D000353334463045303634303745304335305A
:1051E00032303444353033323532450A3A31303397
:1051F0004432303030313546413033463339433430
:10520000333030453039343433343942323030324F
:10521000393035443046460A3A3130334433303041
:105220003038303032303244353534454130323424
:105230003430304530313434333031343830343632
:105240003043320A3A313033443430303033304234
:105250004337303437303430303031343031423409
:105260003231334431303934323336443146380AFE
:105270003A313033443530303032414231383434D1
:105280003642304642463246303032464231304372
:1052900032373034373030463042420A3A313033D8
:1052A000443630303043354239464344333030326F
:1052B00032303032333730343730423030303230C1
:1052C000303030323144430A3A31303344373030B1
:1052D000303030323037303437393034323731458E
:1052E000423033304346364433373042354231461C
:1052F0004139360A3A31303344383030303831466B
:1053000034423346413833463532433142413334F7
:105310003043344631323030353332464136390A43
:105320003A31303344393030303035463633333427
:1053300033413234303546463030303436453634F9
:1053400030303245303542303844300A3A3130332B
:1053500044413030303546454133323032383431D3
:1053600041373145423033303532344246323034C1
:10537000363239343644430A3A31303344423030DD
:1053800030373634314634443330323030304230C6
:1053900030333030303030323137304244303132D7
:1053A0004143460A3A313033444330303043464477
:1053B000393730423531343043323044304231466F
:1053C0004138314634423246413832463544330A58
:1053D0003A31303344443030304334463132303067
:1053E0003436343139423446313230303644364442
:1053F00033423234303546463044380A3A3130335D
:10540000444530303030303434463434303030324B
:10541000353032453035323038354645413333301A
:10542000334336314139420A3A3130334446303021
:1054300030373145423032304532344246333034F1
:1054400036373134363634343136443431463344E9
:105450003332450A3A313033453030303030323033
:105460003030423030323030303239303037304204
:105470004430433436423146424632463134450A9E
:105480003A313033453130303030324642313134C8
:105490003532443034343545413130343542354687
:1054A00042463246343032464230370A3A3130339F
:1054B0004532303030313435353830423234304591
:1054C0004130353435423546424632463030324638
:1054D000423130353239320A3A31303345333030A7
:1054E000303430454130343430373042443030305D
:1054F0003038304235444646384534313138383416
:105500003231430A3A31303345343030303034446C
:1055100030444646384530313138383432304244F0
:105520003031354530303132313446463444370A33
:105530003A313033453530303030303730464646FA
:1055400037363346443030323134464634303037E3
:1055500030464646373545464437370A3A313033C8
:1055600045363030303041453030313231344646C6
:105570003438303630464646373538464430303297
:10558000313446463437340A3A31303345373030D7
:105590003038303630464646373533464446464541
:1055A00037303142443330423430303232303032AE
:1055B0003334460A3A3130334538303030343236BD
:1055C0003844464638413434313232343030433650
:1055D0003839314639303435303534454144410A63
:1055E0003A3130334539303030303532343232347C
:1055F000333432363038323638444646383930342F
:1056000031323234304343363843410A3A31303351
:1056100045413030303844363832433433393146FE
:105620003930353530353445413435303432323423
:10563000333832363030310A3A3130334542303047
:1056400030433236413332463437303032303937F6
:1056500043343931453042343344424232353245A5
:105660004133420A3A3130334543303030303335FC
:1056700032433236323330424337303437343942B2
:105680003230303239303444303831363846350AE9
:105690003A313033454430303035314630303130B6
:1056A00031383136303033453038313638343930AE
:1056B00038343930303831363037370A3A313033D0
:1056C000454530303037303437383136383531466B
:1056D000303038303138313630373034373030329E
:1056E000313830363834370A3A3130334546303085
:1056F0003030303037303144353031323130304570
:10570000303030323130383030343042323730346B
:105710003731310A3A313033463030303038313673
:105720003835314630303430313831363037303436
:105730003730303231383036383430303739410A4A
:105740003A31303346313030303031443530313217
:105750003130304530303032313038303034304212
:1057600032373034373439423246430A3A313033F3
:1057700046323030303030323930344430383136DF
:1057800038353146344130303138313630303345B8
:10579000303831363831380A3A31303346333030E8
:1057A00030333146344130303138313630373034AF
:1057B000374630423430303234303032354339427B
:1057C0003242420A3A31303346343030303041329E
:1057D000393131444243343638303732354231463C
:1057E0003130413036303332373745343335440A7F
:1057F0003A3130334635303030423534304143343D
:105800003344424232423146313041303530333216
:1058100036373534333133464135310A3A31303356
:105820004636303030303546353243343343343603
:105830003030454530303436393037323530333218
:10584000363036464231330A3A313033463730301B
:1058500030303146364235343041433433444242AD
:1058600032303332353035464230314635313346C9
:105870004141450A3A3130334638303030303546D0
:1058800035324334333034363144324232303732B9
:105890004131304441343436423146323344330AA4
:1058A0003A313033463930303035353145303532A4
:1058B000363735343331334641303546354143345C
:1058C00033433942323532314545410A3A3130337A
:1058D0004641303030303532333541343331314662
:1058E0004130324635324334333434363332344542
:1058F000304432423241430A3A313033464230304A
:105900003030443241313044413034364231463215
:10591000334435314630353236373534333133461A
:105920004134420A3A313033464330303030354624
:1059300035414334334339423244323146303532D3
:105940003335413433313146413032463544350AFE
:105950003A313033464430303032433433303436E9
:1059600033313045304334364131463233423246AA
:1059700031304430353035323643420A3A313033F3
:105980004645303030373534333133464130354693
:105990003541433433433942323044334130353278
:1059A000333541343339430A3A31303346463030A7
:1059B0003031314641303246353243343343343668
:1059C000324630424337303437343042323030326E
:1059D0003841440A3A313034303030303030364497
:1059E000303042343830303638353046343030306C
:1059F0003030393439303836303035453033430A79
:105A00003A3130343031303030303734383030366D
:105A10003833304634303030303035343930383641
:105A200030373034373030303035380A3A3130346E
:105A30003032303030303032343031343030303257
:105A40003830313430464646454630464646444670
:105A5000374631464646320A3A31303430333030F8
:105A60003030383234303134303030323230303619
:105A700038433942323038343230314430303132C8
:105A80003244300A3A3130343034303030303045FE
:105A900030303032323130303034304232373034DE
:105AA0003730323638433942323332454142340A94
:105AB0003A313034303530303030313031303136C9
:105AC00030373034373030303032303438303038AE
:105AD00038373034373830423536410A3A3130348D
:105AE0003036303030314634383030363834313179
:105AF0004331453441313136304230463546413705
:105B0000463042443934390A3A3130343037303053
:105B10003030303230314234393038363046464613
:105B20003731424641303042323030323830314401
:105B30003439410A3A31303430383030303136344B
:105B400039303838304646463744364639313634AF
:105B50003830303638464132383037443143340AF1
:105B60003A31303430393030303030323031343412
:105B700039303836303030463031374639303046BB
:105B800030323246393034453034430A3A313034D9
:105B900030413030303130343830303638343031D4
:105BA0004330463439303836303031424438304270
:105BB000353030323032310A3A31303430423030E0
:105BC000303030463046374639374646303034304C
:105BD0003030304630434146393430463246333136
:105BE0003043350A3A31303430433030303030468B
:105BF0003044364639303132303030463045434615
