:020000040800F2
:10000000D04B042035B30308699103086B910308B2
:100010006D9103086F9103087191030800000000BF
:1000200000000000000000000000000073910308C1
:100030007591030800000000C58902087791030844
:10004000D9B70308DDB70308E1B70308E5B703082C
:10005000E9B70308EDB70308A7910308F1B7030850
:10006000B9910308F5B70308F9B703082D920308FF
:10007000FDB7030801B8030805B8030809B8030869
:100080000DB8030811B8030815B8030819B8030818
:100090001DB8030821B8030825B80308D591030843
:1000A00029B803082DB8030831B8030835B8030888
:1000B00039B803083DB8030841B803087B91030829
:1000C00091910308E7110108FB110108339203081D
:1000D00039920308E72001083B210108B5210108F6
:1000E0000392030845B8030849B803084DB803084C
:1000F00051B8030855B8030859B8030800000000B8
:100100005DB8030861B8030865B8030869B8030857
:100110003F220108972201086DB8030871B803084F
:1001200075B8030879B803087DB8030881B80308D7
:1001300085B8030889B803088DB8030891B8030887
:1001400095B80308176D020899B8030817920308B9
:100150009DB80308A1B80308A5B803084F92030887
:100160001312010831120108A9B80308ADB8030839
:10017000B1B80308B5B80308000000000000000093
:10018000B9B80308BDB80308C1B803086F12010865
:100190005B120108C9B8030800000000000000005D
:1001A0000000000000000000C5B80308CDB8030837
:1001B000D1B80308D5B80308D9B803083A303230AB
:1001C00030303030343038303046320A3A31303323
:1001D00030303030303130303430303230443135FE
:1001E00045303030383739354330303038374235A4
:1001F000433030303839390A3A31303330313030E9
:10020000303744354330303038374635433030307E
:1002100038383135433030303830303030303030AD
:100220003030370A3A3130333032303030303030DD
:1002300030303030303030303030303030303030BE
:100240003030303030383535433030303842370A8E
:100250003A3130333033303030383335433030306A
:10026000383030303030303030383735433030305F
:1002700038383935433030303844310A3A31303348
:10028000303430303039313543303030383933352F
:100290004330303038393535433030303839373500
:1002A000433030303841300A3A3130333035303035
:1002B00030393935433030303839423543303030D9
:1002C00038394435433030303839463543303030B2
:1002D0003837300A3A31303330363030304131350A
:1002E00043303030384133354330303038413535A4
:1002F0004330303038413735433030303834300ACD
:100300003A313033303730303041393543303030A6
:100310003841423543303030384144354330303055
:1003200038414635433030303831300A3A31303395
:100330003038303030423135433030303842333568
:10034000433030303842353543303030384237353D
:10035000433030303845300A3A313033303930307C
:100360003042393543303030384242354330303016
:1003700038424435433030303842463543303030EF
:100380003842300A3A313033304130303043313541
:1003900043303030384333354330303038433535EF
:1003A0004330303038433735433030303838300A16
:1003B0003A313033304230303043393543303030E9
:1003C00038434235433030303843443543303030A1
:1003D00038443535433030303834410A3A313033DF
:1003E0003043303030444435433030303844463583
:1003F000433030303845313543303030384533358F
:10040000433030303846300A3A31303330443030BF
:10041000304535354330303038453735433030306E
:10042000384546354330303038463135433030304A
:100430003842340A3A304333304530303046333571
:100440004330303038463535433030303846373534
:10045000433030303844390A3A313033313030307B
:1004600030303137323234343746464646464646D7
:100470004638383545303030383030303030303034
:100480003046370A3A313033313130303030303065
:10049000303030303030303030303030303030305C
:1004A0003030303030303030303030303041460A4B
:1004B0003A313033313230303030304235383542F5
:1004C00030314632303844463830303030303932CE
:1004D00030384446383031303034320A3A313033F3
:1004E00031333030303030323038444638303230CA
:1004F00030303132303844463830333030363834AA
:10050000363030463041310A3A31303331343030D0
:100510003031364641303132313031323030304690
:100520003043394642303032313546463038303447
:100530003034380A3A3130333135303030303046AB
:1005400030423346433446463646463731354646D2
:100550003038303430383138354330343630300A82
:100560003A31303331363030303030323135464642
:10057000303830343038313834433034363030323B
:1005800030414446383036303035390A3A3130332C
:100590003137303030303032304144463830383006
:1005A00030303132304144463830413030303032F2
:1005B000304144463845440A3A31303331383030DE
:1005C00030304330303033323038444638304530C4
:1005D00030303141393546463038303430303046AD
:1005E0003044340A3A3130333139303030323146E8
:1005F000433330323135464630383034303030468F
:100600003039384643303032314446463833360A82
:100610003A3130333141303030353030333030469C
:1006200030384146433446463646463731444646DE
:1006300038343430333831383537440A3A3130338E
:100640003142303030433034363446463646303727
:100650003144464638333830333831383443303417
:10066000363130323131350A3A313033314330307E
:1006700030444646383243303330304630373046E7
:100680004330303233344646343030343230303216
:100690003144340A3A313033314430303044464604
:1006A00038314330333030463035384643303732D6
:1006B0003143353438303046303745464331360AD9
:1006C0003A313033314530303030313231433434E7
:1006D000383030463038414644303132314333349B
:1006E00038303046303836464439410A3A313033B2
:1006F0003146303030303132314246343830304695
:100700003032454643303132313546463038303468
:10071000303030463036420A3A31303332303030C1
:10072000303239464334304632364634304244342F
:10073000393038383030303230424334393038385C
:100740003037440A3A3130333231303030303032A1
:100750003042433439303838303034323042423429
:100760003930383830303032304242343932440A4D
:100770003A3130333232303030303838303145323F
:1007800030384446383030303030373230384446F4
:1007900038303130303030323038360A3A31303358
:1007A0003233303030384446383032303030313205
:1007B00030384446383033303036383436303046CE
:1007C000303937463933300A3A3130333234303009
:1007D00030303132323031323142303438303046DC
:1007E0003031334643303132314145343830304690
:1007F0003033410A3A3130333235303030383846D0
:10080000433031323141433438303046304644464B
:100810004230354230303042443732423635320A87
:100820003A31303332363030303030323141423488
:10083000413131373041423439303836303030325E
:1008400030414134393038363046300A3A3130336D
:10085000323730303041413439303836304141342C
:100860003930383630363242363730343737304226
:10087000353031323138320A3A3130333238303073
:1008800030413134383030463035414643303132F2
:1008900038343046304336383030313231394534EF
:1008A0003836380A3A313033323930303030304629
:1008B00030363746433030323437324236354646AA
:1008C0003038303430383038454330343636430AE7
:1008D0003A313033324130303030353030393334E2
:1008E000383830384343303436303430303546468B
:1008F00030383034303830384530420A3A313033CD
:1009000032423030304330343630363030333030AD
:100910003032393030383042323839423238383477
:10092000323034443039450A3A3130333243303092
:10093000303842343838303843433034363034304D
:100940003033353030363242363238303039353463
:100950003943320A3A31303332443030303039386A
:100960003838304232383834323035443239323423
:100970003830303838323831413932343930420A3F
:100980003A31303332453030303038383030344519
:1009900030384634383030383832383141384634DF
:1009A00039303838303230303035310A3A3130333E
:1009B00032463030303845343930393838383042C2
:1009C00032383834323035443238433438303038C5
:1009D000383230314146440A3A31303333303030E6
:1009E00030384234393038383030344530383934A2
:1009F000383030383832303141383834393038389E
:100A00003039310A3A3130333331303030383434E0
:100A10003830353830383534383034383038303490
:100A20003830303638383434393039383837440A89
:100A30003A31303333323030303038313837453472
:100A4000393038363037433438303036383746343A
:100A500039303938383038313841390A3A31303361
:100A60003333303030373934393038363037413439
:100A7000383030363834303143373934393038361D
:100A8000303738343846330A3A3130333334303043
:100A90003030303638373434393039363838383405
:100AA00032343944333030323037343439303836F8
:100AB0003042430A3A313033333530303037313415
:100AC00038303036383030323832464430373034CF
:100AD0003830303638303032314331303032330A0A
:100AE0003A313033333630303030303230364434CF
:100AF000413132363836433442314236383133456B
:100B000042433230323030323345440A3A313033A6
:100B10003337303030303046304541464336463446
:100B20003937303441313237383132463030333072
:100B3000323431463833420A3A3130333338303088
:100B40003032323030364434383030363834303168
:100B5000433642343930383630303032303030324B
:100B60003134350A3A31303333393030303034456E
:100B70003036383441353246383231323031303126
:100B80003834393143303432394638443338370A0F
:100B90003A31303333413030303830303836363413
:100BA00039303836303543343830303638363434EE
:100BB00039383836303542343833410A3A313033F7
:100BC00033423030303030363836323439433836CC
:100BD00030303845303030323036303439303836D5
:100BE000303030323039390A3A31303333433030F3
:100BF0003035453439383836303030323035443499
:100C00003943383630303032303533343930383695
:100C10003035430A3A3130333344303030353234B2
:100C2000383030363835303439303836303031328B
:100C30003034443439303837303538343831420A7A
:100C40003A31303333453030303030363834344652
:100C5000324330343138383432313244323535343D
:100C600038303036383430314332460A3A31303356
:100C7000334630303035333439303836303532342D
:100C80003830303638383030353034443531303221
:100C9000313531343839460A3A3130333430303036
:100CA00030383942323031363130384530313032F7
:100CB00031344534383839423234313631303345C5
:100CC0003042300A3A313033343130303031303222
:100CD00031344334383839423234313631373042A6
:100CE0004438304235303732333031323235420ACF
:100CF0003A313033343230303030313030433942B1
:100D00003234383438303046303837464430313277
:100D100031343634383030463037430A3A313033A4
:100D20003433303030373646443031424438304244
:100D300035313132304646463745464646303142F7
:100D4000443030423539450A3A313033343430306A
:100D50003038354230303132313446463430303735
:100D60003030304630343846413345343830304600
:100D70003043410A3A31303334353030304633462F
:100D80004330303230303039303030323038444611
:100D90003830343030303032303844463837460A14
:100DA0003A313033343630303030353030354646F5
:100DB000343630323030323930303032303033390E
:100DC00030303132303844463839390A3A313033EC
:100DD00034373030303130303036393436333434E3
:100DE00038303046303030464430313231333234AE
:100DF000383030463039380A3A31303334383030D0
:100E00003032334644303132303030463042414661
:100E1000443246343830304630324146443245342C
:100E20003835300A3A3130333439303030303046AA
:100E30003032434644303032384641443132423415
:100E40003830304630333146443241343831440A48
:100E50003A3130333441303030303046303333463D
:100E600044303032384641443146464637433446B2
:100E700046303542303030424444450A3A3130330E
:100E800034423030303130423535464630464633D4
:100E900034303232313233343830304630424246E8
:100EA000443030323836370A3A3130333443303018
:100EB00030313244303231343843303643383042C6
:100EC00032303430303032323131453438303046DF
:100ED0003044360A3A3130333444303030424346BD
:100EE000443131323046464637413146463234424B
:100EF0003230303243303444303546463434330AAD
:100F00003A31303334453030303936303032344293
:100F10003239304642463446343230303030304256
:100F200032313042443030303035450A3A31303396
:100F3000344630303030303034303034303030308F
:100F4000313138303030303032333030303243307D
:100F5000383030343043390A3A313033353030307C
:100F60003032343038303034303238303830303459
:100F70003030303038303034303043303830303446
:100F80003034330A3A31303335313030303931335F
:100F90003730303230303830303030323036343331
:100FA0003730303230363033373030323032390A41
:100FB0003A31303335323030303638333730303202
:100FC00030383633373030323038383337303032EB
:100FD00030384133373030323033460A3A313033EB
:100FE00035333030303843333730303230333833C4
:100FF00037303032303643333730303230323833B6
:10100000373030323044370A3A31303335343030CB
:1010100030373033373030323030303043303134A5
:101020003030303234303134303830423530304680
:101030003044440A3A313033353530303038334675
:101040004434304636423833313838343230314423
:101050004130313230303045303030323030360A85
:101060003A3130333536303030303242443030303F
:10107000303441343930383433344134393038360F
:1010800030373034373130423434380A3A31303343
:10109000353730303030303231303032323030323B
:1010A00033303032323046323339304639303331F2
:1010B000303030323943430A3A313033353830300A
:1010C00030333444303434343930393638313146C1
:1010D000344530363144314635453036313039309B
:1010E0004144390A3A3130333539303030443146B1
:1010F000313034303243423430343137383931349E
:101100003038323738314134303131343332360AC5
:101110003A31303335413030303039303130323798
:101120003831324630303330324432423244323059
:1011300030393134303336344145390A3A3130337D
:10114000354230303030333738394231303532463D
:101150003832333230464632333034373831344621
:10116000303033303441460A3A3130333543303051
:1011700030453442324534303041333430394134F3
:101180003331393430304134333245343930333708
:101190003832390A3A31303335443030303942311F
:1011A0003034314638323332303031323130323708
:1011B0003831324630314630323931343033340A06
:1011C0003A313033354530303032453441303037C4
:1011D00038343031313432463832303130303945BC
:1011E00030303132313032373841420A3A313033DF
:1011F0003546303030313246303146303239313494
:101200003032333441303037383430313134324693
:10121000383230313033370A3A31303336303030CB
:101220003031304243373034373236344131313463
:101230003030383433323034393038363037303477
:101240003741330A3A31303336313030303234348A
:10125000383230343930383630373034373730423E
:101260003430303234464632353030323632340A59
:101270003A3130333632303030303032333143343B
:1012800042314236383133463445303633443346C2
:1012900035453036333142304131330A3A3130331B
:1012A00036333030304433463130343034444434D3
:1012B0003043394232313146413034463344324290
:1012C000323135454141310A3A31303336343030EC
:1012D00030303230313042343331423031313046C7
:1012E000304330303441343039433046333031329A
:1012F0003543330A3A3130333635303030323830D6
:101300003043304232433030303833343046463266
:101310003045444232453930303130464139430A54
:101320003A3130333636303030303146363044346E
:10133000383530463832343030423034333042344D
:1013400039343146383234303046450A3A31303358
:101350003637303030303934383530463832343042
:101360003031383433303734393431463832343030
:10137000303730424335390A3A313033363830303D
:101380003037303437303030303830453130304518
:1013900030303045343030453030384544303045D9
:1013A0003041390A3A31303336393030303030302C
:1013B0003046413035304345443030453031384592
:1013C0004430304530303045313030453041430ACB
:1013D0003A31303336413030303830464646463187
:1013E0004630343030464130353030323044464675
:1013F00038444331323038363032440A3A313033AF
:10140000364230303030303230444646384438315D
:101410003230383630313432304446463844343154
:10142000323038363036380A3A313033364330309D
:10143000303030323044464638443031323038363D
:10144000303030323044464638434331323038361B
:101450003037430A3A313033364430303044464630
:10146000384338303230303638353046303031302D
:101470003044464638433031323038363038460A08
:101480003A313033364530303044464638424330C6
:1014900032303036384446463842433132303834C0
:1014A00030444646384230313235370A3A313033EB
:1014B00036463030303038363044464638413830A1
:1014C0003230303638444646384143313230383491
:1014D000304446463843350A3A31303337303030BD
:1014E000303943313230383630444646383934307A
:1014F0003230303638333046343830323044464675
:101500003833330A3A3130333731303030384331C1
:10151000323038363044464638383830323030365B
:101520003833304634464530304446463845310A33
:101530003A3130333732303030383031323038367B
:101540003030303230444646383834313230383634
:1015500030373034374446463831430A3A31303335
:101560003733303030364331323039363833314624
:101570003438303331444646383630323231313601
:10158000304446463832330A3A313033373430301B
:1015900030354331323039363833314634383032F1
:1015A00031444646383530323231313630423046B9
:1015B0003537350A3A31303337353030303830331B
:1015C0004630334430423046353830324630394484
:1015D0003031314530444646383343303241340AA5
:1015E0003A313033373630303030303638353046B7
:1015F000343830333044464638333431323038367C
:1016000030303845304446463842390A3A31303372
:10161000373730303032433032303036383530467C
:101620003441303230444646383230313230383648
:10163000304646453735380A3A313033373830305E
:10164000303730343738304235333132303030464D
:1016500030443946384446463832343132303837EF
:101660003042360A3A31303337393030304446462A
:1016700038323030323030363834303143444646F8
:101680003831383132303836304446463832430A01
:101690003A31303337413030303130303239304602
:1016A00039303030303030323830344431444646CE
:1016B00038303830323030363833380A3A31303317
:1016C0003742303030464632384537443133313294
:1016D00030303046304331463830303238303144A3
:1016E000303031323031360A3A31303337433030EE
:1016F00030303045303030323030324244303032A9
:10170000313735343930393638383930383839307E
:101710003044300A3A3130333744303030303134AD
:101720003337333438303136303730343730303285
:101730003137313439303936383331463036350A7D
:101740003A31303337453030304630303130313453
:101750003336453438303136303730343730303244
:1017600031364334393039363838460A3A31303335
:10177000374630303033314634453036313031340D
:101780003336413438303136303730343730303218
:10179000313638343938330A3A3130333830303032
:1017A00030303936383331463436303531353145DD
:1017B00041433030313635343830313630373034DB
:1017C0003742300A3A31303338313030303030320D
:1017D00031363334393039363833314634343034B5
:1017E0003130313433363034383031363037370AEF
:1017F0003A313033383230303037303437303032BD
:1018000031303032313030323230303231354434B0
:1018100039303936383131463034340A3A313033A0
:101820003833303030304330313030323930344476
:101830003030343239303544303038323930364453
:10184000303231453037340A3A3130333834303081
:101850003035453439303136303230453035453425
:101860003930313630314445303534343930393619
:101870003835440A3A31303338353030303131463A
:1018800034373031313839304338393143353134F8
:101890004131323638313246343830333244420AFC
:1018A0003A313033383630303030303241303344F2
:1018B00031353734413531343330313630304145CC
:1018C00030344334413132363843410A3A313033CF
:1018D00038373030303932303330334435353134C5
:1018E00041353134333031363030324530353034B3
:1018F000413531343333420A3A31303338383030BD
:10190000303031363030314530344434393031368E
:10191000303435343930393638313146304630306C
:101920003130450A3A31303338393030303039309F
:10193000393444344135313543303236384341341B
:101940003034323630343034393039363843320A74
:101950003A31303338413030303131463445303629
:101960003130393041343834413531354334323611
:1019700038434134303832363045410A3A31303319
:1019800038423030303342343930393638313146EC
:1019900034363035314339304134333441353135E3
:1019A000433432363841360A3A31303338433030F6
:1019B00030434134304332363033363439303936BF
:1019C00038313146343430343138393042334634AA
:1019D0004133390A3A3130333844303030353135DB
:1019E0004343323638423246424631463130313650
:1019F0003137303437343942323030323934350AC5
:101A00003A31303338453030303035443032433479
:101A10003930393638303834333241343930383669
:101A200030303545303239343941300A3A3130338B
:101A30003846303030303936383331454130303047
:101A40003032373439303836303730343734394241
:101A5000323030323938390A3A3130333930303077
:101A60003030354430323534393039363830383426
:101A70003332333439303836303035453032323421
:101A80003939340A3A31303339313030303039363F
:101A900038333145413030303032303439303836F7
:101AA0003037303437343942323030323936460A02
:101AB0003A313033393230303030354430313934E6
:101AC00039303936383038343331373439303836C4
:101AD00030303545303136343939380A3A313033DF
:101AE00039333030303039363833314541303030A9
:101AF00030313434393038363037303437303032B2
:101B0000313030323233430A3A31303339343030C5
:101B10003030303231303130304339423234393084
:101B20003943394232303132393032443131333451
:101B30003942340A3A313033393530303030413679
:101B40003830364530303232393032443131373442
:101B50003930413638303145303143343946390A2D
:101B60003A31303339363030303041363843304214
:101B700032313046303146303143413430443030F8
:101B800037303144353031323137410A3A31303330
:101B90003937303030303045303030323130383015
:101BA00030343042323730343731353438303036F3
:101BB000383530463039300A3A3130333938303000
:101BC00030383037303133343930383630373034DC
:101BD00037304331303032343031303130303234DC
:101BE0003030430A3A3130333939303030313431E2
:101BF00030303234303138313030323430314331BA
:101C00003030323430303031303032343039370ADD
:101C10003A31303339413030303034313030323491
:101C200030303030304646463846464646463646E0
:101C300045303831303032343037450A3A3130337C
:101C4000394230303039333337303032303738334F
:101C50003730303230323031303032343030303171
:101C6000323741303035300A3A3130333943303051
:101C70003030303234463430303030303933443024
:101C800030423035453030303844433545303030DF
:101C90003834310A3A31303339443030303234312B
:101CA00030303234303338423530343030304430F4
:101CB0003032383838303732383334443138460AE5
:101CC0003A313033394530303036383838303032C8
:101CD0003830414431414237414541383841393843
:101CE00038323030303030463030430A3A313033D9
:101CF0003946303030303346393239383932303085
:101D00003030304630374146383241453036383849
:101D1000383031323837340A3A31303341303030AC
:101D200030304144314142374145413838413938FA
:101D3000383230303030304630313546393239384B
:101D40003934330A3A313033413130303032303087
:101D50003030304630373546383143453036383804
:101D60003830323238304144314142374131330A20
:101D70003A313033413230303045413838413938EA
:101D800038323030303030463032384639323938F7
:101D900039323030303030463030300A3A3130333A
:101DA00041333030303731463830454530414237A5
:101DB000414541383841393838323030303030469A
:101DC000303344463932310A3A31303341343030DD
:101DD000303239383932303030303046303646469D
:101DE00038303345303239303032303030303046B0
:101DF0003033310A3A3130334135303030384446AF
:101E0000383331424434394232303032393034445C
:101E10003030313838353146303031303132460AA1
:101E20003A3130334136303030303138303034456B
:101E3000303031383834304632464533323131343F
:101E400030303138303730343737440A3A31303374
:101E50004137303030353242323030324130334425
:101E60003038323839313134333831383130334524
:101E7000303832383946360A3A313033413830302A
:101E80003033324541303130313831383137303408
:101E900037313042343030323430343839313446EE
:101EA0003045360A3A3130334139303030463730F8
:101EB0003438394232393242323131343344424299
:101EC0003231413032393242323131343331370AF2
:101ED0003A313033414130303030433433303438AC
:101EE00031313042433730343730303232303238AB
:101EF00039344646363837373344330A3A3130338B
:101F0000414230303031413430383942323041345E
:101F10003330323831373034373030323230323893
:101F2000383430463230430A3A313033414330306E
:101F3000303846333331413430383942323041342D
:101F4000333032383037303437303032323832385C
:101F50003845440A3A31303341443030303132462A
:101F60003038303032383942323041343338323818
:101F70003037303437303032323032383937340A53
:101F80003A313033414530303034464636463037CA
:101F900033314134303839423230413433303238E1
:101FA00031373034373030323246300A3A3130331C
:101FB0004146303030303238423446463646333788
:101FC00033314134303839423230413433303238B1
:101FD000333730343737300A3A31303342303030EB
:101FE0003030303232303238423446463246463370
:101FF0003331413430303930323839423230413483
:102000003341360A3A3130334231303030303238B1
:102010003337303437303032323832384234464653
:102020003646333733314134303839423246410A4B
:102030003A31303342323030303041343338323854
:102040003337303437303032323832384234464623
:1020500032464633333141343039300A3A31303345
:102060004233303030303930323839423230413416
:102070003338323833373034373030323230303230
:10208000323030323343460A3A3130334234303022
:1020900030303238413041343038303839313145E0
:1020A00041303030333932423230303241303444D2
:1020B0003035360A3A3130334235303030394242E9
:1020C00032303032423031443030313232303045CB
:1020D0003030303232313030303430423246350AEE
:1020E0003A313033423630303037303437303238AE
:1020F000413332454130313031303138323730348C
:1021000037463842353034303030390A3A3130339E
:102110004237303030304430303030323630313287
:10212000374138383830303238303144313032325B
:10213000363030453042380A3A3130334238303068
:10214000303030323645383838303132383031443A
:10215000313032323730304530303132373638383E
:102160003838330A3A313033423930303030303257
:1021700038313844314142374145413838413938A6
:102180003832303030303046303243463831380A19
:102190003A313033424130303032393839323030F0
:1021A000304646463741334646414237414646422D
:1021B00032334130303932423235370A3A313033F6
:1021C0004242303030463642323331303038394294
:1021D000323230303030304630334546383239389C
:1021E000393230303044390A3A31303342433030BA
:1021F0003046464637394546463137453041423705
:102200004145413838413938383230303030304645
:102210003039330A3A313033424430303033334688
:10222000383239383932303030464646373933461D
:102230004641423741464642323341303035300A1A
:102240003A3130334245303030393242324636420C
:10225000323331303038394232323030303030463B
:1022600030303546383239383942450A3A31303320
:1022700042463030303230303046464637374346BB
:1022800046463142444630423430303234303032C7
:10229000353034384230410A3A313033433030300F
:1022A00030303538433036384334334632333233C6
:1022B0003733453430303638343446463630433799
:1022C0003632340A3A3130334331303030333434FB
:1022D0003039324232444242323142303139424264
:1022E0003231413433313434333433463230440ABA
:1022F0003A313033433230303033303332313534A9
:102300003038394232353146303031303130443472
:1023100033303032313031383336410A3A313033AC
:10232000433330303030343833303538344630424F
:102330004337303437463042343030323430303244
:10234000353030323646450A3A3130334334303056
:1023500030303438423035384330453031423642FF
:102360003230313843343346323233333733393411
:102370003034380A3A313033433530303030313848
:1023800034343046364646343130433430444242A9
:102390003231393033383942323043343345410AEF
:1023A0003A313033433630303031313032383942DF
:1023B00032304334333433463230333331304434C3
:1023C00030353646303130303141410A3A313033E0
:1023D00043373030303044343330343833303538AC
:1023E000344630424337303437463042343030326E
:1023F000343030323539340A3A31303343383030C2
:102400003030303236383438423035384330453069
:10241000324236423230313843343346323333324B
:102420003744410A3A31303343393030303339346C
:102430003030313834344646363043373130433427
:102440003039324232444242323139303132440A38
:102450003A3130334341303030383942323131341F
:102460003330433433343346323333303130443411
:1024700030353646343830373134350A3A31303336
:1024800043423030303044343338343833303538E8
:1024900034463042433730343746304234303032BD
:1024A000343030323544340A3A31303343433030FB
:1024B00030303032363834384230353843304530B9
:1024C000334236423230313843343246323333339A
:1024D0003738410A3A3130334344303030333934BD
:1024E0003030313834343046364646343130433477
:1024F0003044424232313930333531454134300A8B
:102500003A3130334345303030303232313839426D
:102510003230433433343046323333333130443461
:1025200030353646343830353132390A3A31303385
:102530004346303030304434333834383330353833
:102540003446304243373034373030303033304225
:10255000343030323237420A3A313033443030305E
:102560003030303233303032343030323330463441
:1025700041313436384330463330333433383242E5
:102580003234370A3A313033443130303038353034
:1025900032303244353334463045303634303745C6
:1025A0003043353032303444353033323532450AF9
:1025B0003A313033443230303031354641303346B1
:1025C000333943343330304530393434333439429D
:1025D00032303032393035443046460A3A313033C1
:1025E0004433303030383030323032443535344591
:1025F000413032343430304530313434333031349A
:10260000383034363043320A3A31303344343030A3
:102610003033304243373034373034303030313477
:10262000303142343231334431303934323336444C
:102630003146380A3A313033443530303032414255
:1026400031383434364230464246324630303246F3
:102650004231304332373034373030463042420A2C
:102660003A313033443630303043354239464344D2
:10267000333030323230303233373034373042302A
:1026800030303230303030323144430A3A31303336
:1026900044373030303030323037303437393034FE
:1026A0003237314542303330434636443337304297
:1026B000354231464139360A3A31303344383030C8
:1026C000303831463442334641383346353243316F
:1026D0004241333430433446313230303533324680
:1026E0004136390A3A3130334439303030303546AA
:1026F000363333343341323430354646303030347B
:102700003645363430303245303542303844300A80
:102710003A31303344413030303546454133323040
:10272000323834314137314542303330353234423A
:1027300046323034363239343644430A3A31303353
:10274000444230303037363431463444333032301E
:102750003030423030333030303030323137304248
:10276000443031324143460A3A3130334443303009
:1027700030434644393730423531343043323044C7
:102780003042314641383146344232464138324691
:102790003544330A3A3130334444303030433446E0
:1027A00031323030343634313942344631323030DF
:1027B0003644364433423234303546463044380AA3
:1027C0003A313033444530303030303434463434AC
:1027D000303030323530324530353230383546459C
:1027E00041333330334336314139420A3A313033A1
:1027F0004446303030373145423032304532344251
:102800004633303436373134363634343136443466
:10281000314633443332450A3A3130334530303073
:102820003030323030304230303230303032393087
:1028300030373042443043343642314642463246E5
:102840003134450A3A313033453130303030324658
:10285000423131343532443034343545413130340D
:102860003542354642463246343032464230370AE7
:102870003A3130334532303030313435353830420A
:1028800032343045413035343542354642463246A1
:1028900030303246423130353239320A3A31303313
:1028A00045333030303430454130343430373042C5
:1028B0004430303030383042354446463845343183
:1028C000313838343231430A3A31303345343030DC
:1028D000303034443044464638453031313838346D
:1028E0003230424430313545303031323134464671
:1028F0003444370A3A3130334535303030303037B0
:102900003046464637363346443030323134464618
:102910003430303730464646373545464437370A37
:102920003A31303345363030303041453030313255
:1029300031344646343830363046464637353846E8
:1029400044303032313446463437340A3A31303349
:1029500045373030303830363046464637353346E6
:1029600044464645373031424433304234303032C9
:10297000323030323334460A3A3130334538303031
:1029800030343236384446463841343431323234C9
:1029900030304336383931463930343530353445C6
:1029A0004144410A3A3130334539303030303532E4
:1029B00034323234333432363038323638444646A4
:1029C0003839303431323234304343363843410AB7
:1029D0003A31303345413030303844363832433480
:1029E0003339314639303535303534454134353079
:1029F00034323234333832363030310A3A313033CF
:102A0000454230303043323641333246343730304D
:102A1000323039374334393145304234334442421D
:102A2000323532454133420A3A3130334543303052
:102A3000303033353243323632333042433730343C
:102A4000373439423230303239303444303831362C
:102A50003846350A3A313033454430303035314626
:102A6000303031303138313630303345303831362E
:102A70003834393038343930303831363037370A35
:102A80003A313033454530303037303437383136ED
:102A900038353146303038303138313630373034EF
:102AA00037303032313830363834370A3A31303313
:102AB00045463030303030303730314435303132C7
:102AC00031303045303030323130383030343042CF
:102AD000323730343731310A3A31303346303030E2
:102AE000303831363835314630303430313831369F
:102AF00030373034373030323138303638343030A7
:102B00003739410A3A313033463130303030314490
:102B1000353031323130304530303032313038308C
:102B20003034304232373034373439423246430A57
:102B30003A3130334632303030303032393034444C
:102B4000303831363835314634413030313831362D
:102B500030303345303831363831380A3A31303355
:102B6000463330303033314634413030313831360D
:102B7000303730343746304234303032343030320F
:102B8000354339423242420A3A31303346343030EA
:102B900030304132393131444243343638303732C3
:102BA00035423146313041303630333237374534B3
:102BB0003335440A3A3130334635303030423534DB
:102BC0003041433433444242324231463130413065
:102BD0003530333236373534333133464135310AC7
:102BE0003A31303346363030303035463532433482
:102BF000334334363030454530303436393037326F
:102C000035303332363036464231330A3A3130339A
:102C10004637303030303146364235343041433437
:102C20003344424232303332353035464230314619
:102C3000353133464141450A3A3130334638303038
:102C40003030354635324334333034363144324215
:102C500032303732413130444134343642314632F9
:102C60003344330A3A313033463930303035353138
:102C700045303532363735343331334641303546D9
:102C80003541433433433942323532314545410AC7
:102C90003A313033464130303030353233354134DB
:102CA00033313146413032463532433433343436B1
:102CB00033323445304432423241430A3A313033C0
:102CC0004642303030304432413130444130343685
:102CD0004231463233443531463035323637353479
:102CE000333133464134420A3A313033464330308F
:102CF0003030354635414334334339423244323142
:102D00004630353233354134333131464130324645
:102D10003544350A3A31303346443030303243346A
:102D20003330343633313045304334364131463236
:102D30003342324631304430353035323643420A40
:102D40003A3130334645303030373534333133461D
:102D500041303546354143343343394232304433D0
:102D600041303532333541343339430A3A31303327
:102D700046463030303131464130324635324334C8
:102D800033433436324630424337303437343042BE
:102D9000323030323841440A3A3130343030303019
:102DA00030303644303042343830303638353046C2
:102DB00034303030303039343930383630303545D1
:102DC0003033430A3A3130343031303030303734F8
:102DD00038303036383330463430303030303534B7
:102DE0003930383630373034373030303035380AD3
:102DF0003A313034303230303030303234303134B7
:102E00003030303238303134304646464546304630
:102E100046464446374631464646320A3A31303411
:102E2000303330303030383234303134303030328A
:102E3000323030363843394232303834323031442F
:102E4000303031323244300A3A313034303430307C
:102E50003030304530303032323130303034304242
:102E600032373034373032363843394232333245F4
:102E70004142340A3A31303430353030303031303C
:102E80003130313630373034373030303032303422
:102E90003830303838373034373830423536410AF8
:102EA0003A313034303630303031463438303036E4
:102EB0003834313143314534413131363042304696
:102EC00035464137463042443934390A3A31303494
:102ED00030373030303030323031423439303836BB
:102EE0003046464637314246413030423230303249
:102EF000383031443439410A3A31303430383030A6
:102F00003031363439303838304646463744364624
:102F1000393136343830303638464132383037443B
:102F20003143340A3A313034303930303030303295
:102F3000303134343930383630303046303137463D
:102F40003930304630323246393034453034430A35
:102F50003A3130343041303030313034383030363E
:102F600038343031433046343930383630303142FD
:102F700044383042353030323032310A3A31303430
:102F800030423030303030463046374639374646AA
:102F900030303430303030463043414639343046BA
:102FA000324633313043350A3A31303430433030F1
:102FB00030303046304436463930313230303046A9
:102FC0003045434639303132303030463044334674
:102FD0003935450A3A3130343044303030303032CF
:102FE000323041323130343438464646373946463D
:102FF0004130314244383433373030323031460A90
:103000003A31303430453030303438333730303284
:10301000303443333730303230394143333032305B
:1030200030373034373030303037380A3A31303496
:103030003046303030303042353835423036383432
:1030400036303046303539464130313231444646EB
:10305000383138303344310A3A313034313030305D
:1030600030303046303634464130313231444646D5
:1030700038313030333030463041304641303032F4
:103080003141410A3A3130343131303030444646F2
:1030900038303430333030463039424641303032C7
:1030A0003041444638303030303442463633360AC8
:1030B0003A31303431323030304646373041444690
:1030C00038303230303132323041444638303430AA
:1030D00030344646343830363037420A3A313034AC
:1030E0003133303030414446383036303034464663
:1030F0003438303430414446383038303042373458
:10310000383033393039320A3A31303431343030B2
:103110003036393436423534383030463043344630
:103120003930354230303042443030423538354223
:103130003042410A3A31303431353030303638346B
:1031400036303046303242464130313231414634F9
:103150003830304630333746413031323134300A3E
:103160003A31303431363030304144343830304602
:1031700030373446413030323141423438303046D5
:1031800030373046413030323036450A3A3130340B
:1031900031373030304144463830303030344246B8
:1031A000364646373041444638303230303132329C
:1031B000304144463836430A3A31303431383030C1
:1031C000303034303034464634383036304144467E
:1031D0003830363030344646343830343041444666
:1031E0003842350A3A3130343139303030303830C5
:1031F0003041323438303339303639343639463468
:103200003830304630393946393031323136300A8B
:103210003A3130343141303030394434383030464E
:10322000303231464139453439394234383030460C
:1032300030354446413030323845360A3A31303440
:1032400031423030304639443039433439393834FA
:1032500038303046303641464130313238303144F2
:10326000313030323030320A3A313034314330305C
:10327000303733453030303232393032313934340E
:1032800038303046303336464139363439393234C5
:103290003831340A3A31303431443030303030460D
:1032A0003034414641303032384639443039323496
:1032B0003938463438303046303537464143370A9E
:1032C0003A313034314530303030313238303144B9
:1032D00031303032303630453030313231384234AE
:1032E00038433942323031383238310A3A313034A9
:1032F000314630303038453439383934383030465A
:103300003033384641303032384639443038393439
:10331000393836343836340A3A3130343230303095
:103320003030304630343546413031323830314437
:103330003130303230344545303036323138323445
:103340003834350A3A313034323130303043394252
:10335000323031383238353439383034383030461C
:103360003032364641303032384639443030390A0E
:103370003A31303432323030303830343937443406
:1033800038303046303333464130313238303144D2
:1033900031303032303343453041430A3A313034F2
:1033A00032333030303033323137393438433942C8
:1033B00032303138323743343937373438303046A9
:1033C000303134464131390A3A31303432343030D8
:1033D0003030303238463944303737343937343486
:1033E0003830304630323146413031323830314475
:1033F0003146420A3A3130343235303030303032B2
:103400003032414530303132313730343830304667
:103410003044344639303132313645343843350A58
:103420003A31303432363030303030463043324644
:1034300039364534393643343830304630464546DF
:1034400039303032384639443036300A3A31303447
:103450003237303030303032323930323136383441
:1034600038303046304446463936423439363634C0
:10347000383030463041310A3A3130343238303029
:1034800030463346393030323846394430303032C5
:1034900031363334384339423230313832363734CA
:1034A0003944370A3A3130343239303030363134F9
:1034B0003830304630453946393030323846394474
:1034C0003030313231354534383030463046410ABB
:1034D0003A31303432413030304231463930313295
:1034E000303632343930383730303132303035429E
:1034F00030303042443830423535380A3A31303491
:103500003242303030303132323446463430303767
:103510003135383438303046304232463934464618
:10352000343030373133380A3A3130343243303086
:103530003035353438303046303133464130314221
:10354000443031323035393439303837303730342F
:103550003741340A3A313034324430303038304236
:103560003530313231353034383030463039354607
:103570003930383230353434393038373033340A32
:103580003A313034324530303030314244313042DB
:1035900035303032303446463430303731344234CE
:1035A00038303046304645463946440A3A313034A0
:1035B00032463030303530343830303838383042B8
:1035C0003235303439304338384134423232343095
:1035D000343230343335450A3A31303433303030D8
:1035E000303230463037463434343734383034347F
:1035F0003230334430343634393432343830304673
:103600003032390A3A313034333130303044304698
:10361000393441343830343432303644304646461A
:103620003745414645464646374337464638430ABE
:103630003A31303433323030303031323034333468
:103640003930383730343234383930463930303028
:1036500030303032383639443046340A3A3130343A
:10366000333330303030313238303644303033322A
:1036700038314144303034323833334430303632EC
:10368000383431443046420A3A3130343334303001
:1036900030363145303030323133343438303046E2
:1036A00030384646393030323830374430303132B5
:1036B0003146360A3A3130343335303030333134F4
:1036C000383030463034394639303332303335349F
:1036D0003930383730303645304646463742440A6E
:1036E0003A3130343336303030433746454646463B
:1036F000374134464630313230333134393038375F
:1037000030353245303334343832450A3A3130348A
:103710003337303030303434303030324330454459
:103720003030343230324434393038373032363455
:10373000383030383845370A3A3130343338303061
:103740003035304634383036303234343930383829
:103750003030313232393032313232343830304632
:103760003045360A3A31303433393030303533462B
:10377000393036453046464637414346454646464B
:103780003738394646303132303234343933460AEC
:103790003A313034334130303030383730333745D8
:1037A00030313446343430333430303243303344C3
:1037B00030303632303230343937340A3A313034FE
:1037C0003342303030303837303036453046464678
:1037D0003739434645464646373739464630313213
:1037E000303143343931420A3A31303433433030A6
:1037F0003030383730323745303146343830343471
:10380000323142443046464637383146463132340A
:103810003830360A3A313034334430303030303892
:103820004143304232314334393438373030463412
:103830003830303841433042323141343930450A32
:103840003A31303433453030303038373031393434
:10385000384230463930303030303032383032440F
:1038600035303032303136343943440A3A3130342D
:1038700033463030303038383031353438423046E5
:103880003930303030313434393438363030313208
:10389000303043343942340A3A3130343430303005
:1038A0003030383730303745303036453046464690
:1038B000373733464546464637353046463031324F
:1038C0003039410A3A3130343431303030303734E5
:1038D00039303837303130424430303030303035A4
:1038E0003430303430413038363031303034430ABF
:1038F0003A313034343230303030313030303330AF
:1039000030303034303030313038323030303730A1
:1039100030383430303037303032340A3A313034A5
:10392000343330303039323337303032303134356F
:103930003430303430313835343030343030303069
:10394000313030313032450A3A313034343430306D
:10395000303031303030303230303430303030365A
:10396000303734333730303230323833373030322A
:103970003039440A3A313034343530303030343232
:1039800038303644313142343830303638353046CC
:103990003030343030313934393038363038300A1C
:1039A0003A313034343630303030354530313834D7
:1039B00038303036383330463030343030313634C9
:1039C00039303836303730343746440A3A313034BB
:1039D00034373030303135343930383630373034B0
:1039E00037303032383033443130303230313334A4
:1039F000393038363044460A3A3130343438303091
:103A0000303045453030313238303644313046344C
:103A1000383030363835304630303130303044345C
:103A20003945380A3A31303434393030303038366C
:103A3000303035453030423438303036383430303C
:103A40003834303030303934393038363044320A56
:103A50003A3130343441303030373034373430421A
:103A60003230303238303644303036343830303618
:103A700038353046303032303036440A3A3130341E
:103A800034423030303034343930383630303545E7
:103A900030303334383030363833304630303230EE
:103AA000303031343934330A3A3130343443303001
:103AB00030303836303730343731304530303045BB
:103AC0003031344530303045303138453030304594
:103AD0003035310A3A3130343444303030324445B4
:103AE000394630343138364230303430303044307A
:103AF0003030303236303032373034323044440AAD
:103B00003A31303434453030304446463842433818
:103B10003041363838344646364330373030363424
:103B200030363834364646463732430A3A31303436
:103B300034463030303938463944444638303838E5
:103B400030324234384238464246304637334534C4
:103B5000334136383031410A3A3130343530303043
:103B6000303030323132303030303046303632461C
:103B700038303032364538363832363439383834E1
:103B80003237310A3A313034353130303030424416
:103B90003245383638343030304238464246304686
:103BA0003038304232303432383030444136330AE3
:103BB0003A313034353230303030343230303634DF
:103BC0003337383143323038343233453036383891
:103BD00038344246364646373134320A3A31303488
:103BE000353330303038383432303544314538367A
:103BF0003830333231343834334238464246304636
:103C0000303036453036330A3A313034353430309E
:103C10003045383638313932313438343342384629
:103C2000424630463035304634383034303031302A
:103C30003542390A3A31303435353030303031445C
:103C40003135304630303130303530463430303434
:103C50003030363433424642323446463443370AF3
:103C60003A3130343536303030393637303030460E
:103C700042303746303446463437413731393046A2
:103C800042463146303430314335440A3A313034DB
:103C900035373030303230383441363833303132E5
:103CA00031323030303030463032384638323638C3
:103CB000383446463632390A3A31303435383030C5
:103CC000304635333030363430323838384539388C
:103CD000383038343330363433323638303238389E
:103CE0003942340A3A31303435393030304139389C
:103CF000383038343332303831303642304244454F
:103D00003846303831303030303030303033320AAD
:103D10003A31303435413030303030314242373052
:103D20003034303432304630304131383630313052
:103D300030303032313031383044450A3A31303465
:103D400035423030303442463646463731343138E9
:103D50003030303231383138303030323143313830
:103D6000303446463443320A3A3130343543303009
:103D700030383034313031383134314632383833FC
:103D800031433136303730343734394232303032E3
:103D90003943300A3A3130343544303030303444ED
:103DA00030303138383531463030313031303138DB
:103DB0003030344530303138383446463630380AC1
:103DC0003A31303435453030304645373231313490
:103DD00030303138303730343734394232303032A5
:103DE00039303444303031383835310A3A313034B2
:103DF000354630303035314634383037313031386F
:103E00003030344530303138383446463646463620
:103E1000323131343041300A3A313034363030309A
:103E20003030313830373034373439423230303254
:103E30003930344430303138383531463430303729
:103E40003133420A3A313034363130303030313863
:103E500030303445303031383834464636464635D1
:103E60003231313430303138303730343738440A39
:103E70003A3130343632303030353242323030320E
:103E800041303344303832383831313433383138D6
:103E900030303345303832383833440A3A313034F0
:103EA00036333030303332454130313031383138CB
:103EB000303730343744324232303032413032449D
:103EC000303531463045330A3A31303436343030CB
:103ED0003030313031303145303131463046453087
:103EE0003143394232303138323730343734394265
:103EF0003244370A3A3130343635303030303032AF
:103F0000393034443030313838353146343030345B
:103F10003130313830303345303031383836310A8D
:103F20003A31303436363030303439303434393058
:103F3000433031383037303437303032323030324D
:103F400032303032333030323245370A3A31303461
:103F50003637303030383238413033384231423001
:103F600034353345413032303032304630374634E4
:103F7000323841343241350A3A3130343638303013
:103F800030303144313031323230304530303032FF
:103F900032313030303430423237303437303032F2
:103FA0003235380A3A313034363930303030303208
:103FB00032303032323030323338323841303338C8
:103FC0004231423034314134333231463038430AA1
:103FD0003A31303436413030303746343130413484
:103FE000323031443030313232303045303030329E
:103FF00032313030303430423230360A3A313034B7
:104000003642303030373034373030323230303280
:104010003332314630374634323042304644424201
:10402000323031324235390A3A3130343643303069
:104030003030334431383138413931343338313824
:1040400032304645304442423230323242303144DE
:104050003142390A3A313034364430303038303831
:1040600041304145304442423230363242303544AC
:104070003138313841303138383531463037440AFB
:104080003A313034364530303030313031303138FB
:1040900030303145303831384130303842373034C3
:1040A00037303032323030323344340A3A313034FF
:1040B0003646303030323146303746343230423096
:1040C0004644424232303132423033443138313862
:1040D000413931343336320A3A31303437303030C6
:1040E0003038313832304645304442423230323254
:1040F0004230314431383038413041453044424219
:104100003241410A3A313034373130303030363292
:104110004230354431383138413031383835314624
:104120003030313031303138303031453035390A86
:104130003A3130343732303030383138413030383D
:104140004237303437303030303031323143304222
:1041500032423046313330303244350A3A3130342D
:104160003733303030304132413030443230303209
:1041700031433042324230463136313032303632DD
:10418000413033443344360A3A31303437343030F6
:1041900030433042323431333830363238303044C4
:1041A00032303032313038303043304232373034D0
:1041B0003732430A3A3130343735303030324445C3
:1041C000394638344630343030304430303136308F
:1041D0003030303237354646303030303835370AB7
:1041E0003A31303437363030303546463030303082
:1041F00039304245303546464138424642424246D1
:1042000031333030303130454235300A3A31303494
:104210003737303030304130413146464138394609
:104220003930354638303941303139463130313026
:10423000393438343634320A3A3130343738303061
:104240003032313030383042323839423238383416
:1042500032333844323030463044464639303046C6
:104260003030460A3A31303437393030303932461E
:1042700041383334363142454230373037353834BF
:104280003643304232464646374334464645370A7F
:104290003A313034374130303030303238303144D8
:1042A0003035464630303130383546464138424662
:1042B00042424246313341304645340A3A31303485
:1042C0003742303030303444423546464138424639
:1042D000424242463133373030303345303546463E
:1042E000413842464239360A3A3130343743303069
:1042F0003042424631333030304330423235464529
:104300004130303141303046304246463930304617
:104310003041300A3A313034374430303037324669
:10432000413833343631424542303730373538340E
:104330003643304232464646374134464645370AD0
:104340003A31303437453030303030323830314423
:1043500030354646303031303835464641384246B1
:1043600042424246313341304641340A3A313034D8
:10437000374630303042394442354646413842466D
:10438000424242463133373030423845373030468A
:10439000304136463933350A3A31303438303030EE
:1043A000303337373034303436433042324244458C
:1043B0003846323846313042353832423030303289
:1043C0003443380A3A3130343831303030364134C1
:1043D0003638304232464646373943464630343026
:1043E0003042463438393046393030303039310A8D
:1043F0003A3130343832303030303032383038447E
:104400003030304630343746413944463830303128
:1044100030433042323831343237440A3A31303462
:10442000383330303030314430353446303031304C
:1044300034323030304330423231364244463042FA
:10444000354331423045330A3A3130343834303034
:10445000303037303030433030313530303030323A
:1044600036323130303338303030304630374346F2
:104470004235410A3A31303438353030303030321C
:10448000383034443030304630384446443030469A
:104490003045314644333945303044453030450AA3
:1044A0003A313034383630303034303143464632A9
:1044B0003830384438363934363039354343323180
:1044C00039313237384432423245380A3A313034A1
:1044D000383730303039313432463544303536466D
:1044E0003030343036313746353830373742433460
:1044F000323142443336310A3A3130343838303090
:104500003032383030433042323030463035434636
:1045100044363934363446463438303730464646E9
:104520003736440A3A313034383930303042434635
:1045300046303634334636423230303245304544E8
:104540003130304630353746393446463444430AF4
:104550003A31303438413030303830373136383411
:1045600036303046303832464230363433303046DA
:1045700030344646394636423244330A3A313034D2
:1045800038423030303030324530314431303032E2
:104590003044344537303046304146464230363478
:1045A000334636423239320A3A31303438433030C9
:1045B000303030324530344431323830304330429C
:1045C0003230304630334146443031453030304669
:1045D0003035330A3A3130343844303030353046B3
:1045E000443431423046304244383042354343321D
:1045F0003030304630333146443639343646460A58
:104600003A31303438453030303034323046464636
:104610003739324646303032383032443030304626
:1046200030343246443032453031320A3A31303457
:104630003846303030434332303030463032354601
:1046400044303142443244453946303431433242B9
:10465000303034303033460A3A313034393030304B
:104660003030303235303032363030323130303236
:1046700037354646303030303830303230384446C6
:104680003831380A3A313034393130303030303026
:1046900030303032303033453046463231383034C5
:1046A0004131313534343031434230463534340AC7
:1046B0003A3130343932303030343035464638448F
:1046C0003330304630313246393744323046464650
:1046D00037303746383030323836380A3A313034AD
:1046E0003933303030304544313745323046464634
:1046F0003730324638303032383039443132303069
:10470000304330423237360A3A313034393430307F
:104710003030304630464546433034453032303014
:104720003043304232303046304639464330303202
:104730003546440A3A313034393530303035464622
:1047400030303030383030463041464639334132EF
:104750003846424431364134363044463138430AD3
:104760003A31303439363030303031303130313226
:104770003046464637463446453530454130383078
:1047800038364134363031413939380A3A313034EB
:10479000393730303030323230464646374544467D
:1047A000453530454130383038364134363044466E
:1047B000313032303133390A3A31303439383030EF
:1047C000303031323046464637453546453530453E
:1047D0004130383038364134363032413939444648
:1047E0003846330A3A3130343939303030303130AC
:1047F00030383042324646463744434645353045E8
:104800004130383038364134363044463131430A4D
:104810003A31303439413030303033303130313268
:1048200030464646374434464535304541303830C9
:1048300038303046303833463936340A3A3130343D
:1048400039423030303041323846424431303046DF
:1048500030434146383030323039444638303131D7
:10486000303030323935380A3A313034394330302B
:1048700030304344303030323130344530303241E2
:1048800041433942323532354331303138343931B0
:104890004341340A3A3130343944303030304130D9
:1048A0003039444638303133304432423239413481
:1048B0003246344433394446383031313033410A9A
:1048C0003A3130343945303030394446383032327C
:1048D0003035313138394446383034323035313181
:1048E00038394446383035323043420A3A31303470
:1048F0003946303030353131383038313843303462
:104900003334303143394446383034313030393043
:10491000323944463838360A3A3130344130303052
:104920003030353230353131383944463830333231
:1049300030433042323930343235394431354646ED
:104940004139390A3A313034413130303038384623
:1049500038423846313030304635344431394446B7
:104960003830323030303032383244443037440A14
:104970003A313034413230303030313238303244F4
:10498000303034323831444430384445373344349D
:1049900038303032463136443036340A3A313034E9
:1049A00041333030303030363833433439383834AE
:1049B0003231324431334234393546463030303684
:1049C000303030463042390A3A31303441343030B8
:1049D000303833464134464634343035313335345B
:1049E000383030463042304641303046304535462A
:1049F0004132460A3A31303441353030303230308D
:104A000030433042323030463037344643464546F4
:104A10003744414644464545373030463043330AF3
:104A20003A31303441363030303838464337344507
:104A300037394446383038363033363032394446E8
:104A400038303930303836313946350A3A31303439
:104A5000413730303033363034323030304330420A
:104A600032303046303633464336384537383831C1
:104A7000393130463132410A3A3130344138303000
:104A800030373834373838313942304631303036C3
:104A900030423046353430354630334433393532A0
:104AA0003046360A3A3130344139303030303046D1
:104AB0003035364643313445303030323030314590
:104AC0003030303237343031433944463843370A96
:104AD0003A3130344141303030303131303838348F
:104AE0003230384432423746353430354646364423
:104AF00032303241393039354332450A3A31303477
:104B00004142303030314134414333313944313521
:104B1000344631453732303030433042323030461F
:104B2000303430464346420A3A3130344143303023
:104B300030343545373030463035364643364431EB
:104B4000434544423230363244464646363430419C
:104B50004633390A3A313034414430303030313222
:104B60003030304630333546434645463739424685
:104B70004433394537383042353030323039320AF3
:104B80003A313034414530303030303930313234E0
:104B900039313234383030463035314641303432B4
:104BA00031363834363030463038330A3A313034E2
:104BB0004146303030354446413030323830384468
:104BC0003130304630393046413030463032374669
:104BD000384645463745300A3A3130344230303075
:104BE00030334346464645463738354644464545C4
:104BF000373030463033334643303046303837462E
:104C00004337430A3A313034423130303030304665
:104C1000303143463830314244303030303846331A
:104C20003730303230313030343030323042390A7F
:104C30003A31303442323030303130303530303249
:104C40003030313733333434374646324630303003
:104C500038303333313030303845460A3A31303429
:104C60004233303030303033313030303838304209
:104C700032304134393038363037303437433042CF
:104C8000323039343944340A3A31303442343030F5
:104C900030303836303730343738304232303834CC
:104CA0003930383630373034373441463641413286
:104CB0003039410A3A3130344235303030303334D3
:104CC000393038363037303437344346364343345E
:104CD0003030313439303836303730343733330AC6
:104CE0003A31303442363030303030333030303496
:104CF000303034333030303430303833303030349A
:104D000030313042353430463246320A3A3130346E
:104D1000423730303032353531444646384138300C
:104D20003330304630383246443030323831444403
:104D3000304446463845320A3A3130344238303011
:104D400030413030333034363836303143444646E3
:104D500038393831333038363044464638384330C5
:104D60003334410A3A313034423930303030304611
:104D7000303731464444464638384331333038358D
:104D80003544464638383430333030363831450AC9
:104D90003A313034424130303042304635303037AD
:104DA000463033443330303230444646383734317D
:104DB00033303836303430463246330A3A313034C4
:104DC000424230303032353531444646383638305C
:104DD000333030463039304644343046323237375B
:104DE000314446463831460A3A3130344243303055
:104DF000303543303330304630354346443030323E
:104E00003833334430444646383543303330303716
:104E10003836340A3A31303442443030303030326F
:104E200038304644304446463835343033303037F5
:104E30003834313143444646383443323338350A06
:104E40003A313034424530303031313730444646E3
:104E500038344331334330423230393543383942C4
:104E600032444646383243303346360A3A313034DB
:104E70004246303030303046303344464434304699
:104E800032323737314446463832303033303046AC
:104E9000303644464436440A3A31303443303030B8
:104EA000304446463832383033303037384446465E
:104EB00038323031333039373838383432313044A1
:104EC0003146340A3A3130344331303030303032C8
:104ED0003234304632323737314446463830343057
:104EE0003330304630303346443030323042410A7D
:104EF0003A31303443323030304446463830343141
:104F0000333038373044464638303030333030373D
:104F100038444646384643313245370A3A31303410
:104F20004333303030303837303430463232363632
:104F300031444646384534303230304630323046DF
:104F4000443030323835310A3A313034433430303D
:104F500030304344303430463232363631423534E4
:104F6000383030463034374644444646384443307F
:104F70003245390A3A313034433530303030303709
:104F800038303032383032443130313230423634D9
:104F90003930383730313042443730423535370ACE
:104FA0003A313034433630303030343030344646A5
:104FB0003444323736304245303546463038303466
:104FC00030383038434330343641390A3A3130349E
:104FD0004337303030343031423331303038304282
:104FE0003238394232383834324635443346464610
:104FF000373636464634450A3A3130344338303055
:10500000303230303034343145303032383036445C
:105010003035464630383034303830384343303419
:105020003638330A3A313034433930303030353065
:1050300030303032304544453737304244413734E0
:105040003830303638413034393038363034360A3A
:105050003A313034434130303037303437394634E8
:1050600038303036384134343930393638383834DD
:1050700032303144313030323045340A3A31303414
:1050800043423030303030453030313230373034D8
:10509000373830423546464637463346463030325A
:1050A000384642443032430A3A3130344343303098
:1050B0003039383438394434393039363834303589
:1050C000433942343930393638343931433941344F
:1050D0004137330A3A31303443443030303131369D
:1050E0003039393439303936384231463530303755
:1050F0004630324433303032313936344131350A7A
:105100003A3130344345303030313136304330423B
:1051100032303242443830423530324530464646ED
:1051200037324646463230424630380A3A31303419
:1051300043463030304646463744374646303032B4
:1051400038463844303035323046464637423046AD
:10515000463839343835440A3A3130344430303006
:1051600030384434393039363834303543384334C4
:1051700039303936383439314338413441313136B8
:105180003044300A3A3130344431303030383934F8
:10519000393039363842314635303037463032448E
:1051A0003330303231383634413131363046340ADA
:1051B0003A3130344432303030433042323032428F
:1051C000443130423530343030374646303031307B
:1051D00030303045303230424635410A3A31303491
:1051E000443330303038303438393046393030306C
:1051F00030303032384639443046464637414446EE
:10520000463030323036460A3A3130344434303069
:105210003037433439303837303741343830343729
:105220003037433438303037383230313837423421
:105230003942380A3A31303444353030303038373A
:105240003030313230373434393038373030313231
:105250003234304632323737313646343845310A07
:105260003A313034443630303030304630363046E3
:1052700043303045303230424637323438393046A8
:1052800039303030303030323843440A3A313034FB
:10529000443730303046394430303132304646467B
:1052A0003737334646464646373944464645344204
:1052B000324130343244370A3A31303444383030B5
:1052C000303031443130303230303145303546467F
:1052D0003046463330313042443730423530343056
:1052E0003044430A3A31303444393030303030328F
:1052F0003530303230363934393038373039344659
:105300003930303630363431433330303030370A8C
:105310003A313034444130303043304232464646F0
:1053200037424646463030323830314430303832F9
:1053300035303245303736423241440A3A31303422
:1053400044423030303030324546314431363234E8
:1053500038393046393030303030303238303344FC
:10536000303546343832450A3A31303444433030EF
:105370003030303738464646374146464632383078
:1053800030373042444630423538334230303032A4
:105390003137390A3A3130344444303030433046C2
:1053A00033303131344534423230303232353834B2
:1053B0004231413730303432433830463038360AA3
:1053C0003A3130344445303030393938303538347A
:1053D0004135324638323432303030393230303282
:1053E00043303144303032324342440A3A3130346F
:1053F0004446303030303744313030394142324623
:105400003138303646303344333546463034433411
:10541000313030393136430A3A313034453030306A
:105420003033334530303132433038443130303925
:1054300041343746364646373339413432303344C7
:105440003338450A3A31303445313030303546460C
:1054500030344334313030393132384530303039FE
:105460004130303241323244303030324333420AFC
:105470003A313034453230303030334431303039E5
:1054800041393230383030393230344530303132D1
:1054900043303244313030394136410A3A313034C8
:1054A00045333030303132303230303932303032D2
:1054B0003230394530303930413030394231423084
:1054C000363133463045460A3A313034453430308F
:1054D0003046453433313934333030394244423048
:1054E0003930303933353231433034324146334448
:1054F0003335310A3A313034453530303030303997
:10550000313030393932314630373034313030395A
:105510003130303939353146303438343137320A68
:105520003A31303445363030303030393130324530
:10553000303546463034303431303039313030391E
:1055400039433042323531454132380A3A3130340C
:105550004537303030303036303030393036453401
:1055600036463631433030323530303237303045E0
:10557000303746314342350A3A31303445383030DD
:105580003030343246313044324646463736324681
:10559000454646463730424646303032383033444E
:1055A0003042430A3A31303445393030304646468D
:1055B0003730324646313032353036453033303789
:1055C0003846464637343346463736314538430A3F
:1055D0003A31303445413030303030323845434450
:1055E0003030383235303232433241443145444232
:1055F00032303032443237443130340A3A31303488
:105600004542303030323434384330363841444605
:10561000383034303042444638303430303130461F
:10562000303746303037440A3A3130344543303031
:1056300030424446383034313034393030313146FC
:1056400034464534313038343341444638303430D0
:105650003039380A3A313034454430303030314115
:1056600045373631433030323430304530363431DE
:105670004330323243313044324646463730370ABF
:105680003A3130344545303030333546454646466C
:10569000374445464530303238303344304646464C
:1056A00037443546453130323543340A3A313034A7
:1056B0004546303030303645303330373846464650
:1056C0003731364646373631453030323845434437
:1056D000303038323537340A3A31303446303030B1
:1056E000303046343839304639303030303030326E
:1056F0003830354430304334383030373846464619
:105700003730320A3A313034463130303030394671
:10571000463030453032303235454442323238300E
:105720003046454244303033383031343036390A2F
:105730003A3130344632303030374333373030321C
:105740003031303334303032303934333730303236
:1057500030393533373030323037330A3A3130343C
:105760004633303030313033363030323030433001
:105770003030303230383033373030323039303307
:10578000373030323032310A3A313034463430300A
:1057900030384633373030323032383337303032C9
:1057A00030463842353034303030443030333532A2
:1057B0003045390A3A3130344635303030303046B1
:1057C0003042444641303046303538464130303240
:1057D0003632373030304245303338303046380A90
:1057E0003A31303446363030303030463036364656
:1057F0004130343238303244303030324530304449
:1058000031334530303137463541410A3A31303451
:1058100046373030303830363746464637454246D0
:1058200044414634324631443330303230333434FC
:10583000393038363042320A3A3130344638303036
:10584000303334343830343630333434383035361D
:1058500030333030304632424433384235303430E1
:105860003039300A3A313034463930303030443013
:1058700030333532303030463039424641303046B0
:105880003033364641303032303243343937350ADE
:105890003A313034464130303030383630324334AB
:1058A00038303436303243343830353630333142A4
:1058B00044373042353034303044310A3A313034B4
:1058C000464230303030443030303032363041456E
:1058D000303237343830303638383031433235347E
:1058E000393038363038420A3A3130344643303075
:1058F0003030303230323334393038363046464644
:1059000037433146443736314341453432323244ED
:105910004142420A3A313034464430303032303736
:10592000383232343931453441313236383838350D
:105930003436343143314334383030363843340A26
:105940003A313034464530303034303143314234EE
:105950003930383630314134383030363830323200
:1059600038454244333141343838350A3A313034DD
:1059700046463030303030363831383439303936C8
:105980003838383432303244323546463046463381
:10599000303042453037300A3A31303530303030EF
:1059A00030313634383031383831333438303036BD
:1059B0003830304630343146413034323844324465
:1059C0003046440A3A313035303130303035464691
:1059D0003046463330303045303030323037304268
:1059E0004438304235304334383030363846340A63
:1059F0003A31303530323030303031323831314474
:105A0000314646323030443439343837303041341E
:105A100038303036383041343933420A3A31303553
:105A2000303330303030393638383834323035442D
:105A30003230393438303138383036343830303626
:105A4000383030463044450A3A3130353034303021
:105A500030323646413030323030323439303836F8
:105A600030303046304539463930303230303242CD
:105A70004442430A3A3130353035303030353433F2
:105A800037303032303538333730303230354333D9
:105A90003730303230353033373030323039430AF6
:105AA0003A313035303630303031304235303430C4
:105AB000304446463834303033393046393030306F
:105AC00030303032383045443043450A3A31303591
:105AD000303730303046464637323146454534421D
