:020000040800F2
:10000000A8410420191A0308C9FA0208CBFA020809
:10001000CDFA0208CFFA0208D1FA02080000000067
:10002000000000000000000000000000D3FA0208F9
:10003000D5FA02080000000079000208D7FA020889
:10004000751E0308791E03087D1E0308811E030820
:10005000851E0308891E030807FB02088D1E03087E
:1000600019FB0208911E0308951E03088DFB020868
:10007000991E03089D1E0308A11E0308A51E030860
:10008000A91E0308AD1E0308B11E0308B51E030810
:10009000B91E0308BD1E0308C11E030835FB020874
:1000A000C51E0308C91E0308CD1E0308D11E030880
:1000B000D51E0308D91E0308DD1E0308DBFA02085B
:1000C000F1FA0208D38E0008E78E000893FB0208BD
:1000D00099FB02085B9C0008AF9C0008299D000862
:1000E00063FB0208E11E0308E51E0308E91E03087E
:1000F000ED1E0308F11E0308F51E030800000000B2
:10010000F91E0308FD1E0308011F0308051F03084D
:10011000B39D00080B9E0008091F03080D1F03086C
:10012000111F0308151F0308191F03081D1F0308CB
:10013000211F0308251F0308291F03082D1F03087B
:10014000311F0308CBE30108351F030877FB0208C2
:10015000391F03083D1F0308411F0308AFFB0208B6
:10016000FF8E00081D8F0008451F0308491F030864
:100170004D1F0308511F030800000000000000008D
:10018000551F0308591F03085D1F03085B8F0008F4
:10019000478F0008651F03080000000000000000F2
:1001A0000000000000000000611F0308691F030831
:1001B0006D1F0308711F0308751F030810B50400A5
:1001C0000020C4F8B8030020A0650020C4F8CC03C8
:1001D00000202060002060600020A0600020E0601F
:1001E000002020610020C4F8C0020020C4F8C4022E
:1001F000DFF87C0CA061DFF87C0C2062002084F822
:10020000BC03022084F8B8020020A0620020E06253
:100210000020C4F8D0030020C4F8C4030020C4F8B0
:10022000C803200000F002F8200010BD10B5040043
:10023000200000F019F8200000F040F8200000F045
:1002400052F8200000F0D5F8200000F0DFF8200080
:1002500000F0B6F9200000F083FA200000F0A8FAC0
:10026000200001F03CFA10BD0021C0F8B8130021B5
:100270008165002101600021416000218160002131
:10028000C160002101610021C0F8C0120021C0F846
:10029000C412DFF8DC1B8161DFF8D81B016200218A
:1002A00080F8BC13022180F8B812022180F8B9123C
:1002B0000021C0F8BC12704700000000DFF8B41B3A
:1002C000C1650121016601214166012181669FED21
:1002D000BB0A80ED1B0ADFF8A01B016780ED1D0A39
:1002E0000021816770470021C1670021C0F880109C
:1002F0000021C0F884100021C0F888100021C0F847
:100300008C100021C0F890100021C0F8941000213A
:10031000C0F8A8100021C0F8AC10D0F82C12C0F81A
:10032000B010DFF8581BC0F8B4100021C0F8B810A6
:10033000DFF84C1BC0F8BC10D0F88012C0F8C01019
:10034000D0F87412C0F8C4100021C0F8C810002101
:10035000C0F8CC100021C0F8D0100221C0F8D41091
:100360000021C0F8D8100021C0F8DC100021C0F82E
:10037000E0100021C0F8E4100021C0F8E8100021CE
:10038000C0F8EC100021C0F8F0100021C0F8F41003
:100390000021C0F8F8100021C0F8FC100021C0F8BE
:1003A00004110021C0F808110021C0F80C1100212F
:1003B000C0F810110021C0F814110021C0F8181164
:1003C0000021C0F81C110021C0F820110021C0F844
:1003D00024110021C0F828110021C0F82C1101219E
:1003E000C0F830110121C0F834110021C0F83811D3
:1003F0007047DFF8901AC0F890125FF08141C0F8A2
:10040000941240F6B831C0F8B4127047DFF8741A8D
:10041000C0F8001240F6B831C0F834125FF08142E3
:10042000C0F80422B7EE000A80ED820ADFF8582AED
:10043000C0F80C22DFF8542AC0F81022DFF8502A46
:10044000C0F81422D0ED830AB0EE001AC0EE810A83
:10045000DFF8402A92ED001A60EE810A90ED831ACF
:10046000F0EE001A81EE211A60EE810AC0ED860AD4
:10047000D0EDA40A90ED841A60EE810A90ED861A00
:1004800060EE810A9FEDB51A60EE810A90EDA51A23
:10049000D0ED821A21EE211ADFEDC01A21EE211AC9
:1004A000C0EE810AC0ED870ADFEDBD0AC0ED880A03
:1004B00090ED851AD0ED841A81EE211ADFEDB71A7E
:1004C00090ED802AC1EE821A21EE211AD0ED811A18
:1004D00021EE211ABDEEC11A80ED891A0022C0F862
:1004E0002822D0F82422022392FBF3F2C0F82C2217
:1004F000C0F83012DFF8A019C0F83812DFF89C19E4
:10050000C0F83C129FEDA71AD0ED8F1A9FEDA62AD6
:1005100061EE821A90ED8E2A61EE821A9FEDA32A77
:10052000C2EE211A61EE811AC0ED901ADFF870193F
:10053000C0F84412C0ED920ADFF86819C0F84C12F6
:10054000DFF86419C0F85012DFF86019C0F85412CF
:10055000DFF85C19C0F858120221C0F85C124FF4A1
:10056000FA71C0F8601241F27072C0F864220A2277
:10057000C0F86822C822C0F86C22C0F870124FF48C
:100580009671C0F874125FF07C51C0F8781280ED5B
:100590009F1A80EDA00A0121C0F884120021C0F842
:1005A000881290ED9D0AB8EE400ADFEDDD0A20EEDC
:1005B000200ABCEEC00A80EDA30A70470000484242
:1005C000DFF8B418C0F83C11DFF8E818C0F84011A3
:1005D0000021C0F84411D249C0F848119FED710ABA
:1005E00080ED530A80ED540A0021C0F85411002117
:1005F000C0F858110021C0F85C11D0F84011C0F8C3
:1006000060110021C0F864110021C0F868110021B8
:10061000C0F86C110021C0F87011D0F84011C0F87A
:100620007411D0F84411C0F87811D0F84411C0F812
:100630007C11DFF88418C0F880119FEDBA0AD0ED64
:10064000080A60EE800A90ED081A21EE000A20EEFA
:10065000800A80ED610AB0EE000AD0ED610A60EE1A
:10066000800AC0ED620AD0ED500A9FEDCD1A60EE0F
:10067000810AC0ED630AF2EE040A90ED871A21EEBA
:10068000201AD0ED871A61EEA01A21EE211A80ED12
:10069000641A90ED871A21EE201AD0ED871A61EEC8
:1006A000A00A61EE200AC0ED650AD0F88811C0F8F2
:1006B0009811D0F88811C0F89C1180ED680A9FED60
:1006C000B90A80ED690A0021C0F8A8110021C0F81C
:1006D000AC110021C0F8B0110021C0F8B411002104
:1006E000C0F8A811DFF8D417C0F8B8110021C0F87D
:1006F000BC110021C0F8C0114FF49671C0F8C411AC
:100700000A21C0F8C8110021C0F8CC1180ED740A8C
:100710000021C0F8D411DFF8A817C0F8D8110021C3
:10072000C0F8DC110021C0F8E011D0F8C811C0F801
:10073000E4110021C0F8E8110021C0F8EC110021FB
:10074000C0F8F011D0F86012C0F8F4110021C0F820
:10075000F8110021C0F8FC11704700006F12833AB5
:100760000121C0F8C81290ED910AF6EE000A20EEC1
:10077000200A80EDB30A0021C0F8CC12D0F8CC12C8
:10078000C0F8D012012180F8D4120021C0F8D8128C
:10079000DFF81017C0F8DC12704700000000B44307
:1007A0000010A44600007A440000804533335340D3
:1007B0000021C0F8C4130021C0F8C81370472DE908
:1007C000FC4706005FF0010A00275FF000080020E8
:1007D0000090012401254FF48041DFF8E80603F082
:1007E00025F98146D6F8C403002805D002282DD06B
:1007F00006D3032857D08FE00120C6F8C4038BE04E
:100800000421DFF8C40603F011F90400002C10D114
:10081000002080466A464146DFF8B0060068D0F8FE
:10082000C40003F063F9002000900320C6F8C4035D
:100830000BE0DFF89C0680466A464146DFF88C06EE
:100840000068D0F8C40003F051F965E04FF400519E
:10085000DFF8800603F0EAF80500002D0ED1002035
:1008600080466A464146DFF864060068D0F8C40056
:1008700003F03CF90320C6F8C40313E040F6B83097
:1008800080466A464146DFF844060068D0F8C40056
:1008900003F02CF9D6F8C81300984118C6F8C8130D
:1008A0000020009038E0D6F8C813D6F82C22D6F8ED
:1008B0003002121A91421CDBD6F82C12D6F8300204
:1008C0004118D6F8C803814213DB002080466A46EF
:1008D0004146DFF8F8050068D0F8C40003F006F9D7
:1008E000D6F8C803C6F89000002000900120070049
:1008F00011E040F6B83080466A464146DFF8CC0544
:100900000068D0F8C40003F0F1F8D6F8C8130098D6
:100910004118C6F8C813FFE73800BDE8F6870000A5
:10092000CDCC4C3EACC527370021C0F85411002176
:10093000C0F858110021C0F868110021C0F86C11EE
:100940000021C0F8AC110021C0F87811D0F888114E
:10095000C0F898110021C0F8D8128168C0F84C1175
:100960008168C0F850110021C0F8B0110021C0F812
:10097000B4110021C0F8A8110021C0F8D4117047AB
:10098000F0EE400A9FEDB91AF5EE400AF1EE10FACA
:1009900002DDB7EE000A01E0BFEE000A704700007A
:1009A00000247449CDCCCC3D38B50400DFF81C558B
:1009B00001212868D0F8B80003F01FF90021286849
:1009C000D0F8B80003F0D1F901212868D0F8B000C0
:1009D00003F013F901212868D0F8B40003F00DF9F1
:1009E0000020C4F8E4000120C4F808010020C4F885
:1009F000E8000020C4F800010020C4F8F000002046
:100A0000C4F8DC000020C4F8E0000020C4F81401A1
:100A10000020C4F818010020C4F838010020C4F8F0
:100A20001C010020C4F828010020C4F82C0131BDAD
:100A300038B50400DFF8945401212868D0F8B800D4
:100A400003F0DBF800212868D0F8B80003F08DF936
:100A500001212868D0F8B00003F0CFF80021286801
:100A6000D0F8B40003F0C9F80120C4F8E400002075
:100A7000C4F808010020C4F8E8000020C4F8000110
:100A80000020C4F8F0000120C4F8DC000020C4F805
:100A9000E0000020C4F814010020C4F81801002070
:100AA000C4F838010020C4F81C010020C4F8280153
:100AB0000020C4F82C0131BD38B50400DFF80C5417
:100AC00001212868D0F8B80003F097F800212868C1
:100AD000D0F8B80003F049F900212868D0F8B00038
:100AE00003F08BF801212868D0F8B40003F085F8F2
:100AF0000120C4F8E4000020C4F808010020C4F874
:100B0000E8000020C4F800010020C4F8F000002034
:100B1000C4F8DC000120C4F8E0000020C4F814018F
:100B20000020C4F818010020C4F838010020C4F8DF
:100B30001C010020C4F828010020C4F82C0131BD9C
:100B400038B50400DFF8845301212868D0F8B800D4
:100B500003F053F800212868D0F8B80003F005F935
:100B600001212868D0F8B00003F047F80121286877
:100B7000D0F8B40003F041F80120C4F8E4000020EC
:100B8000C4F808010020C4F8E8000020C4F80001FF
:100B90000020C4F8F0000020C4F8DC000020C4F8F5
:100BA000E0000020C4F814010020C4F8180100205F
:100BB000C4F838010020C4F81C010020C4F8280142
:100BC0000020C4F82C0131BD38B50400BF4D01210F
:100BD0002868D0F8B00003F010F801212868D0F898
:100BE000B40003F00AF801212868D0F8B80003F037
:100BF00004F8D4F8F4112868D0F8B80003F06AF8C3
:100C000001212868D0F8B80003F0AFF80021286867
:100C1000D0F8B80002F0F1FF0020C4F8E400002092
:100C2000C4F808010120C4F8E8000020C4F800015D
:100C30000020C4F8F0000020C4F8DC000020C4F854
:100C4000E0000020C4F814010020C4F818010020BE
:100C5000C4F838010020C4F81C010020C4F82801A1
:100C60000020C4F82C0131BD00000000000000008D
:100C700038B50400954D01212868D0F8B00002F085
:100C8000BCFF01212868D0F8B40002F0B6FF0121B2
:100C90002868D0F8B80002F0B0FF00212868D0F82A
:100CA000B80003F062F8D4F86002C4F8F401D4F894
:100CB000F4112868D0F8B80003F00CF80021286877
:100CC000D0F8B80002F099FF0120C4F8E400002039
:100CD000C4F808010020C4F8E8000020C4F80001AE
:100CE0000020C4F8F0000020C4F8DC000020C4F8A4
:100CF000E0000020C4F814010120C4F8180100200D
:100D0000C4F838010020C4F81C010020C4F82801F0
:100D10000020C4F82C0131BD38B504006B4D012111
:100D20002868D0F8B00002F068FF01212868D0F8E8
:100D3000B40002F062FF01212868D0F8B80002F088
:100D40005CFFD4F87002C4F8F401D4F8F4112868F8
:100D5000D0F8B80002F0BEFF01212868D0F8B80032
:100D600003F003F800212868D0F8B80002F045FF2E
:100D70000020C4F8DC000020C4F8E0000020C4F823
:100D800018010120C4F838010020C4F81C0100201B
:100D9000C4F828010020C4F82C0131BD38B5040086
:100DA0004A4D01212868D0F8B00002F026FF012149
:100DB0002868D0F8B40002F020FF01212868D0F89C
:100DC000B80002F01AFF00212868D0F8B80002F03D
:100DD000CCFFD4F86002C4F8F401D4F8F411286808
:100DE000D0F8B80002F076FF00212868D0F8B800EB
:100DF00002F003FF0020C4F8E4000020C4F808015A
:100E00000020C4F8E8000120C4F800010020C4F864
:100E1000F0000020C4F8DC000020C4F8E00000204E
:100E2000C4F814010020C4F818010020C4F83801E7
:100E30000020C4F81C010020C4F828010020C4F8D8
:100E40002C0131BD38B50400D4F8F40100280DD0D0
:100E50001E4DD4F8F4112868D0F8B80002F03AFF1B
:100E600000212868D0F8B80002F0C7FE31BD0000AC
:100E700000409C4600C0DA450000A0400AD7A33BD2
:100E8000000040406666E63F333343419A99193F7C
:100E900000002042E01D0308CDCC4C3D6EDB364007
:100EA0009A99993E00002041000060409A99993D2E
:100EB000CDCCCC3E0000C8420000FA4348E17A3F66
:100EC000333333BF000C00480004004808310320CE
:100ED00048F4FFFF0008004838B52DED108B90B0A6
:100EE00004009FEDE08A0020C4F87401D4F84001AA
:100EF000C4F890010020C4F86401D4F80C01012862
:100F000040F0D88394ED550AD4ED6B0A30EE600AB8
:100F100084ED6F0A9FEDD3AADFEDD2AA94ED6B0AA0
:100F20002000FFF72DFD8DED0C0A94ED6F0A2000D7
:100F3000FFF726FD8DED0B0A9DED0C0ADDED0B0A8A
:100F400020EE200ABDEEC00A84ED700A94ED230A5B
:100F5000D4ED690A20EE200AF7EE000A94ED691A32
:100F600070EEC10A94ED6C1A00EE810A84ED6C0AF1
:100F70009FEDBCBADFEDBBBA9FEDBACA94ED230A70
:100F8000D4ED6C0A70EE608A28EEA80A8DED0A0A8C
:100F9000B7EE000AD4ED690A30EE609A9DED0A0AB8
:100FA000D4ED690A20EE200AD4ED6A0A00EE890A1F
:100FB00084ED6A0ADFEDABCA9FEDAADADFEDA9DAAC
:100FC00094ED6AEAB0EE4E0A03F034F88DED090AAA
:100FD000D4ED61EAB0EE6E0A03F02CF88DED080A4C
:100FE0009DED080AF0EE080A60EE209A9DED090AD0
:100FF000B4EE690AF1EE10FA0AD594ED6C0AB4EE7B
:10100000690AF1EE10FA03D50120C4F8EC0002E001
:101010000020C4F8EC0094ED550AD4ED560A30EEE9
:1010200060AA84ED57AA94ED5A0AD4ED5B0A70EEDB
:1010300060AAC4ED5CAA94ED580AD4ED5A0A30EEC9
:10104000200A84ED580A94ED630AD4ED650A30EE67
:10105000200A84ED630ADFED83BA002000909FED43
:1010600081CADFED80CADFED7FFA94ED5ADAB0EE87
:10107000CD0A8DED0F0AD4ED65DAB0EE6D0A02F0FF
:10108000D9FF8DED050AB2EE04BA9DED050A20EEFA
:101090000B0A8DED0E0A94ED55EAB0EECE0A8DEDF9
:1010A0000D0ACDED03AA039830F0004000EE100ABF
:1010B0008DED070A8DED02AA029830F0004000EE97
:1010C000100A8DED000AD4ED65EAB0EE6E0A02F06A
:1010D000B1FF8DED060A9DED060A20EE0BBA94EDE8
:1010E00062FAB0EE4F0A02F0A5FF8DED010A9DED08
:1010F000070AB4EE40BAF1EE10FA4CD59DED010AA4
:10110000DDED000AB4EE600AF1EE10FA43D5D4F832
:101110000C0101283FD10120C4F864018AEE8A0A3B
:10112000D4ED530AF1EE600A20EE800A84ED5D0AE8
:101130009FED4C0A9FED4B1A9FED4A2ACAEE8A0A90
:1011400060EEA00AD4ED611A61EEA00A6AEE0A1AF6
:10115000CAEEA11AD4ED532A62EEA11A61EEA11AC9
:10116000D4ED622A62EEA11AB0EE003A61EE831A63
:10117000D4ED532AC2EE8A2A62EEA22AD4ED653A51
:1011800063EEA22A62EE832A70EEA10A70EEA20A32
:10119000C4ED640A07E19DED0E0ADDED0F0AB4EE21
:1011A000600AF1EE10FA63D59DED010ADDED0D0A3E
:1011B000B4EE600AF1EE10FA5AD50220C4F86401C8
:1011C0009FED291B94ED530AFFEE000A20EE200A42
:1011D000D4ED5A0A94ED552AC0EE820A20EE200A78
:1011E00002F037FF51EC100B02F070FFC4F87401ED
:1011F0009FED1C0ADFED1B0A9FED1A1AD4ED5A1A57
:1012000094ED552AC1EE821A61EEA11A94ED612A7D
:1012100061EE821A94ED552AD4ED552A22EE222A47
:10122000D4ED532A94ED5A3A62EE832A82EE822A52
:1012300022EE022AD4ED622A22EE822AD4ED532A2B
:1012400094ED553AC2EE832A62EEA22A94ED653AF5
:1012500063EE222A71EE821A71EEA21AC4ED641AAC
:10126000A1E000BF0000000000000000000000003E
:10127000D4F80C01012840F096800320C4F86401E2
:10128000DFED7C0A94ED750ABFEE001A20EE010A2C
:1012900094ED791AB8EE411A80EE010AB0EE408A58
:1012A00084ED778A94ED5E0A38EE001AB0EEC10A3A
:1012B00084ED780AD4F8C001012837D1D4ED5E0A54
:1012C00028EE201AD4ED5E1AF0EEE10AB0EE002A04
:1012D00060EE820AB5EE401AF1EE10FA26DBB4EEAB
:1012E000600AF1EE10FA21D5D4ED5A1AF5EE401A43
:1012F000F1EE10FA1AD0D4ED5B1AF5EE401AF1EEC9
:1013000010FA13D0D4ED581A94ED6E2A61EE821AB9
:10131000C4ED5D1AD4F88C01C4F89001D4ED5E1AC6
:1013200094ED6E2AC1EE821AC4ED5E1AD4F8C001A3
:1013300010F1010F37D1D4ED5E0A28EE201AD4ED5A
:101340005E1AF0EEE10AB0EE002A60EE820AB5EE17
:10135000401AF1EE10FA26DBB4EE600AF1EE10FA54
:1013600021D5D4ED5A1AF5EE401AF1EE10FA1AD042
:10137000D4ED5B1AF5EE401AF1EE10FA13D0D4ED6D
:10138000581A94ED6E2AC1EE821AC4ED5D1AD4F893
:101390008C01C4F89001D4ED5E1A94ED6E2A61EED2
:1013A000821AC4ED5E1A94ED5D0AB5EE400AF1EEC4
:1013B00010FA57D094ED5D0AD4ED630A20EE200AAE
:1013C000D4ED580A94ED641A00EE810AD4ED640A53
:1013D00094ED631A70EE810A80EE200A84ED580ABB
:1013E00094ED630AD4ED640A20EE200AD4ED640A79
:1013F00094ED631A70EE810A80EE200A84ED630A90
:101400009FED1CFA94ED580AD4ED5D0A70EE60BAB7
:10141000B0EEEBCA94ED680AD4ED640A30EE600ACF
:10142000CCEE00CA94ED63DAF0EE6C0AB0EE4D0A31
:1014300002F080FE84ED630AD4ED50DA94ED58EAB0
:10144000F0EE6D0AB0EE4E0A02F08AFEF0EE40FABF
:10145000D4ED4FEAF0EE6E0AB0EE6F0A02F06AFECB
:1014600084ED580AD4F86401032840F0D180DFED00
:1014700001CA01E0000000009FEDB6DA0025D4EDBE
:1014800062DAB0EE6D0A02F0D5FDD4ED710AF8EE25
:10149000600AC0EE20BA94ED5EEAB0EECE0AD4ED5A
:1014A00075EAF0EEEE0A8DED040ACDED030ADDEDEE
:1014B000040A9DED030A02F03DFEF0EE40FACDED88
:1014C00002BADDED020AB0EE6F0A02F033FEB0EEB2
:1014D00040CA94ED62FAB0EE4F0A02F0ABFD80EE26
:1014E0000C0AD4ED720AF8EE600AF4EE400AF1EE4E
:1014F00010FA0AD594ED62DAB0EE4D0A02F09AFDC8
:1015000080EE0C0AFCEEC0CA01E0D4ED72CAC4ED54
:1015100079CAB8EE6C0AD4ED760A80EE800A0A2009
:1015200002F032FE51EC100B02F0D0FDC4F8D001F5
:10153000B7EE000AD4ED740A30EE600AD4ED230A47
:1015400020EE200AD4ED740A94ED751A00EE810A9B
:1015500084ED750A94ED750AFFEE000A20EE200A6C
:10156000D4ED790AF8EE600A80EE200AB0EE408AE7
:1015700084ED778AB8EE6C0A88EE000A84ED730A6F
:1015800094ED5E0A28EE000AB5EE400AF1EE10FA7C
:101590000AD5B8EE6C0AD4ED730A94ED5E1A00EE2B
:1015A000201A84ED5E1A33E094ED5E0AD4ED730ADE
:1015B00030EE200A84ED5E0AB8EE6C0AD4ED620AC1
:1015C00080EE800A84ED660A94ED5E0AD4ED5F0A2F
:1015D00070EE600AB0EEE00A94ED681AD4ED671A76
:1015E00031EE611A80EE011AD4ED661AB4EE611A7A
:1015F000F1EE10FA02D594ED660A07E0D4ED680A20
:1016000094ED671A70EEC10A80EE200A84ED660A36
:1016100094ED910AD4ED580A80EE200AD4ED530AD5
:1016200094ED921AC0EE810A20EE200AD4ED930ABE
:1016300020EE200A84ED520ABFEE000AD4ED520AD1
:1016400060EE800A94ED5E1AF4EE410AF1EE10FAB3
:1016500002D5D4ED5E0A03E0D4ED520A60EE800AB2
:1016600094ED521AF4EE410AF1EE10FA12D5D4EDCF
:10167000520A60EE800A94ED5E1AF4EE410AF1EE31
:1016800010FA02D594ED5E0A06E0D4ED520A20EE7F
:10169000800A01E094ED520A84ED5E0A94ED530A4B
:1016A000D4ED870A20EE200AD4ED580A80EE800A95
:1016B00084ED600A10B0BDEC108B31BDDFED250A62
:1016C0004169002902D190ED030A07E0416901292F
:1016D00002D190ED020A01E090ED040A704701008A
:1016E0004FF4D370486440F29E20886440F26C400E
:1016F000C86440F2E270086540F6B54048650020D5
:1017000008634FF4485048634FF4C84088634FF46F
:101710001640C8634CF2E0400864012070470000A6
:10172000010000209FED0B1AF4EE400AF1EE10FAD2
:1017300002D570EE601A01E070EEC01ADFF84C2D91
:1017400092ED001AF4EE411AF1EE10FA01D50122E1
:10175000100070470000000070B52DED068B82B0C0
:101760000400002600200090684602F08CFE050070
:10177000012D04D10098C4F8B4030098E067D4F8B0
:101780000C01012840F0F180200000F0F7F994F8F6
:10179000B802012840F0DD80D4F8F400012800F000
:1017A000D880D4F8F800012800F0D380D4F8FC00E9
:1017B000012800F0CE80D4F82001012800F0C98073
:1017C0006069C4F884002000FFF778FF84ED250AE3
:1017D0002068C4F88000D4F85401C4F85801D4F843
:1017E0006801C4F86C0194ED020AD4EDB60A30EE3B
:1017F000200AD4ED530A30EE600A84ED550A94EDC8
:10180000020AD4EDB60A30EE200A84ED530AD4F869
:101810008C00C4F8AC0194ED200AD4ED250A30EE1A
:10182000600A84ED230A94ED230AD4ED5E0A30EEBB
:10183000600A84ED2B0A94ED600AD4ED2B0A60EE69
:10184000209AB0EE690A02F06FFEBDEEC00A84ED88
:101850002A0A94ED2BAAB0EECA8AD4ED62AAB0EEA1
:101860006A0A02F0E7FBF0EE408A94ED230AB0EE3C
:10187000C09AB4EE688AF1EE10FA0AD5B4EE689A0E
:10188000F1EE10FA05D50020C4F8AC000020C4F831
:10189000A80014F18802D4F8A810DFF8F40B00684F
:1018A000D0F8C40002F022F9D4F8B010D4F88800BF
:1018B0004118C4F8B01094ED220AB8EEC00AD4ED75
:1018C000870AF1EE600A20EE800A84ED5A0AD4F805
:1018D000B010D4F888004118C4F8B01094ED870A0D
:1018E000FFEE000A20EE200AD4ED220AF8EEE00A0C
:1018F00020EE200A84ED5A0A200000F083F920002F
:10190000FFF7EAFA200000F038F894EDB30AF0EEA1
:10191000C00AF1EE600A94ED031A60EE810A94EDBC
:10192000921AC0EE810A94ED931A60EE810A94ED4A
:10193000B71AC0EE810AC4EDB40AD4EDB60A94ED2C
:10194000B41A70EE810AC4EDB60A0420C4F8B803D4
:101950000BE00020C4F80C010020C4F8EC000120CA
:10196000C4F8B803200000F008F802B0BDEC068B04
:1019700070BD0421C0F8B8137047F8B50400002505
:10198000D4F8DC60D4F8E00056EA4006D4F8E4006D
:1019900056EA8006D4F8E80056EAC006D4F8EC000F
:1019A00056EA0016D4F8F00056EA4016D4F8F400CF
:1019B00056EA8016D4F8F80056EAC016D4F8FC00AF
:1019C00056EA0026D4F8040156EA4026D4F8080165
:1019D00056EA8026D4F80C0156EAC026D4F8100145
:1019E00056EA0036D4F8140156EA4036D4F8180105
:1019F00056EA8036D4F81C0156EAC036D4F82001E5
:101A000056EA0046D4F8240156EA4046D4F82801A4
:101A100056EA8046D4F82C0156EAC046D4F80001B4
:101A200056EA0056D4F8300156EA4056D4F834014C
:101A300056EA8056D4F8380156EAC056C4F8C06257
:101A4000DFF84C7AD4F8C012386803F0E1F9D4F822
:101A5000C012386803F0E5F9F1BD7CB5040094F8D4
:101A6000B80294F8B912884207D194F8B802022853
:101A700003D094F8B80203287BD194F8B802002868
:101A80000FD101200190002000904FF6FF7301223A
:101A90000121DFF8FC090068D0F8980003F070FF1E
:101AA00067E094F8B80201281CD1DFF8E4594FF63A
:101AB000FF760220019000200090330000220221D6
:101AC0002868D0F8980003F05BFF02200190002006
:101AD00000903300022202212868D0F8980003F019
:101AE0004FFF46E0D4F8F000D4F8BC1288423CD056
:101AF000D4F8F00001281CD1DFF894594FF6FF7696
:101B0000022001900020009033000022022128686A
:101B1000D0F8980003F034FF0420019000200090DA
:101B20003300022202212868D0F8980003F028FF31
:101B30001BE0DFF85C594FF6FF7602200190002091
:101B400000903300002202212868D0F8980003F0AA
:101B500017FF022001900020009033000222022192
:101B60002868D0F8980003F00BFFD4F8F000C4F810
:101B7000BC0294F8B80284F8B90273BD1CB5040025
:101B800001200190002000904FF6FF7301220221F6
:101B9000DFF8FC080068D0F8980003F0F1FE13BDF0
:101BA000010000200022C1F8C0220022C1F8242137
:101BB0007047F0B40300002600240020D3F82C2244
:101BC000D3F83072D71BD3F82C52D3F830225519E2
:101BD0008F4203DAA94201DA01221000F0BC7047FB
:101BE00070B504000D0016000421DFF84C0C01F064
:101BF0001DFF28604FF40051DFF8400C01F016FF84
:101C0000306070BD3EB504000020019000200090BF
:101C100000256A4601A92000FFF7E2FF009800288E
:101C200007D1D4F82402C4F8B0000120C4F8200180
:101C30000DE00198002807D1D4F82802C4F8B000BC
:101C40000120C4F8200102E00020C4F82001D4F8EB
:101C5000B0102000FFF7ADFFC4F8100137BD000041
:101C600070B52DED048B84B0040000200290002696
:101C7000002003909FEDB98ADFEDB88A02A802F038
:101C800002FC0500012D04D10298C4F8B4030298A7
:101C9000E067DFEDB29A0020C4F8EC000020C4F841
:101CA000F4000020C4F8F8000020C4F8FC00002074
:101CB000C4F820012000FEF787FF2000FFF7A2FFF5
:101CC000DFF8CC6714F11801306802F0CDFFA0698D
:101CD000E06503A9306802F0E2FF0398606694EDC6
:101CE000170AD4ED080A80EE200AD4ED170A94ED05
:101CF000081AC0EE810A20EE209AE06D206294ED71
:101D0000610A29EE000A84ED610A94ED620A29EE67
:101D1000000A84ED620A0020C4F80C010020C4F817
:101D2000EC00D4F8CC03002805D1E068A0620120C3
:101D3000C4F8CC030DE1D4F8CC0301282CD1E06821
:101D4000E06294ED0B0AD4ED0A0A30EE600AF0EE80
:101D5000C00AC4ED550AE06AA067D4ED1E0AB7EECA
:101D6000081A60EE810AB0EEE01AB0EE418A94EDF6
:101D70001C1AB4EE481AF1EE10FA02D5B0EE480A79
:101D800001E094ED1C0A84ED1B0A0020C4F8D00386
:101D90000220C4F8CC03DCE0D4F8CC03022866D1DE
:101DA000D4ED629AB0EE690A02F044F9F0EE000A4E
:101DB00020EE200AF0EE408A94ED550AF4EE408AB7
:101DC000F1EE10FA4FD5D4F8D003401CC4F8D0037C
:101DD000E06AA062E068E06294ED0B0AD4ED0A0AC2
:101DE00030EE600AF0EEC00AC4ED550AD4F8D00314
:101DF00065281DD30020A06794ED1E0AF7EE080A9F
:101E000020EE200AF0EEC00AB0EE608AD4ED1C0A83
:101E1000F4EE480AF1EE10FA02D5B0EE480A01E0FD
:101E200094ED1C0A84ED1B0A0320C4F8CC0390E057
:101E3000E06AA06794ED1E0AF7EE080A20EE200A79
:101E4000F0EEC00AB0EE608AD4ED1C0AF4EE480A47
:101E5000F1EE10FA02D5B0EE480A01E094ED1C0A4A
:101E600084ED1B0A75E00320C4F8CC0371E0D4F8BC
:101E7000CC0303286DD194ED1D0AD4ED1E0AB4EEF7
:101E8000600AF1EE10FA02D50120C4F80401200026
:101E9000FEF78AFD2000FFF770FD0020C4F8EC007B
:101EA0000020C4F8F4000020C4F8F8000020C4F8B2
:101EB000FC00D4F8200101282ED12000FFF7A2FE5B
:101EC00094ED1B0AFFEE000A20EE200AD4ED270A4B
:101ED000F4EE400AF1EE10FA1EDB94ED1B0AD4ED8D
:101EE000270AB4EE600AF1EE10FA15DBB6EE000A2E
:101EF000D4ED1B0A60EE800A94ED1C1AB4EE601A51
:101F0000F1EE10FA04D5D4ED1B0A20EE800A01E0B0
:101F100094ED1C0A84ED1B0A0020C4F82001002067
:101F2000C4F804010020C4F8CC0300200190012073
:101F300000904FF6FF73012201213068D0F898001D
:101F400003F01EFDDFF8180D03F081FD0120C4F839
:101F5000B80304B0BDEC048B70BD000000000000AD
:101F600010B504000120C4F80C012000FFF705FDA6
:101F70000020C4F8A8000020C4F820012000FFF7CA
:101F8000FCFC10BDF8B505000024002000900027DF
:101F9000684602F078FA0600012E04D10098C5F8D0
:101FA000B4030098E867D5F80C01002840F0908150
:101FB00095F8B802002807D1D5F8E400012803D12C
:101FC0002800FEF7F1FC7DE195F8B802002807D162
:101FD000D5F8E800012803D12800FEF7E5FC71E1FF
:101FE00095F8B802002807D1D5F80001012803D1DF
:101FF0002800FEF7D9FC65E195F8B802012807D161
:10200000D5F80801012803D12800FEF799FD59E110
:1020100095F8B802012807D1D5F8E800012803D1C6
:102020002800FEF78DFD4DE195F8B802012807D193
:10203000D5F80001012803D12800FEF781FD41E118
:1020400095F8B80202280AD1D5F80801012806D16E
:10205000002085F8BC032800FEF7B6FD32E195F8B4
:10206000B80202280AD1D5F8E400012806D10020E0
:1020700085F8BC032800FEF7A7FD23E195F8B80218
:1020800002280AD1D5F80001012806D1002085F8E0
:10209000BC032800FEF798FD14E195F8B802032868
:1020A0000AD1D5F80801012806D1002085F8BC0323
:1020B0002800FEF773FE05E195F8B802032807D162
:1020C000D5F8E800012803D12800FEF767FEF9E003
:1020D00095F8B80203280AD1D5F8E400012806D102
:1020E000002085F8BC032800FEF758FEEAE095F8CA
:1020F000B802002811D10020C5F824012800FFF7FC
:10210000DDFA85ED250A2868C5F880006869C5F8FC
:1021100084002800FFF744FDD4E095F8B8020128B8
:1021200040F096800020C5F824016869C5F8840055
:102130002800FFF7C3FA85ED250A2868C5F8800056
:1021400095ED050AB8EE400AD5ED040A95ED201A82
:1021500000EE601A85ED011A2800FFF753FD95F88F
:10216000B802C5F8D400D5F8C80201282AD195EDE7
:10217000010AD5ED040A30EE200AD5F8DC0001286A
:102180000AD1D5ED2F0A20EE200AD5ED2D0A20EE3A
:10219000200A85ED2E0A15E0D5F8E00001280ED1C1
:1021A000FFEE000A20EE200AD5ED2F0A20EE200ACD
:1021B000D5ED2D0A20EE200A85ED2E0A02E0002042
:1021C000C5F8B800280000F051FA0400002C2DD109
:1021D000280000F039FB0400002C27D1280000F073
:1021E0007FFB0400002C21D1280000F0CBFB040071
:1021F000002C1BD1280000F013FC0400002C15D18A
:10220000280000F031FD0400002C0FD1280000F060
:102210006EFD0400002C09D1280000F0AFFD040081
:10222000002C03D1280000F0EFFD040015F1880216
:10223000D5F8A81096480068D0F8C40001F056FC04
:10224000D5F8B010D5F888004118C5F8B01039E0BD
:1022500095F8B802022815D10020C5F82401286895
:10226000C5F880006869C5F8840095F8B802C5F81B
:10227000D4002800FFF722FA85ED250A280000F097
:1022800009F91FE095F8B802032815D10020C5F818
:1022900024012868C5F880006869C5F8840095F8AD
:1022A000B802C5F8D4002800FFF708FA85ED250A22
:1022B000280000F00FF805E00120C5F824012800EF
:1022C000FFF75BFB2800FFF758FB2800FFF7C5FB73
:1022D000F1BD000070B52DED088B040000259FEDC9
:1022E000D98ADFEDD88A9FEDD79ADFEDD69ADFF84D
:1022F000546514F1C001306802F0EDFC0020C4F810
:10230000A800D4F81801002808D10120C4F8180149
:102310000020C4F8E801E068C4F8F001D4F8F00146
:10232000C4F8EC01E068C4F8F00194ED7C0AD4ED47
:102330007B0A30EE600A84ED550A94ED030AB0EE94
:10234000C0AAD4ED550AF0EEE0AA94ED621AD4EDDD
:10235000621A21EE211AF0EE081A21EE21BA94ED4C
:10236000301AB4EE41BAF1EE10FA02D594ED308A8B
:1023700001E0B0EE4B8A94ED1B0AB4EE40AAF1EEF8
:1023800010FA3BD501213068D0F8B80001F0EDFC1F
:102390000120C4F8F000D4F8C400D4F88C128842AC
:1023A0000CD2D4F8C400401CC4F8C400D4F86C02A9
:1023B000C4F8F4012000FEF745FD63E0D4F8740290
:1023C000D4F8C41088420AD20020C4F8C400D4F85B
:1023D0006C02C4F8F4012000FEF734FD52E0D4F89A
:1023E000C400401CC4F8C4000020C4F8F40101215A
:1023F0003068D0F8B80001F000FC43E0F4EE48AAE1
:10240000F1EE10FA1FD500213068D0F8B80001F0C5
:10241000ACFCD4F8F411D4F868024118D4F8640282
:10242000814205D2D4F8F411D4F86802411801E0D1
:10243000D4F86412C4F8F4110020C4F8F0002000AD
:10244000FEF700FD1EE000213068D0F8B80001F072
:102450008CFCD4F86012D4F8F421D4F86802121A73
:10246000914205D2D4F8F411D4F86802081A01E0B8
:10247000D4F86002C4F8F4010020C4F8F000200091
:10248000FEF7E0FC2800BDEC088B70BDDC1D0308E6
:102490000831032038B52DED088B040000259FED91
:1024A000698A9FED689A9FED67AA2000FFF7AAFB53
:1024B0000020C4F8A800D4F83801002808D1200072
:1024C000FEF72AFC0020C4F8E801E068C4F8F00137
:1024D000D4F8F001C4F8EC01E068C4F8F00194ED20
:1024E0007C0AD4ED7B0A30EE600A84ED550A94ED47
:1024F00062BAB0EE4B0A01F09DFDF0EE000A60EE0C
:10250000208A94ED030AF0EEC09AD4ED550AF0EE5D
:10251000E0AA94ED1B1AF4EE419AF1EE10FA3BD5C5
:10252000F4EE68AAF1EE10FA36D50120C4F8F000F6
:10253000D4F8C400D4F88C1288420CD2D4F8C40069
:10254000401CC4F8C400D4F86C02C4F8F4012000A4
:10255000FEF778FC2DE0D4F87402D4F8C410884259
:102560000AD20020C4F8C400D4F86C02C4F8F40104
:102570002000FEF767FC1CE0D4F8C400401CC4F83F
:10258000C4000020C4F8F4010121AE480068D0F86E
:10259000B80001F032FB0CE0D4F87002C4F8F4018A
:1025A0000020C4F8C4000020C4F8F0002000FEF7AA
:1025B00049FCD4F82C12D4F830024118D4F8B000F9
:1025C00081420EDAD4F834125FF0FF304143C4F890
:1025D000A810D4F81C0100281ED10120C4F81C0149
:1025E0001AE0D4F8B010D4F82C22D4F83002121A21
:1025F00091420BDAD4F83402C4F8A800D4F81C01D4
:10260000002809D10120C4F81C0105E00020C4F80D
:10261000A8000020C4F81C0114F18802D4F8A81006
:1026200088480068D0F8C40001F060FAD4F8B0100F
:10263000D4F888004118C4F8B0102800BDEC088B0D
:1026400032BD00000000000002000120F4EE400A4C
:10265000F1EE10FA04D530EE601A81ED001A03E0B5
:1026600030EEC01A81ED001A7047000038B52DED2C
:10267000048B82B0040000259FED719A0020009029
:10268000DFED6F9A94ED010AD4ED2E0A30EE208A28
:102690006946D4ED030AB0EE480A2000FFF7D4FFE4
:1026A0009DED000AD4ED020AC0EE208AD4F8100194
:1026B000012840F0BC8094ED2D0AF4EE408AF1EE42
:1026C00010FA40F1B48094ED030AB4EE480AF1EE3A
:1026D00010FA06D594ED1B0AB4EE408AF1EE10FA1A
:1026E00011D494ED030AB4EE408AF1EE10FA3FD50E
:1026F00094ED1B0AFFEE000A20EE200AB4EE480A11
:10270000F1EE10FA34D50020C4F8A80014F18802C4
:10271000D4F8A8104B480068D0F8C40001F0E6F9DE
:10272000D4F8B010D4F888004118C4F8B0102000D4
:10273000FEF706FAD4F8C802012811D1D4ED2E0A0A
:102740009FED3F0A2000FEF7EBFF002810D001208C
:1027500005000120C4F80C010420C4F8B80307E008
:10276000012005000120C4F80C010420C4F8B803BE
:10277000BFEE000AD4ED1B0A60EE800A94ED031A46
:10278000B4EE601AF1EE10FA51DBD4ED1B0A94EDB1
:10279000031AF4EE410AF1EE10FA48DBD4ED1B0AFD
:1027A00020EE800AD4ED010AF4EE400AF1EE10FAB0
:1027B0003DDB94ED1B0AD4ED010AB4EE600AF1EEA4
:1027C00010FA34DB0020C4F8A80014F18802D4F811
:1027D000A8101C480068D0F8C40001F087F9D4F8AC
:1027E000B010D4F888004118C4F8B0102000FEF7EB
:1027F000A7F9D4F8C802012811D1D4ED2E0A9FED13
:10280000100A2000FEF78CFF002810D001200500E0
:102810000120C4F80C010420C4F8B80307E001202B
:1028200005000120C4F80C010420C4F8B8032800F6
:1028300002B0BDEC048B32BD000400480008004823
:10284000000000000831032070B5040000250020BE
:10285000D4F82C12D4F83022022392FBF3F68E1B0C
:1028600094ED030AD4ED010AB4EE600AF1EE10FA19
:1028700034D5D4F8B000B04230DA01200500D4F8E5
:10288000B402C4F8A800D4F8140100280FD1200025
:10289000FEF756F90120C4F814010020C4F86801BD
:1028A000A068C4F84C010020C4F8540113E094ED72
:1028B000020AD4ED530A30EE600A84ED550A94ED15
:1028C000220AB8EEC00AD4ED870A94ED5A1A00EE37
:1028D000601A84ED5A1A2000FEF7FEFA280070BD37
:1028E00070B5040000250021D4F82C62D4F8300221
:1028F000022290FBF2F0861994ED010AD4ED030A4E
:10290000B4EE600AF1EE10FA3AD5D4F8B00086427F
:1029100036DA01200500D4F8B4125FF0FF304143ED
:10292000C4F8A810D4F81401002812D12000FEF732
:1029300007F90120C4F814010020C4F86801002040
:10294000C4F88800A068C4F84C010020C4F8540101
:1029500013E094ED020AD4ED530A30EE600A84EDE0
:10296000550A94ED220AB8EEC00AD4ED870A94ED18
:102970005A1A00EE601A84ED5A1A2000FEF7ACFADB
:10298000280070BD38B50400002594ED010AB5EEAD
:10299000400AF1EE10FA08D894ED1B0AD4ED030AB0
:1029A000B4EE600AF1EE10FA13D494ED1B0AFFEEB8
:1029B000000A20EE200AD4ED030AF4EE400AF1EEFC
:1029C00010FA2BD594ED010AB5EE400AF1EE10FA9B
:1029D00024DB012005000020C4F8A800D4F8380149
:1029E00000281BD12000FEF797F994ED010AD4EDE1
:1029F000030AB4EE600AF1EE10FA06D50120C4F81D
:102A00002C010020C4F8280105E00020C4F82C01A6
:102A10000120C4F828012000FEF714FA280032BD76
:102A2000F8B52DED068B040000259FED8E0ADFED35
:102A30008D0A9FED8C1A9FED8B8ADFED8A8A00212B
:102A40000022D4ED011A94ED2E2A31EE829AD4EDB3
:102A5000031A94ED1B2A71EEC29AD4ED031A94ED79
:102A60001B2A31EE82AAD4F82C02D4F83032022686
:102A700093FBF6F6861BD4F82C72D4F830020223AE
:102A800090FBF3F0C719D4ED1B1AF1EE611AB4EE06
:102A9000619AF1EE10FA06D594ED030AB4EE490AF4
:102AA000F1EE10FA23D494ED1B0AB4EE490AF1EECC
:102AB00010FA06D594ED030AB4EE409AF1EE10FA3E
:102AC00015D4F5EE409AF1EE10FA04DDB5EE409A19
:102AD000F1EE10FA0BD9B5EE40AAF1EE10FA40F182
:102AE000BB80B5EE409AF1EE10FAC0F2B58094EDDD
:102AF0001B0AD4ED030AB4EE600AF1EE10FA03D516
:102B0000D4F8E000002810D094ED030AD4ED1B0A9D
:102B1000F1EE600AB4EE600AF1EE10FA40F19C802A
:102B2000D4F8DC00002840F0978001200500D4F89C
:102B30001801002821D12000FEF79AF894ED010A2F
:102B4000D4ED030AB4EE600AF1EE10FA06D50120C6
:102B5000C4F82C010020C4F8280105E00020C4F8C6
:102B60002C010120C4F828010020C4F8E801E06825
:102B7000C4F8EC01E068C4F8F001D4F8F001C4F83E
:102B8000EC01E068C4F8F00194ED7C0AD4ED7B0A16
:102B900030EE600A84ED550A94ED010AD4ED030A83
:102BA00030EE600AF0EEC00AB0EE608AD4ED9E0A04
:102BB00060EE880AF0EE608AD4ED550AF4EE680AF9
:102BC000F1EE10FA13D5D4F86812D4F8F4014118D4
:102BD000D4F86402814205D2D4F86812D4F8F40122
:102BE000411801E0D4F86412C4F8F41103E0D4F8F9
:102BF0006002C4F8F4012000FEF724F9D4F8B00014
:102C000087420EDAD4F8B4125FF0FF304143C4F8C3
:102C1000A810D4F81C0100281ED10120C4F81C0102
:102C20001AE0D4F8B000B0420BDAD4F8B402C4F819
:102C3000A800D4F81C0100280ED10120C4F81C0102
:102C40000AE00020C4F8A8000020C4F81C01D4F851
:102C5000E801401CC4F8E8012800BDEC068BF2BD79
:102C60002C0703200000000070B5040000250020A0
:102C7000D4F82C12D4F83022022392FBF3F68E1BE8
:102C8000D4F8B010B14230DA01200500D4F8B40213
:102C9000C4F8A800D4F8140100280FD12000FDF7D3
:102CA0004FFF0120C4F814010020C4F86801A06897
:102CB000C4F84C010020C4F8540116E094ED020A57
:102CC000D4ED530A30EE600A84ED550A94ED220AE1
:102CD000B8EEC00AD4ED870A94ED5A1A00EE601AD5
:102CE00084ED5A1A2000FEF7F7F8280070BD70B581
:102CF000040000250021D4F82C62D4F8300202220E
:102D000090FBF2F08619D4F8B000864233DA012045
:102D10000500D4F8B4125FF0FF304143C4F8A810A6
:102D2000D4F8140100280FD12000FDF709FF01207D
:102D3000C4F814010020C4F86801A068C4F84C016C
:102D40000020C4F8540116E094ED020AD4ED530AB1
:102D500030EE600A84ED550A94ED220AB8EEC00AFE
:102D6000D4ED870A94ED5A1A00EE601A84ED5A1ACF
:102D70002000FEF7B1F8280070BD000038B52DED39
:102D8000028B040000259FED430AD4ED010A94ED67
:102D90002E1A30EE818AD4ED030AF4EE480AF1EEE1
:102DA00010FA2DD594ED1B0AD4ED010AB4EE600A99
:102DB000F1EE10FA24D5012005000020C4F8A80087
:102DC000D4F8DC0000281BD1D4F82C01012807D14D
:102DD000D4F82C01002807D1D4F82801002803D109
:102DE0002000FDF725FE0BE02000FDF7A9FE0120E5
:102DF000C4F80C010020C4F8A8000420C4F8B803EB
:102E00002800BDEC028B32BD38B52DED028B0400DD
:102E100000259FED200AD4ED010A94ED2E1A30EE24
:102E2000818AD4ED030AB4EE608AF1EE10FA2DD552
:102E300094ED010AD4ED1B0AB4EE600AF1EE10FA2B
:102E400024D5012005000020C4F8A800D4F8E00033
:102E500000281BD1D4F82801012807D1D4F82C016F
:102E6000002807D1D4F82801002803D12000FDF75D
:102E700023FE0BE02000FDF763FE0120C4F80C01E7
:102E80000020C4F8A8000420C4F8B8032800BDEC52
:102E9000028B32BD0000000030B404000020002589
:102EA0009D4203D2505D48556D1CF9E7180030BCB7
:102EB00070472DE9F84FE6B0040000200390002091
:102EC00000900020029000200190042502A801F04B
:102ED000C0FADFF81818A26D0868406A8218A26567
:102EE000A06DE0670020096848625FF0FF36019638
:102EF000009F2B0001AA04A8009901442000FFF7BD
:102F0000CBFFC71900970196009E2B0001AA04A8C9
:102F1000009901442000FFF7BFFF86190096E06F7B
:102F20000190009E2B0001AA04A8009901442000F2
:102F3000FFF7B2FF86190096D4F880000190009E3A
:102F40002B0001AA04A8009901442000FFF7A4FF68
:102F50008619009660690190009E2B0001AA04A8C2
:102F6000009901442000FFF797FF86190096D4F8D6
:102F700088000190009E2B0001AA04A8009901443A
:102F80002000FFF789FF86190096D4F88C00019085
:102F9000009E2B0001AA04A8009901442000FFF71D
:102FA0007BFF86190096D4F894000190009E2B00B8
:102FB00001AA04A8009901442000FFF76DFF8619BB
:102FC0000096D4F898000190009E2B0001AA04A856
:102FD000009901442000FFF75FFF86190096D4F89E
:102FE0009C000190009E2B0001AA04A800990144B6
:102FF0002000FFF751FF86190096D4F8A000019039
:10300000009E2B0001AA04A8009901442000FFF7AC
:1030100043FF86190096D4F8A4000190009E2B006F
:1030200001AA04A8009901442000FFF735FF861982
:103030000096D4F8A8000190009E2B0001AA04A8D5
:10304000009901442000FFF727FF86190096D4F865
:10305000AC000190009E2B0001AA04A80099014435
:103060002000FFF719FF86190096D4F8B0000190F0
:10307000009E2B0001AA04A8009901442000FFF73C
:103080000BFF86190096D4F8B4000190009E2B0027
:1030900001AA04A8009901442000FFF7FDFE86194B
:1030A0000096D4F8B8000190009E2B0001AA04A855
:1030B000009901442000FFF7EFFE86190096D4F82E
:1030C000BC000190009E2B0001AA04A800990144B5
:1030D0002000FFF7E1FE86190096D4F8C0000190A9
:1030E000009E2B0001AA04A8009901442000FFF7CC
:1030F000D3FE86190096D4F8C4000190009E2B00E0
:1031000001AA04A8009901442000FFF7C5FE861912
:103110000096D4F8D4000190009E2B0001AA04A8C8
:10312000009901442000FFF7B7FE86190096D4F8F5
:103130003C010190009E2B0001AA04A800990144C3
:103140002000FFF7A9FE86190096D4F840010190EF
:10315000009E2B0001AA04A8009901442000FFF75B
:103160009BFE86190096D4F844010190009E2B0026
:1031700001AA04A8009901442000FFF78DFE8619DA
:103180000096D4F848010190009E2B0001AA04A8E3
:10319000009901442000FFF77FFE86190096D4F8BD
:1031A0004C010190009E2B0001AA04A80099014443
:1031B0002000FFF771FE86190096D4F850010190A7
:1031C000009E2B0001AA04A8009901442000FFF7EB
:1031D00063FE86190096D4F854010190009E2B00DE
:1031E00001AA04A8009901442000FFF755FE8619A2
:1031F0000096D4F858010190009E2B0001AA04A863
:10320000009901442000FFF747FE86190096D4F884
:103210005C010190009E2B0001AA04A800990144C2
:103220002000FFF739FE86190096D4F8600101905E
:10323000009E2B0001AA04A8009901442000FFF77A
:103240002BFE86190096D4F864010190009E2B0095
:1032500001AA04A8009901442000FFF71DFE861969
:103260000096D4F868010190009E2B0001AA04A8E2
:10327000009901442000FFF70FFE86190096D4F84C
:103280006C010190009E2B0001AA04A80099014442
:103290002000FFF701FE86190096D4F87001019016
:1032A000009E2B0001AA04A8009901442000FFF70A
:1032B000F3FD86190096D4F874010190009E2B004E
:1032C00001AA04A8009901442000FFF7E5FD861932
:1032D0000096D4F878010190009E2B0001AA04A862
:1032E000009901442000FFF7D7FD86190096D4F815
:1032F0007C010190009E2B0001AA04A800990144C2
:103300002000FFF7C9FD86190096D4F880010190CE
:10331000009E2B0001AA04A8009901442000FFF799
:10332000BBFD86190096D4F884010190009E2B0005
:1033300001AA04A8009901442000FFF7ADFD8619F9
:103340000096D4F888010190009E2B0001AA04A8E1
:10335000009901442000FFF79FFD86190096D4F8DC
:103360008C010190009E2B0001AA04A80099014441
:103370002000FFF791FD86190096D4F89001019086
:10338000009E2B0001AA04A8009901442000FFF729
:1033900083FD86190096D4F894010190009E2B00BD
:1033A00001AA04A8009901442000FFF775FD8619C1
:1033B0000096D4F898010190009E2B0001AA04A861
:1033C000009901442000FFF767FD86190096D4F8A4
:1033D0009C010190009E2B0001AA04A800990144C1
:1033E0002000FFF759FD86190096D4F8A00101903E
:1033F000009E2B0001AA04A8009901442000FFF7B9
:103400004BFD86190096D4F8A4010190009E2B0074
:1034100001AA04A8009901442000FFF73DFD861988
:103420000096D4F8A8010190009E2B0001AA04A8E0
:10343000009901442000FFF72FFD86190096D4F86B
:10344000AC010190009E2B0001AA04A80099014440
:103450002000FFF721FD86190096D4F8B0010190F5
:10346000009E2B0001AA04A8009901442000FFF748
:1034700013FD86190096D4F8B4010190009E2B002C
:1034800001AA04A8009901442000FFF705FD861950
:103490000096D4F8B8010190009E2B0001AA04A860
:1034A000009901442000FFF7F7FC86190096D4F834
:1034B000BC010190009E2B0001AA04A800990144C0
:1034C0002000FFF7E9FC86190096D4F8C0010190AE
:1034D000009E2B0001AA04A8009901442000FFF7D8
:1034E000DBFC86190096D4F8C4010190009E2B00E5
:1034F00001AA04A8009901442000FFF7CDFC861919
:103500000096D4F8C8010190009E2B0001AA04A8DF
:10351000009901442000FFF7BFFC86190096D4F8FB
:10352000CC010190009E2B0001AA04A8009901443F
:103530002000FFF7B1FC86190096D4F8D001019065
:10354000009E2B0001AA04A8009901442000FFF767
:10355000A3FC86190096D4F8D4010190009E2B009C
:1035600001AA04A8009901442000FFF795FC8619E0
:103570000096D4F8D8010190009E2B0001AA04A85F
:10358000009901442000FFF787FC86190096D4F8C3
:10359000DC010190009E2B0001AA04A800990144BF
:1035A0002000FFF779FC86190096D4F8E00101901D
:1035B000009E2B0001AA04A8009901442000FFF7F7
:1035C0006BFC86190096D4F8E4010190009E2B0054
:1035D00001AA04A8009901442000FFF75DFC8619A8
:1035E0000096D4F8E8010190009E2B0001AA04A8DF
:1035F000009901442000FFF74FFC86190096D4F88B
:10360000EC010190009E2B0001AA04A8009901443E
:103610002000FFF741FC86190096D4F8F0010190D4
:10362000009E2B0001AA04A8009901442000FFF786
:1036300033FC86190096D4F8F4010190009E2B000B
:1036400001AA04A8009901442000FFF725FC86196F
:10365000D4F8F80101902B0001AA04A800EB0601A0
:103660002000FFF719FC0700BF19D4F8FC010190F6
:103670002B0001AA04A800EB07012000FFF70CFCB7
:10368000804618EB0708D4F8C00201902B0001AA6D
:1036900004A800EB08012000FFF7FEFB814619EBB0
:1036A00008095FF0FE3BCDF804B02B0001AA04A886
:1036B00000EB09012000FFF7EFFB82461AEB090A35
:1036C000CDF804B02B0001AA04A800EB0A012000E9
:1036D000FFF7E2FB83461BEB0A0B5A4604A904489A
:1036E000006801F034FD67B0BDE8F08F2C070320BF
:1036F0000831032038B505000C00002C3FD060686D
:10370000A860A068E860E068286160692860207FA0
:1037100085F8B802A0696861A868C5F89800E868EB
:10372000C5F89C002869C5F8A000606AE867D5F86C
:10373000B803002806D002280CD007D3042817D0DD
:1037400012D319E02800FEF78BFA15E02800FEF7E7
:1037500019FC11E02800FEF703FC2800FDF7E4F84F
:103760002800FEF706F907E02800FEF702F903E05B
:103770002800FDF7F1FFFFE72800FFF79AFB31BDB6
:103780002DE9F84F0027B74AB74B4FF00F08054611
:103790000E4634E0B54CA54214BF082407248C40E3
:1037A000B34944EA0E0441F82C40C143146801EACD
:1037B000040C7468E40348BF40EA0C0CC2F800C073
:1037C000546801EA040C7468A40348BF40EA0C0C76
:1037D000C2F804C0946801EA040C7468E40248BFAB
:1037E00040EA0C0CC2F808C0D46801EA040C716805
:1037F000890248BF40EA0C0CC2F80CC07F1C31683B
:1038000031FA07F000F08F800124BC4014EA010077
:10381000F4D04FEA470C032101FA0CF16FEA010ED4
:103820007168012918BF022903D0112918BF122974
:1038300012D1A968D6F80C900EEA010109FA0CF928
:1038400049EA0101A960696821EA04047168C1F3C9
:103850000011B9400C436C60E968B4680EEA0101DC
:1038600004FA0CF42143E960B9007468022C18BF13
:10387000122C12D1FC0805EB840401F01C09D4F8C9
:1038800020A008FA09FB2AEA0B0AD6F810B00BFAB6
:1038900009F949EA0A09C4F820902C680EEA040ED6
:1038A000347904F0030404FA0CF444EA0E042C60A6
:1038B0007468E400A2D51C6844F001041C604FEA5F
:1038C000970C1C6804F00104009401F00C01009CAA
:1038D000674C54F82C4008FA01FE24EA0E0EB5F1AC
:1038E000904F08BF00241DD0624CA54208BF0124A0
:1038F00018D0614CA54208BF022413D05F4CA542EA
:1039000008BF03240ED05E4CA54208BF042409D092
:103910005C4CA54208BF052404D05B4CA5427FF453
:1039200039AF06243BE7BDE8F18F2DE9F04F8A4619
:103930004FF0000B4B494E4B0F2204463CE04B4EE0
:10394000B44214BF0826072606FA0EF6B54212D175
:103950000D68C04305400D604D6805404D608D68A1
:1039600005408D60CD682840C86053F8280020EAE3
:10397000090043F8280003254FEA4B0005FA00F040
:1039800025680543256007F01C074FEADB0504EBBB
:10399000850502FA07F72E6A26EA07072F62C04359
:1039A000A7680740A760656825EA0C056560E768B9
:1039B0003840E0600BF1010B3AFA0BF034D00120F3
:1039C00000FA0BFC1CEA0A00F4D04FEA9B084FEA0D
:1039D0008B0753F8285007F00C0E02FA0EF9B4F1D9
:1039E000904F09EA050508BF0026ADD0214EB4422C
:1039F00008BF0126A8D0204EB44208BF0226A3D09B
:103A00001E4EB44208BF03269ED01D4EB44208BFCE
:103A1000042699D01B4EB44208BF052694D01A4EF6
:103A2000B4428CD106268FE7BDE8F08F00690840CC
:103A300018BF0120C0B270470AB18161704781622E
:103A40007047426901EA0203914341EA03418161FF
:103A500070470E4A136803421CBF106002F0AFBFEC
:103A6000704700000004014060100240001C004844
:103A7000080001400004004800080048000C00480D
:103A800000100048001400480018004814040140C9
:103A900010B50400342002F0D5FF002803D00F49F0
:103AA00002F0E2FF00E00020A0620D4820600D4817
:103AB00060600D48A0600020E0600A2020610020C6
:103AC00060610020A0610020E0614FF47A70206204
:103AD0005FF080406062200010BD0000780203208B
:103AE00048E17A3F3D0A37405C8F823F2DE9F04143
:103AF00086B004000D00160000275FF013080020B8
:103B000003900020009003956B4603AA4146C9B27A
:103B1000A06A03F04AF89DF800009DF8011009041E
:103B200051EA00619DF8020051EA00219DF803006E
:103B3000014331603800C0B206B0BDE8F0812DE924
:103B4000F04104000D0016001F005FF000083B006C
:103B500032002900C9B2A06A03F027F84046C0B27B
:103B6000BDE8F0812DE9F44F06000F009846DDF81E
:103B700028900B9CDDF830A00D9DDDF838B0376043
:103B80000098B061404680B27060C6F80890B48179
:103B9000C6F810A0B582C6F81CB0012086F8200037
:103BA000300000F010F8300000F016F8300000F09F
:103BB0001CF801203064414689B2380002F048F90F
:103BC0003000BDE8F28F2F2141624FF4FA6181622B
:103BD0004FF47A71C1627047002101634FF4F061C4
:103BE00081634FF4C071C163704710B504000022B7
:103BF000A18A2069FFF720FF10BD38B504000D0031
:103C0000206C012828D12800C0B200280CD1012244
:103C1000A189A068FFF710FF20680068006850F0D5
:103C200001002168096808602800C0B201280FD18E
:103C30000022A189A068FFF7FFFEE069002807D1F4
:103C400020680068006850F0010021680968086079
:103C5000012084F8200015E02800C0B2002806D119
:103C60006168206801F049FF002084F820002800E6
:103C7000C0B2012806D16168206801F0B5FF0120BB
:103C800084F8200031BD38B504000D002800C0B212
:103C9000022802D003280ED01BE00022A189A068D0
:103CA000FFF7CAFE20680068006850F00100216834
:103CB000096808600DE00122A189A068FFF7BCFE39
:103CC00020680068006850F00100216809680860F9
:103CD000FFE731BD38B504000D00206C012811D17B
:103CE000681E2168096848636800401E21680968E9
:103CF000C86201202168096848616168206802F093
:103D00002BF803E02900200000F002F831BD00008C
:103D100070B4002300259FEDC30A00290ED0B1F531
:103D20007A7F0BD200EE901AF8EE600A9FEDBE1A71
:103D3000DFEDBE1A40EE811AB0EE610A0268126829
:103D4000D66AFCEEC00A10EE902A72436424B2FBDD
:103D5000F4F44268002A02D1026812685463012216
:103D600003681B685A6170BC704738B505000C00C9
:103D7000286C002813D1002C11D16968286801F043
:103D800033FF280000F01FF8EA6AA96A280000F053
:103D9000E2F86968286801F0DFFF01202864286CD8
:103DA00001280FD1012C0DD10021286802F008F85C
:103DB000280000F008F8EA6BA96B280000F06CF806
:103DC0000020286431BD00210268126811600021C2
:103DD0000268126851600021026812689160002137
:103DE00002681268D1600021026812681161002126
:103DF0000268126851610021026812689161002115
:103E000002681268D1610021026812681162002103
:103E100002681268516200210268126891620021F2
:103E200002681268D16200210268126811630021E1
:103E300002681268516300210268126891630021D0
:103E400002681268D16300210268126811640021BF
:103E500002681268516400210268126891640021AE
:103E600002681268D164002102681268116500219D
:103E7000026812685165002102681268916500218C
:103E800002681268D165002102681268116600217B
:103E9000026812685166704770B58EB004000D005C
:103EA0001600102200210AA802F0BAFE0C220021FE
:103EB000684602F0B5FE1C22002103A802F0B0FE05
:103EC000A06921680860206B216848600020216893
:103ED00088602068C5600020216808610020216892
:103EE0008861206801F0A6FD002801D003F049FB9D
:103EF0004FF480500A900AA9206802F0B1F8002817
:103F000001D003F03EFB4A4801F0EAFD002801D051
:103F100003F037FB002000900020029069462068E3
:103F200003F074FB002801D003F02BFB602003900A
:103F300004960020059000200790002203A9206825
:103F400002F004F8002801D003F01BFB206803F006
:103F5000D8FE0EB070BD70B58EB004000D00160016
:103F6000102200210AA802F05BFE0C220021684604
:103F700002F056FE1C22002103A802F051FEA069A7
:103F800021680860606A21684860002021688860B4
:103F90002068C560002021680861002021688861D0
:103FA000206801F047FD002801D003F0EAFA4FF441
:103FB00080500A900AA9206802F052F8002801D027
:103FC00003F0DFFA1A4801F08BFD002801D003F05E
:103FD000D8FA0821206801F09AFE002801D003F0E9
:103FE000D0FA00200090002002906946206803F07B
:103FF0000DFB002801D003F0C4FA60200390049662
:104000000220059000200790002203A9206801F0FB
:104010009DFF002801D003F0B4FA206803F071FE80
:104020000EB070BD00000000A835CD3D029A88BDDD
:1040300078070320B5EEC00AF1EE10FA02D4B1EE13
:10404000C00A70476FF0004C00EE10CAAFF300805A
:10405000704780B52DED068BB0EE409AB0EE41AAC8
:10406000F0EE61AAB0EE4A1AF0EE6A1AB0EE418A9A
:10407000F0EE618A19EE100A04F082F841EC100BA0
:10408000B0EE481AF0EE681A04F09EF8BDEC068B0C
:1040900001BD30B4002513E050F8042BD30744BF12
:1040A000A9F101039A18091F042942F8045BFAD206
:1040B00013468C0744BF15809B1CC90748BF1D7061
:1040C00050F8041B0029E7D130BC704701F00042D2
:1040D0008B1AA3F16051B1F5801F0ADBB1F17F6F3C
:1040E0001FD242EAC102C10071F1004142EB50709F
:1040F00070470B15C3F10903212B10D2890241EA45
:10410000905180020128494141F0004121FA03F019
:10411000C3F12003994071F10041504170471000F4
:1041200070476FF0000013EB103F5CBF000E42EAD7
:10413000C050704710EE100AF5EE400AF1EE10FA8A
:1041400009D604BFC04207E0B4EE600AF1EE10FAEF
:10415000B8BFB0EE600A704728BFB0EE600A704783
:1041600010EE100AF5EE400AF1EE10FA0BD618B96F
:1041700004BFB0EE600A06E0F4EE400AF1EE10FA79
:10418000B8BFB0EE600A704710B52DED048B040087
:10419000B0EE409A19EE100A03F0F2FF41EC110B59
:1041A000B0EE418AF0EE618A200004F02FF841EC75
:1041B000100BB0EE481AF0EE681A04F03CF8BDECB3
:1041C000048B10BDF8B504000D0016001F00069802
:1041D00000903B00320029002000DFF828C3DCF803
:1041E00000C0E047F2BD3EB504000025002C1FD002
:1041F0000020ADF80800B4F57A7F0ED34FF47A7042
:10420000B4FBF0F005003C2D01D33B2005004FF43A
:104210007A70B4FBF0F100FB114402A80190002079
:10422000009023002A0092B20021002004F0FAF945
:1042300037BD30EE601AB0EEC11AB348D0ED001AA7
:10424000B4EE611AF1EE10FA01D5012000E0002071
:10425000C0B2704730B403000120AC4C2468A242C5
:1042600009D3AB4C2468944205D3002903D00D290F
:1042700001D2002B02D10024200027E0A54C04EB42
:10428000810454F8044C9C4202D2002420001DE01A
:1042900002291BD112F0030F06D16424B2FBF4F5FE
:1042A00004FB1524002C07D14FF4C874B2FBF4F5BD
:1042B00004FB1524002C01D1012400E00024E4B209
:1042C000002C03D11D2B01D300242000C0B230BC30
:1042D00070477FB504000D00002600202860A2680A
:1042E00061682068FFF7B6FF01281DD18A48006881
:1042F0008DF8000060688DF8010020688DF80200DC
:10430000A16882480068091A8DF8031002A804F019
:10431000DCF901AA0299009804F008FB28600198D2
:10432000002801D1012006003000C0B204B070BDE9
:104330001CB50400684604F0C8F99DF8021021601D
:104340009DF8011061609DF80310704A126852FADE
:1043500081F1A160C0B216BD38B5040000256B48DC
:10436000A1680268914217D369490968A26891421D
:1043700012D3694909688DF8001061688DF8011041
:1043800021688DF80210A1680068091A8DF80310E1
:10439000684604F0F7F905002800C0B232BD18B530
:1043A00085B00400684604F077F90100C9B200291D
:1043B00014D09DF8001021609DF8011061609DF8F7
:1043C0000210A160029A0199521A4FF47A714A437D
:1043D0000299491CB2FBF1F1E16007E00021216084
:1043E000002161600021A1600021E160C0B206B03F
:1043F00010BD18B585B0040020688DF80000606815
:104400008DF80100A0688DF80200684604F078F984
:1044100006B010BDF0B58BB004000D0016002C21C5
:1044200000226F46380004F043FBA068A0F26C70D5
:10443000059060680490206803902868029068687E
:104440000190A8680090684604F066FB30600BB0ED
:10445000F0BD78B587B0040000256846FFF79FFFE0
:1044600006003000C0B2012803D104A8FFF760FFA6
:1044700006003000C0B2012801D10398206030004E
:10448000C0B208B070BD78B587B00400002503A89D
:10449000FFF785FF06003000C0B2012803D168464F
:1044A000FFF746FF06003000C0B2012804D1220009
:1044B00003A96846FFF7AEFF3000C0B208B070BD78
:1044C00010B58CB00400012C01DB0D2C07DB40F291
:1044D00063121249124804F087FBAFF30080022CEC
:1044E00000D201240C2C00D30C2468460D49302244
:1044F00004F09CFB684600EB840050F8040C0CB000
:1045000010BD0000142C0020701E0308641E030858
:10451000681E03081C1303086C1E0308840F03089D
:10452000481403084C13030810EE100AF44600F078
:1045300003F800EE100A6047C0F3C7527E3A09DD67
:10454000182A0CDA6FF07F41D14020EA5100401860
:104550008843704700F0004008BF40F07E5070472D
:10456000BFF34F8FDFF8CC1A0A6812F4E062DFF86D
:10457000C80A02430A60BFF34F8F00BFFDE710B4C3
:10458000130000249C4202D20155641CFAE710BCBF
:1045900070472DE9F84F86B00400002084F8E5004C
:1045A000002084F8E6000020C4F8DC000020C4F8F5
:1045B000E800002020702C250026271D320029004D
:1045C000380004F075FA2C275FF0000814F1300968
:1045D00042463900484604F06BFA5FF02C095FF060
:1045E000000A14F15C0B52464946584604F060FA42
:1045F000DFF84C0A04F05EFB4FF4807002F022FA00
:10460000002802D004F0F8FC00E00020C4F8880084
:10461000DFF8300A05F005F9DFF82C0A05F001F99A
:10462000DFF8280A05F0FDF8DFF8240A05F0F9F8AC
:1046300042F2E81002F006FA002803D005A905F0BE
:10464000A9FC00E00020C4F8AC00BDF81410200064
:1046500000F050F94FF49E7002F0F4F9002805D0F4
:1046600005AADFF8F41906F0ADF800E00020C4F860
:10467000C000BDF81410200000F03CF9F42002F056
:10468000E1F9002803D005A906F06EFC00E0002047
:10469000C4F8E000BDF81410200000F02BF904204D
:1046A00002F0D0F9002803D005A906F049FF00E088
:1046B0000020C4F89000BDF81410200000F01AF992
:1046C0004FF4927002F0BEF9002803D005A901F062
:1046D0000BFF00E00020C4F89400BDF81410200087
:1046E00000F008F92C2002F0ADF9002802D0FFF705
:1046F000CFF900E00020C4F8C400042002F0A2F9C1
:10470000002803D005A907F0EBF800E00020C4F86A
:104710008C00BDF81410200000F0ECF8FC2002F032
:1047200091F9002805D005AADFF8E01B07F05CFC32
:1047300000E00020C4F8A000BDF81410200000F034
:10474000D9F8FC2002F07EF9002805D005AADFF890
:10475000C01B07F079FC00E00020C4F89C00BDF805
:104760001410200000F0C6F8442002F06BF9002875
:1047700013D00021049102210391DFF8981B0291CC
:1047800080210191DFF8901B00910023DFF88C2B32
:10479000DFF88C1BFFF7E6F900E00020C4F8B0005A
:1047A000BDF81410200000F0A5F8442002F04AF9EA
:1047B000002815D0002104914FF480610391DFF8A7
:1047C000641B02914FF480710191DFF84C1B009142
:1047D0000423DFF8542BDFF8541BFFF7C3F900E084
:1047E0000020C4F8B400BDF81410200000F082F8D6
:1047F000442002F027F9002811D0DFF8341B0122F1
:104800000492402203920291082201920091002317
:10481000DFF8202BDFF8201BFFF7A4F900E00020D1
:10482000C4F8B800BDF81410200000F063F84FF48D
:10483000B47002F007F9002803D005A900F0D2FEF9
:1048400000E00020C4F89800BDF81410200000F02B
:1048500051F8012084F8E4000121200000F09EF8C6
:1048600000200190012000904FF6FF7301220221E9
:10487000D4F8980001F084F8200007B0BDE8F08F6C
:10488000FEB504000D0016001F00D4F890000028AB
:104890000ED09DF824000190BDF8200000903B0050
:1048A0003200D2B22900C9B2D4F8900006F056FE08
:1048B000F7BDF8B52DED028B82B004000D00160097
:1048C000B0EE408A1F00D4F8900000280ED09DF86A
:1048D000280000903B009BB2B0EE480A3200D2B2F2
:1048E0002900C9B2D4F8900006F065FE02B0BDEC14
:1048F000028BF1BDFEB504000D00280080B2002837
:1049000001D1012600E000263000C0B2002816D1F7
:10491000DFF8287A386800280FD0D4F890000028F3
:104920000BD000200190012000902B009BB20122AF
:1049300011213868FFF7A4FF01E002F022FEF7BD65
:1049400010B5040094F8E600002803D1200000F020
:1049500005F802E0200000F007F810BD10B50400D3
:10496000200000F00CF810BD10B50400002120005C
:1049700000F014F8D4F88C0007F0BDFA10BD10B5A3
:104980000400FFF7EDFD10BD10B5040000224FF448
:104990000051DFF8AC09FFF74FF810BD80F8E610C2
:1049A000704790F8E600704738B505000C0000200D
:1049B0000090002C05D1D5F8880004F0FAFC009096
:1049C00004E06946D5F88C0007F00EFA009832BD75
:1049D000F8B504000D00002615F1010F0DD0D4F834
:1049E000880004F06AFE07007D60D4F8880004F0B7
:1049F000C2FC012801D1012006003000C0B2F2BD86
:104A00003EB504000025D4F88810684604F0C7FBC2
:104A10000098000B10F00300022802D0032803D0F6
:104A200006E00120050003E05FF0FF300500FFE72E
:104A300028003EBD38B50400DFF8F45801220821F3
:104A40002800FEF7F9FF0A2007F038FB00220821B2
:104A50002800FEF7F1FF642007F030FB0122082157
:104A60002800FEF7E9FF31BD10B50400D4F8880036
:104A700004F07FFB10BD38B504000D002800FFF7DF
:104A800057FC32BD38B504000D002800FFF764FC68
:104A900032BD38B504000D002800FFF780FC32BDA0
:104AA00038B504000D002800FFF7A3FC32BD2DE946
:104AB000FE4305000C0016001F005FF000080020F8
:104AC0003870022C6CD2002C27D1002E02D0012E7F
:104AD00010D01FE0DFF86C08C17801918178009157
:104AE0004378DFF864280A21380007F0FBFA012038
:104AF000804655E0DFF85408C17801918178009133
:104B00004378DFF844280A21380007F0EBFA012047
:104B1000804645E00020804642E0002E02D0012E73
:104B20001ED03BE002A9D5F88C0006F0A4FF814618
:104B30004846C0B2002810D0029800F0FF00019053
:104B40000298C0F3072000900298C0F30343DFF8F7
:104B5000F8270A21380007F0C5FA5FF001081FE0C6
:104B600002A9D5F88C0006F0A3FF81464846C0B2E2
:104B7000002810D0029800F0FF0001900298C0F3C6
:104B8000072000900298C0F30343DFF8BC270A21F6
:104B9000380007F0A7FA5FF0010801E00020804626
:104BA0004046C0B2BDE8FE832DE9F84305000C0085
:104BB00016001F005FF00008022C51D2002C1ED1FD
:104BC000002E02D0012E0CD016E0DFF88407036817
:104BD000DFF880270721380007F084FA012080469B
:104BE0003EE04FF4F973DFF86C270721380007F037
:104BF00079FA0120804633E00020804630E0002E24
:104C000002D0012E15D029E06946D5F88C0006F0B7
:104C100032FF81464846C0B2002807D0009B1B0DDA
:104C2000DFF830270721380007F05CFA5FF0010851
:104C300016E06946D5F88C0006F03AFF81464846F2
:104C4000C0B2002807D0009B1B0DDFF80827072102
:104C5000380007F047FA5FF0010801E000208046C5
:104C60004046C0B2BDE8F28338B504000D0029000B
:104C7000D4F88C0006F079FE32BD38B504000D0082
:104C80002900D4F88C0006F082FE32BD38B504004D
:104C90000D002900D4F88C0006F08BFE32BD38B52B
:104CA00004000D002900D4F88C0006F097FE32BDF8
:104CB00038B504000D002900D4F88C0006F015FF6B
:104CC00032BD38B504000D002900C9B2D4F88C00FB
:104CD00006F028FF32BD38B504000D002900D4F8D5
:104CE0008C0006F04BFF32BD10B52DED028B040099
:104CF000B0EE408AB0EE480AD4F88C0006F026FFE9
:104D0000BDEC028B10BDF8B505000C00002600209C
:104D10008DF800006946D5F88C0006F008FE070003
:104D20003800C0B2012813D19DF80000022809D133
:104D3000002C0DD0D5F8880004F0C1FC20600120C3
:104D4000070005E02100D5F88C0006F05CFE0700A6
:104D50003800C0B2F2BDF8B504000D0000260020F6
:104D60008DF800006946D4F88C0006F0E0FD0700DD
:104D70003800C0B2012816D19DF80000022810D1D9
:104D80002900D4F8880004F09DFC07003800C0B268
:104D9000012808D12900D4F88C0006F047FE07004E
:104DA00001E0002007003800C0B2F2BD70B5050078
:104DB0000C000026002C05D02100D5F88C0006F050
:104DC00001FF00E00020C0B270BD38B52DED028BB0
:104DD0000400B0EE408A0025B0EE480AD4F88C00FA
:104DE00006F004FFC0B2BDEC028B32BD38B5040042
:104DF0000D002900D4F88C0006F099FD32BD38B5BD
:104E000004000D002900D4F88C0006F0D1FE31BD5D
:104E100038B504000D002900D4F88C0006F08AFF94
:104E200032BD38B504000D002900D4F88C0006F01E
:104E3000A5FF32BD38B504000D002900D4F88C0060
:104E400006F08AFF32BD00787047030000201A7810
:104E5000002A03D00A00D2B2002A02D1197001221E
:104E60001000C0B2704738B504000D002800C0B271
:104E700007F05AF931BD10B5040007F067F910BD0D
:104E80000200002000290AD0D2F8CC300B60D2F802
:104E9000D0304B60D2F8D4308B6001231800C0B200
:104EA0007047F8B505000C000026002C15D0D5F889
:104EB000880004F000FC07002068386160687861B1
:104EC000A068B8612068386260687862A068B862DB
:104ED000D5F8880004F092FB06003000C0B2F2BDA5
:104EE0000200002000290AD00B68C2F8CC304B68C1
:104EF000C2F8D0308B68C2F8D43001231800C0B299
:104F00007047F8B504000D00160000273200290094
:104F1000D4F88C0006F082FEC0B2F2BD10B50400D9
:104F2000D4F88C0006F0AFFE10BD38B52DED028B25
:104F300004000D00B0EE408AB0EE480A2900D4F813
:104F40008C0006F0C0FEBDEC028B32BD10B5040033
:104F5000D4F88C0006F0D0FE10BD10B50400D4F8D3
:104F60008C0006F0D8FE10BD38B504000D002900F5
:104F7000D4F88C0006F076FE32BD01000120C0B2EC
:104F8000704738B504000125D4F88C0006F0BFFF47
:104F9000C0B232BD0000000038B52DED028B2DED02
:104FA000010A81B004009FED258A00200090DFED0A
:104FB000238A00259DED010AB5EE400AF1EE10FAB4
:104FC0000AD101A9D4F88C0006F022FF9DED010A58
:104FD00030EE080A8DED010A9DED010AB5EE400A9A
:104FE000F1EE10FA05DB6946D4F88C0006F024FFD8
:104FF00004E06946D4F88C0006F032FF9DED010A0A
:10500000DFED140A20EE200ADDED000A80EE200A12
:10501000F7EE000AB4EE600AF1EE10FA04D501983A
:10502000C4F8D800012005002800C0B202B0BDECD1
:10503000028B32BD0CED00E00400FA050000000018
:105040007006032058050320E4050320B403032061
:10505000400403200000C8426403032038B5040064
:105060000025D4F88800002804D0D4F8880004F083
:1050700015FB05002800C0B232BD38B5040000257C
:10508000D4F88800002811D0D4F8880004F0F4FA8D
:105090000500D4F88C00002808D0D4F88C0006F065
:1050A0007FFE054201D0012500E000252800C0B2A6
:1050B00032BD3EB504000025D4F88810684604F0DF
:1050C0006EF80098800B10F00300022802D003282D
:1050D00003D006E00120050003E05FF0FF3005008B
:1050E000FFE728003EBD38B504000D002900D4F8C4
:1050F0008C0006F0D7FD32BD38B504000D00290044
:10510000D4F88C0006F09DFD32BD0200D2F8D80024
:1051100008600120704770B505000C000026002CC7
:105120000BD0D5F8880004F0C6FA016A2160416A04
:105130006160816AA16001210E003000C0B270BDC3
:1051400010B50400D4F8880004F0C7FA10BD2DE9AA
:10515000F04105000C0016000027D5F89C0007F070
:10516000B0F88046002C0ED095F8E400012808D154
:10517000320021004046D8F80030DB6A984707002B
:1051800001E0012007003800C0B2BDE8F08180F8DE
:10519000E410704790F8E500704770B504000D000A
:1051A00000262900C9B2D4F88C0006F091FE010057
:1051B000C9B201290AD12900C9B2012903D10121AB
:1051C00084F8E51002E0002184F8E510C0B270BD5B
:1051D000D0F8DC200A6070477CB505000C00002682
:1051E00000200090002C0AD06946D5F8880004F011
:1051F00093FA012803D100982060012006003000B6
:10520000C0B276BD70B504000D0016003200290052
:10521000D4F8C00005F042FE70BD10B504000122B4
:1052200041F28831D4F8980000F0E1FB10BD0B008A
:10523000DBB2002B14D11300DBB2002B02D0012B08
:1052400007D00DE0D0F8E8305B085B00C0F8E8302C
:1052500006E0D0F8E83053F00103C0F8E830FFE78B
:105260000B00DBB2022B14D11300DBB2002B02D0F7
:10527000012B07D00DE0D0F8E83033F00403C0F87C
:10528000E83006E0D0F8E83053F00403C0F8E83026
:10529000FFE70B00DBB2012B28D11300DBB2002BA0
:1052A00003D0022B15D00DD320E0D0F8E83033F036
:1052B0000203C0F8E830D0F8E83033F00803C0F853
:1052C000E83013E0D0F8E83053F00203C0F8E830DB
:1052D0000CE0D0F8E83033F00203C0F8E830D0F842
:1052E000E83053F00803C0F8E830FFE7704710B427
:1052F00003000020022905D1174C24681460012402
:105300002000FFE7C0B210BC70470000CC1B0308B0
:10531000D81B03080010004800080048002C01407A
:10532000E0060320000C0048000C0040C4070320E6
:1053300000140048000400407807032008310320CF
:1053400000040048E41D0308D8190308001E0308E0
:10535000E81D0308841D0308EC1D03087CB5040048
:10536000022507266A4602212000FFF7C0FF0098A9
:1053700010F0070076BD70B504000D000126012174
:10538000D4F8A400D4F8A4201268D2699047280069
:1053900006F0BAFF002802D1002006000BE0012D24
:1053A00001D0042D07D10021D4F8A400D4F8A42002
:1053B0001268D26990473000C0B270BD10B50400C9
:1053C000D4F8E00006F071F810BD10B50400D4F870
:1053D000E00006F081F810BD30B402000121002386
:1053E0000B2B26D202EB8300406802EB8304246B74
:1053F000A04201D1012400E0002402EB83004068B8
:1054000002EB830528632000C0B2002804D002EB21
:105410008300C06D401C00E0002002EB8305E865BE
:1054200002EB8300C06D0B2801D3002001005B1C40
:10543000D6E70800C0B230BC70470A00D2B20B2ACF
:105440000AD20A00D2B200EB82025268521C0B0050
:10545000DBB200EB83035A60704738B504000D00DF
:105460002900D4F88C0006F07AFD32BD38B504006E
:105470000D002900D4F88C0006F083FD32BD10B574
:105480000400D4F88C0006F08EFD10BD10B50400A9
:10549000D4F88C0006F097FD10BD2DE9FF4F81B0C8
:1054A0000E9C00208DF8000004253026029F32005B
:1054B0002900380003F0FCFA04275FF03008DDF81B
:1054C0000C9042463900484603F0F2FA5FF00409B6
:1054D0005FF0300ADDF810B052464946584603F0F6
:1054E000E7FA21000198D0F88C0006F0CDFC0120ED
:1054F000C0B205B0BDE8F08FF8B505000C0000267D
:10550000002C0FD0D5F8880004F0D5F807002068EB
:1055100078666068B866A068F866D5F8880004F018
:105520006DF806003000C0B2F2BD70B505000C0089
:105530000026002C0BD0D5F8880004F0BCF8416E92
:105540002160816E6160C16EA16001210E0030009A
:10555000C0B270BD10B50400D4F8880004F000F9A2
:1055600010BD70471CB50400002000906A46002161
:10557000D4F8C400FEF7BAFA13BD10B50400032135
:10558000D4F8B400FEF77FFB0321D4F8B800FEF78F
:105590007AFB0221D4F8B000FEF775FB10BD38B5D8
:1055A00005002800FFF767FC0400002C04D101214E
:1055B0002800FFF758FC05E0012C03D1002128004A
:1055C000FFF751FC31BDB1F5807F02D34FF0FF30C2
:1055D00070470170012070470078401E8041C04331
:1055E000C00F70473EB504000D00200007F048FCD6
:1055F000DFF87803206014F58C7007F0F5FC86A0C6
:105600006060032084F8F000DFF86403C4F8C4008D
:10561000DFF86003D4F8C41081634FF40061C16304
:105620004FF400625521D4F8C400FEF7A8FF01959D
:105630000A20009005234FF400726168200007F0F3
:105640003FFC0020C4F85C010020C4F86001002089
:10565000C4F864011420A4F810010020C4F8140157
:1056600020003EBD70473EB504000020ADF80400A8
:1056700001A8009002AB0DF106020021FA2002F011
:105680007DFF050094F8F000BB49086094F8F01025
:10569000BA480068FFF7D1FEBDF80400002804D026
:1056A00047F2D921884209D00CE0BDF80600002855
:1056B00003D12900200000F006F8D9E7200000F00F
:1056C000BFF8D5E7D4E77CB504000D002E0016F036
:1056D0000700012839D1C6F3C30084F8F400300074
:1056E000C00910F00F0084F8F5003000C00B10F076
:1056F000010084F8F6003000000CA4F8F800C6F3AE
:10570000C320C4F8FC000020C4F85C0194F8F50044
:10571000002804D0022810D007D3032815D1012176
:1057200014F58C7007F051FE0FE094F8F42001217D
:1057300014F58C7007F0A6FD07E094F8F420012121
:1057400014F58C7007F0C6FEFFE716F0070002287C
:1057500039D1C6F3C30084F800013000C00910F04D
:105760000F0084F801013000C00B10F0010084F834
:1057700002013000000CA4F80401C6F3C320C4F8F1
:1057800008010020C4F8600194F80101002804D049
:10579000022810D007D3032815D1022114F58C70EC
:1057A00007F013FE0FE094F80021022114F58C702D
:1057B00007F068FD07E094F80021022114F58C70D1
:1057C00007F088FEFFE716F00700032821D130001C
:1057D000C00B10F0010084F80E013000000CA4F89A
:1057E0001001C6F3C320C4F814010020C4F86401FA
:1057F00000200190002000906A4601A95F480068DF
:10580000FFF700FD00999DED010A14F58C7007F07B
:1058100025FC73BD00000000756900003EB5040062
:105820000D000020ADF8040001A800900023042220
:10583000290014F1080002F0C5FEBDF804003EBDC9
:105840001CB50400B4F8040100282AD094F8010122
:10585000022814D1D4F86001401CC4F86001D4F8C7
:105860006001D4F80811884209D394F8002102217C
:1058700014F58C7007F02EFE0020C4F86001B4F817
:105880000401401EA4F80401B4F80401002808D162
:1058900094F80201002804D1022114F58C7007F05D
:1058A00094FDB4F8F80000282AD094F8F5000228F6
:1058B00014D1D4F85C01401CC4F85C01D4F85C013C
:1058C000D4F8FC10884209D394F8F420012114F58F
:1058D0008C7007F0FFFD0020C4F85C01B4F8F800FC
:1058E000401EA4F8F800B4F8F800002808D194F895
:1058F000F600002804D1012114F58C7007F065FD35
:10590000B4F8100100282FD0002001900020009052
:105910006A4601A919480068FFF774FCD4F86401CD
:10592000401CC4F86401D4F86401D4F8141188420E
:1059300009D300999DED010A14F58C7007F08EFBD8
:105940000020C4F86401009800280DD1B4F81001BB
:10595000401EA4F81001B4F81001002804D103215E
:1059600014F58C7007F031FD13BD000044160308D8
:10597000ACF30220C02E03200C3103200831032099
:105980002DE9F84305000E0017009846089C0120F9
:1059900060F30209414689B2FA22B1FBF2F189B201
:1059A00061F31F492100C9B261F3CF393900C9B28F
:1059B00061F3CA19099961F3CE293100C9B20129ED
:1059C00004D00ED3032908D003D30AE060F3C6093C
:1059D00007E0022060F3C60903E0032060F3C60974
:1059E000FFE749462800FFF719FFBDE8F183F8B546
:1059F00004000D001600032060F30207280080B2A7
:105A0000FA21B0FBF1F080B260F31F4766F3CE27B6
:105A100039002000FFF702FFF1BD8268521C82604E
:105A2000426832B10268531C036011704168491E1C
:105A30004160704738B5040001D1012032BD00F04B
:105A400059F918B900F052F902F024F933E090F84E
:105A50003D10012901D001207047022180F83D103E
:105A6000DFF854220168914218BFB1F1804F12D083
:105A7000DFF8482291421CBFDFF8443299420AD035
:105A8000DFF8402291421FBFDFF83C329942DFF835
:105A90003C22914209D18A68DFF834120A40062A72
:105AA00018BFB2F5803F04D001680A6842F00102D5
:105AB0000A600020704702206870211D206800F0F5
:105AC0002CFB01202873A870E87028716871A871F8
:105AD000E87128726872A872E8726870002032BD9E
