:020000040800F2
:1000000048CA022031A10208098702080B870208AA
:100010000D8702080F870208118702080000000000
:10002000000000000000000000000000138702082C
:10003000158702080000000055AE01081787020866
:1000400089A402088DA4020891A4020895A40208BC
:1000500099A402089DA4020847870208A1A40208E7
:10006000A5A40208A9A40208ADA40208C587020835
:10007000B1A40208B5A40208B9A40208BDA40208EC
:10008000C1A40208C5A40208C9A40208CDA402089C
:10009000D1A40208D5A40208D9A4020859870208ED
:1000A000DDA40208E1A40208E5A402089187020881
:1000B000978702089D870208A38702081B8702080A
:1000C0003187020897720008AB720008CB870208DC
:1000D000D1870208337F0008A77F0008218000082D
:1000E000E9A40208EDA40208F1A40208F5A402089C
:1000F000F9A40208FDA4020801A5020800000000FE
:1001000005A5020809A502080DA5020811A5020807
:1001100095800008F3800008A987020815A5020849
:1001200019A502081DA5020821A5020825A5020897
:1001300029A502082DA5020831A5020835A5020847
:1001400039A502085BAF01083DA50208AF87020888
:1001500041A5020845A5020849A50208E78702084B
:10016000C3720008E17200084DA5020851A50208FB
:1001700055A5020859A50208000000000000000073
:100180005DA5020861A5020865A502081F730008A5
:100190000B7300086DA502080000000000000000BD
:1001A000000000000000000069A5020871A5020817
:1001B00075A5020879A502087DA5020810B50400FE
:1001C0000020C4F830030020E064002020600020FC
:1001D00060600020A0600020E0600020206100201E
:1001E000C4F83C020020C4F84002DFF8D007A06148
:1001F000DFF8CC072062002084F83403022084F862
:100200003802200000F002F8200010BD10B50400F4
:10021000200000F010F8200000F082F8200000F02C
:10022000A7F8200000F058F9200000F019FA20008B
:1002300001F06AF810BD002101650021416500212F
:1002400081650021C1650021016600214166002110
:1002500081660021C1670021C0F880100021C0F82C
:1002600084100021C0F888100021C0F88C100021F3
:10027000C0F890100021C0F894100121C0F8981027
:10028000DFF84017C0F89C100021C0F8A010002132
:10029000C0F8A4100021C0F8A8100221C0F8AC10CA
:1002A0000021C0F8B0100021C0F8B4100021C0F83F
:1002B000B8100021C0F8BC100021C0F8C010002107
:1002C000C0F8C4100021C0F8C8100021C0F8CC103C
:1002D0000021C0F8D0100021C0F8D4100021C0F8CF
:1002E000D8100021C0F8DC100021C0F8E010002177
:1002F000C0F8E4100021C0F8E8100021C0F8EC10AC
:100300000021C0F8F0100021C0F8F4100021C0F85E
:10031000F8100021C0F8FC100021C0F8001170474F
:10032000DFF8A416C0F810125FF08141C0F8141273
:10033000DB49C0F81812DFF89416C0F81C12DFF879
:100340009016C0F820120021C0F824125FF08041FE
:10035000C0F82812DFF87C16C0F82C12DFF87816E7
:10036000C0F8301240F6B831C0F8341270470000BF
:100370005FF07E51C0F8BC11DFF86016C0F8C01104
:10038000DFF85C16C0F8C411DFF85816C0F8C811C1
:1003900090ED700AF0EE000A80EE200ADFF84816B1
:1003A000D1ED000A20EE200AD0ED700AB0EE001A5E
:1003B000C0EE810A20EE200A80ED730A9FEDB50A97
:1003C000D0ED840A90ED711A60EE810A90ED731AF7
:1003D00060EE810A9FEDB01A60EE810A90ED851AF9
:1003E000D0ED6F1A21EE211A21EE001AC0EE810A1B
:1003F000C0ED740ADFEDA90AC0ED750A90ED721A1E
:10040000DFEDA71A21EE211AD0ED711A81EE211A23
:1004100021EE000A90ED841A80EE010A90ED851A13
:1004200020EE010ABDEEC00A80ED760A90ED760A54
:10043000B8EEC00A9FED9A1A80EE010A9FEDB71A36
:1004400020EE010ABDEEC00A80ED770A4BF6A061EE
:10045000C0F8D8114FF4C861C0F8DC1146F2A811F9
:10046000C0F8E0114FF4FA61C0F8E411DFF87C1530
:10047000C0F8E811DFF87815C0F8EC1190ED7B0AB0
:100480009FEDC21A20EE010A90ED7A1A20EE010AC1
:100490009FEDBF1A81EE000A9FEDBE1A20EE010A01
:1004A00080ED7C0ADFF84C15C0F8F411C0ED7E0A2F
:1004B000DFF84415C0F8FC11DFF84015C0F8001251
:1004C000DFF83C15C0F80412DFF8081EC0F8081267
:1004D0000221C0F80C127047DFF8FC1DC0F80411AF
:1004E000DFF8F81DC0F808110021C0F80C11DFF882
:1004F000E814C0F810119FEDA70A80ED450A80EDC1
:10050000460A0021C0F81C110021C0F8201100216A
:10051000C0F82411D0F80811C0F828110021C0F843
:100520002C110021C0F830110021C0F83411002135
:10053000C0F83811D0F80811C0F83C11D0F80C11EF
:10054000C0F84011D0F80C11C0F84411DFF8B41D08
:10055000C0F848119FEDE00AD0ED080A60EE800A6D
:1005600090ED081A21EE000A20EE800A80ED530A71
:10057000B0EE000AD0ED530A60EE800AC0ED540AD6
:10058000D0ED420A9FEDD51A60EE810AC0ED550A02
:10059000F2EE040A90ED741A21EE201AD0ED741ACE
:1005A00061EEA01A21EE211A80ED561A90ED741A10
:1005B00021EE201AD0ED741A61EEA00A61EE200A35
:1005C000C0ED570AD0F85011C0F86011D0F85011A2
:1005D000C0F8641180ED5A0A9FEDC10A80ED5B0AF4
:1005E0000021C0F870110021C0F874110021C0F87A
:1005F00078110021C0F87C110021C0F87011DFF8DB
:100600000414C0F880110021C0F884110021C0F842
:1006100088114FF49671C0F88C110A21C0F890111E
:100620000021C0F8941180ED660A0021C0F89C11E9
:10063000DFF8041EC0F8A0110021C0F8A4110021A9
:10064000C0F8A811D0F89011C0F8AC110021C0F882
:10065000B0110021C0F8B4110021C0F8B8117047E2
:1006600090ED7D0AF6EE000A20EE200A80ED910A58
:100670000021C0F84412D0F84412C0F848120121F9
:1006800080F84C120021C0F85012DB49C0F8541217
:10069000704700000000B4436F12833A0010A44674
:1006A00048E17A3F0021C0F81C110021C0F8201158
:1006B0000021C0F830110021C0F834110021C0F829
:1006C00074110021C0F84011D0F85011C0F8601129
:1006D0000021C0F850128168C0F814118168C0F878
:1006E00018110021C0F878110021C0F87C110021F8
:1006F000C0F870110021C0F89C117047F0EE400A5C
:100700009FEDAD1AF5EE400AF1EE10FA02DDB7EEFC
:10071000000A01E0BFEE000A704700000AD7A33CC0
:1007200038B50400DFF8145D03212868806A02F000
:1007300018FA03212868C06A02F013FA0321286816
:10074000006B02F00EFA0020C4F8BC000120C4F8CF
:10075000DC000020C4F8C0000020C4F8C80000205D
:10076000C4F8B4000020C4F8B8000020C4F8E800C1
:100770000020C4F8EC000020C4F8F0000020C4F809
:10078000FC000020C4F8000131BD000000008045DD
:100790003333534000007A4438B50400DFF89C5CE2
:1007A00003212868806A02F0DCF903212868C06A06
:1007B00002F0D7F902212868006B02F0D2F901207B
:1007C000C4F8BC000020C4F8DC000020C4F8C0005D
:1007D0000020C4F8C8000120C4F8B4000020C4F808
:1007E000B8000020C4F8E8000020C4F8EC000020A5
:1007F000C4F8F0000020C4F8FC000020C4F8000198
:1008000031BD38B50400DFF8345C03212868806A04
:1008100002F0A7F902212868C06A02F0A2F90321B8
:100820002868006B02F09DF90120C4F8BC0000208C
:10083000C4F8DC000020C4F8C0000020C4F8C800E0
:100840000020C4F8B4000120C4F8B8000020C4F8A7
:10085000E8000020C4F8EC000020C4F8F0000020FC
:10086000C4F8FC000020C4F8000131BD38B5040014
:10087000DFF8C85B03212868806A02F072F903215F
:100880002868C06A02F06DF903212868006B02F045
:1008900068F90120C4F8BC000020C4F8DC00002086
:1008A000C4F8C0000020C4F8C8000020C4F8B40098
:1008B0000020C4F8B8000020C4F8E8000020C4F804
:1008C000EC000020C4F8F0000020C4F8FC00002078
:1008D000C4F8000131BD0000ACC5273700247449BD
:1008E000CDCCCC3D38B50400DFF8505B032128683F
:1008F000C06A02F036F903212868006B02F031F972
:1009000002212868806A02F02CF90020C4F8BC009B
:100910000020C4F8DC000120C4F8C0000020C4F8A6
:10092000C8000020C4F8B4000020C4F8B8000020BB
:10093000C4F8E8000020C4F8EC000020C4F8F0007F
:100940000020C4F8FC000020C4F8000131BD38B517
:100950000400DFF8E85A03212868C06A02F001F9B0
:1009600003212868006B02F0FCF802212868806AE5
:1009700002F0F7F80120C4F8BC000020C4F8DC0045
:100980000020C4F8C0000020C4F8C8000120C4F84A
:10099000B4000020C4F8B8000020C4F8E80001202A
:1009A000C4F8EC000020C4F8F0000020C4F8FC00FB
:1009B0000020C4F8000131BD0000000000409C464A
:1009C00000C0DA450AD7A33B6666E63F3D0A3740DA
:1009D0005C8F823F3333333FCDCC4C3E3333434186
:1009E0009A99193F0000184228A40208CDCC4C3D2A
:1009F0006EDB36409A99993E00002041000060402D
:100A00009A99993D48E17A3F38B52DED108B90B019
:100A100004009FED838A9FED820A9FED819A00205A
:100A200002900020C4F83C01D4F80801C4F8580131
:100A30000020C4F82C01D4ED6D0A94ED6E1AC0EEBE
:100A4000818AD4F8EC00012860D1D4F80C02D4F8E3
:100A5000B01188425AD29FED730AF4EE408AF1EE4B
:100A600010FA53DB0420C4F82C01D4F8B011D4F8E8
:100A70000C02091A00EE101AB8EE400AD4ED810AF1
:100A800020EE200AD4ED800A60EE209AB0EE68AA2B
:100A9000B0EE4A0A02F0C4F88DED020A9DED020A9A
:100AA00089EE800A84ED4F0AD4ED4F0A94ED421A84
:100AB000F4EE410AF1EE10FA02D5D4ED4F0A01E04E
:100AC000D4ED420A94ED411AB4EE601AF1EE10FA38
:100AD0000ED5D4ED4F0A94ED421AF4EE410AF1EE30
:100AE00010FA02D5D4ED4F0A04E0D4ED420A01E039
:100AF000D4ED410AC4ED4F0AD4ED820A94ED4F1AA9
:100B000060EE810A20EEA09A84ED559AD4F8E000B8
:100B1000012840F0DB8394ED470AD4ED5D0A30EE06
:100B2000600A84ED610A9FED3EAADFED3DAA94EDD7
:100B30005D0A2000FFF7E2FD8DED0C0A94ED610ADD
:100B40002000FFF7DBFD8DED0B0A9DED0C0ADDEDBE
:100B50000B0A20EE200ABDEEC00A84ED620A94ED75
:100B6000180AD4ED5B0A20EE200AF7EE000A94ED95
:100B70005B1A70EEC10A94ED5E1A00EE810A84EDF4
:100B80005E0A94ED180AD4ED180A20EE200AD4ED7E
:100B90005B0A20EE200AF7EE000A94ED5B1A70EE75
:100BA000C10A94ED5F1A00EE810A84ED5F0A94EDAC
:100BB0005E0AD4ED5E0A94ED5F1A00EE601A84EDD1
:100BC0005C1A9FED17BADFED16BA9FED15CAD4ED8A
:100BD0005CCAB0EE6C0A02F083F88DED0A0A94ED5F
:100BE00053DAB0EE4D0A02F07BF88DED090A9DED67
:100BF000090AF1EE040A60EE209A9DED0A0AB4EEAD
:100C0000690AF1EE10FA0FD594ED5E0AB4EE690AA6
:100C1000F1EE10FA08D50120C4F8C40007E000BFC7
:100C2000000000000100803F0020C4F8C40094EDE3
:100C3000470AD4ED480A30EE60AA84ED49AA94ED43
:100C40004C0AD4ED4D0A70EE60AAC4ED4EAA94EDA4
:100C50004A0AD4ED4C0A30EE200A84ED4A0A94ED9B
:100C6000550AD4ED570A30EE200A84ED550ADFED1F
:100C700083BA002000909FED81CADFED80CADFEDCE
:100C80007FFA94ED4CDAB0EECD0A8DED0F0AD4ED7B
:100C900057DAB0EE6D0A02F023F88DED060AB2EED7
:100CA00004BA9DED060A20EE0B0A8DED0E0A94EDB6
:100CB00047EAB0EECE0A8DED0D0ACDED04AA0498F8
:100CC00030F0004000EE100A8DED080A8DED03AA09
:100CD000039830F0004000EE100A8DED000AD4EDCC
:100CE00057EAB0EE6E0A01F0FBFF8DED070A9DEDAD
:100CF000070A20EE0BBA94ED54FAB0EE4F0A01F059
:100D0000EFFF8DED010A9DED080AB4EE40BAF1EE59
:100D100010FA4CD59DED010ADDED000AB4EE600A33
:100D2000F1EE10FA43D5D4F8E00001283FD10120BC
:100D3000C4F82C018AEE8A0AD4ED450AF1EE600A65
:100D400020EE800A84ED4F0A9FED4C0A9FED4B1A6E
:100D50009FED4A2ACAEE8A0A60EEA00AD4ED531A21
:100D600061EEA00A6AEE0A1ACAEEA11AD4ED452A6B
:100D700062EEA11A61EEA11AD4ED542A62EEA11A14
:100D8000B0EE003A61EE831AD4ED452AC2EE8A2A0B
:100D900062EEA22AD4ED573A63EEA22A62EE832ACB
:100DA00070EEA10A70EEA20AC4ED560A07E19DEDAD
:100DB0000E0ADDED0F0AB4EE600AF1EE10FA63D50B
:100DC0009DED010ADDED0D0AB4EE600AF1EE10FAB8
:100DD0005AD50220C4F82C019FED291B94ED450A39
:100DE000FFEE000A20EE200AD4ED4C0A94ED472ACB
:100DF000C0EE820A20EE200A01F081FF51EC100BB8
:100E000001F0BAFFC4F83C019FED1C0ADFED1B0A9C
:100E10009FED1A1AD4ED4C1A94ED472AC1EE821AAE
:100E200061EEA11A94ED532A61EE821A94ED472ADD
:100E3000D4ED472A22EE222AD4ED452A94ED4C3AED
:100E400062EE832A82EE822A22EE022AD4ED542A0E
:100E500022EE822AD4ED452A94ED473AC2EE832A47
:100E600062EEA22A94ED573A63EE222A71EE821ABC
:100E700071EEA21AC4ED561AA1E000BF00000000F6
:100E80000000000000000000D4F8E000012840F05D
:100E900096800320C4F82C01DFED7C0A94ED670AEC
:100EA000BFEE001A20EE010A94ED6B1AB8EE411A5B
:100EB00080EE010AB0EE408A84ED698A94ED500A12
:100EC00038EE001AB0EEC10A84ED6A0AD4F888013F
:100ED000012837D1D4ED500A28EE201AD4ED501A4B
:100EE000F0EEE10AB0EE002A60EE820AB5EE401A9A
:100EF000F1EE10FA26DBB4EE600AF1EE10FA21D51D
:100F0000D4ED4C1AF5EE401AF1EE10FA1AD0D4EDE9
:100F10004D1AF5EE401AF1EE10FA13D0D4ED4A1A3C
:100F200094ED602A61EE821AC4ED4F1AD4F8540190
:100F3000C4F85801D4ED501A94ED602AC1EE821A1B
:100F4000C4ED501AD4F8880110F1010F37D1D4ED57
:100F5000500A28EE201AD4ED501AF0EEE10AB0EE55
:100F6000002A60EE820AB5EE401AF1EE10FA26DB96
:100F7000B4EE600AF1EE10FA21D5D4ED4C1AF5EE7C
:100F8000401AF1EE10FA1AD0D4ED4D1AF5EE401ACF
:100F9000F1EE10FA13D0D4ED4A1A94ED602AC1EEA6
:100FA000821AC4ED4F1AD4F85401C4F85801D4ED94
:100FB000501A94ED602A61EE821AC4ED501A94ED35
:100FC0004F0AB5EE400AF1EE10FA57D094ED4F0AF1
:100FD000D4ED550A20EE200AD4ED4A0A94ED561AB3
:100FE00000EE810AD4ED560A94ED551A70EE810A8E
:100FF00080EE200A84ED4A0A94ED550AD4ED560A93
:1010000020EE200AD4ED560A94ED551A70EE810AAE
:1010100080EE200A84ED550A9FED1CFA94ED4A0AF1
:10102000D4ED4F0A70EE60BAB0EEEBCA94ED5A0AF6
:10103000D4ED560A30EE600ACCEE00CA94ED55DAD3
:10104000F0EE6C0AB0EE4D0A01F0CAFE84ED550ACE
:10105000D4ED42DA94ED4AEAF0EE6D0AB0EE4E0AB3
:1010600001F0D4FEF0EE40FAD4ED41EAF0EE6E0A63
:10107000B0EE6F0A01F0B4FE84ED4A0AD4F82C01F8
:10108000032840F0D180DFED01CA01E0000000003C
:101090009FEDDBDA0025D4ED54DAB0EE6D0A01F0F5
:1010A0001FFED4ED630AF8EE600AC0EE20BA94ED9C
:1010B00050EAB0EECE0AD4ED67EAF0EEEE0A8DED1E
:1010C000050ACDED040ADDED050A9DED040A01F0E7
:1010D00087FEF0EE40FACDED03BADDED030AB0EE87
:1010E0006F0A01F07DFEB0EE40CA94ED54FAB0EE06
:1010F0004F0A01F0F5FD80EE0C0AD4ED640AF8EE1B
:10110000600AF4EE400AF1EE10FA0AD594ED54DAD2
:10111000B0EE4D0A01F0E4FD80EE0C0AFCEEC0CA10
:1011200001E0D4ED64CAC4ED6BCAB8EE6C0AD4ED2C
:10113000680A80EE800A0A2001F07CFE51EC100B58
:1011400001F01AFEC4F89801B7EE000AD4ED660A61
:1011500030EE600AD4ED180A20EE200AD4ED660ABB
:1011600094ED671A00EE810A84ED670A94ED670A30
:10117000FFEE000A20EE200AD4ED6B0AF8EE600ABA
:1011800080EE200AB0EE408A84ED698AB8EE6C0ADF
:1011900088EE000A84ED650A94ED500A28EE000AF4
:1011A000B5EE400AF1EE10FA0AD5B8EE6C0AD4EDAD
:1011B000650A94ED501A00EE201A84ED501A33E0BF
:1011C00094ED500AD4ED650A30EE200A84ED500A01
:1011D000B8EE6C0AD4ED540A80EE800A84ED580A09
:1011E00094ED500AD4ED510A70EE600AB0EEE00AB8
:1011F00094ED5A1AD4ED591A31EE611A80EE011AA3
:10120000D4ED581AB4EE611AF1EE10FA02D594ED4D
:10121000580A07E0D4ED5A0A94ED591A70EEC10A43
:1012200080EE200A84ED580A94ED7D0AD4ED4A0A36
:1012300080EE200AD4ED450A94ED7E1AC0EE810AB4
:1012400020EE200AD4ED7F0A20EE200A84ED440A25
:10125000BFEE000AD4ED440A60EE800A94ED501A05
:10126000F4EE410AF1EE10FA02D5D4ED500A03E093
:10127000D4ED440A60EE800A94ED441AF4EE410A7B
:10128000F1EE10FA12D5D4ED440A60EE800A94ED26
:10129000501AF4EE410AF1EE10FA02D594ED500A1C
:1012A00006E0D4ED440A20EE800A01E094ED440A01
:1012B00084ED500A94ED450AD4ED740A20EE200A1C
:1012C000D4ED4A0A80EE800A84ED520A10B0BDECDB
:1012D000108B31BDCDCCCC3E0000A0400000C842F8
:1012E000DFED470A4169002902D190ED030A07E0CA
:1012F0004169012902D190ED020A01E090ED040A52
:10130000704700000000FA4301004FF4D370886377
:1013100040F29E20C86340F26C40086440F2E270E4
:10132000486440F6B5408864002048624FF4485055
:1013300088624FF4C840C8624FF4164008634CF20C
:10134000E040486301207047F0B4040000239FEDA3
:101350002C0A0025DFED2A0A9FED291A0E00A06B4A
:10136000864201D2002049E0A06CB04201D20020A8
:1013700044E0012001273D00052D31D204EB850317
:101380009B6B9E422AD204EB85035F6A04EB8503C4
:101390001B6AFF1A04EB8503D3F838C004EB8503FE
:1013A0005B6BBCEB030CB7FBFCF301EE903AF8EE81
:1013B000611AF0EE610A04EB8503D3ED0E1AF8EE24
:1013C000611A61EEA01A04EB850393ED092AB8EEC9
:1013D000422A71EEC21AB0EE611A01E06D1CCBE731
:1013E00001EE906AF8EE611A61EEA01A71EEC11A70
:1013F000FCEEE11AB0EE610A82ED000AF0BC704723
:1014000000000000F8B504000D00160000273200AF
:1014100029002000FFF798FFF2BD1CB50400002052
:1014200000906A462C21DFF8540C0068806B01F0B4
:10143000F7FF009816BD0000333333BFACB901206D
:1014400070B52DED068B84B00400002600200090BE
:10145000684602F0E2F90500012D04D10098C4F8B5
:101460002C0300982065D4F8E000012840F00081AA
:1014700094F83802012840F0EF80D4F8CC0001281D
:1014800000F0EA80D4F8D000012800F0E580D4F81C
:10149000D400012800F0E080D4F8F400012800F026
:1014A000DB806069A0652000FFF71AFF84ED1A0A4F
:1014B00020686065D4F81C01C4F82001D4F830011C
:1014C000C4F8340194ED020AD4ED940A30EE200AF7
:1014D000D4ED450A30EE600A84ED470A94ED020A25
:1014E000D4ED940A30EE200A84ED450A206EC4F84B
:1014F000740194ED150AD4ED1A0A30EE600A84EDF9
:10150000180A94ED180AD4ED500A30EE600A84ED02
:10151000200A94ED520AD4ED200A60EE209AB0EE33
:10152000690A02F09FF9BDEEC00A84ED1F0A94ED2E
:1015300020AAB0EECA8AD4ED54AAB0EE6A0A01F02D
:10154000CFFBF0EE408A94ED180AB0EEC09AB4EEEC
:10155000688AF1EE10FA09D5B4EE689AF1EE10FA45
:1015600004D50020C4F880000020E067DFF80C6B91
:1015700014F15C02E16F3068C06B02F047FA616EF3
:10158000E06D4118616694ED170AB8EEC00AD4ED1B
:10159000740AF1EE600A20EE800A84ED4C0A200005
:1015A000FFF73BFFC4F88C0014F19002D4F88C10C4
:1015B0002000FFF727FFD4F89010200000F0C9F8B2
:1015C000C4F8F400D4F8F400012806D0D4F8901040
:1015D000200000F0CBF8C4F8E400002002900020C6
:1015E000019002AA01A93068C06B02F052FA01987A
:1015F000C4F894009DED020AD4ED7C0A20EE200A86
:1016000084ED220A2000FFF7FFF9200000F038F8EF
:1016100094ED910AF0EEC00AF1EE600A94ED031A1F
:1016200060EE810A94ED7E1AC0EE810A94ED7F1A75
:1016300060EE810A94ED951AC0EE810AC4ED920A1B
:10164000D4ED940A94ED921A70EE810AC4ED940AD6
:101650000320C4F830030BE00020C4F8E0000020B1
:10166000C4F8C4000120C4F83003200000F008F8DA
:1016700004B0BDEC068B70BD0421C0F83013704778
:10168000F8B504000025D4F8B460D4F8B80056EAE0
:101690004006D4F8BC0056EA8006D4F8C00056EAEA
:1016A000C006D4F8C40056EA0016D4F8C80056EABA
:1016B0004016D4F8CC0056EA8016D4F8D00056EA8A
:1016C000C016D4F8D40056EA0026D4F8D80056EA5A
:1016D0004026D4F8DC0056EA8026D4F8E00056EA2A
:1016E000C026D4F8E40056EA0036D4F8E80056EAFA
:1016F0004036D4F8EC0056EA8036D4F8F00056EACA
:10170000C036D4F8F40056EA0046D4F8F80056EA99
:101710004046D4F8FC0056EA8046D4F8000156EA68
:10172000C046C4F83C62DFF85479D4F83C123868FB
:1017300002F03BFDD4F83C12386802F03EFDF1BDEA
:10174000010000200022C1F83C220022C1F8F8204C
:10175000704702000120D2F8D831994205DAD2F858
:10176000DC318B4201DA002318007047F0B403002B
:10177000002600240020D3F8E021D3F8E471D71B21
:10178000D3F8E051D3F8E42155198F4203DAA94286
:1017900001DA01221000F0BC7047000070B52DED99
:1017A000028B82B0040000200090002600200190EF
:1017B000684602F032F80500012D04D10098C4F803
:1017C0002C03009820659FED3C8A0020C4F8C400DB
:1017D0000020C4F8CC000020C4F8D0000020C4F8D9
:1017E000D4000020C4F8F400DFF8906814F1180168
:1017F000306802F036FC01A9306802F04AFC01981A
:10180000C00712D594ED060AD4ED080A80EE200A2E
:10181000F3EE000A20EE200AD4ED060A94ED081A31
:10182000C0EE810A60EE208A0DE094ED060AD4ED48
:10183000080A80EE200AD4ED060A94ED081AC0EEDC
:10184000810A60EE208AA069206294ED530A28EE96
:10185000800A84ED530A94ED540A28EE800A84ED40
:10186000540A0020C4F8E0002000FFF7D6FDC4F8B9
:101870008C0014F19002D4F88C102000FFF7C2FD08
:101880000600D4F890102000FFF770FFC4F8E400C1
:101890002000FFF727F8D4F8900060662000FFF7DB
:1018A000EFFEDFF8E00702F044FE0120C4F8300349
:1018B00002B0BDEC028B70BD0000000010B504004A
:1018C0000120C4F8E0002000FFF7DAFE0020E06706
:1018D0002000FFF7A2FDC4F88C0014F19002D4F8A8
:1018E0008C102000FFF78EFD0020C4F8F4002000CB
:1018F000FFF7C6FE10BDF8B50500002400200090DB
:101900000027684601F089FF0600012E04D10098E7
:10191000C5F82C0300982865D5F8E000002840F0B1
:10192000F98095F83802002807D1D5F8BC000128C5
:1019300003D12800FEF7F4FEE9E095F8380200280C
:1019400007D1D5F8C000012803D12800FEF7E8FE32
:10195000DDE095F83802012807D1D5F8DC00012830
:1019600003D12800FEF782FFD1E095F83802012864
:1019700007D1D5F8C000012803D12800FEF776FF73
:10198000C5E095F8380202280AD1D5F8DC00012814
:1019900006D1002085F834032800FEF7A3FFB6E047
:1019A00095F8380202280AD1D5F8BC00012806D1E2
:1019B000002085F834032800FEF794FFA7E095F88F
:1019C000380200280FD10020C5F8F8002800FFF7E2
:1019D00087FC85ED1A0A286868656869A86528008B
:1019E000FFF7AEFE93E095F83802012871D1002090
:1019F000C5F8F8006869A8652800FFF771FC85ED57
:101A00001A0A286868652800FFF707FDC5F88C00EA
:101A100095ED050AB8EE400AD5ED040A95ED151AC4
:101A200000EE601A85ED011A15F19002D5F88C10C0
:101A30002800FFF7E7FCD5F890102800FFF789FE93
:101A4000C5F8F400D5F8F400012806D0D5F89010B8
:101A50002800FFF78BFEC5F8E400280000F014F919
:101A60000400002C27D1280000F08CF90400002C81
:101A700021D1280000F0CFF90400002C1BD1280050
:101A800000F016FA0400002C15D1280000F0FCFA32
:101A90000400002C0FD1280000F036FB0400002CBD
:101AA00009D1280000F073FB0400002C03D12800AA
:101AB00000F0AAFB040015F15C02E96FDFF8BC0539
:101AC0000068C06B01F0A2FF696EE86D411869669D
:101AD0001DE095F83802022813D10020C5F8F8005F
:101AE000286868656869A86595F83802C5F8AC008B
:101AF0002800FFF7F5FB85ED1A0A280000F00BF827
:101B000005E00120C5F8F8002800FFF7B9FD28001E
:101B1000FFF7B6FDF1BD38B52DED048B04000025AF
:101B200094F83403002809D101200500E068A0677B
:101B3000E068E061012084F834038FE094F8340316
:101B4000012840F08B80012005002000FFF765FC94
:101B5000C4F88C0014F19002D4F88C102000FFF728
:101B600051FCD4F8DC01D4F89010884209DAD4F89A
:101B70009000D4F8D811884203DA0020C4F8F400A9
:101B800002E00120C4F8F400D4F890102000FFF720
:101B9000EDFDC4F8E400D4F89000606694ED070A07
:101BA000D4ED030A30EE608AF0EEC88A94ED549AC0
:101BB000B0EE490A01F094F8F4EE408AF1EE10FA22
:101BC0000AD5D4F8F000002806D10120C4F8C800D6
:101BD00094ED030AF0EEC00AD4F8E001D4F8E41161
:101BE00010EB6100D4F8901088420DDAD4F834126A
:101BF0005FF0FF304143E167D4F8F00000281DD1C9
:101C00000120C4F8F00019E0D4F89000D4F8E011F5
:101C1000D4F8E421B1EB620188420ADAD4F8340244
:101C2000E067D4F8F000002808D10120C4F8F000E3
:101C300004E00020E0670020C4F8F00014F15C022A
:101C4000E16FDFF838040068C06B01F0DFFE616E01
:101C5000E06D41186166002084F834032800BDEC73
:101C6000048B32BD02000120F4EE400AF1EE10FABE
:101C700004D530EE601A81ED001A03E030EEC01A90
:101C800081ED001A7047000038B52DED028B82B04F
:101C9000040000259FED3A8A002000906946D4EDAB
:101CA000030A94ED010A2000FFF7DCFF9DED000A16
:101CB000D4ED020AC0EE208AD4F8380300283DD1C2
:101CC00094ED270AF4EE408AF1EE10FA52D5D4F8DA
:101CD000E40001284ED194ED030AD4ED010AB4EEDC
:101CE000600AF1EE10FA0AD594ED010ADFF8C00D92
:101CF000D0ED000AB4EE600AF1EE10FA15D494EDBE
:101D0000010AD4ED030AB4EE600AF1EE10FA31D5FF
:101D1000DFF89C0D90ED000AB1EE400AD4ED010A07
:101D2000B4EE600AF1EE10FA24D50120050020007F
:101D3000FEF79CFD0120C4F838031BE00020C4F826
:101D4000380394ED270AF4EE408AF1EE10FA11D52B
:101D5000012005000120C4F8E0000020E067200019
:101D6000FFF75BFBC4F88C000020C4F8F4000420EB
:101D7000C4F83003280002B0BDEC028B32BD000075
:101D80000000000070B5040000250020D4F8E01128
:101D9000D4F8E421022392FBF3F68E1B94ED030AA0
:101DA000D4ED010AB4EE600AF1EE10FA31D5D4F8A0
:101DB0009000B0422DDA01200500D4F83402E0672B
:101DC000D4F8E80000280DD12000FEF74FFD0120D7
:101DD000C4F8E8000020C4F830010020E065A068E5
:101DE000C4F8140194ED020AD4ED450A30EE600AFD
:101DF00084ED470A94ED170AB8EEC00AD4ED740AD0
:101E000094ED4C1A00EE601A84ED4C1A2000FEF797
:101E1000FBFD280070BD70B5040000250021D4F83A
:101E2000E061D4F8E401022290FBF2F0861994ED0F
:101E3000010AD4ED030AB4EE600AF1EE10FA34D5CB
:101E4000D4F89000864230DA01200500D4F834122C
:101E50005FF0FF304143E167D4F8E80000280DD17E
:101E60002000FEF703FD0120C4F8E8000020C4F8BC
:101E700030010020E065A068C4F8140194ED020A66
:101E8000D4ED450A30EE600A84ED470A94ED170A56
:101E9000B8EEC00AD4ED740A94ED4C1A00EE601A44
:101EA00084ED4C1A2000FEF7AFFD280070BD000045
:101EB000F8B52DED028B040000259FED710ADFEDD2
:101EC000700A00210022DFF8E83B94ED031AD3EDFD
:101ED000001A31EE618A94ED031AD3ED001A71EE07
:101EE000218AD4F8E001D4F8E461022796FBF7F6E2
:101EF000861BD4F8E071D4F8E4015FF0020C90FB8B
:101F0000FCF0C71994ED011AD3ED001AF1EE611A35
:101F1000B4EE611AF1EE10FA08D594ED030AD4ED8F
:101F2000010AB4EE600AF1EE10FA2AD493ED000A29
:101F3000D4ED010AB4EE600AF1EE10FA08D594ED82
:101F4000010AD4ED030AB4EE600AF1EE10FA18D4D7
:101F5000B5EE408AF1EE10FA06DD94ED010AB5EE19
:101F6000400AF1EE10FA0CD9F5EE408AF1EE10FAC3
:101F700040F17F8094ED010AB5EE400AF1EE10FACF
:101F800077DB93ED000AD4ED030AB4EE600AF1EEBC
:101F900010FA03D5D4F8B80000280ED094ED030A47
:101FA000D3ED000AF1EE600AB4EE600AF1EE10FA29
:101FB0005FD5D4F8B40000285BD10020E067012091
:101FC0000500D4F8EC00002828D12000FEF7BFFC63
:101FD000B5EE408AF1EE10FA06DD0120C4F80001EA
:101FE0000020C4F8FC0005E00020C4F80001012036
:101FF000C4F8FC000020C4F8B001D4F8B001D4F853
:102000000C12884203D2E068C4F8B40131E0E06801
:10201000C4F8B8012000FEF7F7FC2AE0D4F89000DD
:1020200087420DDAD4F834125FF0FF304143E167A4
:10203000D4F8F00000281CD10120C4F8F00018E00A
:10204000D4F89000B0420ADAD4F83402E067D4F849
:10205000F00000280DD10120C4F8F00009E00020B4
:10206000E0670020C4F8F000D4F8B001401CC4F8C8
:10207000B0012800BDEC028BF2BD0000ACB901201C
:1020800000000000388F012070B5040000250020FA
:10209000D4F8E011D4F8E421022392FBF3F68E1B6E
:1020A000D4F89010B1422DDA01200500D4F83402A2
:1020B000E067D4F8E80000280DD12000FEF7D6FB39
:1020C0000120C4F8E8000020C4F830010020E065D9
:1020D000A068C4F8140194ED020AD4ED450A30EE6C
:1020E000600A84ED470A94ED170AB8EEC00AD4EDF1
:1020F000740A94ED4C1A00EE601A84ED4C1A20001C
:10210000FEF782FC280070BD70B504000025002198
:10211000D4F8E061D4F8E401022290FBF2F08619D1
:10212000D4F89000864230DA01200500D4F8341249
:102130005FF0FF304143E167D4F8E80000280DD19B
:102140002000FEF793FB0120C4F8E8000020C4F84B
:1021500030010020E065A068C4F8140194ED020A83
:10216000D4ED450A30EE600A84ED470A94ED170A73
:10217000B8EEC00AD4ED740A94ED4C1A00EE601A61
:1021800084ED4C1A2000FEF73FFC280070BD38B5E6
:102190000400002594ED030AD4ED010AB4EE600AB0
:1021A000F1EE10FA2ED5012005000020E067D4F8EA
:1021B000B400002826D1D4F80001012807D1D4F8B2
:1021C0000001002807D1D4F8FC00002803D120002A
:1021D000FEF7E2FA16E02000FEF748FB0120C4F803
:1021E000E0000020E0672000FFF717F9C4F88C003A
:1021F00014F19002D4F88C102000FFF703F90420AA
:10220000C4F83003280032BD38B50400002594ED31
:10221000010AD4ED030AB4EE600AF1EE10FA32D5E9
:10222000012005000020E067D4F8B80000282AD17A
:10223000D4F8FC00012807D1D4F80001002807D108
:10224000D4F8FC00002803D12000FEF7DAFA1AE0E7
:102250002000FEF70BFB0120C4F8E0000020E0673F
:10226000616EE06D411861662000FFF7D6F8C4F892
:102270008C0014F19002D4F88C102000FFF7C2F803
:102280000420C4F83003280032BD30B4040000201C
:1022900000259D4203D2505D48556D1CF9E718009A
:1022A00030BC70472DE9F84FE6B0040000200390E1
:1022B000002000900020029000200190042502A838
:1022C00001F097FADFF8EC17E26C0868406A8218B0
:1022D000E264E06C20650020096848625FF0FF3628
:1022E0000196009F2B0001AA04A800990144200038
:1022F000FFF7CBFFC71900970196009E2B0001AA9C
:1023000004A8009901442000FFF7BFFF861900963A
:10231000206D0190009E2B0001AA04A800990144A1
:102320002000FFF7B2FF8619009694F8380201905A
:10233000009E2B0001AA04A8009901442000FFF789
:10234000A4FF86190096606D0190009E2B0001AAE3
:1023500004A8009901442000FFF797FF8619009612
:10236000A06D0190009E2B0001AA04A800990144D1
:102370002000FFF78AFF86190096E06D0190009E0D
:102380002B0001AA04A8009901442000FFF77DFF5B
:1023900086190096206E0190009E2B0001AA04A8C9
:1023A000009901442000FFF770FF86190096606EC7
:1023B0000190009E2B0001AA04A80099014420006E
:1023C000FFF763FF86190096A06E0190009E2B0018
:1023D00001AA04A8009901442000FFF756FF8619BE
:1023E0000096E06E0190009E2B0001AA04A80099BF
:1023F00001442000FFF749FF86190096206F0190E5
:10240000009E2B0001AA04A8009901442000FFF7B8
:102410003CFF86190096606F0190009E2B0001AA78
:1024200004A8009901442000FFF72FFF86190096A9
:10243000A06F0190009E2B0001AA04A800990144FE
:102440002000FFF722FF86190096E06F0190009EA2
:102450002B0001AA04A8009901442000FFF715FFF2
:1024600086190096D4F880000190009E2B0001AAE6
:1024700004A8009901442000FFF707FF8619009681
:10248000D4F884000190009E2B0001AA04A80099B2
:1024900001442000FFF7F9FE86190096D4F8880061
:1024A0000190009E2B0001AA04A80099014420007D
:1024B000FFF7EBFE86190096D4F88C000190009E81
:1024C0002B0001AA04A8009901442000FFF7DDFEBB
:1024D00086190096D4F890000190009E2B0001AA66
:1024E00004A8009901442000FFF7CFFE861900964A
:1024F000D4F894000190009E2B0001AA04A8009932
:1025000001442000FFF7C1FE86190096D4F8980018
:102510000190009E2B0001AA04A80099014420000C
:10252000FFF7B3FE86190096D4F89C000190009E38
:102530002B0001AA04A8009901442000FFF7A5FE82
:1025400086190096D4F804010190009E2B0001AA80
:1025500004A8009901442000FFF797FE8619009611
:10256000D4F808010190009E2B0001AA04A800994C
:1025700001442000FFF789FE86190096D4F80C016B
:102580000190009E2B0001AA04A80099014420009C
:10259000FFF77BFE86190096D4F810010190009E8B
:1025A0002B0001AA04A8009901442000FFF76DFE4A
:1025B00086190096D4F814010190009E2B0001AA00
:1025C00004A8009901442000FFF75FFE86190096D9
:1025D000D4F818010190009E2B0001AA04A80099CC
:1025E00001442000FFF751FE86190096D4F81C0123
:1025F0000190009E2B0001AA04A80099014420002C
:10260000FFF743FE86190096D4F820010190009E42
:102610002B0001AA04A8009901442000FFF735FE11
:1026200086190096D4F824010190009E2B0001AA7F
:1026300004A8009901442000FFF727FE86190096A0
:10264000D4F828010190009E2B0001AA04A800994B
:1026500001442000FFF719FE86190096D4F82C01DA
:102660000190009E2B0001AA04A8009901442000BB
:10267000FFF70BFE86190096D4F830010190009EFA
:102680002B0001AA04A8009901442000FFF7FDFDDA
:1026900086190096D4F834010190009E2B0001AAFF
:1026A00004A8009901442000FFF7EFFD8619009669
:1026B000D4F838010190009E2B0001AA04A80099CB
:1026C00001442000FFF7E1FD86190096D4F83C0193
:1026D0000190009E2B0001AA04A80099014420004B
:1026E000FFF7D3FD86190096D4F840010190009EB3
:1026F0002B0001AA04A8009901442000FFF7C5FDA2
:1027000086190096D4F844010190009E2B0001AA7E
:1027100004A8009901442000FFF7B7FD8619009630
:10272000D4F848010190009E2B0001AA04A800994A
:1027300001442000FFF7A9FD86190096D4F84C014A
:102740000190009E2B0001AA04A8009901442000DA
:10275000FFF79BFD86190096D4F850010190009E6A
:102760002B0001AA04A8009901442000FFF78DFD69
:1027700086190096D4F854010190009E2B0001AAFE
:1027800004A8009901442000FFF77FFD86190096F8
:10279000D4F858010190009E2B0001AA04A80099CA
:1027A00001442000FFF771FD86190096D4F85C0102
:1027B0000190009E2B0001AA04A80099014420006A
:1027C000FFF763FD86190096D4F860010190009E22
:1027D0002B0001AA04A8009901442000FFF755FD31
:1027E00086190096D4F864010190009E2B0001AA7E
:1027F00004A8009901442000FFF747FD86190096C0
:10280000D4F868010190009E2B0001AA04A8009949
:1028100001442000FFF739FD86190096D4F86C01B9
:102820000190009E2B0001AA04A8009901442000F9
:10283000FFF72BFD86190096D4F870010190009ED9
:102840002B0001AA04A8009901442000FFF71DFDF8
:1028500086190096D4F874010190009E2B0001AAFD
:1028600004A8009901442000FFF70FFD8619009687
:10287000D4F878010190009E2B0001AA04A80099C9
:1028800001442000FFF701FD86190096D4F87C0171
:102890000190009E2B0001AA04A800990144200089
:1028A000FFF7F3FC86190096D4F880010190009E92
:1028B0002B0001AA04A8009901442000FFF7E5FCC1
:1028C00086190096D4F884010190009E2B0001AA7D
:1028D00004A8009901442000FFF7D7FC8619009650
:1028E000D4F888010190009E2B0001AA04A8009949
:1028F00001442000FFF7C9FC86190096D4F88C012A
:102900000190009E2B0001AA04A800990144200018
:10291000FFF7BBFC86190096D4F890010190009E49
:102920002B0001AA04A8009901442000FFF7ADFC88
:1029300086190096D4F894010190009E2B0001AAFC
:1029400004A8009901442000FFF79FFC8619009617
:10295000D4F898010190009E2B0001AA04A80099C8
:1029600001442000FFF791FC86190096D4F89C01E1
:102970000190009E2B0001AA04A8009901442000A8
:10298000FFF783FC86190096D4F8A0010190009E01
:102990002B0001AA04A8009901442000FFF775FC50
:1029A00086190096D4F8A4010190009E2B0001AA7C
:1029B00004A8009901442000FFF767FC86190096DF
:1029C000D4F8A8010190009E2B0001AA04A8009948
:1029D00001442000FFF759FC86190096D4F8AC0199
:1029E0000190009E2B0001AA04A800990144200038
:1029F000FFF74BFC86190096D4F8B0010190009EB9
:102A00002B0001AA04A8009901442000FFF73DFC17
:102A10008619D4F8B40101902B0001AA04A800EB98
:102A200006012000FFF731FC0700BF19D4F8B801F8
:102A300001902B0001AA04A800EB07012000FFF77A
:102A400024FC804618EB0708D4F83C0201902B00C8
:102A500001AA04A800EB08012000FFF716FC81463C
:102A600019EB08095FF0FE3BCDF804B02B0001AA7A
:102A700004A800EB09012000FFF707FC82461AEBCF
:102A8000090ACDF804B02B0001AA04A800EB0A0142
:102A90002000FFF7FAFB83461BEB0A0B5A4604A9FA
:102AA0000548006801F019FD67B0BDE8F08F00002F
:102AB00024A40208388F0120ACB9012038B50500E4
:102AC0000C00002C42D06068A860A068E860E06854
:102AD000286160692860207F85F83802A0696861F4
:102AE000A868E866E868286728696867606A2865F2
:102AF000D5F83003002806D0022812D00AD30428C3
:102B00001DD018D31FE02800FEF748FE2800FDF76F
:102B1000C9FD18E02800FEF7EEFE2800FDF7C2FD13
:102B200011E02800FEF7CAFE2800FDF7BBFD2800D3
:102B3000FEF7A2FD07E02800FEF79EFD03E0280057
:102B4000FEF77EFCFFE72800FFF7ACFB31BD30B499
:102B5000029D039C0160026183828560848130BC98
:102B6000704738B504000D002800C0B2002808D016
:102B700002281CD010D3042835D026D3052840D0F5
:102B80004DE00022A189A06802F0BCF80022A18AD1
:102B9000206902F0B7F842E00022A189A06802F0A3
:102BA000B1F80022A18A206902F0ACF837E00022D7
:102BB000A189A06802F0A6F80122A18A206902F08A
:102BC000A1F8206801F0F4FC29E00122A189A068A5
:102BD00002F098F80122A18A206902F093F8206897
:102BE00001F0E6FC1BE00022A189A06802F08AF84F
:102BF0000122A18A206902F085F8206801F0D8FC42
:102C00000DE00122A189A06802F07CF80122A18ACE
:102C1000206902F077F8206801F0CAFCFFE731BDB7
:102C200010EE100AB5EE400A4FF0807C1CEB400F0E
:102C300042D2F1EE10FADFF8A4C0DCEC090A45DD5F
:102C40005FEAD05C2BD0ACF17E0CA0EBCC5000EE58
:102C5000100AB4EE600AF1EE10FA44BFACF1010CB8
:102C600020EE210A00EE90CAF8EEE00A70EE415A1A
:102C700030EE016A85EE866A66EE066A02EEA63AD4
:102C800043EE263AB0EE650A03EEE60A20EE066A47
:102C900004EEE06A35EEC60A04EE200A704720EE24
:102CA000020A10EE100A4FEAD05CACF17E0CA0EBE9
:102CB000CC50ACF1170CCAE707D8004244BF6FF004
:102CC000004000EE100AAFF300807047F6DB6FF0B3
:102CD0000000C00500EE100A70470000B89B020813
:102CE000B5EEC00AF1EE10FA02D4B1EEC00A704798
:102CF0006FF0004C00EE10CAAFF30080704780B553
:102D00002DED068BB0EE409AB0EE41AAF0EE61AA2E
:102D1000B0EE4A1AF0EE6A1AB0EE418AF0EE618A1D
:102D200019EE100A02F01AF841EC100BB0EE481A36
:102D3000F0EE681A02F036F8BDEC068B01BD30B437
:102D4000002513E050F8042BD30744BFA9F1010379
:102D50009A18091F042942F8045BFAD213468C071B
:102D600044BF15809B1CC90748BF1D7050F8041B49
:102D70000029E7D130BC704701F000428B1AA3F163
:102D80006051B1F5801F0ADBB1F17F6F1FD242EABB
:102D9000C102C10071F1004142EB507070470B1548
:102DA000C3F10903212B10D2890241EA905180021C
:102DB0000128494141F0004121FA03F0C3F1200309
:102DC000994071F1004150417047100070476FF019
:102DD000000013EB103F5CBF000E42EAC05070478A
:102DE00010EE100AF5EE400AF1EE10FA09D604BF13
:102DF000C04207E0B4EE600AF1EE10FAB8BFB0EEE0
:102E0000600A704728BFB0EE600A704710EE100AE3
:102E1000F5EE400AF1EE10FA0BD618B904BFB0EE89
:102E2000600A06E0F4EE400AF1EE10FAB8BFB0EE28
:102E3000600A704710B52DED048B0400B0EE409A87
:102E400019EE100A01F08AFF41EC110BB0EE418A35
:102E5000F0EE618A200001F0D3FF41EC100BB0EEE0
:102E6000481AF0EE681A01F0E4FFBDEC048B10BDC7
:102E7000FEB504000D001600200001F0E3FFDFF8AE
:102E8000BC062060DFF8B876442002F08BF80028FA
:102E900003D0290002F098F800E00020C4F82801CF
:102EA000BC2002F07FF8002803D0290002F028FAA5
:102EB00000E00020C4F82C014C2002F073F8002838
:102EC00002D002F083FC00E00020C4F8F0000020F3
:102ED000C4F8300114F59A721021D4F82C0102F0D4
:102EE000C1FB200000F0E6F90020C4F8F400DFF890
:102EF0005406C4F8F80002AA390014F1FC0002F0EC
:102F00005DFD02A9DFF8400602F072FFC4F8C400BC
:102F1000BDF8080000280AD102A801900A200090FC
:102F200005234FF480626168200001F0A9FF2000B2
:102F3000FEBD0121002970472DE9F04788B005004A
:102F40005FF0010800200690002005900126002077
:102F500003900020049000274046C0B2002800F0F3
:102F6000708102A8019007A800904FF484734FF479
:102F7000FA72D5F8F81015F1CC0002F0B5FF040094
:102F8000BDF80800002805D0BDF8080047F2D92197
:102F9000884202D15FF0010901E05FF00009484674
:102FA000C0B200280CD1002001901D200090BDF877
:102FB000083001221121DFF89405006800F0BAFE04
:102FC0004846C0B20028C7D0BDF8080047F2D92152
:102FD000884240F02F81D5F8F400401CC5F8F40079
:102FE000280000F031F906A9D5F82C0102F002FA08
:102FF00005A9D5F82C0102F004FA0598012802D0A1
:103000000698012828D1D5F83001012827D1DFF80A
:103010003CA5002000900B239FEDA50A002209216A
:10302000DAF8000000F09DFE0120009009239FEDDA
:10303000A00A00220A21DAF8000000F092FE0598AA
:10304000012802D00698012809D10020C5F83001D6
:10305000280000F08FF902E0280000F02BF9D5F8E5
:10306000F4001428C0F084800020C5F8F400D5F8DE
:103070002C0102F09EFA0600012E0CD100200190D6
:103080000D200090330001220F21DFF8C0040068FA
:1030900000F050FE6CE0DFF8B4A4002001900E2098
:1030A0000090330000220F21DAF8000000F042FE09
:1030B00003AA2421D5F82C0102F067FBDFF8900465
:1030C00090ED000ADDED030AB4EE600AF1EE10FAAD
:1030D00016DB002000900F239DED030A01220A2138
:1030E000DAF8000000F03DFE0020009010239DED76
:1030F000030A00220921DAF8000000F032FE37E06E
:10310000DFF8500490ED000ADDED030AB4EE600A2A
:10311000F1EE10FA16DB0020009011239DED030A5A
:1031200001220921DAF8000000F01BFE00200090C7
:1031300012239DED030A00220A21DAF8000000F0B4
:1031400010FE15E00020009013239DED030A0022DD
:103150000921DAF8000000F004FE0020009014239A
:103160009DED030A00220A21DAF8000000F0F9FDC3
:1031700004AA2021280000F021F982465046514639
:10318000C0B2C9B2884223D19DED040ADFF8C8035A
:10319000D0ED000AB4EE600AF1EE10FA0CD5002072
:1031A000009015239DED040A01220121DFF89C0304
:1031B000006800F0D6FD0BE00020009016239DED86
:1031C000040A00220121DFF88403006800F0C9FD31
:1031D00004AA2221280000F0F1F807003800390085
:1031E000C0B2C9B288427FF4B7AE9DED040ADFF8E1
:1031F0006C03D0ED000AB4EE600AF1EE10FA0CD5C3
:103200000020009017239DED040A01220521DFF81C
:103210003C03006800F0A5FD9EE600200090182306
:103220009DED040A00220521DFF82003006800F06C
:1032300098FD91E6A0027FF58FAE280000F03AF8E5
:103240008AE608B0BDE8F08710B52DED028B82B09C
:10325000040000200190002000909FED158A01AA33
:103260000F21D4F82C0102F0FDF96A461021D4F8A0
:103270002C0102F0F7F99DED010AB8EE400ADFEDEE
:103280004E0A20EE200ADDED000AF8EE600AC0EEDC
:10329000208AD4F83011B0EE680ADFF8B002006876
:1032A000406B03F017F802B0BDEC028B10BD0000BC
:1032B000000000001FB504000020039000200290D1
:1032C000002001900020009003A9D4F8280101F00B
:1032D0008DFF02A9D4F8280101F0E6FF01A9D4F876
:1032E000280101F0F0FF0298012820D1019801285F
:1032F00017D16946D4F82C0102F02EF90098D4F8C1
:103300003411884206D20120C4F83001200000F0B8
:103310000FF80CE00020C4F83001200000F02AF87B
:1033200005E00020C4F83001200000F023F81FBDA4
:103330007CB504000326D4F8280101F091FE0500B5
:10334000032D0BD000200190192000902B000122AA
:1033500010217E48006800F0EDFC0AE0002001909A
:103360001A2000902B00002210217848006800F0FD
:10337000E1FC73BD7CB504000326D4F8280101F0FC
:1033800086FE0500032D0BD0002001901B2000902D
:103390002B00012210216D48006800F0CBFC0AE0F0
:1033A000002001901C2000902B0000221021674873
:1033B000006800F0BFFC73BD0000C842F8B504000F
:1033C0000D00160000272800C0B21338022809D9C2
:1033D000801F032806D9C01F05D0401E0BD0401EF9
:1033E00011D018E019E032000321D4F8F00002F007
:1033F00075FA070011E032000221D4F8F00002F063
:103400006DFA070009E032000121D4F8F00002F063
:1034100065FA070001E0002007003800C0B2F2BDE5
:103420002DE9FC4104000D0016005FF0000814F1C6
:10343000FC0101A803F09EF901272800C0B216384C
:1034400002280BD9C01F022808D9801F07D0401EB0
:103450001DD0401E33D0C01F49D050E051E06A4615
:103460000321D4F8F00002F07EFA07009DF8000076
:10347000012802D10120306008E09DF800000228F8
:1034800002D10020306001E00020306039E06A465F
:103490000221D4F8F00002F066FA07009DF800005F
:1034A000012802D10120306008E09DF800000228C8
:1034B00002D10020306001E00020306021E06A4647
:1034C0000121D4F8F00002F04EFA07009DF8000048
:1034D000012802D10120306008E09DF80000022898
:1034E00002D10020306001E00020306009E03200AD
:1034F0000021D4F8F00002F04BFA070001E00020B0
:10350000070001A803F063F93800C0B2BDE8F681F6
:1035100010B504005FF40031200001F037FD10BD4C
:1035200010B5040020680E49884206D15FF40011EE
:1035300006480068806B01F029FD10BDFC9F020861
:1035400000A1020801002200ECB80120ACB9012062
:1035500034A4020838A4020840A402083CA40208CB
:1035600000540040F8B504000D0016001F00069836
:1035700000903B00320029002000DFF8D0C2DCF8C8
:1035800000C0E047F2BD3EB504000025002C1FD06E
:103590000020ADF80800B4F57A7F0ED34FF47A70AE
:1035A000B4FBF0F005003C2D01D33B2005004FF4A7
:1035B0007A70B4FBF0F100FB114402A801900020E6
:1035C000009023002A0092B20021002003F02CF981
:1035D00037BD30EE601AB0EEC11A9D48D0ED001A2A
:1035E000B4EE611AF1EE10FA01D5012000E00020DE
:1035F000C0B2704730B403000120964C2468A24248
:1036000009D3954C2468944205D3002903D00D2991
:1036100001D2002B02D10024200027E08F4C04EBC4
:10362000810454F8044C9C4202D2002420001DE086
:1036300002291BD112F0030F06D16424B2FBF4F56A
:1036400004FB1524002C07D14FF4C874B2FBF4F529
:1036500004FB1524002C01D1012400E00024E4B275
:10366000002C03D11D2B01D300242000C0B230BC9C
:1036700070477FB504000D00002600202860A26876
:1036800061682068FFF7B6FF01281DD17448006803
:103690008DF8000060688DF8010020688DF8020048
:1036A000A1686C480068091A8DF8031002A803F09D
:1036B00078F901AA0299009803F0A4FA2860019809
:1036C000002801D1012006003000C0B204B070BD56
:1036D0001CB50400684603F064F99DF802102160EF
:1036E0009DF8011061609DF803105A4A126852FA61
:1036F00081F1A160C0B216BD38B50400002555485F
:10370000A1680268914217D353490968A26891429F
:1037100012D3534909688DF8001061688DF80110C3
:1037200021688DF80210A1680068091A8DF803104D
:10373000684603F093F905002800C0B232BD18B501
:1037400085B00400684603F013F90100C9B20029EE
:1037500014D09DF8001021609DF8011061609DF863
:103760000210A160029A0199521A4FF47A714A43E9
:103770000299491CB2FBF1F1E16007E000212160F0
:10378000002161600021A1600021E160C0B206B0AB
:1037900010BD18B585B0040020688DF80000606881
:1037A0008DF80100A0688DF80200684603F014F956
:1037B00006B010BDF0B58BB004000D0016002C2132
:1037C00000226F46380003F0DFFAA068A0F26C70A8
:1037D00005906068049020680390286802906868EB
:1037E0000190A8680090684603F002FB30600BB0BF
:1037F000F0BD78B587B0040000256846FFF79FFF4D
:10380000060004A8FFF764FF0100C9B2012901D135
:1038100003992160C0B208B070BDF0B587B0040054
:10382000002503A8FFF78BFF06006846FFF750FF4F
:1038300007003800C0B2012804D1220003A968465D
:10384000FFF7B8FF3800C0B207B0F0BD5C2B002016
:1038500084A4020878A402087CA402080C9D020833
:1038600080A4020810EE100AF44600F003F800EEFF
:10387000100A6047C0F3C7527E3A09DD182A0CDAF5
:103880006FF07F41D14020EA5100401888437047D3
:1038900000F0004008BF40F07E50704710B50400B3
:1038A000342001F07FFB002803D02C4903F008FBF3
:1038B00000E00020A0622A4820602A4860602A4870
:1038C000A0600020E0600A202061002060610020EC
:1038D000A0610020E0614FF47A7020625FF08040C8
:1038E0006062200000F022F8200000F02EF8200096
:1038F00000F002F8200010BD70B586B0040000256D
:103900000126002000900020039020698DF800001F
:1039100016208DF8030003AB6A463100C9B2A06AD5
:1039200003F06FFB2800C0B206B070BD10B50400F4
:10393000200000F01BF8200000F02CF8200000F020
:103940003DF8200000F04EF810BD10B50400B0EEB8
:10395000000A200000F083F810BD0000388A012022
:1039600048E17A3F3D0A37405C8F823F70B586B0B0
:10397000040000251B2600200390002000906B46C9
:1039800003AA3100C9B2A06A03F03BFB2800C0B211
:1039900006B070BD70B586B0040000251C2600205E
:1039A0000390002000906B4603AA3100C9B2A06AC0
:1039B00003F027FB2800C0B206B070BD70B586B01A
:1039C000040000251D2600200390002000906B4677
:1039D00003AA3100C9B2A06A03F013FB2800C0B2E9
:1039E00006B070BD70B586B0040000251E2600200C
:1039F0000390002000906B4603AA3100C9B2A06A70
:103A000003F0FFFA2800C0B206B070BD2DE9F04106
:103A100086B004000D00160000275FF01308002098
:103A200003900020009003956B4603AA4146C9B25B
:103A3000A06A03F0E6FA9DF800009DF80110090461
:103A400051EA00619DF8020051EA00219DF803004F
:103A5000014331603800C0B206B0BDE8F08170B5F6
:103A60002DED028B86B00400B0EE408A002524269E
:103A70008DED038A002000906B4603AA3100C9B285
:103A8000A06A03F0BEFA2800C0B206B0BDEC028BFB
:103A900070BD2DE9F04186B004000D00160000272E
:103AA0005FF0310800200390002000906B4603AACD
:103AB0004146C9B2A06A03F0A4FA9DF800009DF83F
:103AC000011051EA002129609DF802009DF80310C1
:103AD00051EA002100EE101AB8EE400A86ED000A05
:103AE0003800C0B206B0BDE8F081B1F5807F02D3E6
:103AF0004FF0FF3070470170012070470078401E82
:103B00008041C043C00F70471FB50400DFF8940820
:103B100003F0B2FADFF8900803F0AEFAF82001F0F3
:103B200041FA002802D003F049FC00E00020606068
:103B3000DFF8780804F01DF8DFF8740804F019F8CD
:103B4000DFF8700804F015F8DFF86C0804F011F8DD
:103B50004FF49C7001F026FA002805D002AADFF885
:103B60005C18FFF785F900E00020A063BDF808109D
:103B7000200000F015F942F2E41001F013FA0028D9
:103B800003D002A904F02AFB00E000206062BDF827
:103B90000810200000F004F9F02001F003FA0028DA
:103BA00003D002A904F0F4FD00E00020A065BDF8F8
:103BB0000810200000F0F4F8F42001F0F3F90028D8
:103BC00003D002A904F0C0FE00E00020E060BDF8D0
:103BD0000810200000F0E4F84FF4807001F0E2F9E2
:103BE000002803D002A904F0F7FF00E000202061C4
:103BF000BDF80810200000F0D3F82C2001F0D2F915
:103C0000002802D0FFF74AFE00E00020E063042015
:103C100001F0C8F9002803D002A905F0C8F900E0B6
:103C20000020A060BDF80810200000F0B9F8F820CE
:103C300001F0B8F9002805D002AADFF8841705F0D2
:103C40005FFC00E00020E061BDF80810200000F0FB
:103C5000A7F8F82001F0A6F9002805D002AADFF89D
:103C6000641705F07BFC00E00020A061BDF808109F
:103C7000200000F095F8182001F094F900280DD0EC
:103C800020210191DFF8401700914FF40073DFF815
:103C90003C27DFF83C17FEF75AFF00E00020A06247
:103CA000BDF80810200000F07BF8182001F07AF928
:103CB00000280DD002210191DFF8181700914FF470
:103CC0008043DFF81427DFF81417FEF740FF00E009
:103CD0000020E062BDF80810200000F061F8182014
:103CE00001F060F900280ED04FF400610191DFF877
:103CF000F01600914FF40043DFF8DC26DFF8E416FD
:103D0000FEF725FF00E000202063BDF8081020002A
:103D100000F046F8382001F045F9002802D002F002
:103D2000A1FA00E000206063012084F85C0020001C
:103D300004B010BDFEB504000D0016001F00E068C1
:103D400000280DD09DF824000190BDF820000090BF
:103D50003B003200D2B22900C9B2E06804F006FE8E
:103D6000F7BDF8B52DED028B82B004000D001600F2
:103D7000B0EE408A1F00E06800280DD09DF82800B2
:103D800000903B009BB2B0EE480A3200D2B229004C
:103D9000C9B2E06804F0FDFD02B0BDEC028BF1BDDC
:103DA000FEB504000D00280080B2002801D10126D4
:103DB00000E000263000C0B2002815D1DFF82876D8
:103DC000386800280ED0E06800280BD00020019051
:103DD000012000902B009BB2012211213868FFF7CF
:103DE000A9FF01E006F054F8F7BD38B505000C0056
:103DF00000200090002C04D1686803F0BCFC009007
:103E000003E06946A86805F017FB009832BDF8B5D5
:103E100004000D00002615F1010F0BD0606803F0BF
:103E20001BFE07007D60606803F087FC012801D15C
:103E3000012006003000C0B2F2BD3EB504000025EE
:103E40006168684603F08DFB0098000B10F00300DA
:103E5000022802D0032803D006E00120050003E079
:103E60005FF0FF300500FFE728003EBD10B50400FD
:103E7000606803F060FB10BD38B504000D00280039
:103E8000FFF726FC32BD38B504000D002800FFF70F
:103E900033FC32BD38B504000D002800FFF74FFC9D
:103EA00032BD38B504000D002800FFF772FC32BDAA
:103EB0002DE9FE4305000C0016001F005FF000080E
:103EC00000203870022C6AD2002C27D1002E02D09C
:103ED000012E10D01FE0DFF81405C1780191817820
:103EE00000914378DFF808250A21380005F0D2FF59
:103EF0000120804653E0DFF8FC04C178019181780D
:103F000000914378DFF8E8240A21380005F0C2FF69
:103F10000120804643E00020804640E0002E02D091
:103F2000012E1DD039E002A9A86805F009F98146E3
:103F30004846C0B2002810D0029800F0FF0001905F
:103F40000298C0F3072000900298C0F30343DFF803
:103F5000A0240A21380005F09DFF5FF001081EE053
:103F600002A9A86805F009F981464846C0B20028B0
:103F700010D0029800F0FF0001900298C0F30720D3
:103F800000900298C0F30343DFF864240A2138004C
:103F900005F080FF5FF0010801E000208046404608
:103FA000C0B2BDE8FE832DE9F84305000C00160001
:103FB0001F005FF00008022C4FD2002C1ED1002EF3
:103FC00002D0012E0CD016E0DFF82C040368DFF8D5
:103FD0002C240721380005F05DFF012080463CE0DD
:103FE0004FF4F973DFF814240721380005F052FF6D
:103FF0000120804631E0002080462EE0002E02D0D5
:10400000012E14D027E06946A86805F099F881468A
:104010004846C0B2002807D0009B1B0DDFF8DC2308
:104020000721380005F036FF5FF0010815E069460A
:10403000A86805F0A2F881464846C0B2002807D01B
:10404000009B1B0DDFF8B4230721380005F022FF89
:104050005FF0010801E0002080464046C0B2BDE8A4
:10406000F28338B504000D002900A06804F0E2FFD7
:1040700032BD38B504000D002900A06804F0ECFF43
:1040800032BD38B504000D002900A06804F0F6FF29
:1040900032BD38B504000D002900A06805F003F812
:1040A00032BD38B504000D002900A06805F082F883
:1040B00032BD38B504000D002900C9B2A06805F072
:1040C00096F832BDF8B505000C00002600208DF8EA
:1040D00000006946A86804F08FFF07003800C0B2EE
:1040E000012811D19DF80000022808D1002C0BD026
:1040F000686803F0B3FC20600120070004E02100A1
:10410000A86804F0E5FF07003800C0B2F2BDF8B5BA
:1041100004000D00002600208DF800006946A0680C
:1041200004F06AFF07003800C0B2012814D19DF8DE
:10413000000002280ED12900606803F092FC0700FD
:104140003800C0B2012807D12900A06804F0D3FFCD
:10415000070001E0002007003800C0B2F2BD70B5D2
:1041600005000C000026002C04D02100A86805F0F2
:1041700052F800E00020C0B270BD38B52DED028BC2
:104180000400B0EE408A0025B0EE480AA06805F0B1
:1041900056F8C0B2BDEC028B32BD38B504000D003C
:1041A0002900A06804F028FF32BD38B504000D00D6
:1041B0002900A06805F0E7F832BD38B504000D000D
:1041C0002900A06805F003F932BD38B504000D00E0
:1041D0002900A06805F0E9F832BD007870470300B7
:1041E00000201A78002A03D00A00D2B2002A02D195
:1041F000197001221000C0B2704738B504000D00DC
:104200002800C0B205F068FE31BD10B5040005F00D
:1042100075FE10BD02000020002907D0936C0B60D2
:10422000D36C4B60136D8B6001231800C0B27047D4
:10423000F8B505000C000026002C0DD0686803F0CE
:1042400009FC07002068386160687861A068B8617F
:10425000686803F0A2FB06003000C0B2F2BD0200A5
:104260000020002907D00B6893644B68D3648B68E7
:10427000136501231800C0B2704738B504000D0063
:104280002900A06805F028F9012032BDF8B5040026
:104290000D001600002732002900A06804F0E7FF97
:1042A000C0B2F2BD10B50400A06805F015F810BD4D
:1042B00038B52DED028B04000D00B0EE408AB0EE53
:1042C000480A2900A06805F027F8BDEC028B32BD32
:1042D00010B50400A06805F038F810BD10B5040052
:1042E000A06805F041F810BD38B504000D002900A4
:1042F000A06804F0E0FF32BD01000120C0B27047A9
:1043000001000120C0B2704738B52DED028B2DEDB4
:10431000010A81B004009FED218A00200090DFEDAA
:104320001F8A00259DED010AB5EE400AF1EE10FA54
:1043300009D101A9A06805F093F89DED010A30EEBE
:10434000080A8DED010A9DED010AB5EE400AF1EE75
:1043500010FA04DB6946A06805F096F803E06946A8
:10436000A06805F0A5F89DED010ADFED0D0A20EE2D
:10437000200ADDED000A80EE200AF7EE000AB4EE16
:10438000600AF1EE10FA03D501986065012005007E
:104390002800C0B202B0BDEC028B32BD00000000AC
:1043A0000000C842308E01207C8E0120188D012033
:1043B000A48D0120748B0120008C0120248B01200E
:1043C000C0A20208CCA20208000800480010004861
:1043D000848F012000040048000C0048D08F012089
:1043E000001400481C900120ACB901202CA4020844
:1043F00010A1020844A4020830A40208F4A3020891
:1044000038B5040000256068002803D0606803F018
:1044100014FB05002800C0B232BD38B504000025E9
:10442000606800280ED0606803F0F5FA0500A06807
:10443000002807D0A06804F0DCFF054201D0012568
:1044400000E000252800C0B232BD3EB504000025C2
:104450006168684603F085F80098800B10F003004F
:10446000022802D0032803D006E00120050003E063
:104470005FF0FF300500FFE728003EBD38B50400BF
:104480000D002900A06804F036FF32BD38B50400E5
:104490000D002900A06804F0FDFE32BD0200506D41
:1044A00008600120704770B505000C000026002C44
:1044B0000AD0686803F0CEFA016921604169616041
:1044C0008169A16001210E003000C0B270BD10B53D
:1044D0000400606803F0D0FA10BD2DE9F04105003A
:1044E0000C0016000027A86905F0D7FD8046002CB7
:1044F0000ED095F85C00012808D13200210040461A
:10450000D8F800305B6A9847070001E001200700F7
:104510003800C0B2BDE8F08138B5040001D10120F7
:1045200032BD00F0BDF818B900F0B6F806F06DF82D
:1045300082E090F83D10012901D00120704702214E
:1045400080F83D10DFF834210168914218BFB1F1C5
:10455000804F12D0DFF8282191421CBFDFF82431B0
:1045600099420AD0DFF8202191421FBFDFF81C31A9
:104570009942DFF81C21914209D18A68DFF81411B1
:104580000A40062A18BFB2F5803F04D001680A68C5
:1045900042F001020A600020704701680A6A41F295
:1045A00011131A4202BF096A40F24442114238E034
:1045B00090F83D10012901D001207047022180F8B8
:1045C0003D100168CA6842F00102CA600168DFF864
:1045D000AC20914218BFB1F1804F12D0DFF8A0207B
:1045E00091421CBFDFF89C3099420AD0DFF8982036
:1045F00091421FBFDFF894309942DFF89420914236
:1046000009D18A68DFF88C100A40062A18BFB2F573
:10461000803F04D001680A6842F001020A6000206D
:10462000704704D101680A68520852000A600121EB
:1046300080F83D100020704702206870211D20681E
:1046400000F065F901202873A870E870287168717E
:10465000A871E87128726872A872E8726870002008
:1046600032BD38B5040001D1012032BD00F018F888
:1046700018B900F011F806F01BFADDE7002C014034
:104680000004004000080040000C004000340140DD
:1046900000400140070001000021297020467047BA
:1046A00004F13C056878704770B504000E4601D1EE
:1046B000012070BDFFF7F4FF18B9FFF7EDFF06F01A
:1046C000F8F902206870211D206800F020F92068A8
:1046D000016821F008010160206802681643066045
:1046E00001202873A870E870287268726870002032
:1046F00070BD10B50446206801698A0715D5C168E8
:104700008A0712D56FF002010161012222778069C8
:1047100010F0030F204602D006F0CCF903E006F0BB
:10472000CAF900F094F800202077206801694A0750
:1047300015D5C1684A0712D56FF004010161022244
:104740002277806910F4407F204602D006F0B2F94B
:1047500003E006F0B0F900F07AF800202077206836
:1047600001690A0715D5C1680A0712D56FF008015B
:10477000016104222277C06910F0030F204602D0A5
:1047800006F098F903E006F096F900F060F80020D2
:10479000207720680169CA0615D5C168CA0612D5F6
:1047A0006FF01001016108222277C06910F4407F88
:1047B000204602D006F07EF903E006F07CF900F016
:1047C00046F80020207720680169CA0708D5C1682B
:1047D000CA0705D56FF001010161204606F0BCFA59
:1047E000206801690A0608D5C1680A0605D56FF078
:1047F00080010161204606F08BFB20680169CA0533
:1048000008D5C1680A0605D56FF48071016120469C
:1048100006F07FFB206801694A0608D5C1684A0690
:1048200005D56FF040010161204606F073FB20685A
:1048300001698A060AD5C1688A0607D56FF020018A
:1048400001612046BDE8104006F065BB10BD204662
:1048500006F062BB38B500F04EF801D1022032BD3F
:104860000120207002226270DFF850012A689368EC
:10487000034093600868020018BF10282DD020283C
:1048800018BF302829D0402823D0502816D06028BF
:1048900018D0702803D0B0F5005F07D021E000F0F9
:1048A00025F82868816841F0770105E000F01EF8DE
:1048B0002868816841F48041816012E000F012F8BC
:1048C00050210BE0CA684968286800F098F8602118
:1048D00004E000F007F8402100E00146286800F0FD
:1048E000A0F80EE0CA684968286879E0CB684A6891
:1048F000896828689DE0054605F13C042078012878
:1049000070470120607000212170002032BD2DE928
:10491000F043DFF8AC70D0F800C0DFF8A830DFF863
:10492000A840DFF8A850DFF8A860DFF8A8E0DFF8BB
:10493000A880DFF8A890B84218BFB0F1804F07D028
:10494000484518BF404503D0704518BFB0420ED14E
:104950004A68B8422CF0700C18BFB0F1804F42EAA0
:104960000C0C0CD048451CBF4045704507D0B042E8
:1049700018BFA84203D0A04218BF984204D1CA6809
:104980002CF4407C42EA0C0C4A692CF0800C42EA80
:104990000C020260B8428A68C26218BFB0420A685C
:1049A000826204D0A8421CBFA042984201D109698A
:1049B000016301224261BDE8F08300008800FEFF30
:1049C000002C0140004801400044014000400140EB
:1049D00000340140000C004000080040000400408A
:1049E00010B5036A046A64086400046223F00A03D1
:1049F000846924F0F00444EA0214846123E010B5D1
:104A0000036A23F0100303628369046A23F470438A
:104A100043EA023324F0A004836144EA01140462EF
:104A200010BD826822F07002114341F007018160DD
:104A3000704710B5846824F47F442143114341EA50
:104A40000321816010BD1943016210BD2DE9F84FAB
:104A50000027B74AB74B4FF00F0805460E4634E023
:104A6000B54CA54214BF082407248C40B34944EA3E
:104A70000E0441F82C40C143146801EA040C746828
:104A8000E40348BF40EA0C0CC2F800C0546801EAD5
:104A9000040C7468A40348BF40EA0C0CC2F804C0BC
:104AA000946801EA040C7468E40248BF40EA0C0C04
:104AB000C2F808C0D46801EA040C7168890248BFD2
:104AC00040EA0C0CC2F80CC07F1C316831FA07F0C8
:104AD00000F08F800124BC4014EA0100F4D04FEABA
:104AE000470C032101FA0CF16FEA010E71680129EC
:104AF00018BF022903D0112918BF122912D1A968A1
:104B0000D6F80C900EEA010109FA0CF949EA010104
:104B1000A960696821EA04047168C1F30011B94011
:104B20000C436C60E968B4680EEA010104FA0CF405
:104B30002143E960B9007468022C18BF122C12D10D
:104B4000FC0805EB840401F01C09D4F820A008FA45
:104B500009FB2AEA0B0AD6F810B00BFA09F949EA60
:104B60000A09C4F820902C680EEA040E347904F087
:104B7000030404FA0CF444EA0E042C607468E400A4
:104B8000A2D51C6844F001041C604FEA970C1C6815
:104B900004F00104009401F00C01009C674C54F8EF
:104BA0002C4008FA01FE24EA0E0EB5F1904F08BF22
:104BB00000241DD0624CA54208BF012418D0614CCE
:104BC000A54208BF022413D05F4CA54208BF0324AE
:104BD0000ED05E4CA54208BF042409D05C4CA5420F
:104BE00008BF052404D05B4CA5427FF439AF0624EE
:104BF0003BE7BDE8F18F2DE9F04F8A464FF0000BFF
:104C00004B494E4B0F2204463CE04B4EB44214BF7E
:104C10000826072606FA0EF6B54212D10D68C043E3
:104C200005400D604D6805404D608D6805408D6004
:104C3000CD682840C86053F8280020EA090043F8EE
:104C4000280003254FEA4B0005FA00F025680543CC
:104C5000256007F01C074FEADB0504EB850502FA27
:104C600007F72E6A26EA07072F62C043A7680740A6
:104C7000A760656825EA0C056560E7683840E06074
:104C80000BF1010B3AFA0BF034D0012000FA0BFCC7
:104C90001CEA0A00F4D04FEA9B084FEA8B0753F84E
:104CA000285007F00C0E02FA0EF9B4F1904F09EA01
:104CB000050508BF0026ADD0214EB44208BF01262D
:104CC000A8D0204EB44208BF0226A3D01E4EB44244
:104CD00008BF03269ED01D4EB44208BF042699D0BB
:104CE0001B4EB44208BF052694D01A4EB4428CD154
:104CF00006268FE7BDE8F08F0069084018BF012045
:104D0000C0B270470AB181617047816270474269E1
:104D100001EA0203914341EA0341816170470E4A6F
:104D2000136803421CBF106004F0F1B87047000024
:104D30000004014060100240001C004808000140CF
:104D40000004004800080048000C0048001000481B
:104D5000001400480018004814040140C0F3C75173
:104D600081B1FF2906D0C110400721F0E04101F1D7
:104D70006051704741020CBF40F4E0016FF0004108
:104D80000020704700F0004100020AD0B0FA80FC19
:104D900000FA0CF001F16051A1EB0C5101EBD021B4
:104DA0004005704751EC100B00B553EC112B00F08F
:104DB00003F841EC100B00BD4FF4001C1CEB410F3D
:104DC0000ED81CEB430F0DD851EA030C04D58B42CF
:104DD00008BF824204D370478B4208BF824201D988
:104DE0001000190070478268521C8260426832B11C
:104DF0000268531C036011704168491E416070478E
:104E0000C11768B14840401AB0FA80F29040D21CF5
:104E1000C907C2F5846241EA025202EBD021400583
:104E200070470268531C03601170704741EC100B0F
:104E300001BD80B553EC112B51EC100B06F06EF850
:104E4000F4E7200010B50400200000F001F810BDC8
:104E50001CB50400084820600020C4F8C4000020ED
:104E600084F8C8006B460022044914F1CC0001F01C
:104E700001F8200016BD000010A00208D8A2020808
:104E80002DE9F84189B004000D0016001F00DDF87F
:104E90004480D4F8C400002804D146F62F60A8F856
:104EA00000001DE0CDF82080032007900020069030
:104EB00000200590BDF84000049003960A20B6FB40
:104EC000F0F00290D4F8C40001903800C0B2009015
:104ED00023000FF22D02290014F1080006F080FBD8
:104EE000B8F80000002803D0062084F8C80002E0CB
:104EF000012084F8C8000AB0BDE8F081704770470F
:104F000038B504002500022085F8C800280029686B
:104F100009688847032085F8C8002800296849687F
:104F20008847042085F8C800002085F8C80031BDF6
:104F3000FEB504000121200000F028F8002500261D
:104F40000027642F13DA94F8C800002802D101204A
:104F500005000CE002A801900020009032230022FE
:104F60000021002001F060FC761C7F1CE9E728008E
:104F7000C0B2002809D102A801900020009032237D
:104F800000220021002001F04FFCF7BD38B50400DD
:104F90000D006B460022290014F1CC0001F095F8B9
:104FA00031BD2E0010B5044600E08047204607F0D2
:104FB0008FF830B9034800680028F6D108F062FC89
:104FC000F4E710BD1CBA012038B504000D001C2008
:104FD000FFF7E8FF002803D0290008F055FC00E0A7
:104FE000002020600020E0860020208700206060F4
:104FF0000020A0600020E0600020206100206061AF
:105000000020A0610020E06100202062002060629A
:105010000020A0620020E0620020E06332202064D3
:105020000E4820634FF48060A08640F2FF312000DC
:1050300000F046F843F22F31200000F045F814F15B
:105040003C01200000F0D2F80121200000F02CF8F3
:105050000121200000F0E3F8200032BD00180048D4
:1050600038B50400032540F2FF31200000F0CDF8F0
:1050700043F22F31200000F0DCF80021200000F086
:10508000CEF80121200000F00FF8280032BD38B51D
:10509000040003250021200000F006F80121200073
:1050A00000F0BDF8280032BD70B504000D000326E5
:1050B0002A00D2B2A18E206BFFF724FE300070BD13
:1050C000020003201187704702000320D186704739
:1050D0002DE9F84F04000D00032000902900200066
:1050E00000F034F800902900200000F039F800901A
:1050F0002900200000F03EF800902900200000F078
:1051000043F800902900200000F048F8060029002C
:10511000200000F04DF807002900200000F052F8B0
:1051200080462900200000F057F881462900200021
:1051300000F0A6F882462900200000F0ABF8834674
:105140002900200000F0B5F8BDE8F28F020003202E
:10515000CB0702D50123536001E000235360704761
:10516000020003204B0602D50123936001E00023D7
:1051700093607047020003200B0602D50123D36021
:1051800001E00023D360704702000320CB0502D565
:105190000123136101E00023136170470200032023
:1051A0008B0502D50123536101E000235361704751
:1051B000020003204B0502D50123936101E0002387
:1051C00093617047020003200B0502D50123D361D0
:1051D00001E00023D361704702000320CB0402D515
:1051E0000123136201E000231362704770B50400CD
:1051F0000D0003262A001321200000F074F829680E
:105200002000FFF765FF300070BD70B504000D0091
:1052100003262A001421200000F05AF870BD70B552
:1052200004000D0003262A001221200000F050F88F
:1052300070BD70B504000D000326B4F93600A84215
:105240001AD342F25F2085420FD043F22F308542BD
:105250000BD044F2FF30854207D045F2CF40854263
:1052600003D046F65F50854208D12A001521200060
:1052700000F02EF8060001E001200600300070BDAD
:10528000020003208B0402D50123536201E00023B6
:1052900053627047020003204B0402D5012393623E
:1052A00001E000239362704702000320936A0B60C1
:1052B0007047020003200B0402D50123D36201E0F2
:1052C0000023D362704702000320D36A0B6070474B
:1052D00037B50400032502AB01AA1221206808F0AB
:1052E000E4FA28003EBD73B50400150003262B0028
:1052F00001AA1221206808F0E5FA300076BD4300CB
:1053000038B504000D001C20FFF74CFE002803D028
:10531000290008F0B9FA00E0002020600020E065D4
:105320001620A06032206060200000F005F8200008
:1053300000F03FF9200032BD0021C1600021016171
:1053400000214161002181610021C16100210162D0
:1053500000214162002181620021C16200210163BC
:1053600000214163002181630021C16300210164A8
:1053700000214164002181640021C1640021016594
:1053800000214165002181650021C1650021016680
:1053900000214166002181660021C166002101676C
:1053A000002141670021C0F888100021C0F890104A
:1053B0000021C0F894100021C0F898100021C0F816
:1053C0009C100021C0F8A0100021C0F8A4100021FA
:1053D000C0F8A8100021C0F8AC100021C0F8B0102F
:1053E0000021C0F8B4100021C0F8B8100021C0F8A6
:1053F0008C10704702000123D2F89400086000204E
:10540000704702000123D2F8B00008600020704706
:10541000F8B504000D000126280403D50120C4F8C6
:10542000900002E00020C4F89000680403D5012039
:10543000C4F8940002E00020C4F89400E80403D506
:105440000120C4F8980002E00020C4F89800280564
:1054500003D50120C4F89C0002E00020C4F89C00A1
:10546000A80503D50120C4F8A00002E00020C4F87C
:10547000A000E80503D50120C4F8A40002E0002044
:10548000C4F8A400280603D50120C4F8A80002E04F
:105490000020C4F8A800680603D50120C4F8AC00B9
:1054A00002E00020C4F8AC00A80603D50120C4F82F
:1054B000B00002E00020C4F8B000E80603D50120E7
:1054C000C4F8B40002E00020C4F8B40000272900AA
:1054D000200000F002F83800F2BD02000123002095
:1054E000704770B504000D0001262A000821200035
:1054F00000F05FF970BD00007CB504000D000126CE
:10550000002000906A460921200000F052F99DED2C
:10551000000AB8EE400ADFED510A80EE200A85ED60
:10552000000A76BD7CB504000D0001260020009025
:105530006A460A21200000F03CF9009948F2010275
:10554000914206D3009901F17F4111F57F01296055
:1055500001E00099296076BD70B504000D000126B8
:105560002A000F21200000F024F970BD70B504005E
:105570000D0001262A001021200000F01AF970BD4C
:1055800070B504000D0001262A001121200000F052
:1055900010F970BDF8B504000D0001262A0016218F
:1055A000200000F006F9070029682000FFF730FF0F
:1055B000F2BD38B504000125200000F003F8010019
:1055C000002032BD70B50500012615F15C012800F0
:1055D000FFF7E0FF0400002C3DD115F12C0128005D
:1055E000FFF77FFF0400002C35D115F130012800B2
:1055F000FFF782FF0400002C2DD115F134012800A3
:10560000FFF790FF0400002C25D115F14801280078
:10561000FFF7A2FF0400002C1DD115F14C0128005A
:10562000FFF7A4FF040095ED120AB8EE400ADFED83
:105630000C0A20EE200AD5ED130AF8EE600A80EE7F
:10564000200A85ED230A002C05D115F15001280010
:10565000FFF796FF0400002070BD000000007A44B0
:105660000000C84210B4030001240800C0B20028A2
:1056700030D0012831D0022832D0032833D004287A
:1056800034D0052835D0062836D0072837D008284A
:1056900038D00B2839D00C283AD00D283BD00E2812
:1056A0003CD00F283DD010283ED011283FD01228E2
:1056B00040D0132841D0162842D0172843D01828AC
:1056C00044D0192845D01A2846D01B2847D01C287A
:1056D00048D04AE0D868106047E01869106044E09C
:1056E0005869106041E0986910603EE0D869106028
:1056F0003BE0186A106038E0586A106035E0986A3C
:10570000106032E0D86A10602FE0986B10602CE0D7
:10571000D86B106029E0186C106026E0586C10609F
:1057200023E0986C106020E0D86C10601DE0186DCC
:1057300010601AE0586D106017E0986D106014E06A
:10574000D86D106011E0186E10600EE0586E106099
:105750000BE0986E106008E0D86E106005E0186FDE
:10576000106002E0586F1060FFE7002010BC704727
:1057700010B4030001240800C0B20A2802D1586BFB
:105780001060FFE7002010BC704730B40300012414
:1057900000200D00EDB2092D02D0242D03D006E02B
:1057A0001C6B146003E0D3F88C401460FFE730BC3E
:1057B000704773B50400150001262B0001AAA168EB
:1057C000C9B2206808F07EF8002076BD10B504004C
:1057D000012280215FF09040FFF794FA01224FF4FC
:1057E00000412D48FFF78EFA012201212B48FFF7D7
:1057F00089FA200000F008F8200000F027F82000C7
:1058000000F037F8200010BD9FED1E0A80ED030A5E
:1058100080ED040A80ED050A90ED030ADFED1A0A17
:1058200080EE200A80ED030A90ED040ADFED170AEE
:1058300080EE200A80ED040A90ED050AF6EE000ADB
:1058400080EE200A80ED050A704700009FED100AE7
:1058500080ED0B0ADFED0F0AC0ED0C0AB1EE051A60
:1058600080ED0D1A80ED0F0AC0ED100A80ED111ABF
:10587000704710B5040004222100094808F093F98C
:1058800010BD00003333533A78F4CA3D6218063F26
:105890003333D3419A99C9400004004800080048B6
:1058A000D089012038B5040000200025042D11D234
:1058B00034F8150000EE100AB8EE400A04EB85003B
:1058C000D0ED020A20EE200A04EB850080ED060AE6
:1058D0006D1CEBE7200000F01AF831BDF8B50500AB
:1058E0000E00140000272800FFF7DCFF3000C0B2D4
:1058F000042809DA002C07D03000C0B205EB800084
:1059000080692060012000E00020C0B2F2BD0021CB
:105910000022042A26D200EB820191ED060A00EB58
:105920008201D1ED0E0AB4EE600AF1EE10FA12DB3C
:1059300000EB820191ED0A0A00EB8201D1ED060A2B
:10594000B4EE600AF1EE10FA05DB012100EB020370
:1059500083F8481004E0022100EB020383F84810AA
:10596000521CD6E7704710B4030000240800C0B2F0
:10597000042809DA002A07D00800C0B2184490F8B9
:1059800048001070012000E00020C0B210BC704739
:1059900010B4030000240800C0B2042808DA002A6A
:1059A00006D00800C0B233F810001060012002E0F9
:1059B000002010600020C0B210BC7047F8B50F4640
:1059C00000F0CDF810B142F6E16102E01CB945F6F5
:1059D000C3512980F1BD00F0BCF8064600F020F864
:1059E00005D1304608F0B4FB45F6C15016E0002161
:1059F00020602162616284F82810676004F1080069
:105A000008F09EFD204600F036F9DFF88802018894
:105A1000491C0180304608F09BFB00202880F1BD26
:105A20002168DFF87C028142704700002DE9F843CD
:105A30008946DFF86412089D04460878164610B1BE
:105A400046F2AE1148E0DFF854020278012A18BF8E
:105A500045F6896049D114B945F6C35045E0002E9A
:105A600018BFB6F5004F19D12168DFF834229142F2
:105A700017D100F06EF8DFF82C723968804694F880
:105A8000280088B9012084F828006162214638681E
:105A900000F010F900F060F8002026E045F62561DE
:105AA0001AE045F6C45020E0626A91420ED1FF2808
:105AB00004D100F051F845F2847016E0401C84F8DF
:105AC000280000F049F845F282700EE0330405D555
:105AD00000F042F846F2B011298038E0724B187895
