:020000040800F2
:1030000010040020C15E0008695C00086B5C0008C9
:103010006D5C00086F5C0008715C00080000000037
:10302000000000000000000000000000755C0008C7
:10303000735C000800000000775C0008795C000801
:10304000815C0008835C0008855C0008875C0008E0
:10305000895C00088B5C00088D5C00088F5C0008B0
:10306000915C0008935C0008955C0008975C000880
:10307000995C00089B5C00089D5C00089F5C000850
:10308000A15C0008A35C0008A55C0008A75C000820
:10309000A95C0008AB5C0008AD5C0008AF5C0008F0
:1030A000B15C0008B35C0008B55C0008B75C0008C0
:1030B000B95C0008BB5C0008BD5C0008C55C00088A
:1030C000CD5C0008CF5C0008D15C0008D35C000830
:1030D000D55C0008D75C0008DF5C0008E15C0008F4
:0C30E000E35C0008E55C0008E75C000809
:1031000001722447FFFFFFFF785E00080000000007
:1031100000000000000000000000000000000000AF
:1031200000B585B01F208DF8000009208DF8010042
:1031300000208DF8020001208DF80300684600F0A1
:1031400016FA0121012000F0C9FB00215FF0804048
:1031500000F0ADFC4FF6FF715FF080408185C04606
:1031600000215FF080408184C0460020ADF8060059
:103170000020ADF808000120ADF80A000020ADF8ED
:103180000C0003208DF80E0001A95FF0804000F0D4
:103190001BFC30215FF0804000F092FC0021DFF842
:1031A000500300F084FC4FF6FF71DFF84403818583
:1031B000C0464FF6F071DFF838038184C046102115
:1031C000DFF82C0300F06AFC00234FF400420021DA
:1031D000DFF81C0300F052FC0721C54800F078FC22
:1031E0000121C44800F084FD0121C34800F080FDA6
:1031F0000121BF4800F028FC01215FF0804000F071
:1032000023FC40F26F40BD4908800020BC49088083
:103210000020BC4908800420BB4908800020BB492D
:1032200008801E208DF8000007208DF80100002086
:103230008DF8020001208DF80300684600F097F930
:1032400001220121B04800F00DFC0121AE4800F040
:1032500082FC0121AC4800F0F7FB05B000BD72B65E
:103260000021AB4A1170AB4908600020AA490860F0
:10327000AA490860AA49086062B6704770B5012182
:10328000A14800F054FC012840F0C68001219E486E
:1032900000F061FC002472B65FF08040808EC04672
:1032A00005009348808CC04604005FF08040808E0B
:1032B000C04606003000290080B289B2884204D09E
:1032C0008B48808CC0460400350062B628009549C2
:1032D000098880B2884205D292480088281A92490B
:1032E000088004E08F480088281A8F490880200051
:1032F0008E49098880B2884205D28C480088201AFD
:103300008B49088004E089480088201A8849088091
:10331000844805808548048080480068844909887D
:1033200008187E4908607C4800687F4909880818A9
:10333000794908607A480068401C794908607848F3
:10334000006874490968884249D3002074490860BC
:103350007148006800282FD0704800680021C10023
:1033600000206D4A12686C4B1B6813EBC2020023ED
:1033700000F0E4FC6F49704A127812F0030241F841
:1033800022006D480068401C6B4908600020002145
:1033900004E0684A52F821201018491C0429F8D387
:1033A0008008664908605C480068644988605B483A
:1033B00000686249C86008E0002060490860002099
:1033C0005E49886000205D49C8600020534908605C
:1033D000524800685049086001204D49087058481B
:1033E000006844F2C041884212D255480068401C2F
:1033F0005349086052480068800504D5102151489F
:1034000089B2016108E010214E4889B2416103E0B0
:1034100010214C4889B2416170BD80B5072301225B
:103420000100C9B2484800F081FD0121464800F082
:1034300070FD01BD80B51120FFF7EFFF01BD00B5A4
:1034400085B001214FF4007000F048FA3E4800F0CA
:10345000EDFC0020009000208DF8040000208DF885
:1034600005005FF4602002900020039001208DF899
:1034700010006946344800F0FAFC0121324800F09F
:103480001DFD012000F0B4FD2F4800F024FD2E4862
:1034900000F026FD0028FAD12B4800F02BFD2A4829
:1034A00000F02DFD0028FAD1FFF7C4FF05B000BDE4
:1034B00010B55FF0FF340221234800F0B5FD00286D
:1034C00012D02148C06C80B2040002211E4800F0D6
:1034D000B6FD1120FFF7A1FF24B2002C04D05FF449
:1034E000960024B290FBF4F4200000B210BD00005E
:1034F0000004004000011800000230002C080040C9
:103500002408004028080040000800400C08004043
:103510009137002008000020643700206037002029
:103520006837002086370020883700208A3700203F
:103530008C370020383700206C37002028370020D7
:1035400070370020000C01400024014080B500F0DD
:103550007DFD40F6B831884201DA012000E000200C
:1035600002BD00004A4908434A490860704710B448
:1035700000210022002300220F2390F903100029CC
:1035800034D04449096811F4E061D1F5E061090AD9
:10359000D1F10402CB404178914082781A40114326
:1035A0000901027812F00302D2B2D2009140364AE9
:1035B00003789B1052F82320FF23047814F00304AF
:1035C000E4B2E400A3409A4319400A432E49037829
:1035D0009B1041F823200121027812F01F02914034
:1035E0002E4A0078401142F8201009E001210278AB
:1035F00012F01F029140234A0078401142F8201037
:1036000010BC7047264A11400843204908607047A3
:10361000244820490860704770B40024FF25002624
:1036200000231C4B1B6813F4E063D3F5E0631B0A13
:10363000D3F10404DD40C9B211FA04F3D2B215EAA1
:1036400002010B431B0110F0C004A409C0F30125C3
:103650002800C0B2C0008340FF20EDB2E90010FA9C
:1036600001F60D4850F82400B0430B4941F82400FE
:10367000094850F824001843074941F8240070BC59
:103680007047000080E100E000E400E008ED00E0A9
:103690000000FA050CED00E018ED00E000E100E0AC
:1036A00080FFFF1F0400FA050020DFF8D012086039
:1036B0000020DFF8CC1208601420DFF8C812086080
:1036C0000020DFF8C41208600020DFF8C012086094
:1036D000DFF8BC02006850F00100DFF8B4120860A7
:1036E000DFF8B0020068DFF8B0120840DFF8A4127B
:1036F0000860DFF89C020068DFF8A0120840DFF8DD
:1037000090120860DFF88802006830F48020DFF84B
:1037100080120860DFF87C02006830F4FE00DFF8F9
:10372000741208600020DFF8781208607047DFF834
:103730006012096831F48031DFF854221160DFF83B
:103740005012096831F48021DFF844221160B0F58D
:10375000803F03D0B0F5802F09D011E0DFF83002B0
:10376000006850F48030DFF82812086008E0DFF8C5
:103770002002006850F4A020DFF814120860FFE770
:10378000704780B5312000F0D9F8DFF818120870C2
:10379000DFF814020068401CDFF80C120860DFF844
:1037A000040290F90000002804D1DFF8FC01006851
:1037B000FF28E7D1312000F0C1F8002801D0012016
:1037C00000E0002002BD00217249096889088900D3
:1037D000014370480160704700216E49096831F06B
:1037E000F00101436B480160704700216949096895
:1037F00031F4E06101436748016070470021654989
:10380000096831F4605151EAC001624801607047B3
:1038100000216049096831F4404101435D4801607D
:10382000704700210021002200215A49096811F047
:103830000C01002904D0042905D0082906D021E074
:103840005B49016020E05B4901601DE05149096866
:1038500011F47011890C891C4E4A126812F48032DE
:10386000002A03D1544A514301600AE0494A1268D0
:10387000920303D54E4A5143016002E04D4A514341
:10388000016001E04A4901604249096811F0F00114
:1038900009094A4A515C0268CA4042603D490968C8
:1038A00011F4E061090A454A515C4268CA408260ED
:1038B0003849096811F46051C90A404A515C4268AC
:1038C000CA40C2603349096811F44041890B3C4A3F
:1038D000515CC268B2FBF1F10161704749B2002945
:1038E00005D02949096808432749086005E02649A9
:1038F000096831EA000024490860704749B200298C
:1039000005D02249096808432049086005E01F499D
:10391000096831EA00001D490860704749B2002972
:1039200005D01649096808431449086005E01349A1
:10393000096831EA0000114908607047002100223F
:1039400000210100C9B24909C9B2012902D11049B7
:103950000A6806E0022902D114490A6801E01949FF
:103960000A68C0B210F01F01CA40D00701D501217A
:1039700000E00021080040B2704700000C10024037
:103980001010024014100240181002401C10024097
:1039900000100240041002400000FFF8FFFFF6FE96
:1039A0000810024093370020783700202010024092
:1039B00000127A000024F40000093D00A05E000817
:1039C000CC5E00082410024038B504000D002888A1
:1039D000072834D1688800280AD1AB7AEA88A988F8
:1039E000200000F003F92989200000F07AF82AE08D
:1039F000688801280AD1AB7AEA88A988200000F0FB
:103A000015F92989200000F075F81CE06888022863
:103A10000AD1AB7AEA88A988200000F028F9298920
:103A2000200000F071F80EE0AB7AEA88A988200047
:103A300000F03DF92989200000F06FF803E029002B
:103A4000200000F08DF831BD49B2002904D0018872
:103A500051F00101018004E0018840F2FE32114082
:103A60000180704752B2002A03D0828911438181BC
:103A700003E0828932EA01018181704710B4002499
:103A8000048914F0F70489B292B21143DBB21A022E
:103A900092B211430C43048110BC7047002202898A
:103AA0004FF687731A4089B20A4302817047002299
:103AB000028840F28F331A4089B20A43028070476D
:103AC0000022828812F0800289B20A438280704705
:103AD000002202894FF6F0731A4089B20A4302812C
:103AE00070470022028B4FF6F3731A4089B20A43E3
:103AF000028370470022028B4FF2FF331A40090203
:103B000089B20A43028370470022828B4FF6F37317
:103B10001A4089B20A43828370470022828B4FF297
:103B2000FF331A40090289B20A4382837047002298
:103B300000220023028A0A40808911EA000392B21F
:103B4000002A04D09BB2002B01D0012200E0002209
:103B5000100040B27047028A32EA010101827047C8
:103B6000F8B504000D0000260127A888002801D11F
:103B7000022600E00026E888012801D1022700E0A3
:103B800001276888002818D1AB7AEA88A988200024
:103B900000F02CF829892000FFF7A3FFAB7AFFB2D1
:103BA0003A0092B2F6B2310089B2200000F03EF83D
:103BB00029892000FFF79EFF17E0AB7AEA88A988E1
:103BC000200000F033F829892000FFF793FFAB7A3B
:103BD000FFB23A0092B2F6B2310089B2200000F092
:103BE00005F829892000FFF77CFFF1BDF0B400241F
:103BF0000025048B058C068C43F232373E40068448
:103C00004FF60C76344092B2DBB21B019BB21A43E2
:103C1000144343F23032154089B251F001010D4393
:103C20000021018304830584F0BC7047F0B40024B4
:103C300000250026048B058C0E01B6B2018C43F2E0
:103C400023373940018440F6FF410C40DBB21903B1
:103C500089B20C43110289B20C4343F203310D4087
:103C600056F010010D4304830584F0BC7047F0B496
:103C7000002400250026848B058C0E02B6B2018C30
:103C800043F23327394001844FF60C710C4092B255
:103C9000DBB2190189B211430C4343F233010D40E9
:103CA00056F480710D4384830584F0BC7047F0B4F2
:103CB000002400250026848B058C0E03B6B2018CEF
:103CC00042F233373940018440F6FF410C40DBB209
:103CD000190351EA022189B20C4340F233310D40FD
:103CE00056F480510D4384830584F0BC7047000076
:103CF00030B400220023002400230F4A1468C0F3CC
:103D0000034382B2850202D534F0E06407E0C502C5
:103D100004D5032515FA03F39C4300E0944349B20C
:103D2000002905D0800202D554EA024400E0144381
:103D30000148046030BC7047040001401B4213D1AD
:103D4000094236D12AB18446B0FBF2F002FB10C220
:103D5000704700F0C5B9FCD30022002370470B0068
:103D60000200002100207047904271EB030CF6D353
:103D700070B5B1FA81F4B3FA83F52C1BA340C4F1FA
:103D8000200532FA05F63343A2405FF00046E640D4
:103D900002E05B085FEA3202841A71EB030524BF7C
:103DA000204629467641F4D302000B003000002162
:103DB00070BD012ACFD970B5140C20D0B1FA81F4AE
:103DC000B2FA82F5C4F120046419B4F12006D6D306
:103DD000B2405FF00044F440002502E052085FEA80
:103DE0003303C61A71EB020E24BF3046714664419C
:103DF0006D41F3D302000B002000290070BD0C467A
:103E0000B1FBF2F102FB11452D0445EA1045B5FB6B
:103E1000F2F402FB145580B240EA0545B5FBF2F01E
:103E200002FB105240EA044070BD000080B5DFF88C
:103E3000E411884204D0DFF8E01188420BD015E08D
:103E400001214FF40070FFF769FD00214FF400706D
:103E5000FFF764FD0AE001214FF48060FFF75EFD8B
:103E600000214FF48060FFF759FDFFE701BD30B43A
:103E7000002200234268DFF8A44122400C6891F937
:103E8000045054EA0524224342608268DFF89041DE
:103E90002240CC688D682C4391F9055054EA4504C2
:103EA00022438260C26A32F47002097C491E0B43CD
:103EB000DBB252EA0352C26230BC704749B20029F9
:103EC00004D0816851F00101816003E081684908F4
:103ED000490081607047816851F008018160704736
:103EE00000218068000701D5012100E000210800C1
:103EF00040B27047816851F0040181607047002131
:103F00008068400701D5012100E00021080040B28F
:103F1000704749B2002904D0816851F4A001816042
:103F200003E0816831F4A00181607047F0B400249F
:103F30000025C9B20A2911DBC4680725B1F10A06B8
:103F400003277E43B540AC43DBB2B1F10A0503263B
:103F5000754313FA05F52C43C4600EE00469072588
:103F6000032606FB01F6B540AC43DBB2032505FB97
:103F700001F513FA05F52C430461D2B2072A10DAD1
:103F8000446B1F23551E0526754313FA05F5AC43F4
:103F9000C9B2521E05235A4311FA02F52C43446359
:103FA00024E0D2B20D2A10DA046B1F23D51F052698
:103FB000754313FA05F5AC43C9B2D21F05235A4322
:103FC00011FA02F52C43046310E0C46A1F23B2F116
:103FD0000D050526754313FA05F5AC43C9B20D3A34
:103FE00005235A4311FA02F52C43C462F0BC704712
:103FF00040B2002806D00B48006850F40000094980
:10400000086005E00748006830F4000005490860D2
:10401000704700000024014000280140FFFEF0FF2F
:10402000FDF7F1FF0824014000220068C9B20842F0
:1040300001D0012200E00022100040B27047026867
:10404000C9B232EA010101607047000020480088CF
:10405000704780B51F480068411C1E4A1160B0F5CA
:10406000FA7F0BD900201B490860FFF721FA00B244
:10407000002801D416490880FFF7DCF916480068CB
:10408000FA2807D100201449086000F017F900F061
:1040900022F904E010480068401C0F49086001BD87
:1040A00080B5002000F0F7F97FF0040000F0CAF9B5
:1040B00040F2F31000F0D6F9012000F0ECF90120F5
:1040C00000F0D3F900220A210448FFF7A5FA01BD48
:1040D00084370020483700204C3700209AC3020064
:1040E0007047000000B585B0684600F059FA01211C
:1040F000DFF8180300F064FA0121DFF8100300F084
:10410000A0FA0021DFF8040300F09BFA0020ADF8CC
:1041100000004BF6FF70ADF802001220ADF804006D
:104120004FF48060ADF806004FF48040ADF8080011
:10413000B74803906946B54800F0C4F905B000BD22
:1041400000B585B0684600F02BFA0121AF4800F0B9
:1041500037FA0121AD4800F074FA0021AB4800F0B5
:1041600070FA0020ADF800004BF6FF70ADF80200C9
:104170001220ADF804004FF48060ADF806004FF453
:104180008040ADF80800A248039069469F4800F0BF
:1041900099F901219D4800F021FA9E499B4800F0C1
:1041A0005DFA0028F9D09C49984800F06AFA012885
:1041B00001D1002073E000229021944800F036FAEB
:1041C0009649924800F04AFA0028F9D092498F485F
:1041D00000F057FA012801D1002060E001218B484E
:1041E000C9B201828E49894800F038FA0028F9D016
:1041F0008949864800F045FA012801D100204EE0A7
:1042000006218248C9B201828549804800F026FA19
:104210000028F9D080497D4800F033FA012801D107
:1042200000203CE003217948C9B201827C497748EB
:1042300000F014FA0028F9D07749744800F021FA08
:10424000012801D100202AE00121704800F0D4F9B2
:1042500001216E4800F0C2F96E496C4800F0FEF989
:104260000028F9D000229021684800F0DFF96B495E
:10427000664800F0F3F90028F9D000216348C9B27C
:1042800001826749614800F0E9F90028F9D001216D
:104290005E4800F0B1F9012062490870012005B0C4
:1042A00000BD80B501224FF40071584800F0B2F90A
:1042B0004FF40071554800F013FA01BD012059492F
:1042C0000870704780B50121504800F095F908202A
:1042D0005449087001BD10B500204FF400714B48DF
:1042E00000F0FEF95048008880B250490C88A4B212
:1042F0002404204320F07F444748044203D0464929
:10430000424800F0D0F94A48044206D0FFF7EAFEDE
:10431000FFF7C7FF012043490870424890F90000A9
:10432000002869D0012806D003281AD0042833D0E9
:10433000062841D061E00021344800F08FF90028C0
:1043400007D00121314800F049F9032035490870B0
:1043500006E0FFF7C7FEFFF7A4FF01203149087010
:1043600052E034480440002C0ED004202D4908703F
:104370002648008850F4806024490880012290215A
:10438000224800F053F906E0FFF7ACFEFFF789FF83
:1043900001202449087037E014F44034002C03D085
:1043A00006202049087006E0FFF79CFEFFF779FF22
:1043B00001201C49087027E01F4804421BD0FFF76A
:1043C00081FF1248008AC0B21C4948700F48008A19
:1043D000C0B21A4908701948B0F90000002802D587
:1043E0000020164908801548B0F9000014494860BB
:1043F00001200C49087007E006E0FFF773FEFFF7A5
:1044000050FF01200749087010BD00000054004013
:10441000A086010001000300004000108200070098
:1044200084000700923700201454004018540040C4
:10443000000100100100002004000060743700201B
:1044400028370020042806D11B48006850F00400DB
:104450001949086005E01848006830F00400164962
:1044600008607047154908607047002803D1002094
:10447000134908600EE0012806D10F48006850F08B
:1044800001000D49086005E00B4800684008400045
:1044900009490860704740B2002806D00648006805
:1044A00050F002000449086005E00348006830F05D
:1044B000020001490860704710E000E014E000E0ED
:1044C00018E000E02DE9F04186B004000D00002660
:1044D00000270420DFF8BC80A6884FF6C070064095
:1044E0006846FFF79EF9DDF808802B48B8FBF0F727
:1044F0003E43A6800021200000F062F80026E86814
:10450000264988420BD2E8684000B8FBF0F080B240
:10451000042800DA04200643781C208423E06888FD
:104520004BF6FF71884205D1E86803214843B8FB88
:10453000F0F006E0E86819214843B8FBF0F050F4C9
:104540008040010501D150F0010050F400400643C5
:10455000BFB24FF4967000FB07F04FF47A7190FBF6
:10456000F1F0401C2084A6830121200000F028F8EF
:1045700026884FF6F53006402888E9880843064328
:1045800026802889A9880843208106B0BDE8F081EB
:1045900000000000001BB70040420F00A186010090
:1045A000002101804BF6FF714180002181800021B4
:1045B000C1804FF48041018141F28831C160704770
:1045C00049B2002904D0018851F00101018004E0C2
:1045D00001884FF6FE7211400180704749B20029F0
:1045E00004D0018851F48071018004E001884FF605
:1045F000FF6211400180704749B2002904D0018850
:1046000051F40071018004E001884FF6FF5211401F
:104610000180704752B2002A03D082881143818002
:1046200003E0828832EA010181807047D2B2002A19
:1046300002D051F0010101E011F0FE01C9B2018286
:10464000704749B2002904D0018851F4004101802B
:1046500003E001884904490C0180704700220022D0
:1046600000230022828A038B1B0453EA020020F0FD
:104670007F428A4201D1012200E00022100040B2B4
:1046800070470022002200220023828A038B1B0431
:104690001A4321F07F410A4201D0012200E00022AA
:1046A000100040B270470022002321F07F420B0F20
:1046B000DBB2012B03D1818A914381820FE0DBB20F
:1046C000022B01D1808A0AE0DBB2062B05D1818A58
:1046D000018851F00101018001E0818A008B70475F
:1046E0000022002321F07F420B0FDBB2012B03D10C
:1046F000818A914381820FE0DBB2022B01D1808A53
:104700000AE0DBB2062B05D1818A018851F0010154
:10471000018001E0818A008B704700000121C0B256
:10472000B0F130020A2A00D20021C0B2B0F1610219
:10473000062A03D3C0B24138062800D2002108005F
:10474000C0B270472DE9F84F04000D001600002795
:104750005FF000085FF000090BE05FFA8BFBBBF134
:10476000300010EB0A0A1FFA89F905F809A019F1BF
:1047700001094846210080B289B2884238D200F04F
:10478000DDF900F090FA83461BEB07075846C0B2EC
:10479000FFF7C4FF002801D05FF001085FFA8BFB30
:1047A000BBF13A0F04DB5FFA8BFBBBF1370003E090
:1047B0005FFA8BFBBBF13000C0B25FEA001A00F079
:1047C000BDF900F070FA83461BEB07075846C0B2EC
:1047D000FFF7A4FF002801D05FF001085FFA8BFB10
:1047E000BBF13A0FB9DB5FFA8BFBBBF13700B8E7DF
:1047F00000F0A4F937704046C0B2BDE8F28F10B5A2
:1048000082B000246A4680B2FFF79CFF0400BE48D5
:1048100090F90000002808D000F045FA9DF800103B
:10482000C0B2814201D054F001042000C0B216BDD4
:10483000F0B5C1B007000C001500002621003800BB
:1048400000F07AFB002804D000F08BFD00F0DFFDC3
:1048500039E00DE0401CFF2808D86946095CC21900
:104860001278D2B29142F5D056F0040617F580774F
:10487000BC421BD32800C0B200F05AFD69464FF479
:104880008070FFF7BCFF0643F6B2002E0ED100F099
:1048900055F94FF48071684600F080FB064300F044
:1048A0004DF9F6B2002E01D10020D4E700F0ADFBA7
:1048B0000643F6B2002E04D12800C0B200F038FD45
:1048C00001E000F04EFD41B0F0BD80B5CC2000F01D
:1048D0002FFD69460420FFF792FF002802D000F068
:1048E00040FD02E0CC2000F023FD01BD2DE9F041A8
:1048F000C2B0040000250026002100275FF0000858
:1049000000208DF80000002003E0FF217F4A1154B1
:10491000401CB0F5405FF8D300F010F97D20FFF7A0
:104920000DF800280ED17E20FFF708F8002809D1E5
:104930002000C0B200F0FCFC04E02000C0B200F097
:10494000F7FC00255FF0000800F0ADF93A28FBD134
:104950006A460DF101010120FFF7F4FE50EA080854
:104960006A4601A90220FFF7EDFE50EA08086A46F0
:104970000DF102010120FFF7E5FE50EA08086A4642
:1049800002A99DF8010080B2FFF7DCFE50EA08089A
:104990006A460DF103010120FFF7D4FE50EA080832
:1049A00000F081F90A28FBD100F0C8F800209DF83A
:1049B000011000290CD0002104E002AAC9B2525C07
:1049C0001018491C0A009DF80130D2B29A42F4D363
:1049D0009DF801109DF8022051189DF804205118EF
:1049E0009DF8052051180818C043401C9DF804107C
:1049F00009029DF8052051189DF80320C0B290428D
:104A000059D15FFA88F8B8F1000F54D19DF802002F
:104A100000282DD0012802D004281DD08DE73C4865
:104A2000002F16D000683B49884212D13A495FF006
:104A3000006000F081FA4FF44051344800F0AEFAC3
:104A400000F0E3FA2000C0B200F072FCFEF7E0FDD7
:104A5000FEE700F086FC74E79DF8086036029DF8DA
:104A60000900861936042000C0B200F061FC68E736
:104A7000881910F178478819B0F10060B0F5405FEF
:104A800003D3952000F054FC14E0002001E000273F
:104A9000401C9DF80110884208D2B7F5405FF6D25D
:104AA00002A9095C194AC319D154F1E72000C0B228
:104AB00000F03EFC45E700F054FC6D1CEDB2062D05
:104AC000FFF640AF012000F033FCFEF7A1FD39E70F
:104AD00080B5002000901149114800F04FFA0421E0
:104AE000684600F05BFA002806D100F08EFA00F06C
:104AF00025F8FEF78DFDFEE700F033FC00F087FCA3
:104B000000F01CF801BD00008F37002010040020C9
:104B10001005002001733447FF2F000803310008FF
:104B20000031000880B20A4908607047C0B20949E4
:104B30000860704780B20849086070474AF6AA20AA
:104B40000349086070474CF6CC4001490860704743
:104B500000300040043000400830004010B540F202
:104B60002551DFF8A80300F082FD00281DD0DFF8F2
:104B7000A0030468601CDFF898130860DFF88C035A
:104B800000F071FDDFF88C130855DFF8840300682E
:104B9000B0F5007F03D30020DFF87413086040F203
:104BA0002551DFF8680300F090FD40F22771DFF82F
:104BB0005C0300F05CFD002833D0DFF85C03007874
:104BC00000280FD0DFF854030078411CDFF84C2395
:104BD0001170DFF84C13C0B2095C89B2DFF82C0306
:104BE00000F03DFD40F22771DFF8200300F06DFD7D
:104BF000DFF828030078DFF820130978884210D105
:104C0000002240F22771DFF8040300F003FD0020CA
:104C1000DFF804130870DFF800030078DFF8FC12F7
:104C2000087040F22661DFF8E40200F020FD002861
:104C30000CD040F22661B54800F047FDDFF8DC02F9
:104C40000078002802D10120B649087010BD70B567
:104C500004004FF4D2760BE05FF08040808CC046B9
:104C6000401B310080B289B28842F5D3FFF766FF5E
:104C70002000441E002806D05FF08040808CC04693
:104C800005000020EDE770BDA7480068A049086056
:104C900070479F480068A4490968884201D10020F4
:104CA00000E00120704780B5FFF7F3FF0028FBD03C
:104CB00098489D490968405C9B490968491C9A4A83
:104CC000116099490968B1F5007F02D30021964A25
:104CD0001160C0B202BD80B502E0FFF72FFF20BF18
:104CE000FFF7D7FF0028F8D00520FFF7B0FF89486D
:104CF0008D490968405C8C490968491C8A4A1160E1
:104D000089490968B1F5007F02D30021864A116004
:104D1000C0B202BD10B504007FF0010000E020BF6A
:104D2000804890F900000028F9D0FFF7ADFF00207F
:104D30007C4908707A4804707C48007820187B49C8
:104D40000870012074490870012240F227716F48F1
:104D500000F060FC00E020BF724890F900000028DD
:104D6000F9D00120FFF773FFFFF79DFFE4B2A042E7
:104D700001D1002001E05FF0FF3010BD70B50400EC
:104D8000002500206949087094F90060641C300017
:104D9000C0B2FFF7BFFF002801D0082502E076B2BD
:104DA000002EF1D1624890F90000002803D05F483E
:104DB0000078FFF7AFFF280070BDF0B583B0002189
:104DC000C0F30114E4B20022584B1A70042C80F096
:104DD0009980584A52F824200092002C01D0022CCD
:104DE00007D1009AB2F1806F03D35FF04C4100917C
:104DF00033E0012C08D1009A47F6FF739A4203D39F
:104E00005FF04C41009128E0009A002A22D0002C4B
:104E100003D1009A9208009204E0012C02D1009A7A
:104E200012020092002209E0090A009B1B0613F0FF
:104E3000FE431943009BDB090093521C042AF3D361
:104E40000091009921F070410091009951F0484182
:104E5000009102E05FF0404100910099C0B251EA38
:104E6000006000906E46F61C0025002700E07F1CC5
:104E7000042F10D2FFF762FEFFF70BFF002803D0CC
:104E8000FFF702FF102506E03078FFF743FF761E9C
:104E90000028ECD00825022C2AD1EDB2002D27D114
:104EA0002448C068ADF80400BDF8040010F07F008D
:104EB000BDF80410490011F4FE410843ADF80400A8
:104EC00001AE761C002400E0641C022C10D2FFF717
:104ED00035FEFFF7DEFE002803D0FFF7D5FE1025D4
:104EE00006E03078FFF716FF761E0028ECD0082584
:104EF0000F4890F90000002805D00C480078FFF713
:104F000009FF00E02025EDB22800FEBD0038014079
:104F10007C37002010340020943700209537002083
:104F2000103600200C000020803700209037002031
:104F30008F37002028370020F8B504000D003520F9
:104F400000F0BDFA00F058FA002627000BE0380008
:104F500000F066FA042802D0002E00D13E0017F5BA
:104F60008067FFF7EBFDAF42F1D3002034490860C2
:104F700034480460344805603000F2BD38B50400A0
:104F80000D00352000F09BFA00F036FA00202C4985
:104F900008602C4804602C48056031BD70B50400E1
:104FA0000D0000260AE027480068801C254908609B
:104FB000002023490860FFF7C1FD761CAE4222DACB
:104FC000207822491E4A12688854641C1C480068D4
:104FD000401C1B4908601A4800680228EBD31A4895
:104FE000006818490968884202D25FF0FF300BE080
:104FF000164801881348006800F041FA0428D2D00E
:105000005FF0FF3000E0002070BD80B50C48006804
:10501000012811D1FF200D4948700A4800680A494B
:105020000968884205D2094801880648006800F0EE
:1050300026FA00200249086000F0E9F9002002BDCC
:1050400054370020583700205C37002050370020AC
:1050500010B50400DFF8400390F9000000280ED0DE
:10506000FFF721FEE4B2A04206D00520FFF7EFFDD6
:1050700000F077F9002003E00520FFF7E8FD0120AC
:1050800010BD38B500240025FFF725FE0400FFF70A
:1050900055FDE4B2C02C22D0C0F04181C22C4FD0CB
:1050A0003BD3C42C60D057D3C62C71D068D3C82C46
:1050B00000F09280C0F08880CA2C00F0CD80C0F053
:1050C0009380CC2C00F0FF80C0F0D980CE2C00F073
:1050D0000A81C0F00081CF2C00F014811FE1C020B4
:1050E000FFF7B6FF002817D00020DFF8AC120870D9
:1050F0002000C0B200F01CF9FFF7D5FD0C2806D146
:105100002000C0B200F014F9C020FFF7EFFB05202B
:10511000FFF79DFD00F025F906E1C120FFF798FF9C
:1051200000280CD000209C4908702000C0B200F07C
:10513000FFF8FFF7B8FD0C2801D1FFF7C9FCF3E039
:10514000C220FFF785FF002805D02200D2B2934984
:105150009348FFF76DFBE7E0C320FFF779FF0028D6
:1051600001D000F01CFCDFE0C420FFF771FF002835
:1051700005D02200D2B28B498B48FFF759FBD3E010
:10518000C520FFF765FF002801D000F021FCCBE02F
:105190008648047001250BE0FFF7D0FCFFF783FD84
:1051A0008249EDB248558148EDB2405D04196D1C4D
:1051B000EDB2082DF0DB2000C0B2FFF749FF002858
:1051C00001D000F0BEFAAFE0C720FFF741FF002892
:1051D00001D000F09EFBA7E0C820FFF739FF0028B0
:1051E00001D000F091FB9FE070480470FFF7A6FC2F
:1051F000FFF759FD6D494870FFF755FD6B49887001
:10520000FFF79CFCFFF74FFD68490871FFF74BFD66
:1052100066498871FF206549C870FF20634948715D
:10522000FF206249C871FFF789FC604800785F4938
:10523000497808185D49897808185C49097908187F
:105240005A4989790C182000C0B2FFF701FF0028E5
:1052500001D000F010FB67E0CA20FFF7F9FE00283C
:105260000CD01020FFF7F3FCFEF770F9002802D0F5
:1052700000F084F802E0CA2000F05AF854E0FFF78A
:1052800012FD0500B5F13500C0B2FFF7E1FE0028C0
:1052900018D0EDB2022D10DAEDB2012D03D10120AC
:1052A0003D49087002E000203B4908700520FFF7E7
:1052B000CEFCCB2000F03CF804E00520FFF7C7FC53
:1052C00000F04FF830E0CC20FFF7C2FE002801D0FC
:1052D000FFF7FBFA28E0CD20FFF7BAFE002801D047
:1052E00000F08FFB20E0CE20FFF7B2FE002808D0B0
:1052F0000520FFF7ACFCCF202D490870CE2000F030
:1053000017F811E0CF20FFF7A3FE002806D00520F4
:10531000FFF79DFC2648007800F00AF804E005201D
:10532000FFF795FC00F01DF800202249087031BD00
:1053300010B504008620FFF7EDFC14F03F042000B8
:10534000C0B2FFF7E7FC144890F90000002807D02E
:10535000B4F17A001749087016480078FFF7DAFCB4
:1053600010BD80B59520FFF7D5FC0B4890F90000E3
:10537000002802D09520FFF7CDFC01BD80B581202B
:10538000FFF7C8FC044890F90000002802D08120F3
:10539000FFF7C0FC01BD00008F370020FFFB0008B5
:1053A00000EC0008FFEB000800E800080000002007
:1053B0008E37002090370020DFF83811096811F08F
:1053C0003801DFF830211160DFF82811096808433F
:1053D000DFF8201108607047DFF81811096831F014
:1053E0001001DFF810211160DFF808110968084387
:1053F000DFF8001108607047DFF8FC00DFF8FC10F0
:105400000860DFF8FC00DFF8F41008607047DFF890
:10541000F400006850F08000DFF8E8100860704782
:1054200010B50400042040F6FF7000F071F840B29F
:10543000042822D1DFF8CC00006850F00200DFF829
:10544000C4100860DFF8C0000460DFF8B80000682E
:1054500050F04000DFF8AC10086040F6FF7000F03C
:1054600057F840B2012808D0DFF89810096841F6D3
:10547000FD721140DFF88C20116040B210BD38B5CC
:1054800004000D0004200F2000F042F840B2042870
:1054900013D11C48006850F001001A4908602580AB
:1054A0000F2000F035F840B2012806D015490968F0
:1054B00041F6FE721140134A116040B232BD80B213
:1054C000124908607047042010480068C00701D5E1
:1054D00001200CE00D480068400701D5022006E0DD
:1054E0000A480068C00601D5032000E0042040B24D
:1054F000704700000020024023016745042002405D
:10550000AB89EFCD10200240142002400C20024055
:1055100010B504000420FFF7D6FF04E000F00DF8FA
:10552000FFF7D1FF641E40B2012801D1002CF5D154
:10553000002C00D1052040B210BD81B000200090A9
:10554000FF20009002E00098401E00900098002884
:10555000F9D101B07047000030B585B004000D00EE
:105560000020002000210021208A4CF2FF01084089
:10557000E988EA8911432A8A11436A8A1143AA8A6F
:105580001143084320820020A0894EF6F311084001
:10559000A9882A891143AA8911430843A0810020C0
:1055A000A08A4FF6FF41084069890843A082002085
:1055B0006846FEF736F90F48844201D1039800E0AF
:1055C00002981921484329688900B0FBF1F1642051
:1055D000B1FBF0F000010209642303FB1211090181
:1055E00032316422B1FBF2F111F00F010843208146
:1055F00005B030BD0038014049B2002904D081898E
:1056000051F40051818104E081894DF6FF7211400F
:105610008181704730B400230024002400250B0052
:10562000DBB25B09DBB289B211F01F04012111FA70
:1056300004F40500012B01D10C3504E0022B01D14B
:10564000103500E0143552B2002A03D028682043F8
:10565000286002E02868A043286030BC7047C90574
:10566000C90D818070478088C005C00D704710B497
:1056700000220023002200220A00D2B25209D2B234
:1056800089B211F01F03012414FA03F3012A02D195
:105690008289134006E0022A02D1028A134001E007
:1056A000828A134089B20A0A92B2012111FA02F2E7
:1056B00000880240002B03D0002A01D0012200E024
:1056C0000022100040B210BC70470022002289B2B4
:1056D0000A0A92B2012111FA02F201889143018073
:1056E0007047000010B588B004006846DFF84C131E
:1056F000202200F0BBF96846E4B214F00F0130F844
:10570000110008B010BD10B588B004006846CC493F
:10571000202200F0ABF96846E4B214F00F0130F833
:10572000110008B010BD80B580B2FDF798FD02E011
:10573000FFF704FA20BFC34890F900000028F7D013
:1057400001BD30B585B0C048C078FFF7CBFFADF8DC
:105750000000ADF80800BC484079FFF7C3FFADF882
:105760000200ADF80A00B848C079FFF7BBFFADF8FA
:105770000400ADF80C00B44880780F21084206D12F
:105780000020ADF80000BDF80000ADF80800AE48FC
:1057900000790F21084206D10020ADF80200BDF8C3
:1057A0000200ADF80A00A84880790F21084206D10E
:1057B0000020ADF80400BDF80400ADF80C000F2087
:1057C000FFF7A1FF80B2FFF7AEFF1020FFF7F5FA59
:1057D000002836D005B030BD641CA4B2032C30DAEA
:1057E00002A8A4B230F814000028F5D06846A4B28C
:1057F00030F81400401E6946A4B221F8140068462F
:10580000A4B230F814000028E6D1A4B26000851CD0
:1058100002A8A4B230F814006946A4B221F814001A
:105820008948ADB2405DFFF76EFF80B2FFF77BFFA6
:105830008548ADB2405D10F03000FFF7BEFA002899
:10584000CAD0FFF77BF9FDF781FE002802D0FFF7F1
:1058500095FDBFE77C484078FFF755FF80B2FFF722
:1058600062FF7948407810F03000FFF7A6FA002870
:10587000B0D10024B1E738B50024734840788DF8E2
:105880000000714880788DF801006F4800798DF82C
:1058900002006D4880798DF80300FDF757FE00285F
:1058A00002D0FFF76BFD2EE0002500E06D1CEDB28D
:1058B000042D28DA6846EDB2405D0F210842F5D08C
:1058C0006846EDB2405D10F03000202800D1012480
:1058D0006846EDB2405D10F03000102802D164B28D
:1058E000012C07D06846EDB2405DFFF70CFF80B297
:1058F000FFF719FF6846EDB2405D10F03000FFF78A
:105900005CFA0028D2D031BD80B55048FFF736FA96
:1059100001BD00B589B04E48002100684D4A821A89
:1059200042F6FA739A420DD2002100E0491C1F2969
:1059300008D290F900206B465A54401C6A465256D1
:10594000002AF3D100206A4650546846FFF716FA41
:1059500009B000BD10B50400FFF7F0F82000C0B298
:105960000009C0B20A2801DA303000E03730C0B296
:10597000FFF7D0F9002801D001200FE014F00F004C
:10598000C0B20A2801DA303000E03730C0B2FFF789
:10599000C1F9002801D0012000E0002010BD10B5A1
:1059A00000202D4908702D4C00E0641C2C488442D6
:1059B00004D22078FFF7CEFF0128F6DB294890F9C2
:1059C0000000002803D024480078FFF7A3F910BD99
:1059D00010B5002020490870234C00E0641C1F48CB
:1059E000844204D22078FFF7B5FF0128F6DB1D487A
:1059F00090F90000002803D017480078FFF78AF9D3
:105A000010BD38B5002014490870002000906C4685
:105A1000002501E0641C6D1C042D05D22078FFF7E1
:105A200099FF0128F6DB08E00E4890F900000028F5
:105A300003D009480078FFF76DF931BD005E00081A
:105A4000205E000891370020000000208C5E0008D6
:105A500008010008010000089037002000EC000851
:105A600000FC00088F37002000E80008103A07D338
:105A700030B4B1E83810103AA0E83810F9D230BC90
:105A8000530724BFB1E80810A0E8081044BF51F83C
:105A9000043B40F8043BD20724BF31F8022B20F826
:105AA000022B44BF0B7803707047083A07D3B1E864
:105AB0000810083A40F8043B40F804CBF7D25307EB
:105AC000E4E7000080B572B600F03BF800F090F813
:105AD00000F070F85FF4E130534908604FF48050F3
:105AE0005149888000205049C8804FF4C0604E4919
:105AF000088100204C4948810C204B4988810020B6
:105B00004949C8810020484908824FF4007046493D
:105B1000488200204449888243494448FFF71CFDDD
:105B2000012240F225514148FFF774FD012240F265
:105B300026613E48FFF76EFD01213C48FFF75CFD02
:105B400001BD80B5FDF7B0FD5FF48030FDF7EFFDDE
:105B5000FDF717FE40B20128FAD140B2012816D154
:105B60001020FFF739FC0020FFF726FC9020FDF7FE
:105B700033FE0020FDF742FE4FF48060FDF735FE56
:105B80004FF48040FDF744FE0120FDF71CFE00218C
:105B900045F67D60FDF7A2FE00212548FDF7AEFE2B
:105BA000012144F21C00FDF799FE01212148FDF777
:105BB000A5FE01BD80B52048204908602048214944
:105BC00008602148214908602148224908605FF0A7
:105BD0008830214908604FF6C070204908600121D3
:105BE0001F48FEF785F801211A4889B2416101BDBD
:105BF00080B51C4820F07F415FF00060FDF702FD9A
:105C00004FF4A060FDF7AEFC25208DF800000020C9
:105C10008DF8010000208DF8020001208DF80300AE
:105C20006846FDF7A4FC01BD103700200038014094
:105C30000748E61A07002000833344440008014067
:105C4000B33488480408014000E40008100801400B
:105C5000383433FF000C0140040C0140100C0140AB
:105C600000023000003000087047FEE7FEE7FEE764
:105C7000FEE770477047704780B5FEF7EAF901BD4F
:105C8000704770477047704770477047704770475C
:105C9000704770477047704770477047704770474C
:105CA000704770477047704770477047704770473C
:105CB00070477047704770477047704780B5FDF771
:105CC000DDFA01BD80B5FEF706FB01BD70477047E8
:105CD00070477047704780B5FEF740FF01BD7047C1
:105CE000704770477047704780B5FFF7EBFEFDF7D0
:105CF000A6FBFEF7D5F9FDF713FA62B600F012F82D
:105D00001021074889B20161FEF71AFAFEF7C9FAB5
:105D1000FEF7BAFFFEF712FFFFF7B3F920BFF9E76E
:105D2000000C014080B545F25550FEF7FBFE032004
:105D3000FEF7FCFE40F27120FEF7FCFEFEF7FEFED1
:105D4000FEF701FF01BD19E050F8041BCB0744BF6B
:105D5000A9F101035918121F0023042A41F8043B3A
:105D6000F9D25FEA827C0B4604D54FF0000CA1F813
:105D700000C09B1CD10744BF0021197050F8042BB0
:105D8000002AE1D1704710B450F8041B79B10268C1
:105D9000436802440830DC0744BFA9F10104E3185A
:105DA00052F8044B43F8044B091FF9D1ECE710BC3F
:105DB0007047000010B5074979441831064C7C44FF
:105DC000163404E00A68081D114488470146A142C0
:105DD000F8D110BD08000000280000006BFFFFFF95
:105DE0008833000010040020000000009BFFFFFF2C
:105DF00010000000BC0000000000002000000000B7
:105E0000010002000300040008000A00190032002B
:105E10006400C800900158022003E803DC05D007A5
:105E200001000100020004000800100020004000F2
:105E300080000001000200020002000200020002D5
:105E40000120C046002801D0FFF7B4FF0020C04663
:105E5000C046FFF749FF00F000F800F001B800006D
:105E60000746384600F002F8FBE70000202109034E
:105E700026311820ABBEF9E7444B303437322C20A2
:105E80005630322E30302E3030000000444B30344B
:105E900037322C205630322E30302E303000000079
:105EA00000000000010203040102030406070809C0
:105EB000FFFFFFFFFFFFFFFF0002000001000000E7
:105EC000C046C046C046C046FFF7BAFF02040608F7
:0400000508005EC1D0
:00000001FF
